:020000040800F2
:10000000A02B0020C901000875330008752C0008DA
:10001000713300087103000835600008000000001B
:10002000000000000000000000000000253D000866
:10003000B103000800000000C93C0008F5400008BA
:10004000E3010008E3010008E3010008E301000800
:10005000E3010008E3010008B5030008DD03000820
:10006000F1030008050400081904000899030008BA
:10007000E3010008E3010008E3010008E3010008D0
:10008000E3010008E3010008E3010008E3010008C0
:10009000E55E0008E3010008E30100082D04000804
:1000A000E3010008E3010008E3010008E3010008A0
:1000B000FD400008C1420008CD420008E3010008ED
:1000C000E3010008E3010008E3010008E301000880
:1000D000E3010008E3010008E3010008E301000870
:1000E000C9030008E3010008E301000800F002F87A
:1000F00000F05AF80AA090E8000C82448344AAF168
:100100000107DA4501D100F04FF8AFF2090EBAE865
:100110000F0013F0010F18BFFB1A43F0010318473B
:10012000DC720000FC7200000A444FF0000C10F872
:10013000013B13F0070408BF10F8014B1D1108BF65
:1001400010F8015B641E05D010F8016B641E01F805
:10015000016BF9D113F0080F1EBF10F8014BAD1C55
:100160000C1B09D16D1E58BF01F801CBFAD505E073
:1001700014F8016B01F8016B6D1EF9D59142D6D3CD
:10018000704700000023002400250026103A28BFF5
:1001900078C1FBD8520728BF30C148BF0B607047F9
:1001A0001FB51FBD10B510BD00F0A8F81146FFF730
:1001B000F7FF07F013F800F0C6F803B4FFF7F2FFFB
:1001C00003BC00F0CDF8000009488047094800470B
:1001D000FEE7FEE7FEE7FEE7FEE7FEE7FEE7FEE7F7
:1001E000FEE7FEE704480549054A064B7047000054
:1001F000F9400008ED000008A0250020A02B0020F9
:10020000A0270020A0270020032A40F2308010F011
:10021000030C00F0158011F8013BBCF1020F6244A1
:1002200098BF11F801CB00F8013B38BF11F8013B32
:10023000A2F1040298BF00F801CB38BF00F8013BDF
:1002400011F0030300F02880083AC0F0088051F84C
:10025000043B083A51F804CBA0E80810F5E7121D5A
:100260005CBF51F8043B40F8043BAFF30080D20779
:1002700024BF11F8013B11F801CB48BF11F8012B45
:1002800024BF00F8013B00F801CB48BF00F8012B68
:10029000704770477047704710B5203AC0F00B8028
:1002A000B1E81850A0E81850B1E81850A0E818506C
:1002B000203ABFF4F5AF5FEA027C24BFB1E81850E2
:1002C000A0E8185044BF18C918C0BDE810405FEA44
:1002D000827C24BF51F8043B40F8043B08BF7047C0
:1002E000D20728BF31F8023B48BF11F8012B28BFC5
:1002F00020F8023B48BF00F8012B7047754600F01C
:100300002BF8AE4605006946534620F007008546A7
:1003100018B020B5FFF766FFBDE820404FF000069B
:100320004FF000074FF000084FF0000BAC46ACE870
:10033000C009ACE8C009ACE8C009ACE8C00921F0CC
:1003400007018D46704710B50446AFF30080204684
:10035000BDE81040FFF731BF0048704700030020A0
:1003600001491820ABBEFEE72600020070470000DE
:10037000FEE70000002070470020704780B541F67E
:100380004C70C2F20000D0F8B80218B103F0B6F811
:10039000002080BD022080BD0020C4F20200016860
:1003A000890758BF70470221416000F04BB8000038
:1003B0007047000040F21441C4F201010122012003
:1003C0000A6005F0DFBE000040F21441C4F20101F2
:1003D000086800F47C40086005F0D4BE40F2144187
:1003E000C4F20101022202200A6005F0CBBE000027
:1003F00040F21441C4F20101042204200A6005F015
:10040000C1BE000040F21441C4F2010108220820DC
:100410000A6005F0B7BE000040F21441C4F20101C9
:10042000102210200A6005F0ADBE000040F2144119
:10043000C4F20101086800F47870086005F0A2BEFB
:10044000FEE7000040F2D450C2F2000090F82A15F6
:1004500090F82B2591420FD290F8291590F82B2572
:100460000131B1FBF2F303FB121180F8291590F86A
:100470002A15013180F82A1540F69030C2F20000AA
:10048000007E08B1704700BF40F2D030C2F20000D9
:10049000417E0029F6D1017E002918BF7047012155
:1004A000417600218176704710B50824C4F2020419
:1004B000236823F001032360012344F8043CA06077
:1004C00044F2CA00E160626020600B200221002239
:1004D00000F05CFC0B2000F045FC206840F00100BF
:1004E000206010BD70B542F20C060446C4F202064C
:1004F00000F08AFB3168C90718D13068800644BF14
:10050000202030603068C00607D43069C00704D1AD
:10051000306840075CBF002070BD3068C00623D43F
:100520000020316849072BD434E000BF002C47D0AD
:100530000546601C0ED13068C007DED03068C007A9
:100540001CBF30685FEAC070D7D03068C007F2D1F6
:10055000D3E700BF00F058FB401BA04230D8306802
:10056000C007F7D1C9E700BF42F27850C2F20000DD
:10057000C16941F00201C16110203168490709D504
:1005800042F27851C2F20001CA6940F0040042F020
:100590000102CA613169C90702D13060012070BD12
:1005A00042F27851C2F20001CA6942F00402CA6103
:1005B000316921F0010131613060012070BD00BF5F
:1005C000032070BD40F2D450C2F2000000211E2270
:1005D00080F8281580F8291580F82A1580F82B2531
:1005E0000022C0F82C15A0F83015A0F8321500BF75
:1005F000831881542C32B2F5A56F59709970D97057
:10060000197159719971D971197259729972D97296
:10061000197359739973D973197459749974D97476
:10062000197559759975D975197659769976D97656
:10063000197759779977D97783F8201083F82110A3
:1006400083F8221083F8231083F8241083F82510F0
:1006500083F8261083F8271083F8281083F82910D0
:1006600083F82A1083F82B10C2D1704740F24C4116
:10067000C2F2000191F84620002A04BF0020704712
:1006800091F8452001EB8203013281F84520DA69B7
:10069000026091F845000A2824BF002081F8450037
:1006A00091F84600013881F84600012070470000AB
:1006B00080B541F20C00C4F202004FF0FF3100227D
:1006C000416042600160026000F0FCFA002080BDE1
:1006D000B0B5044600F098FA054640F20000C2F2B8
:1006E00000000078611C18BF044400BF00F08CFAC1
:1006F000401BA042FAD3B0BD2DE9F04381B042F2D5
:100700007856C2F20006327E012A03D1022001B0DF
:10071000BDE8F083054601202C6830764CF250305D
:100720008846FFF7DFFE022C1CD100284ED10020A6
:1007300042F21004F061C4F20204206840F00400A8
:100740002060206840F0400020604CF25030FFF7FD
:10075000C9FE216821F0040121600021317601B039
:10076000BDE8F08390BB4FF0FF30C8F80000D5E93A
:10077000027007EB8020874228D242F21004C4F2B4
:1007800002044FF0000900BFC6F81C90206840F03A
:10079000020020606760206840F0400020604CF25A
:1007A0005030FFF79FFE216821F00201216098B9C7
:1007B000D5E9020107F5806700EB81208742E3D38A
:1007C00000200021317601B0BDE8F0830120002136
:1007D000317601B0BDE8F083C8F8007000213176B1
:1007E00001B0BDE8F083000042F21001C4F2020142
:1007F000086840F0800200200A6070472DE9F04F41
:1008000081B042F27859C2F20009924699F8182054
:10081000012A03D1022001B0BDE8F08F80460120FB
:1008200089F818004CF250309B460E46FFF75AFEEE
:10083000A0BB404642F21007B8F1020F18BF0420D7
:10084000C4F20207B8F1010F08BF404645424FF01D
:1008500000080024C4F12001C9F81C802AFA04F021
:100860000BFA01F13A680843B4F1200158BF2BFAA2
:1008700001F042F00101396026F8020B4CF25030D1
:10088000FFF730FE3968013521F0010248F100011F
:100890003A6018B9002904F11004DBD0002189F86E
:1008A000181001B0BDE8F08F42F20400C4F202005B
:1008B000C16809065CBF0020704740F22311C4F2F2
:1008C0006751016048F6AB11CCF6EF510160C0688A
:1008D000C0B2C009704700002DE9F04F81B0002977
:1008E00000F0808040F2004E41F20042C4F2010E5E
:1008F000C4F2010290424FF004024FF000046FF086
:100900001F05AEF57E774FF00F0808BF0322009257
:1009100019E000BF0246BBF5807F24BFAA4604321F
:10092000136808FA0AF6B343042606FA0AF63343B4
:100930001360C26802EA0C02C260013431FA04F2A8
:1009400005F104054ED00122A24012EA010BF4D0B9
:1009500024F00302BE5840F60002C4F201029042A5
:1009600010D040F60042C4F20102904208D041F299
:100970000002C4F201029042009A08BF022202E083
:10098000012200E0002205F1200A0AF00C0308FA17
:1009900003F906EA09069A4096426FEA0B0CB9D1B0
:1009A000DEF8002040F20C4302EA0C02CEF80020F0
:1009B000DEF80420C4F2010302EA0C02CEF804209F
:1009C0001A6802EA0C021A60DEF80820A30802EA9C
:1009D0000C02CEF8082057F8232022EA090247F833
:1009E000232097E701B0BDE8F08F00002DE9F04F1C
:1009F00082B00E68002E00F0038141F20042C4F282
:100A00000102042340F2004E904208BF03234FF638
:100A1000FF7CC4F2010E009300240123C1F2100CEC
:100A20004FF0000A4FF0000949E000BF012704F031
:100A30000C030F229A402BEA020207FA03F34FEA53
:100A40009A051A4346F82520D1F804B040F20C4527
:100A50005FEACB22DEF8082054BF22EA080242EA0D
:100A60000802C4F20105CEF808202A685FEA8B2349
:100A700054BF22EA080242EA08022A605FEA8B3386
:100A8000DEF8042054BF22EA080242EA08025FEAC4
:100A9000CB33CEF80420DEF800204FF0010354BF22
:100AA00022EA080242EA0802CEF800200E680AF1A3
:100AB000010A36FA0AF204F1040400F0A18003FAF4
:100AC0000AF816EA080FF1D04E68664512DC122EBD
:100AD00056D8DFE806F0350B45495555555555555F
:100AE000555555555555554D510000BFD1F80C90F1
:100AF00046E000BF4FF6FF72C1F2210296420FDCC2
:100B00000022C1F2110296421AD00022C1F2120252
:100B1000964215D00022C1F22102964210D02FE059
:100B20000022C1F2220296420AD00022C1F2310212
:100B3000964205D00022C1F23202964220D100BF77
:100B40008A684AB1012A14BFC0F81480C0F8108026
:100B50004FF0080914E000BF4FF0040910E000BF97
:100B6000CA6802F108090BE04FF0000908E000BF75
:100B7000CA6802F1040903E0CA6802F10C0900BF67
:100B800022460646BAF1080F24BF203A04363768D9
:100B90000F25954027EA050509FA02F22A4332603B
:100BA000CA79D2067FF582AF41F21803C4F202037C
:100BB0001A68AEF57E7642F001021A601A6802F0F9
:100BC00001020192019A2AF0030256F802B040F69F
:100BD0000002C4F20102904210D040F60042C4F27A
:100BE000010290423FF422AF41F20002C4F201023E
:100BF000009F904208BF022719E700BF002716E7B1
:100C000002B0BDE8F08F000042F29850C2F200003E
:100C1000006870474FF2E870C1F6FF7000687047D7
:100C20004FF2EC70C1F6FF70006870474FF2F07041
:100C3000C1F6FF700068704740F2000042F2985120
:100C4000C2F20000C2F2000100780A681044086095
:100C50007047000080B542F20000C4F20200016853
:100C600041F010010160032000F0BCF80F2000F0FB
:100C700005F800F029F8002080BD000070B540F2B2
:100C80000006C2F2000640F254013278C2F20001BE
:100C90004FF47A730968B3FBF2F20446B1FBF2F148
:100CA000084601F093FB0F2C4FF0010508D838B926
:100CB0004FF0FF3021460022002500F067F87460F5
:100CC000284670BD7047000082B041F21800C4F29F
:100CD00002000168022241F001010160016801F097
:100CE000010101910199416841F0805141604068E2
:100CF00000F08050009000980420C4F201000168C8
:100D000062F31A61016002B070470000002848BF1A
:100D10007047C1B200F01F00012202FA00F04EF24B
:100D20008022CEF2000242EAD10121F003010860E4
:100D300070470000002848BF7047C1B200F01F0094
:100D4000012202FA00F04EF28012CEF2000242EAD4
:100D5000D10121F003010860BFF34F8FBFF36F8F04
:100D600070470000002848BF7047C1B200F01F0064
:100D7000012202FA00F04EF20012CEF2000242EA24
:100D8000D10121F0030108607047000010B54EF654
:100D90000C5CCEF2000CDCF80030C3F3022E8EF0B7
:100DA0000704042C28BF0424BEF103034FF0FF3EC8
:100DB0000EFA04F438BF0023A14399400EFA03F35E
:100DC0009A43114300F00F0200F160430901043A15
:100DD00003F564436244002848BF02F10C03197014
:100DE00010BD00004EF60C51CEF200010A684FF61D
:100DF000FF031A4060F30A2242F0806040F0FD7069
:100E00000860704706F0B0F980B501F0070C0CEBF4
:100E10008C0C00EBCC0C01EB810E0CF1100C00EBF8
:100E2000CE00090658BF00F5A87C0020002A19BF93
:100E3000CCF808300121ACF8063000218CF80C10F9
:100E400080BD00007047000001EB8102D0F8D43271
:100E500000EBC200426A184603F0ACBD01EB810210
:100E6000D0F8D43200EBC200D0F86421184603F069
:100E700007BE000010B5044648B2B0F1FF3F01F0D4
:100E8000070000EB800104EBC10205DD02F5A8714B
:100E9000002382F8513103E0012302F11001537461
:100EA00094F890220870012A04BF022010BD206827
:100EB000012284F8902204F003FB002084F89002C1
:100EC00010BD0000B0B50446007901F00F02824267
:100ED00084BF0120B0BD48B2B0F1FF3F01F0070070
:100EE00000EB800104EBC10206DD02F5A8710023CE
:100EF00082F8513104E000BF012302F11001537464
:100F000094F890220025012A8D70087004BF0220F9
:100F1000B0BD2068012284F8902204F061FB2846CD
:100F200084F89052B0BD000070B5064648B2B0F1EA
:100F3000FF3F01F0070000EB800107DD06EBC10475
:100F400004F5A871002584F8515106E006EBC10CA8
:100F500001240CF110018CF8114008700A61022B79
:100F6000CB7004BF0020087196F89002012804BFDE
:100F7000022070BD3068012286F8902204F078F9D2
:100F8000002086F8900270BD10B501F0070C0CEB44
:100F90008C0100EBC10E00680EF5A8710024CEF89C
:100FA0006421CEF86831CEF86C418EF851418EF84C
:100FB00050C104F06DFB002010BD0000B0B5044628
:100FC000007901F00705854284BF0120B0BD48B219
:100FD000B0F1FF3F0ADD01EB810004EBC00000F53A
:100FE000A871002280F8512108E000BF05EB8500C0
:100FF00004EBC000012200F11001427494F8900249
:10100000012201288A700D7004BF0220B0BD206843
:1010100084F8902204F022FB25B1002084F890028D
:10102000B0BD00BF206804F5267104F0D7FA002097
:1010300084F89002B0BD000080B501F0070C0CEB05
:101040008C0100EBC10101F810CF00684FF0010CDA
:1010500001F1140781F824C04FF0000E87E80C401E
:101060000B6281F801C004F013FB002080BD00007A
:101070002DE9F04F81B00446006804F039FF010407
:101080001ED4410500F10484410400F1138481045D
:1010900000F12884C10400F12F84010500F1468489
:1010A000810500F19584C00540F100842068B0F806
:1010B000441021F48071A0F8441000F0F7BB00BF89
:1010C0002068B0F94410B1F1FF3F00F3EF8304F55D
:1010D000267140F60F75009123E000BFB0F8501064
:1010E00094F8502101EBC20100EB4101B1F80C343E
:1010F000B4F8562100996FF39F23C4F86C3104F0C3
:10110000FBFE20680188294080310180204600F0E4
:10111000E1FD00BF2068B0F94410B1F1FF3F00F3DA
:10112000C583B0F8442012F00F090DD030F9291012
:101130004FEA490AB1F1FF3F1FFA81F82EDD5FEA5D
:101140000860E7D55EE100BF0188D20668D4294077
:1011500001F500410180B0F85010227C01EBC20182
:1011600000EB4100B0F80404616A6FF39F20E06275
:101170000844606220460021FFF766FE607B00287D
:10118000C8D0A06A0028C5D1607B216840F08000EB
:10119000C0B2A1F84C0000206073BBE730F81A1011
:1011A0002940803120F81A1009EB890104EBC10BAA
:1011B0009BF85C110BF5A876002900F083809BF862
:1011C0005311022940F09080B0F850203178DBF8BC
:1011D000683102EBC1070BF5B4725FEA484500EBDA
:1011E000470700F19B80B7F80C7400256FF39F2729
:1011F000DB1B38BF2B46136040F2A8805FEA4862D1
:1012000040F60F7500F1B48030F8212048F2C00399
:101210002A401A4320F82120002F40F0AA80CFE076
:101220000A053FF55BAF09B2B1F1FF3F3FF772AF7F
:101230000188294080310180B0F8501094F8502185
:1012400001EBC20100EB4101B1F80C346FF39F23B5
:10125000C4F86C3193B1D4F8641179B1B4F8562163
:1012600004F04AFED4F86401D4F86C110844C4F8C0
:10127000640120460021FFF7F1FD206801880A057E
:101280003FF548AF01F44051B1F5405F3FF442AF44
:10129000B0F8501000F20C42535A6FF39F23535290
:1012A000D4F860313F2BC0F0118231F802C05F09E1
:1012B000DE064FF0FF3608BF06EB53174CEA8723D4
:1012C0008BE200BFB0F85010327801EBC20100EBA6
:1012D0004101B1F80C746FF39F27002F70D0DBF839
:1012E0006411BBF8562167E0317848F2C00330F84A
:1012F00021202A401A4320F8212030F82120B0F87C
:101300005030520403EBC10100EB410118D4B1F895
:101310000C746FF39F2767BB52E000BFB7F80474EB
:1013200000256FF39F27DB1B38BF2B46136025D9A1
:101330005FEA486240F60F7531D4CFBB40E000BF92
:10134000B1F804746FF39F2797BB39E030F8212080
:1013500043F60F731A404CF28003A3F500535A4032
:1013600020F821205FEA486240F60F757FF54CAF08
:1013700037B3DBF86411BBF85A211DE030F82120A7
:1013800043F60F731A404CF28003A3F500535A4002
:1013900020F821205FEA486240F60F75CDD530F87D
:1013A000212048F2C0032A401A4320F821203FB1EF
:1013B000DBF86411BBF858213B4604F09DFD00E0CA
:1013C0000027DBF86C11DBE9590239443844CBF8CB
:1013D0006C11CBF864011AB1DBF86001B84209D98D
:1013E00031782046FFF73AFD5FEA08607FF592AE5C
:1013F00008E000BF2068314604F04AF95FEA08605F
:101400007FF588AE206809EB890130F81A2004EBDB
:10141000C10302EA050101F5004120F81A10D97C48
:1014200003F1100B012923D1197F00294FF000018E
:10143000996200F045815FEA486100F18F80597C34
:10144000012900F02781002940F03A81B0F85010BE
:101450009BF80020084400EB0210B0F80C146FF366
:101460009F21A0F80C14B0F80C1441F4004119E1CC
:101470005FEAC8511ED4B0F850209BF800109F6A54
:1014800002EBC10200EB4202B2F8042400266FF323
:101490009F22BF1A38BF37469F6240F21381596AB4
:1014A000DF6A11445962B918D962594604F0F0F85C
:1014B00030E600BFB0F850709BF800101A4652F8A2
:1014C000285F40F60F7A5FEA486607EBC1075FD4F2
:1014D00000F20C4939F817706FF39F27EE1B4FF09D
:1014E000000538BF2E46166040F28E805FEA484203
:1014F00008D430F821204CF2800602EA0A02324376
:1015000020F821201D4615F8342F012A40F0AE8125
:101510001A4652F8308F52E904E652F804AC06EB52
:10152000070C0AEB0706F04542F80CCC42F8046CB5
:1015300080F00E81B8F1000F00F068810027C646E8
:1015400017602F705A7C012A40F00981B0F85020B2
:1015500009EB011121F802E07CE100BF597C01296F
:1015600000F0A480002940F0AB80B0F850109BF848
:101570000020084400EB0210B0F804146FF39F2120
:10158000A0F80414B0F8041441F4004196E000BF40
:1015900000F2044939F817706FF39F27EE1B4FF0E4
:1015A000000538BF2E46166050D95FEA484208D57C
:1015B00030F821204CF2800602EA0A02324320F879
:1015C00021201A4612F8346F012E40F04F811D463B
:1015D00055F830EF55E904A655F8048C06EB070CD6
:1015E00008EB0706D64545F80CCC45F8046C80F0AE
:1015F000D1804FF00008BEF1000F82F8008040F06B
:10160000CC80BE46CBE000BF5A7C012A6AD0002ABB
:1016100075D1B0F8502000EB01131A44B2F804342D
:101620006FF39F23A2F80434B2F8043443F4004368
:10163000A2F80434B0F8500009EB0112135A6FF30A
:101640009F231352135A43F4004357E05A7C012A54
:101650005CD0002A67D1B0F8502009EB01139F5AE3
:101660006FF39F279F529F5A47F400479F52B0F84D
:10167000502000EB01101044B0F80C246FF39F22AF
:10168000A0F80C24B0F80C2442F40042A0F80C247A
:1016900049E000BFB0F850109BF80020084400EB70
:1016A00002100021A0F80C140AE000BFB0F850109E
:1016B0009BF80020084400EB02100021A0F804145D
:1016C0009BF800102046FFF7BFFB23E5002B00F03E
:1016D000838003F001078E5A07EB530346EA832306
:1016E00080E000BFB0F8502000EB01131A44002343
:1016F000A2F80434B0F8500009EB0112135220464E
:10170000FFF7A2FB5FEA484014D5AFE0B0F85020E5
:1017100009EB011300279F52B0F8502000EB011095
:101720001044A0F80C742046FFF78EFB5FEA484097
:1017300040F19C8020689BF800104CF2800330F848
:10174000212002EA0A021A4320F821208EE000BF7D
:10175000A8EB0E0515605A7C012A3FF4F7AE002A6B
:1017600078D1B0F8507009EB0111CA5BBEF13F0FA0
:101770006FF39F22CA5351D35FEACE654FEA5E12E0
:101780007D5A4FF0FF3608BF06EB5E1245EA822213
:101790005DE000BFAEEB0A08D646C5F800805A7C73
:1017A000012A2BD0002A5BD1B0F8507009EB01114F
:1017B000CA5BBEF13F0F6FF39F22CA533AD35FEA71
:1017C000CE654FEA5E127D5A4FF0FF3608BF06EB3A
:1017D0005E1245EA822240E08B5A48F20007CFF6BB
:1017E000FF773B438B52018843F60F7211404CF256
:1017F0008002A2F58052514001808BE4B0F8502065
:1018000009EB011121F802E02AE000BF00222A7052
:10181000BE465A7C012AA2D198E600BFBEF1000F55
:1018200014D00EF001027D5A02EB5E0245EA8222DC
:101830000FE000BFBEF1000F0ED00EF001027D5A86
:1018400002EB5E0245EA822209E000BF7A5A42F4C6
:1018500000427A525A8B04E07A5A42F400427A5299
:101860001A8B1FFA8EF3614604F0A0FB20689BF8E8
:10187000001040F63F7330F8212040F60F751A40F3
:1018800048F2C003103B5A4020F82120FFF742BC29
:101890002068B0F8441021F48061A0F8441020467C
:1018A00000F0EAF994F8900201280DD101B0BDE8EA
:1018B000F08F00BF2068B0F8441021F48041A0F8F8
:1018C000441001B0BDE8F08F0120002584F890029B
:1018D00065732068002104F061FB84F8905201B028
:1018E000BDE8F08F2068B0F8441021F40051A0F852
:1018F000441001B0BDE8F08F2068B0F8401021F02E
:101900000401A0F84010B0F8401021F00801A0F840
:101910004010204600F0C2F92068B0F8441021F4CD
:101920008051A0F8441001B0BDE8F08F2168B1F8F3
:1019300000C0B1F804E0B1F808808F890E8A8D8A62
:10194000088B8A8BB1F8403043F00103A1F8403096
:10195000B1F8403023F00103A1F84030B1F8443031
:101960005B050CD4B1F844305B055CBFB1F8443082
:101970005FEA435303D4B1F844305B05EED5B1F8C8
:10198000443023F48063A1F84430A1F800C0A1F8EA
:1019900004E0A1F808808F810E828D8208838A83FB
:1019A000B1F8400040F00800A1F84000B1F8440050
:1019B00020F40060A1F84400B1F8400040F00402B7
:1019C0002046A1F8402001B0BDE8F04F00F0A4B9D6
:1019D0002168B1F8440020F400722046A1F84420A8
:1019E00001B0BDE8F04F00F05DB90000F0B581B086
:1019F000002800F00C81044690F8910228B90020DC
:101A000084F89002204600F013F9032084F8910234
:101A100020680021617103F0D7FD94E80700237B63
:101A200003F04CFD002840F0EF802068002104F016
:101A3000B3FA002840F0E8802179002900F0DE8028
:101A4000A1F1010E01F0030CBEF1030F4FF00002F3
:101A500035D301F0FC0504F1A0000126002300BFEE
:101A60005F1C00F8687C9F1C00F8903C00F8407CEC
:101A7000DF1C043300F88F6C00F88D2C40E9202225
:101A800040F8782C00F8676C00F8652C40E91622C5
:101A900040F8502C00F83F6C00F83D2C40E90C2237
:101AA00040F8282C00F8176C00F8187C00F8152C6A
:101AB00040E9022240F8A02BAB42D1D11A46BCF13A
:101AC000000F29D002EB820004EBC00501230020A7
:101AD000BCF1010F6B742A74E874C5E90800A862B0
:101AE0001AD0551C05EB850604EBC606BCF1020FA7
:101AF00073743574F074C6E90800B0620CD0901CA1
:101B000000EB800204EBC202012310740020537426
:101B1000D074C2E90800906200296FD0BEF1030FB3
:101B20004FF0000233D301F0FC0104F5F070002304
:101B30005F1C00F8687C9F1C00F8903C00F8407C1B
:101B4000DF1C043300F88F2C00F88D2C40E9202294
:101B500040F8782C00F8672C00F8652C40E9162234
:101B600040F8502C00F83F2C00F83D2C40E90C22A6
:101B700040F8282C00F8172C00F8187C00F8152CD9
:101B800040E9022240F8A02B8B42D1D11A46BCF189
:101B9000000F33D002EB820004EBC0010020BCF147
:101BA000010F81F8510181F8502181F85301C1E9F9
:101BB0005800C1F8680121D0511C01EB810304EBEE
:101BC000C303BCF1020F83F8510183F8501183F86D
:101BD0005301C3E95800C3F868010FD0901C00EB13
:101BE000800104EBC101002281F8512181F85001EC
:101BF00081F85321C1E95822C1F8682194E807000F
:101C0000237B03F0D3FC38B1022084F89102012534
:101C1000284601B0F0BD00BF00250120657384F89F
:101C20009102206803F0C0FC284601B0F0BD00001E
:101C300080B582B0006845F60041C4F200018842D8
:101C40001CBF02B080BD41F21C00C4F2020001685A
:101C5000002241F4000101600068042100F400004A
:101C6000019001981420FFF791F8142002B0BDE80C
:101C70008040FFF777B8000010B50446807902284D
:101C800018BFFEF7DDFBD4F8D402012102F0F2FF09
:101C9000D4F8D402BDE8104002F0AABFD0F8D402B4
:101CA00002F0D0BFD0F8D40202F0D6BF10B504467F
:101CB00090F89002012804BF022010BD012084F892
:101CC00090026173206804F069F9002084F89002A2
:101CD00010BD0000D0F8D42200F52671104602F0A5
:101CE000DFBF000010B5044690F89002012804BF41
:101CF000022010BD2068012184F8901204F0E8F859
:101D000020460121FFF79EF8206803F04BFC0020DD
:101D100084F8900210BD000010B50446D0F8D4023B
:101D200003F014F8A07A002808BF10BD4EF610503A
:101D3000CEF20000016841F00601016010BD000014
:101D40002020C4F20E200121016070472DE9F041EE
:101D500082B00446007841F21C06C007C4F20206B5
:101D60004AD0306810F0805808D1306840F0805078
:101D70003060306800F080500190019847F2000711
:101D8000C4F200073868C00512D4386840F4807087
:101D90003860FEF739FF05463868C00508D4FEF7FD
:101DA00033FF401B6428F7D9032002B0BDE8F0815F
:101DB000706810F4407012D0616801F4407188427C
:101DC0000DD0706840F24042C4F24222012320F458
:101DD000407113600023C007136071602AD17068DE
:101DE000616820F440700843B8F1000F706003D1BF
:101DF000306820F0805030602068810707D556F8A1
:101E0000181CA26821F44041114346F8181CC00672
:101E100004D4002002B0BDE8F08100BF56F8180CD1
:101E2000E16820F48000084346F8180C002002B056
:101E3000BDE8F081FEF7E8FE054641F2883700BFB5
:101E400070688007CBD4FEF7DFFE401BB8424FF02E
:101E50000300F5D9EBE700002DE9F04381B000283D
:101E600000F0858042F20008C4F202080446D8F867
:101E700000000D4600F0070088420CD2D8F80000A0
:101E800020F007002843C8F80000D8F8000000F050
:101E90000700A8426BD1206841F204098107C4F20F
:101EA000020917D5410705D5D9F8001041F4E061C2
:101EB000C9F80010010705D5D9F8001041F46051A8
:101EC000C9F80010D9F80010A26821F0F001114300
:101ED000C9F80010C00741D1D8F8000000F0070091
:101EE000A8420CD9D8F8000020F007002843C8F811
:101EF0000000D8F8000000F00700A84237D12068A1
:101F0000410707D5D9F80010E26821F4E0611143D8
:101F1000C9F80010000708D5D9F80000216920F49D
:101F2000605040EAC100C9F80000D9F8002002F072
:101F30000C00082841F20020C0F27A0050D147F28C
:101F4000DC33C2F38341C0F60003595CD2033BD4B7
:101F500040F60010C0F23D00484341E060680228AE
:101F60000AD001282AD159F8041C890308D4012079
:101F700001B0BDE8F08300BF59F8041C8901F6D513
:101F8000D9F8001021F003010843C9F80000FEF75A
:101F90003BFE064641F28837D9F80000616800F040
:101FA0000C00B0EB810F97D0FEF72EFE801BB842DD
:101FB000F2D9032001B0BDE8F08300BF59F8041C3A
:101FC0008907D4D5DCE700BFD9F8002047F2DA331F
:101FD000C2F34042C0F600039A5C4843B0FBF2F003
:101FE000D9F8001047F2CA32C1F30311C0F600025B
:101FF000515C40F2540220FA01F140F20400C2F2B6
:1020000000000068C2F200021160FEF737FE0020F7
:1020100001B0BDE8F08300002DE9F04182B0002856
:1020200068D00446007841F20006C007C4F20206F8
:1020300025D0706800F00C0004281BD0706800F0F8
:102040000C00082802D17068C00313D4606800280F
:1020500000F06881B0F5A02F00F07C81B0F5803FE2
:1020600000F07C81306820F480303060306820F4EB
:10207000802076E13068800301D56068D0B3207895
:10208000800718D5706810F00C0F07D0706800F04A
:102090000C0008286ED17068C0036BD430688007CC
:1020A00002D52069012825D13068616920F0F80047
:1020B00040EAC1003060207800071FD42078400734
:1020C00032D4E56995B1706800F00C00082840F042
:1020D0008F80012D0ED07068216A00F480328A4210
:1020E00008D1616A00F47010884203D1002002B068
:1020F000BDE8F081012002B0BDE8F081A0690028B0
:1021000062D00020C4F242200121C0F88014FEF702
:102110007BFD0546706A800700F18C80FEF774FD38
:10212000401B0228F6D92AE1F06910F0805808D146
:10213000F06940F08050F061F06900F0805000904C
:10214000009847F20007C4F200073868C00529D498
:10215000386840F480703860FEF756FD054600BFD1
:102160003868C0051ED4FEF74FFD401B6428F7D920
:1021700005E100BF2069002840F20000C4F24220BF
:1021800000F0828001210160FEF73EFD054600BFA0
:10219000306880073FF588AFFEF736FD401B022808
:1021A000F6D9ECE0E068002800F08080052800F017
:1021B0009780012800F09880306A20F0010030629A
:1021C000306A20F0040092E00020C4F24220002196
:1021D000C0F88014FEF718FD054600BF706A80073E
:1021E0007FF56CAFFEF710FD401B0228F6D9C6E064
:1021F0000027C4F2422700203866FEF705FD022DB5
:1022000005460BD13068800140F1BE80FEF7FCFC32
:10221000401B02284FF00300F4D968E730688001C2
:102220007FF564AFFEF7F0FC401B02284FF003007F
:10223000F4D95CE740F25400C2F20000006844F6B2
:10224000D351C1F26201A0FB0101480A019000BF15
:1022500000BF0198411E002801913FF42FAF00BF3D
:102260000198411E002801913FF428AF00BF01985A
:10227000411E002801913FF421AF00BF0198411E8B
:1022800000280191E4D119E700210160FEF7BCFCB0
:10229000054600BF306880077FF50DAFFEF7B4FC40
:1022A000401B02284FF00300F4D920E7306A20F0E9
:1022B00001003062306A20F004003062FEF7A4FCB6
:1022C000054641F2883700BF306A800720D5FEF707
:1022D0009BFC401BB8424FF00300F5D907E700BF55
:1022E000306A40F004003062306A40F00100306231
:1022F000FEF78AFC054641F2883700BF306A800746
:1023000006D4FEF781FC401BB842F7D937E000BF86
:10231000B8F1000F7FF4D5AEF06920F08050F06185
:10232000CFE600BF306820F480303060306820F4A1
:1023300080203060FEF768FC054600BF30688003EF
:102340007FF59DAEFEF760FC401B64284FF0030054
:10235000F4D9CCE6306840F480203060306840F436
:1023600080303060FEF750FC054600BF30688003C7
:102370003FF585AEFEF748FC401B6428F6D90320E4
:1023800002B0BDE8F08100BF206AB0F5803F05D102
:102390007168A26821F40031114371607168626A4A
:1023A00021F4741111430843706001203866FEF770
:1023B0002BFC0446306880013FF598AEFEF724FC04
:1023C000001B02284FF00300F4D990E6411E0020C4
:1023D000B0EB116F1CBF012070474EF21002CEF21D
:1023E000000251604EF62351CEF20001F0230B7033
:1023F000072190601160704770470000704700002F
:1024000010B590F83C20012A4FF0020233D080F83A
:102410003D200268D2F804E0D2F808C00C682EF023
:102420007003234340F2FF74C4F20004A2425360DD
:102430000ADCB2F1804F13D040F20043C4F2000333
:102440009A420DD011E000BF42F60043C4F20103EE
:102450009A4205D040F60003C4F200039A4204D128
:1024600049682CF08003194391600121002280F813
:102470003D1080F83C20104610BD0000002804BF2D
:102480000120704710B5044690F83D0028B900209F
:1024900084F83C00204600F06FF8022084F83D00EC
:1024A000206840F2FF730268C4F2000342F6004C59
:1024B0009842C4F2010C15DCB0F1804F1AD040F202
:1024C0000041C4F20001884214D0984218DCB0F1F7
:1024D000804F1DD040F20041C4F20001884217D065
:1024E0001AE000BF604505D040F60001C4F20001CB
:1024F0008842EAD1A16822F070020A439842E6DDE0
:10250000604505D040F60001C4F20001884203D1C5
:10251000216922F440720A43A36922F08001D4F8B1
:1025200004E0E268194360450160C262C0F828E037
:1025300002D16169CCF83010012141610269D207F2
:1025400003D0026922F001020261002084F84610E3
:1025500084F83E1084F83F1084F8401084F841104D
:1025600084F8421084F8431084F8441084F845102D
:1025700084F83D1010BD000010B582B0006840F630
:102580000001C4F20001884218D040F20041C4F2B8
:10259000000188422CD141F21C00C4F20200016803
:1025A000002241F0020101600068012100F00200F8
:1025B000019001981D201D2411E000BF41F21C0074
:1025C000C4F202000168002241F0040101600068C9
:1025D000052100F00400009000981E201E24FEF744
:1025E000D5FB204602B0BDE81040FEF7BBBB00BFE4
:1025F00002B010BD90F83D1001291CBF01207047AA
:10260000022180F83D10006840F2FF72C168C4F2F8
:102610000002904241F00101C16009DCB0F1804F3D
:1026200012D040F20041C4F2000188420CD012E006
:1026300042F60041C4F20101884205D040F6000193
:10264000C4F20001884206D1816801F00701062921
:1026500004BF00207047016841F0010101600020C3
:10266000704700000146006841F21113C26822F071
:102670000102C260026A1A4204D00122002081F8DD
:102680003D207047026A40F244431A42F5D1026885
:1026900022F0010202600122002081F83D207047F3
:1026A00080B590F83C20012A4FF0020200F0C28071
:1026B00080F83D20D0F800C04FF67772DCF8083083
:1026C00023EA0202CCF808200B684F2B28DC1F2BD2
:1026D00044DD202B45D0302B43D0402B40F0AC8044
:1026E000D1F804E0C968DCF82030DCF8202022F0C2
:1026F0000102CCF82020DCF8182022F0F00242EA97
:10270000011123F00A0242EA0E02CCF81810CCF8AC
:102710002020DCF8081041F0470121F0300180E072
:102720006F2B27DDB3F5005F48D0B3F5805F7AD01B
:10273000702B40F08180D1E901E3C968DCF8082002
:1027400043EA0E0322F47F4243EA01211143CCF80D
:102750000810DCF8081041F0770162E00BB1102B93
:102760006AD1DCF8081021F07001194341F007012B
:1027700057E000BF502B35D0602B5DD1D1F804E07D
:10278000C968DCF82030DCF8202022F01002CCF8F8
:102790002020DCF8182022F4704242EA013123F0B4
:1027A000A00242EA0E12CCF81810CCF82020DCF877
:1027B000081041F0670121F0100132E0D1E901E396
:1027C000C968DCF8082043EA0E0322F47F4243EA9A
:1027D00001211143CCF80810DCF8081041F48041C5
:1027E0001FE000BFD1F804E0C968DCF82030DCF855
:1027F000202022F00102CCF82020DCF8182022F062
:10280000F00242EA011123F00A0242EA0E02CCF879
:102810001810CCF82020DCF8081041F0570121F006
:102820002001CCF808100022012180F83D10002181
:1028300080F83C10104680BD0122F5E7704700008B
:1028400070B504460068C5680669B10716D515F06D
:10285000020113D06FF0020101610121217780692B
:10286000800703D02046FFF7E9FF05E0204600F08F
:1028700061F9204600F0DCF900202077700719D5B7
:1028800015F0040016D020686FF0040101610221E8
:102890002177806910F4407F04D02046FFF7CEFFF7
:1028A00006E000BF204600F045F9204600F0C0F9E0
:1028B00000202077300717D515F0080014D02068C5
:1028C0006FF00801016104212177C069800703D0FE
:1028D0002046FFF7B3FF05E0204600F02BF9204625
:1028E00000F0A6F900202077F00619D515F01000A9
:1028F00016D020686FF01001016108212177C069AE
:1029000010F4407F04D02046FFF798FF06E000BF98
:10291000204600F00FF9204600F08AF900202077C9
:10292000F00718BF15F0010002D1300609D412E0FB
:1029300020686FF001010161204600F07BF930064C
:1029400009D515F0800006D020686FF08001016184
:102950002046FFF751FD700609D515F0400006D05E
:1029600020686FF040010161204600F081F9B00657
:1029700058BF70BD15F0200008D021686FF020020C
:1029800020460A61BDE87040FFF738BD70BD000009
:102990002DE9F04190F83C30012B04BF0220BDE846
:1029A000F0814FEAB202032A30D8DFE802F00337A1
:1029B000679700BF026842F60045146A136AC4F2C2
:1029C000010523F0010313625368D2F818C0AA422C
:1029D0008D68D1F800E024F0020444EA05040BD12C
:1029E000CD68D1E9056723F4407324F00C0425F089
:1029F000040533432C433B432CF0730747EA0E078F
:102A0000536097614968516314628BE00121002291
:102A100080F83C200846BDE8F08100BF026842F61D
:102A20000045146A136AC4F2010523F0100313620F
:102A30005368D2F818C0AA428D68D1F800E024F09B
:102A4000200444EA05140FD1CD68D1E905876FF061
:102A5000400624F0C00406EA05152C4323F4406325
:102A600048EA070543EA85032CF4E64747EA0E27C0
:102A70005360976149689163146253E0026842F6BB
:102A80000045146A136AC4F2010523F480731362CB
:102A90005368D2F81CC0AA428D68D1F800E024F433
:102AA000007444EA05240FD1CD68D1E905872D02D1
:102AB00040F2FF4624F44064B5432C4323F44053D2
:102AC00048EA070543EA05132CF0730747EA0E07A7
:102AD0005360D7614968D163146223E0026842F60B
:102AE0000046D2F820C0136AC4F2010623F48053D2
:102AF00013625368D4690D68D1F808E0B24204D17A
:102B00004E6923F4804343EA861324F4E64646EAFA
:102B100005265360D6612CF40057496847EA0E3306
:102B2000116413620021002280F83C200846BDE8B1
:102B3000F081000070470000002804BF01207047AA
:102B400070B5044690F83D000E4628B9002084F880
:102B50003C00204600F06AF8022084F83D0020681E
:102B600040F2FF730268C4F2000342F6004C984240
:102B7000C4F2010C14DCB0F1804F19D040F20041D6
:102B8000C4F20001884213D0984217DCB0F1804FA4
:102B90001CD040F20041C4F20001884216D019E076
:102BA000604505D040F60001C4F200018842EBD137
:102BB000A16822F070020A439842E7DD604505D023
:102BC00040F60001C4F20001884203D1216922F4D9
:102BD00040720A43A36922F080016268E5681943E4
:102BE00060450160C562826202D16169CCF8301033
:102BF000012141610269D20703D0026922F001027A
:102C00000261026822F00802026002683243026038
:102C1000002084F8461084F83E1084F83F1084F8B1
:102C2000421084F8431084F83D1070BD70470000D6
:102C300070470000B0B50446006840F20045C4F299
:102C40000005A8420BD103F05DFC38B942F23050C8
:102C5000C2F20000FFF706FD00206862206805F55B
:102C60008061884218BFB0BDBDE8B04004F030BA02
:102C700070470000FEE7000010B584B080B1044644
:102C8000407B68B1B4F808E0BEF1000F08D02368BB
:102C900040F60830C2F20000834218BF002B01D179
:102CA00004B010BD40F60000C4F20100421E40F620
:102CB000004C9342C4F2010C12D9634510D299B36F
:102CC000AEF500618AB2490141EAD22189B20729F1
:102CD0002AD8012202FA01F111F08B0FE0D123E092
:102CE00000F2FF3041F200018342C4F2010103D936
:102CF0008B4201D2604617E0481E834241F20040F9
:102D0000C4F2010004D9834202D208460CE000BF9D
:102D100001F2FF318B4241F60001C4F2010140F2A1
:102D20009B808B4280F09880A0F18041A1F5843196
:102D3000890A032935D8DFE801F0030F1B2700BFFC
:102D400041F21801C4F202010A6842F004020A606A
:102D5000096801F0040122E041F21801C4F2020105
:102D60000A6842F008020A60096801F0080116E0EA
:102D700041F21801C4F202010A6842F010020A602E
:102D8000096801F010010AE041F21801C4F20201E1
:102D90000A6842F020020A60096801F020010091EF
:102DA0000099227B00210391CDE900E1A17A931ED5
:102DB000B3FA83F3012A4FEA531318BF5A000229CA
:102DC00002920BD001290DD1E17A012201294FF0A5
:102DD000030108BF11220192039103E00021C1F217
:102DE000310101916946FDF701FEA07A02287FF4C6
:102DF00057AF21890020C2B221FA02F2D20718D1BE
:102E000040F00102D3B221FA03F3DB0701BF40F027
:102E10000202D3B221FA03F35FEAC37308D140F090
:102E20000302D3B221FA03F3DB0700F10400E2D07E
:102E30001046C1B228220A2938BF1722052938BFF7
:102E4000821D54B2204600210022FDF79FFF20463C
:102E5000FDF788FF04B010BD481E83427FF620AF07
:102E600041F60040C4F201008342FFF44EAF17E781
:102E700010B540F2EC34C2F200040120207042F29E
:102E80003050C2F20000FFF7EDFB207840F26030D6
:102E9000C2F200004168002209040261416142F669
:102EA0001440C4F2010040F270110262C2F200014B
:102EB000B1F8E820D1F8E01012040A60036843F08A
:102EC000010303600A6010BD40F22440C4F2000018
:102ED0000021016042F61440C4F201000161026861
:102EE00042F00102026040F2EC30C2F200000170D8
:102EF000704700002DE9F04182B041F21C06C4F297
:102F00000206306846F6044740F080503060306872
:102F1000C4F2000700F0805001900198306840F042
:102F200000603060306800F0006001900198FEF7AA
:102F300007FF3C68B068000115D5306840F080504C
:102F40003060306800F0805001900198306840F0A7
:102F500000603060306800F0006001900198FEF77A
:102F6000EFFE002038604EF6FC5840F2E040E1B23F
:102F7000CEF20008C4F2422001254229056057D153
:102F8000306840F080503060306800F08050019030
:102F90000198306840F000603060306800F00060F8
:102FA00001900198FEF7CCFE00243C60EFF3108006
:102FB00072B6FDF77DFB4EF21000CEF200004FF02E
:102FC000FF31046044608460C0F87011C0F8701272
:102FD000C0F87411C0F87412C0F87811C0F87812F3
:102FE000C0F87C11C0F87C12C0F88011C0F88012C3
:102FF000C0F88411C0F88412C0F88811C0F8881293
:10300000C0F88C11C0F88C1248F20000BFF34F8F4B
:10301000C0F60000BFF36F8F48F8F40CBFF34F8F7A
:10302000BFF36F8F016881F30888406862B68047FC
:1030300040F27011C2F200014FF48072A1F87821C1
:103040000122C0F20012C1F87A2140F60802C4F24F
:10305000010202F1080301F5B870C1E95C320021F8
:103060000027FFF709FE40F2D036C2F20006FF202B
:10307000F07140F69030C2F200000576FDF7A2FA3A
:1030800040F24C40C2F2000080F8447080F8457075
:1030900080F84670C761076247628762C76207634C
:1030A00047638763C76307646420FDF711FBD8F8A3
:1030B000000040F08070C8F8000041F20000CEF23D
:1030C00000004760016841F00101016040687067DD
:1030D00002B0BDE8F0810000F0B581B00120FDF73D
:1030E000F7FA40F2D035C2F20005E87FC0B941F2EC
:1030F0000400CEF200000068696F401A43F2CB7101
:10310000CEF28E31A0FB010188094EF66121884282
:1031100006D30120E8774FF6FF7068840020A8717D
:10312000286F40F24B41884204D8411CB0F57A7FA9
:10313000296710D340F6D030C2F20000807A40F206
:103140007011C2F200010028D1F85001B1F85821E5
:1031500008BF120402602878F8B10020287040F6F9
:103160009030C2F2000000F0A7FDB0B10A20FDF7D8
:10317000AFFA40F69030C2F2000000F09DFD60B161
:103180000A20FDF7A5FA40F69030C2F2000000F0E8
:1031900093FD10B10A20FDF79BFAE87E01281CBFC1
:1031A00001B0F0BD40F690340027C2F20004EF7683
:1031B000E06940F20806A866607EC2F20006707000
:1031C0002F76FDF7FFF940F24C40C2F2000080F884
:1031D000447080F8457080F84670C76107624762A6
:1031E0008762C762076347638763C7630764062014
:1031F0002076EF666F7004F1080207CA6427A8639F
:10320000A86B10440138E863E96500BF6420FDF74E
:103210005FFAE86D696E884204D0013FF6D104215F
:1032200064E000BF40F2D4510020C2F200012876D1
:103230006876A8766870C1F82C05A1F83005687129
:1032400028713070E879032818D1608C3081D4E976
:103250000431A068A985B5F92C10421AB5F92C10D3
:10326000184440F61043C2F200030844C3E90120A9
:10327000E97800294FF0000138D11AE0208C40F69F
:103280001047F080608CC2F20007B08094F82400F0
:10329000A88494F82500E884A068D4E90431421A8F
:1032A00008441844C7E90120E97800294FF00001DB
:1032B0001CD10123A974EB70A970EB6CEF6C9342E5
:1032C000A2EB0706C8BFBE1AEB6CEF6C83423B460D
:1032D000CCBF03460746FB1A9E42BCBF01211046E5
:1032E00081F00101A86429720021696320462176DA
:1032F00001B0BDE8F04000F0DFBC000080B541F651
:103300004C7040F23801C2F20000C2F2000100220B
:1033100001F014FB002818BFFDF792F841F64C703D
:1033200040F25801C2F20000C2F2000101F036FD85
:10333000002818BFFDF784F841F64C7040F22C11BC
:10334000C2F20000C2F2000101F054F8002818BFD8
:10335000FDF776F841F64C70C2F2000001F034FD42
:10336000002808BF80BDBDE88040FDF769B80000B7
:10337000FEE70000FEE7000070B53020C4F2020056
:10338000816A40F2701621F00101816250F8141C2C
:10339000C2F2000621F0010140F8141C416921F03D
:1033A00001014161016821F001010160C16B21F05F
:1033B0000101C16396F8ED402CB1B6F8E820D6F8CB
:1033C000E03012041A6096F8FD302BB1B6F8F82000
:1033D000D6F8F05012042A6096F80D212AB1B6F8FA
:1033E0000851D6F800112D040D6041F2101140F67D
:1033F000083EC0F21101C2F2000E40F82C1CF4B1DC
:10340000D6F8E05075451AD0B6F8E81040F26034AE
:10341000C2F20004616004F11001056341634FF0E2
:10342000010C43F631211434C0F82CC0816240F8FD
:103430000C5C40F8084C40F810CC40F8141C002AF2
:1034400018BF0122002B18BF0123D6F8F040D6F890
:1034500000C1B4EB0E0118BF01210B40BCEB0E0103
:1034600018BF0121012B02EA010203D112B1644508
:1034700000D070BD33B3B6F8F81040F26033C2F23A
:103480000003996003F11801C46101624FF0010E5D
:1034900043F6312503F11C01002AC0F818E045610C
:1034A0008460C160C0F804E00560E2D0B6F808119D
:1034B000D96003F12001C0F844C08164C0F840E045
:1034C000C56370BD002A08BF70BDB6F8081140F290
:1034D0006032C2F20002D16002F12001C0F844C0A3
:1034E0008164012143F631231C320164C363C0F8B7
:1034F00008C0C2604160036070BD00002DE9F0416A
:103500008AB0002800F0CE830446007811381628CF
:1035100000F2C883DFE810F01800C6032E00C603CF
:103520003E00AE00E20006011801C603C603C60352
:10353000C603C60344013F0160018C01A201DA0108
:1035400050027602B40200BF40F61035C2F2000508
:10355000681C21463F22FCF757FEA888002800F08F
:103560003D83FFF7B1FCA8880AB0BDE8F04100F048
:103570003BBC00BF40F65035C2F20005681C214636
:103580003F22FCF741FEA8880AB0BDE8F04100F0F8
:103590005FBC00BF40F2D444C2F20004152060704A
:1035A00000254FF6E870E570C0F60000016842683B
:1035B00048F2573604F1280CC7F6E5268368C76839
:1035C00000698CE88E0072404AF6B146CFF640168C
:1035D00040F2000CB74244F22B27C1F2300C18BF66
:1035E0002846C5F6D80781EA0C01BB4218BF284619
:1035F000114318BF2846606147F6EC70C0F6000022
:103600000168426849F2667604F1180EC2F24F462C
:103610008368C76800698EE88E00724043F2FA66DC
:10362000C0F64F46B74241F2F26718BF2846C8F6C7
:10363000400781EA0C01BB4218BF2846114318BF5E
:1036400028462061FDF7E6FA6060FDF7E9FAA06020
:10365000FDF7ECFAE06040F2D0302570C2F20000D5
:10366000C16C426EA1632046E2630AB0BDE8F0413E
:1036700000F022BB40F29445C2F20005681C2146CE
:103680003F22FCF7C1FD6C68B4F1006F1FD3AD6839
:10369000FDF70AF940F2FF336219CFF600031A442E
:1036A000002004F17841920A40F2FF33099021EAA8
:1036B0000303CDE90400A2EB912003F1006307901E
:1036C00004A809A90693FDF717F8FDF78DF840F255
:1036D0009440C2F2000000F0EFFAE3E240F29455A9
:1036E000C2F20005681C21463F22FCF78DFDEA78F6
:1036F000A2F13900C0B2C72803D8382A28BF38221F
:10370000EA706868810703D105F1080103F042FD02
:1037100040F29450C2F200000AB0BDE8F04100F05F
:10372000CBBA00BF40F25455C2F20005681C2146D6
:103730003F22FCF769FD4FF4C051284629800AB0AA
:10374000BDE8F04100F0B8BA40F21450C2F20000F7
:10375000013021463F22FCF757FD41F21C00C4F224
:103760000200016841F080510160016801F0805160
:1037700004910499016841F000610160006800F063
:10378000006004900498FEF7DBFA46F60440C4F2A9
:103790000000422101600AB0BDE8F041FDF732BBF4
:1037A00040F69045C2F20005681C21463F22FCF716
:1037B0002BFD40F2D030C2F20000C16C6960418C38
:1037C0002981018C6981017A284629730AB0BDE8F4
:1037D000F04100F071BA00BF41F60C75C2F200056D
:1037E000681C21463F22FCF70FFDA88848F21F52B3
:1037F00080B2411EC5F2EB1281FB0223DA1002EB0C
:10380000D372192302FB13114000A0EB410041F2D7
:10381000A041C2F2000108440238A91D3222FCF77F
:10382000F3FC28460AB0BDE8F04100F045BA00BFFD
:1038300040F2D455C2F2000595F82A0595F82B15EB
:10384000884203D26078012840F0D881012060705E
:1038500095F82A05A07062B6E3E100BF40F6903506
:10386000C2F20005681C21463F22FCF7CDFC2C7EED
:10387000002C00F0B981FFF7FBFA40F2D036C2F21B
:1038800000064FF00108002086F81C80002700F099
:10389000ABFA77763776F776B07880B986F802801B
:1038A000B774F07903280AD00020F0703084706378
:1038B000307240F61040C2F20000C068B0642C764E
:1038C00086F800800AB0BDE8F08100BF40F61045E0
:1038D000C2F20005681C21463F22FCF795FC95F8D2
:1038E000300040F2D034C2F20004607495F8261023
:1038F00095F8272095F8283095F829006372A27270
:10390000E172617A4A1EA1F10101B1FA81F14FEA37
:10391000511118BF01226173A273A17A4A1EA1F14D
:103920000101B1FA81F14FEA511118BF0122E1738F
:10393000227402F031FE40F2701195F82E00C2F2AE
:103940000001B1F87820002808BF1204086F0B6A44
:10395000026095F82F00098D002808BF090419603E
:10396000E87D012800F0C880687D002800F0CC8048
:1039700095F82500012805D10020E064A064E860E6
:1039800085F8250095F82400A97D2085288A40F235
:103990000806C2F20006F080688A0129B08040F073
:1039A000BD8095F82200A08495F82300E084D5E935
:1039B000010102F0EFFEC0E040F65045C2F2000502
:1039C000681C21463F22FCF71FFC688A40F2080170
:1039D000C2F200014881AA8A40F2D030C2F200004F
:1039E00002866A7E2B7AC274C26D012B40F0B080D1
:1039F000436E9A4240F0AD80EA68C26500222A72A6
:103A0000A7E000BF40F6D035C2F20005681C214691
:103A10003F22FCF7F9FB40F2D030C2F20000002157
:103A20000167E87A40F27011C2F200010028D1F873
:103A30005001B1F8582108BF12040260E86800F094
:103A400073F9A88800F004FAE88800F03BFA287CB3
:103A5000697CAA7CEB7C2F7D6E7DAC7DCDE9007608
:103A6000029400F06BFAE878002800F01B8140F621
:103A7000D030C2F200000AB0BDE8F04100F01CB93D
:103A800041F6CC65C2F20005681C21463F22FCF7D6
:103A9000BBFBA88848F21F5281B2481EC5F2EB1248
:103AA00080FB0223DA1002EBD372192302FB03F727
:103AB000FF087C2F16D802FB1302480040F6D043C3
:103AC000511AA0EB4200C2F2000301F57A711844CA
:103AD000182928BF18210222023802EB4102A91D31
:103AE000FCF792FB41F6CC60C2F200000AB0BDE8E0
:103AF000F04100F0E1B800BFE868A0640020E8757C
:103B0000687D00287FF434AFE06CA064E06CE8606E
:103B100095F8250001283FF42FAF33E7A07860B96E
:103B20000120A0700020A074E179032905D0E07085
:103B3000208460632072E868A064A88D242130810D
:103B4000688DA085E06CA861608CA8833DE000BF13
:103B5000EA60EA7E012A04D100224266C265EA6078
:103B6000EA768978EA7DA976A97D2B7E4F1EA1F1A0
:103B70000101B1FA81F14FEA511118BF0127017516
:103B8000511EA2F10102B2FA82F2477518BF01215B
:103B900052098275C17540F27011C2F20001B1F88C
:103BA000A8203BB1D1F8A03012041A60B1F8D82097
:103BB000120404E0D1F8A0301A60B1F8D820D1F88E
:103BC000D0100A60406E252168602846A5F80110D3
:103BD0000AB0BDE8F04100F06FB800BF0AB0BDE820
:103BE000F041FFF745B900BF40F2D030C2F200000B
:103BF0000121C1760AB0BDE8F08100BF95F8290522
:103C000095F82B0595F829052C2100FB015104F1AD
:103C100013002C22FCF748FC0020607095F82A0560
:103C2000A070E07B012840F24C40C2F2000019D1A4
:103C3000D4F8071090F84620092A13D890F84420A9
:103C400000EB8203013280F84420D96190F84410DF
:103C50000A2924BF002180F8441090F84610013151
:103C600080F8461090F8460040F69031C0F10A0006
:103C7000E073B4F80D00C2F20001C880B4F80B0084
:103C800040F20802C2F200029080108140F2D0306F
:103C9000C2F20000428CA4F80B20C06EC4F80300EE
:103CA000087E18B10AB0BDE8F08100BF601E0AB0FE
:103CB000BDE8F041AFF30080014641F64C70C2F21E
:103CC0000000402200F09EBB70470000F0B581B0BC
:103CD0000446FFF7CDF840F2D035C2F200050126C8
:103CE00000202E77002700F07FF86F762F76EF7692
:103CF000A87878B9AE70AF74E87903280AD00020AC
:103D0000E87028846863287240F61040C2F2000010
:103D1000C068A86440F69030C2F2000004762E70AD
:103D200001B0F0BD70470000F0B583B040F60C352F
:103D30000446C2F2000528B12868A04202D103B0AF
:103D4000F0BD00BF42F60046002CC4F2010643D08D
:103D500041F21400C4F202004168002741F40061FE
:103D60004160416801F4006102910299016841F0EB
:103D70000101016000684AF2002100F00100019099
:103D8000019865206043C0F24A413268B1FBF0F30C
:103D900022F0010232605A1E88424FF0640088BF50
:103DA0000022B262F0627763B063F06330644FF474
:103DB000F850F060FFF7E0FA706C40F40040706477
:103DC000706940F0010070613761306840F00100B7
:103DD00030602C6003B0F0BD306820F0010030602E
:103DE0002C6003B0F0BD000080B540F2EC31C2F2AF
:103DF000000109780022002918BF104664280346F4
:103E000040F2603C28BF6423C2F2000C002B19462C
:103E1000DCF804E018BF7146642842F63440CCF860
:103E2000101038BF4FEA0E42C4F20100002BCCF84C
:103E30001420036018BF80BD40F27010C2F2000071
:103E4000B0F8E810D0F8E0000904016080BD00007F
:103E500010B501460122642828BF642138BFC1F192
:103E6000640242F63C4C92B2C4F2010C40F2603E55
:103E7000CCF80420C2F2000E0C46DEE90232002922
:103E800018BF1C46CEF818400024642838BF1C0414
:103E9000DCF80000002A234618BF43EA0243012849
:103EA00098BF23460029CEF81C3018BF10BD40F241
:103EB0007010C2F20000B0F8F810D0F8F000090459
:103EC000016010BD10B501460122642828BF64219D
:103ED00038BFC1F1640242F63C4C92B2C4F2010C0C
:103EE00040F2603ECCF80020C2F2000E0C46DEE943
:103EF0000232002918BF1446CEF82040DCF804C076
:103F00000024642838BF1404002B204618BF40EA60
:103F10000340BCF1010F98BF20460029CEF81C00D9
:103F200018BF10BD40F27010C2F20000B0F80811C6
:103F3000D0F800010904016010BD00002DE9F04F28
:103F400085B0152800F2D280DDF840A081460E46EB
:103F500040F27010BAF1000F5546C2F200004FF067
:103F6000010118BF01FA02F5B6F1FF0C18BFAC460B
:103F7000FF2E00EB091707D047F2EC30C0F6000027
:103F800050F8264001E000BF0024DDE90E0540F6B0
:103F9000083EC2F2000E0490F3467046002C1CBF8F
:103FA00004F1100B04F108000390384610F80D1FBF
:103FB000D7F8008051450290019108BFD84513D031
:103FC000F04518BFB8F1000F69D040F2FF71C4F29C
:103FD000010140F600408845C4F201001CD980452B
:103FE0001AD2481C49E000BF3989284625461FFAE5
:103FF0008CF4A1422C460546D846E1D1B97AD84680
:104000009942DDD1F97A0498D8468142D8D1397BDA
:10401000D846A9426AD0D3E701F58061884541F2CC
:104020000001C4F2010101D9884526D3481E41F29E
:10403000004E8045C4F2010E04D9F04502D2084674
:104040001BE000BF01F2FF30804541F60000C4F2E2
:10405000010003D9804501D270460EE041F6004EC2
:10406000C4F2010E2946451EF0454FF0000E28BF50
:104070007046A8450D4698BF70460199002918BFA3
:1040800000280CD039899046CDE900532546644676
:10409000FCF722FCA4462C46DDE900534246029878
:1040A000BAF1000F80F800A00398C7F800B078605C
:1040B0000498A7F808C0BB72F8723D7318BF002CB3
:1040C00003D0032E98BF0F2A08D9A9F10E000228A9
:1040D0000CD805B0BDE8F04FFFF74EB938460121C6
:1040E000FEF7CAFDA9F10E000228F2D905B0BDE81D
:1040F000F08F0000FCF7A0BD70470000F0B581B064
:104100001027C4F200073D68E80700F0A2806FF0B6
:104110000100386002F08AFD40F2D73CC2F2000C88
:104120009CF80000032800F0948040F27010C2F266
:104130000000018B026909040368046B066C1160BE
:10414000018909041960B0F8481009043160018F31
:104150000904216040F26031C2F200010A68002ABD
:1041600077D000220092009A312A1BDC00BF009A0F
:1041700001320092009A312A14DC00BF009A013209
:104180000092009A312A0DDC00BF009A01320092A1
:10419000009A312A06DC00BF009A01320092009A90
:1041A000322AE3DB9CF80020012A21D0022A50D1D8
:1041B0000A6841F28833002A48BF52429A4238BF07
:1041C00013467B6209680022002940F2DA31C2F20C
:1041D00000010978C8BF0122002918BF01218A42C5
:1041E0002ED0018B02691160018F00F130022EE0A8
:1041F0000A6841F28833002A48BF52429A4238BFC7
:10420000134640F2D9327B62C2F20002096812788A
:1042100003890668002A1A460CBF1A041B040029E9
:1042200040F2DA3158BF13463360C2F200010B7816
:1042300000F11002018B002B18BF090407E000BF3A
:10424000018902681160B0F8481000F1400210685E
:104250000160A80731D56FF00200386040F2D73016
:10426000C2F200000078012816D0022825D140F2C1
:104270007010C2F20000018B036909040268076C28
:104280001960018909041160B0F848100904396007
:10429000018F303009040EE040F2DA30C2F2000043
:1042A00040F270110278C2F2000101F11000098B96
:1042B000002A08BF09040068016001B0F0BD0000D9
:1042C00042F23050C2F20000FEF7BABA40F2883033
:1042D000C2F20000FEF7B4BAD0F8B81200220020F3
:1042E00081F8502070470000B0B50446D0F8BC02F9
:1042F000D4F8B852C26828786978904720460121DE
:104300002A46402300F062FC0020B0BDB0B58121F8
:10431000044600F03DFB002520460121E56200F047
:1043200037FBD4F8B802C4F86C5148B1D4F8BC02D9
:1043300080688047D4F8B80200F092FFC4F8B85201
:104340000020B0BD10B5D0F8B842E16C012907D10A
:10435000D0F8BC026178C268207890470020E06401
:10436000002010BD014640F2F4000A22C2F2000013
:104370000A807047014640F290002922C2F20000F4
:104380000A807047014640F2BC002922C2F20000B8
:104390000A807047014640F200102922C2F2000054
:1043A0000A80704770B5812103224023044600F043
:1043B000F9FB01252046012103224023E56200F09C
:1043C000F1FB5420C4F86C5100F04CFFC4F8B80263
:1043D00068B10646D4F8BC020025406886F8505003
:1043E0008047204601213246402300F0EFFB28465B
:1043F00070BD000000290EBF0220C0F8BC120020D2
:104400007047000080B590F89C32032B1CBF002041
:1044100080BDD0F8B83294460A4693F8501000296F
:104420004FF0010102D0084680BD00BF83F8501054
:104430008121634600F094FC0021084680BD000005
:1044400080B582B00A78D0F8B8C2002312F06002BA
:10445000ADF8063010D0202A4AD14A78023A092A0B
:1044600046D8DFE802F0054B4545454545535D63B9
:104470000CF1440144E000BF4A780B2A38D8DFE849
:1044800002F007373737373713373737252D00BF57
:1044900090F89C22032A2BD10DF10601022200F094
:1044A0009FF8002002B080BDCA78212A44D0222A79
:1044B00050D1CA88D0F8BC12222A096828BF22220B
:1044C00000F08EF8002002B080BD00BF90F89C2262
:1044D000032A0DD10CF1480112E000BF90F89C2294
:1044E000032A05D18878CCF84800002002B080BDAE
:1044F00000F050F8022002B080BD00BF0CF1400176
:10450000012200F06DF8002002B080BDCA880123AE
:104510006146CCF84C3000F049F8002002B080BD74
:10452000C878CCF84400002002B080BD8878CCF870
:104530004000002002B080BDCA8840F2E801C2F20B
:104540000001092A28BF092200F04AF8002002B021
:1045500080BD00BF0022002100F042F8002002B020
:1045600080BD000080B5D0F8B4225268904700208A
:1045700080BD000080B513460A46002100F026FBEE
:10458000002080BD80B513460A46002100F0E8FBFC
:10459000002080BD10B58021044600F0B3FB20460A
:1045A0000021BDE8104000F0ADBB000080B513460F
:1045B0000A460321C0F894120021C0E9573300F0E5
:1045C00005FB002080BD000080B50521C0F89412D5
:1045D00000210022002300F0F9FA002080BD000035
:1045E00080B513460A460221C0F894120021C0E9A2
:1045F000073300F0B5FB002080BD000080B504212A
:10460000C0F8941200210022002300F0A9FB002032
:1046100080BD000010B541F67444C2F200040A46A1
:1046200002A0214600F01CF9204610BD43757374AA
:104630006F6D2048494420436F6E66696700000033
:1046400040F23C101222C2F200000A8070470000C3
:1046500010B541F67444C2F200040A4602A0214695
:1046600000F0FEF8204610BD437573746F6D20484E
:10467000494420496E7465726661636500000000FC
:1046800040F250100422C2F200000A80704700007D
:1046900010B541F67444C2F200040A4602A0214655
:1046A00000F0DEF8204610BD53544D6963726F650B
:1046B0006C656374726F6E696373000010B541F6C8
:1046C0007444C2F200040A4602A0214600F0C8F871
:1046D000204610BD53544D333220437573746F6DB3
:1046E0002048756D616E20696E74657266616365E0
:1046F00000000000B0B54FF2E870C1F6FF7002682C
:1047000083684FF01A0C9B18A1F800C000F0A3803A
:104710004FF0370C1A0F0CEB13714068B3F1204FB8
:1047200038BF02F1300140F25412C2F2000291701F
:1047300019014FF0000E0CEB117582F803E0C3F382
:104740000364B1F1204F38BF04F13005190215712F
:104750000CEB117582F805E0C3F30354B1F1204F5F
:1047600038BF04F13005190395710CEB117582F80F
:1047700007E0C3F30344B1F1204F38BF04F1300523
:10478000190415720CEB117582F809E0C3F30334B8
:10479000B1F1204F38BF04F13005190595720CEBCB
:1047A000117582F80BE0C3F30324B1F1204F38BF39
:1047B00004F1300519061573C3F303140CEB1175DE
:1047C000B1F1204F4FEA037103F00F0382F80DE0BF
:1047D00038BF04F1300503F13704957382F80FE018
:1047E000B1F1204F38BF03F13004010F0CEB10730F
:1047F000147482F811E0B0F1204F38BF01F130039A
:1048000001010CEB1174937482F813E0C0F303639D
:10481000B1F1204F38BF03F1300401021475C0F329
:1048200003530CEB1174B1F1204F4FEA003182F8C1
:1048300015E038BF03F130040CEB1173947582F866
:1048400017E0C0F30340B1F1204F38BF00F130034F
:10485000137682F819E040F25410C2F20000B0BDA5
:1048600010B5002868D00378B3B100F1020E4FF004
:10487000000C00BF1EF8013C93B19EF800309BB1C4
:104880009EF80130A3B19EF802300CF1040C002B0D
:104890000EF1040EEED10DE04FF0000C0AE000BF67
:1048A0004CF0010C06E000BF4CF0020C02E000BF2F
:1048B0004CF0030C5FFA8CFC022303EB4C031380D7
:1048C00003220B704A7090F800E0BEF1000F33D065
:1048D000023002224FF0000C1AE000BF141DE4B2B7
:1048E00044F0010E0B5501F80EC04378002B08BFB1
:1048F00010BD941DE4B244F0010E0B5501F80EC03A
:1049000090F802E00832BEF1000F00F1040013D06D
:10491000D3B243F0010401F803E001F804C010F839
:10492000013C4BB1941CE4B244F0010E0B5501F86C
:104930000EC00378002BD1D110BD0000002804BFA9
:104940000220704780B5D0F8B432002B1CBF002382
:10495000C0F8B432002918BFC0F8B012012180F8A5
:104960009C12027000F0D2F8002080BD80B5D0F813
:10497000C002FCF7A7FA40F200220223C100C0F2F5
:104980000122042838BF22FA01F3D8B280BD00000A
:1049900080B5D0F8C002FCF76DFA40F20022022385
:1049A000C100C0F20122042838BF22FA01F3D8B2B4
:1049B00080BD0000B0B5044671B1D4F8B4024269BC
:1049C00042B194F89C02032804D12046904700206D
:1049D00054E000BF0220B0BDD4F89402002818BFF4
:1049E000042805D12046802100F08CF93DE000BF6D
:1049F00002283AD1D4E90810814209D9081A83B2B1
:104A00002062204611461A46FFF7BCFD14E000BFA5
:104A1000E169814218D3B1FBF0F202FB101098B9A2
:104A2000D4F8980281420FD22046002100220025AE
:104A3000FFF7A8FDC4F89852204600210022002369
:104A400000F0C4F811E000BFD4F8B402C16829B185
:104A500094F89C02032801D12046884720468021F3
:104A600000F050F92046FFF7AFFD94F8A0020128AE
:104A70004FF0000004BF84F8A002B0BDB0BD00003C
:104A8000B0B5044671B1D4F8B402826942B194F869
:104A90009C02032804D12046904700251CE000BF5B
:104AA0000220B0BDD4F894020025052816D00328B2
:104AB00012D1D4E95810814218D9091AC4F86011EA
:104AC000814238BF084683B2204611461A46FFF796
:104AD00051FD0020B0BD00BF2846B0BD20460021DA
:104AE000C4F8945200F00EF92846B0BDD4F8B402D0
:104AF000016929B194F89C02032801D12046884716
:104B00002046FFF77BFD0020B0BD000010B5044635
:104B100042F2102045F60041C2F20000C4F200014A
:104B2000016008210171022181710021C0F8D44285
:104B3000C4F8C00241810173FCF758FF002818BF78
:104B4000FBF77EFCD4F8C002002100221823FCF7FA
:104B50005BF9D4F8C002802100225823FCF754F9F5
:104B6000D4F8C002812100229823FCF74DF9D4F833
:104B7000C00201210022D823FCF746F9002010BD15
:104B80004AB2D0F8C00201F07F0101EB810100EBD5
:104B9000C10000F5A971002A48BF00F11201087890
:104BA0007047000080B59446D0F8C0021A466346AC
:104BB000FCF7BAF940F200220223C100C0F2012240
:104BC000042838BF22FA01F3D8B280BD80B5D0F8EE
:104BD000C002FCF7D9F940F200220223C100C0F262
:104BE0000122042838BF22FA01F3D8B280BD0000A8
:104BF000F0B581B000210022402304460025402664
:104C0000FFF7D0FF01272046802100224023C4F86F
:104C10005871C4F86461FFF7C5FFD4F8B802A76102
:104C2000666284F89C72C4F894526560C4F8A45219
:104C300028B1D4F8B40200214268204690470020F1
:104C400001B0F0BD90F89C12042904BF90F89D12A9
:104C500080F89C120020704780B590F89C120329C0
:104C600005D1D0F8B412C969002918BF88470020BF
:104C700080BD0000024600201174704780B5D0F856
:104C8000C002FDF713F840F200220223C100C0F277
:104C90000122042838BF22FA01F3D8B280BD0000F7
:104CA000B0B500F52A750446284600F06BF894F874
:104CB000A8020121B4F8AE22C4F8941200F01F013A
:104CC0000229C4F8982209D001290DD091B92046B3
:104CD000294600F07FF80020B0BD00BF20462946DD
:104CE00000F0DEF90020B0BD2046294600F07CFA35
:104CF0000020B0BD00F08001204600F003F8002045
:104D0000B0BD000080B5D0F8C002FCF757F940F202
:104D100000220223C100C0F20122042838BF22FA77
:104D200001F3D8B280BD000080B5D0F8C002FCF716
:104D3000D9FF40F200220223C100C0F20122042860
:104D400038BF22FA01F3D8B280BD0000014690F8C6
:104D50009C02042281F89D02002081F89C22704769
:104D600080B5D0F8C002FCF767F940F200220223B8
:104D7000C100C0F20122042838BF22FA01F3D8B2E0
:104D800080BD00000A7802704A7842704A884280EA
:104D90008A888280C988C1807047000000290EBFC0
:104DA0000220C0F8B41200207047000080B5D0F88F
:104DB000B4223AB112689047002818BF0120400081
:104DC00080BD00BF022080BD80B5FFF7ADFF002091
:104DD00080BD0000B0B582B00D460978044611F0E0
:104DE00060010DD0402902D0202940F04D81D4F837
:104DF000B4022946826820469047002002B0B0BD28
:104E00006878092800F24081DFE810F00A002400E9
:104E10003E0130003E0166008A003E013800460037
:104E200094F89C020138022800F22E81E8880228BA
:104E300040F02A81D4F8A4020322002808BF0122EE
:104E4000214641F80C2F20460222FFF7C9FB002023
:104E500002B0B0BD94F89C020138022800F214811F
:104E600068880128C9D1002004E000BF68880128B3
:104E7000C3D10120C4F8A40200E100BFE8880128E2
:104E800040F0028194F89C02411E02295ED200206B
:104E9000214641F8080F5DE0688841F67045C1B2CF
:104EA000C2F200050229287080F0EE8094F89C027E
:104EB000032857D0022840F07780002900F0DE80D8
:104EC000032084F89C0220466160FFF76FFF0228F0
:104ED00040F0D480D8E000BFA888002840F0D480FB
:104EE000E888002840F0D08068887F2800F2CC80D5
:104EF00094F89C12032900F0C780C5B284F89E0282
:104F000020462946FFF7BAFE2046FFF777FB002D23
:104F10000CBF0120022084F89C02002002B0B0BD2A
:104F200068884FF0FF3101EB102100220629ADF80F
:104F3000062000F2A980DFE801F0054729A7A75560
:104F40005F0000BFD4F8B002026881E0032840F09F
:104F50009B80211D20460122FFF742FB002002B06A
:104F6000B0BD00BF002955D06068012800F08680E0
:104F7000C1B22046FFF7F6FA297820466160FFF7B4
:104F800015FF022840F07A807EE000BFC0B20528FD
:104F900000F27A80DFE800F004484C50545800BF1B
:104FA000D4F8B002426852E020468021FFF7AAFE02
:104FB00020460021FFF7A6FE29782046FFF7D2FA07
:104FC000002002B0B0BD00BF217CD4F8B40200299B
:104FD0000CBF816AC16A0DF10600884701460220B4
:104FE00015E000BF207C00284ED1D4F8B402416BFC
:104FF0000DF1060088472FE0207C002844D1D4F82A
:10500000B402016B0DF10600884701460720487085
:1050100023E000BF022084F89C020020606020464C
:10502000FFF7A0FA2AE000BFD4F8B00282680EE0D1
:10503000D4F8B002C2680AE0D4F8B002026906E00F
:10504000D4F8B002426902E0D4F8B0028269DAB161
:10505000207C0DF1060190470146BDF8060048B1DD
:10506000EA883AB1904238BF02462046ADF80620A1
:10507000FFF7B6FAE88800287FF4BFAE2046FFF7B6
:10508000BDFA002002B0B0BD20468021FFF73AFEF5
:1050900020460021FFF736FE002002B0B0BD000020
:1050A000B0B50A460978044611F060010CD04029D9
:1050B00001D0202920D1D4F8B402114683682046BB
:1050C00098470020B0BD00BF50781179F0B1012899
:1050D00034D0032866D194F89C02032832D150883A
:1050E000002871D111F07F006ED0D08800286BD1DC
:1050F0002046FFF707FE67E020468021FFF702FE0B
:1051000020460021FFF7FEFD0020B0BD94F89C0270
:10511000032825D0022808BF5FEA416042D111F080
:10512000800004F114014FF0140004BF4FF4AA7082
:1051300004F5AA710022225020464FE094F89C0208
:10514000032839D002282DD148062BD02046FFF75E
:10515000D9FD20468021FFF7D5FD0020B0BD00BF5E
:1051600001F00F0000EB8000802904EB80002CBFD1
:105170008069D0F85801A8B101F07F0000EB8000F1
:1051800004EB800000F11405802938BF00F5AA75F2
:1051900048061FD02046FFF7F3FC002818BF012067
:1051A00019E000BF20468021FFF7ACFD204600211A
:1051B000FFF7A8FD0020B0BD50880028A4D1480604
:1051C00002D02046FFF7D2FB2046FFF717FA002057
:1051D000B0BD00BF00202860204629460222FFF70C
:1051E000FFF90020B0BD0000B0B50D4609780446B7
:1051F00011F0600118BF402912D194F89C020138C7
:10520000022803D8A88810F0FE0F15D02046802170
:10521000FFF778FD20460021FFF774FD0020B0BDA8
:105220002029EAD020468021FFF76CFD204600218E
:10523000FFF768FD0BE000BFD4F8B402294682688E
:1052400020469047E988002908BF002802D00020A6
:10525000B0BD00BF2046FFF7D1F90020B0BD00006F
:105260007047000041F67460C2F200007047000011
:105270002DE9F0410D78024691F803E000EB85033B
:1052800030F8250047F27067BEF1030F20EA0704EB
:1052900008D80020DFE80EF002080F0C44F4007478
:1052A00008E000BF012006E044F4806402E000BF93
:1052B00044F4C064002048F28007CFF6FF7744EA48
:1052C00007061E801E8840F60F7426402E43374383
:1052D0001F800F7B48F2800C002F49D01C8840F6BD
:1052E0000F66344048F28006BEF1020F08BF06F593
:1052F000807634431C80B2F850400E8902EB0515CD
:105300002C4426F00106A4F80064B2F850204C8921
:105310002A4424F00104A2F8084449781A88002994
:1053200002F480414AD039B1198840F60F72114019
:105330000CF58042114319801988490607D5198850
:1053400040F60F7211400CF1400211431980198888
:1053500040F63F7211400CF120024A40BEF1010FAD
:1053600008BF41EA0C021A80198843F60F7244E024
:105370004E78B2F85080CC882F01002E24F0010620
:1053800042D0D1194144A1F800641988490607D5D3
:10539000198840F60F7211400CF140021143198038
:1053A000198840F63F72BEF1010F01EA020125D0D3
:1053B0000CF1200251401980BDE8F08139B1198803
:1053C00040F60F7211400CF5804211431980198884
:1053D000490607D5198840F60F7211400CF14002BA
:1053E00011431980198843F60F7211400CF5405291
:1053F00051401980198840F63F72114041EA0C0172
:105400001980BDE8F08100BFD41904EB0807A7F8A4
:105410000864B2F850E004F20C4434F80E606FF304
:105420009F2624F80E6009693F290DD3CF063EF868
:1054300004704FEA51164FF0FF3808BF08EB5116C1
:1054400047EA862112E000BF71B101F001063EF883
:10545000047006EB510147EA81212EF804101988E7
:1054600049040DD414E000BF3EF8041048F20006D1
:10547000CFF6FF7631432EF804101988490407D57A
:10548000198840F60F7739400CF580473943198069
:1054900055B1198843F60F7211400CF50052514076
:1054A0001980BDE8F08100BF118843F60F721140EA
:1054B0000CF5405251401980BDE8F0810020704742
:1054C000B0B50C784B78097B024630F824004CF2DA
:1054D000800C4CF2800500294FEA44013AD0002BA1
:1054E00000F4804040D040B132F8110040F60F7314
:1054F000184040EA0C0022F8110032F8110043F67F
:105500000F7E400640F63F7009D532F8113040F664
:105510000F742340ACF57F54234322F8113032F846
:10552000113040F60F7423402B43ACF5804522F830
:10553000113032F811301840284322F8110032F8A7
:105540001100ACF5804300EA0E000343002022F86E
:105550001130B0BDF3B1400640F63F7EEFD5ACF55B
:105560007F5540F60F70E4E740B132F8110040F685
:105570000F73184040EA0C0022F8110032F81100B5
:10558000ACF57F55400640F63F7E43F60F70BCD425
:10559000C5E700BF400443F60F7ED0D540F60F703C
:1055A000C7E7000000207047002070470146012037
:1055B000A1F8400000220020A1F84020A1F84420DA
:1055C000A1F85020704700000146B0F8400044F2B6
:1055D000FF0202400020A1F84020704700207047E1
:1055E00080B50A7B12B1002080BD00BF0A784B78DD
:1055F00030F822C04FEA4202B3B15FEA4C6348F28E
:10560000A00E0BD530F812C040F60F730CEA030C55
:105610000EF1200343EA0C0320F81230C978012967
:10562000E1D040F63F7110E05FEA4C414BF2800E52
:1056300009D530F8121040F60F7319400EF580535B
:10564000194320F8121043F60F7130F81230194048
:1056500081EA0E0120F81210002080BD02460B786E
:10566000487832F823C040F63F71002848F2900095
:1056700008BF43F60F71CFF6FF7008BF00F57F60DB
:1056800001EA0C014140002022F82310704700007D
:105690002DE9F04F82B04B78012B5FD18B690A69FD
:1056A0000F7B934228BF1346002F00F07F80CF78F6
:1056B0000C6A022F40F0C2800D7840F60F6630F879
:1056C00025704FEA450E944206EA070648F2B00CF0
:1056D00040F2128148F2B007CFF6FF77D0373E4351
:1056E000A4EB030A20F81E60C1F820A030F81E7059
:1056F000B0F850602D017F0600EB050800F15281E3
:1057000008EB0604A4F80434D1F814B09DB2002DBF
:1057100000F014830E8900EB460606F580696E1CC6
:105720004FF0FF3505EB5604C6F34105002D4FEA57
:10573000560700F0DF815E46CDE9004836F8028B5F
:105740005C46CB46012D2BF8048B40F0D781D9461F
:10575000DDF80480A346009C013FDEE20A7B002ABC
:1057600048D0CA78012A00F09F80022A40F0C08009
:10577000002B40F0AA82B0F850300A78034412019E
:1057800003F20447BB5A6FF39F23BB520B693F2BB5
:10579000C0F04E81DC064FEA5316D45B4FF0FF3564
:1057A00008BF05EB531644EA8626C8E11A0400F048
:1057B0007381CA88D1F814E000EB420202F58068D8
:1057C0009AB201324FF0FF37C2F3410407EB520C9B
:1057D000002C4FEA520200F04C81774637F8025B0A
:1057E0004646012C26F8045B40F00A81013ABE4689
:1057F000B0463EE18E690A69B31A38BF00238B6157
:10580000B0F850700B7807444FEA031307F20C47C7
:10581000FD5A38BF32466FF39F253F2AFD52C0F034
:10582000CA81D406DC5B4FEA52164FF0FF3508BF41
:1058300005EB521644EA8622C7E100BFE21A0F7850
:105840000A6230F82720B0F850403D015206054466
:105850004FEA470E9AB248F2B00C2C4400F17E8019
:10586000002AA4F8043400F0D7800B89013249697A
:1058700000EB43034FF0FF34C2F3410503F58063AF
:1058800004EB5208002D4FEA520200F0BC810E4694
:1058900036F8024B1F46012D27F8044B40F00C81CF
:1058A000013A31463B46AEE10A698F69BE1A3CBFF8
:1058B00000263A46002B8E6140F08A81B0F8507085
:1058C0000B7807441B0107F20447FE5A3F2A6FF387
:1058D0009F26FE52C0F0B880D4064FEA5216DC5B19
:1058E0004FF0FF3508BF05EB521644EA862650E11B
:1058F000012002B0BDE8F08F48F2B002CFF6FF728F
:10590000303A324320F81E20B0F8502000EB051347
:105910001A442304A2F8044400F082800A894969E9
:1059200000EB420202F58063A2B201324FF0FF3475
:10593000C2F3410504EB5208002D4FEA520200F079
:1059400082810E4636F8024B1F46012D27F8044B84
:1059500040F0BC80013A31463B4674E1002AA4F88D
:105960000C3461D04B890132496900EB43034FF09D
:10597000FF34C2F3410503F5806304EB5208002DA8
:105980004FEA520200F07F810E4636F8024B1F4666
:10599000012D27F8044B40F0A380013A31463B46E5
:1059A00071E100BF08EB0605A5F80C34D1F814B07E
:1059B0009DB2002D00F016824E8900EB460606F5DA
:1059C00080696E1C4FF0FF3505EB5604C6F34105A8
:1059D000002D4FEA560700F08F805E46CDE9004863
:1059E00036F8028B5C46CB46012D2BF8048B40F039
:1059F0009580D946DDF80480A346009C013FE0E194
:105A0000BEF80250022CA8F8045029D108F1080869
:105A10000EF1040E023A2CE040F63F71E3E000BFC5
:105A200040F63F71DFE000BF40F63F71DBE000BFB2
:105A3000002B00F0838003F00106D55B06EB5306D4
:105A400045EA862680E000BF002A00F0A18002F02F
:105A50000106DD5B06EB520645EA86269EE000BFA6
:105A6000BEF804400EF1060EA8F8084008F10C0834
:105A7000033ABCF1030F0FD3AEF10807A8F11006EB
:105A800037F8085F043A26F8105F7D88B580BD8836
:105A90003581FD88B581F3D1B0F8502009780244F2
:105AA00002EB011248F2B00CA2F804344FEA410EA6
:105AB00040F63F7197E000BF4C88022D9C8040F07B
:105AC0009D8008330431023A9DE000BF4C88022DCE
:105AD0009C8040F0B38008330431023AB3E000BF49
