:020000040800F2
:108000007012002059820008D79C00085D9C00086F
:10801000D59C00083F85000817B700080000000045
:108020000000000000000000000000002B9F00087E
:108030006985000800000000299F00082D9F0008A6
:10804000738200087382000873820008738200083C
:10805000738200087382000873820008738200082C
:10806000738200087382000873820008738200081C
:10807000738200087382000873820008738200080C
:1080800073820008738200087382000800000000F9
:1080900000000000000000000000000073820008E3
:1080A00073820008738200087382000873820008DC
:1080B00073820008738200087382000873820008CC
:1080C00073820008738200087382000873820008BC
:1080D00073820008738200087382000800000000A9
:1080E0007382000873820008738200080000000099
:1080F0000000000000000000000000007382000883
:108100000000000073820008738200087382000878
:10811000000000000000000000000000000000005F
:10812000738200087382000873820008738200085B
:108130007382000800000000000000000000000042
:10814000000000000000000000000000D99C0008B2
:10815000738200087382000873820008738200082B
:108160007382000873820008000000000000000015
:1081700000000000000000000000000000000000FF
:1081800000000000738200080000000000000000F2
:10819000738200087382000800F002F800F04CF8C7
:1081A0000AA090E8000C82448344AAF10107DA4552
:1081B00001D100F041F8AFF2090EBAE80F0013F058
:1081C000010F18BFFB1A43F001031847D036000017
:1081D000F03600000A4410F8014B14F00F0508BFF8
:1081E00010F8015B240908BF10F8014B6D1E05D083
:1081F00010F8013B6D1E01F8013BF9D1641E03D05C
:10820000641E01F8015BFBD19142E4D3704700008A
:108210000023002400250026103A28BF78C1FBD88F
:10822000520728BF30C148BF0B6070471FB503F02D
:108230001FFB1FBD10B510BD00F047F91146FFF739
:10824000F5FF03F0C5FA00F065F903B4FFF7F2FF9C
:1082500003BC00F06DF90000094880470948004759
:10826000FEE7FEE7FEE7FEE7FEE7FEE7FEE7FEE7E6
:10827000FEE7FEE704480549054A064B7047000043
:10828000CD9F000899810008700C0020701200201A
:10829000700E0020700E002053EA020C00F069807E
:1082A0002DE9F04B4FF00006002B1FBFB3FA83F50A
:1082B00003FA05F424FA05F65E4012BF1643B2FA3B
:1082C00082F502FA05F4C5F120051EBF22FA05FC6D
:1082D00044EA0C04203556EA044C4FEA144418BF13
:1082E000641C4FF000084FF00009904271EB030C42
:1082F00039D3002919BFB1FA81F701FA07F6B0FAAC
:1083000080F700FA07F6C7F120071EBF20FA07FC26
:1083100046EA0C062037B6FBF4FCA7EB0507103F36
:1083200007F01F0BCBF120062CFA06F60CFA0BFB1C
:1083300044BFB3460026202FA4BF5E464FF0000B7B
:108340005BEA060C08BF4FF0010B19EB0B0948EB79
:108350000608ABFB027C06FB02CC0BFB03CCC01B6C
:1083600071EB0C01C1E70B46024641464846BDE8A9
:10837000F08B13B5084318BF4FF0FF300146AFF341
:108380000080BDE81C407047032A40F2308010F0A6
:10839000030C00F0158011F8013BBCF1020F6244A0
:1083A00098BF11F801CB00F8013B38BF11F8013B31
:1083B000A2F1040298BF00F801CB38BF00F8013BDE
:1083C00011F0030300F04F80083AC0F0088051F824
:1083D000043B083A51F804CBA0E80810F5E7121D59
:1083E0005CBF51F8043B40F8043BAFF30080D20778
:1083F00024BF11F8013B11F801CB48BF11F8012B44
:1084000024BF00F8013B00F801CB48BF00F8012B66
:1084100070474FF0000200B5134694469646203947
:1084200022BFA0E80C50A0E80C50B1F12001BFF42D
:10843000F7AF090728BFA0E80C5048BF0CC05DF893
:1084400004EB890028BF40F8042B08BF704748BFE1
:1084500020F8022B11F0804F18BF00F8012B704755
:1084600070477047704710B5203AC0F00B80B1E8F4
:108470001850A0E81850B1E81850A0E81850203A59
:10848000BFF4F5AF5FEA027C24BFB1E81850A0E862
:10849000185044BF18C918C0BDE810405FEA827C7C
:1084A00024BF51F8043B40F8043B08BF7047D20793
:1084B00028BF31F8023B48BF11F8012B28BF20F834
:1084C000023B48BF00F8012B7047754600F02CF8BE
:1084D000AE4605006946534620F00700854618B0B1
:1084E00020B5FFF7C7FEBDE820404FF000064FF073
:1084F00000074FF000084FF0000BAC46ACE8C00995
:10850000ACE8C009ACE8C009ACE8C00921F007013B
:108510008D46704710B50446AFF300802046BDE895
:108520001040FFF792BE0000004870473001002065
:1085300001491820ABBEFEE7260002007047FEE7A7
:10854000002070470020704780B50648D0F8BC0274
:1085500030B101F047FC034801F029FE002080BD46
:10856000032080BDAC040020704772B6FEE7000017
:10857000E64A0329136823F4407313604FF44073F1
:1085800038BF0B02116819431160116821F0F8011E
:108590001160116841EAC00040F0020010601068EC
:1085A00040F48030106070471348016889050FD58A
:1085B000016821F400710160016841F4006101600B
:1085C000016821F400610160016841F400710160FB
:1085D000016849050FD5016821F4806101600168D7
:1085E00041F480510160016821F48051016001680B
:1085F00041F4806101607047003C0240C3490A6851
:1086000022F440720A600A6842F004020A600A68B2
:1086100042EA002040F4803008607047BB4A13688B
:1086200023F44073136013681360136843F001036D
:1086300013600170704700BF10B5B4490C6824F492
:1086400040740C600C6844F440740C600C6844F096
:1086500001040C600260BFF36F8F436010BD00BF68
:10866000AA4A136823F440731360136843F48073B9
:108670001360136843F0010313600180704700BF6B
:10868000A24A136823F440731360136843F4007321
:108690001360136843F0010313600160704700BF6B
:1086A00032480168C90606D59749CA6942F01002E6
:1086B000CA61102101600168890606D59249CA691C
:1086C00042F00802CA61202101600168490606D50E
:1086D0008D49CA6942F00402CA6140210160016803
:1086E000090606D58849CA6942F00202CA6180219A
:1086F00001600168C90507D58349CA6942F00102D2
:10870000CA614FF4807101600168890706D57E490E
:10871000CA6942F02002CA6102210160704700BFAD
:10872000F8B5044678480021104EC16100F0D4F934
:108730000546671C3068C00309D5002FFAD024B164
:1087400000F0CAF9401BA042F4D90320F8BD3068FC
:10875000C0071CBF01203060306810F4F97F04BFEF
:108760000020F8BDFFF79CFF0120F8BD0C3C024043
:108770000146154881423CBF0020704700F5804209
:1087800091423CBF0120704700F5004291423CBF3E
:108790000220704700F5404291423CBF03207047E1
:1087A00000F5E03291423CBF0420704700F5703282
:1087B00091423CBF0520704700F5B8220720914246
:1087C00038BF0620704700BF00400008B0B504461F
:1087D00000F082F90546EB48611C007818BF04449C
:1087E00000F07AF9401BA042FAD3B0BD2DE9F8435E
:1087F000DFF81481054698F81800012801D10226F7
:1088000038E00120894688F8180001F07DFA064614
:1088100068BB4FF0FF303D4CC9F8000028680128C4
:108820000AD1287CFFF7EAFE01F06EFA06462068BE
:1088300020F00400206018E0A8680746E9680844B2
:1088400087420ED2297C3846FFF792FE01F05CFA8F
:108850000646206820F0FA00206026B9A868013793
:10886000ECE7002601E0C9F80070FFF79DFE00204C
:1088700088F818003046BDE8F88300BF2348016837
:1088800041F0004101600020704700BF2DE9F04138
:10889000DFF87480074698F81800012804BF02200A
:1088A000BDE8F08101201E4614460D4688F81800E8
:1088B0004CF25030FFF734FF08BB022F07D0012FD6
:1088C0000AD077B9E1B22846FFF7A8FE0EE02846A5
:1088D0002146FFF7D5FE09E0A1B22846FFF7C0FE0A
:1088E00004E0284622463346FFF7A6FE4CF25030FD
:1088F000FFF716FF05490A6822F001020A6000210D
:1089000088F81810BDE8F0810C010020103C0240EE
:108910000648C168B1F1FF3FC4BF00207047044959
:10892000016004490160C068C00F7047043C024008
:1089300023016745AB89EFCD2DE9FC4F5D4A072444
:108940004FF0010B4FF000094FF0000A90425A4AD5
:1089500008BF042402444FEAB223042B38BF4FEA75
:10896000B22400940022102A08BFBDE8FC8F0F68D3
:108970000BFA02F6374200F09780D1F80480032307
:1089800003FA0AF708F0030CFF43ACF1010EBEF145
:10899000010F0ED88468CD683C4005FA0AF52C43D7
:1089A0008460C8F3001445689440B5432C43446088
:1089B00005E0BCF1030F02D14FF0030C20E0C468C6
:1089C0008D683C4005FA0AF52C43BCF1020FC460E7
:1089D00016D109F01C0E0F2303FA0EFC6FF00303EF
:1089E00003EA520505442C6A24EA0C0C0C6904FACB
:1089F0000EF444EA0C042C62D1F8048008F0030C55
:108A000005680CFA0AF43D402C4318F4403F04601A
:108A10004AD0002322F0030701932A4B1C6844F438
:108A200080441C601C680F2304F48044019409F006
:108A30000C0403FA04FC214B019D9E461F44224B6B
:108A4000FD589846009B25EA0C0503FA04F42C43D4
:108A500047F80840DEF808404F68FB0244EA060584
:108A6000174B58BF24EA0605CEF80850BD029C46B5
:108A70001B6843EA060458BF23EA0604CCF800400A
:108A8000BD03DEF8043043EA060458BF23EA0604B7
:108A9000CEF80440FD03DEF8003043EA060458BF78
:108AA00023EA0604CEF8004009F104090AF1020A9B
:108AB000013258E7001002400000FEBF003C0140B8
:108AC0000C3C01404438024008FCFFFF002A08BF6C
:108AD00009048161704700000E480068704700BFBC
:108AE00001480068704700BF107AFF1F0148006806
:108AF000704700BF147AFF1F01480068704700BF2D
:108B0000187AFF1F1F48034900780A68104408605C
:108B1000704700BF6C0C002080B50B48016841F421
:108B200000710160016841F480610160016841F4F5
:108B300080710160032000F07DF80F2000F006F83E
:108B400000F024F8002080BD003C024070B50D4EBE
:108B500004464FF47A713078B1FBF0F00A490968A5
:108B6000B1FBF0F001F066F801250F2C08D838B9F8
:108B70004FF0FF3021460022002500F035F87460E8
:108B8000284670BD000000204800002082B0002070
:108B90000B4901904A6842F480424A604A6802F4F4
:108BA00080420192019A0090086840F0805008606D
:108BB000086800F080500090009802B0704700BF35
:108BC0004038024000280BD400F01F010122C0B23F
:108BD00002FA01F1034A42EAD00020F003000160EA
:108BE000704700BF00E100E0F0B5184B4FF0FF36D2
:108BF0001C68C4F30224E51E84F0070438BF002576
:108C000006FA05F7BA43042C28BF042406FA04F434
:108C1000A14300F00F04A940043C1143044A23443B
:108C200009010244002848BF03F10C021170F0BD95
:108C300000E400E005494FF6FF030A681A4060F3BC
:108C40000A22034810430860704700BF0CED00E0A3
:108C50000000FA0502F060FD7047006841620020E4
:108C6000704770B50068436AB1B1846A0139002564
:108C700003EB1443CCB2A54207D200EB85060135C5
:108C8000D6F8046103EB1643F5E700EB810043EAF5
:108C90000241C0F8041102E043EA0241816200206F
:108CA00070BDD0F8E00401F0F9BC01EBC10200EBAB
:108CB0008202D0F8E004126A01F067BC01EBC10245
:108CC00000EB8202D0F8E004D2F8602201F0AFBCE1
:108CD000D0F8E00401F0E4BC01F00F0249B202EB6D
:108CE000C202002900EB820303F5157248BF03F1AD
:108CF00014020068114602F075BB10B5044601F07D
:108D00000F0049B201F03EF8C3BF002281F855229E
:108D100001F515710122DCBF4A751431087094F811
:108D20009404012804BF022010BD01F04FF802F0A6
:108D3000F1F801F016B8B0B5044601F00F00227941
:108D4000904201D901251BE049B201F01BF8C3BFD5
:108D5000002281F8552201F515710122DCBF4A7508
:108D600014310870002594F894048D70012801D105
:108D7000022505E001F02AF802F018FA84F894546C
:108D80002846B0BDB0B5044601F00F0049B26FF3FC
:108D9000DF2200F0F7FFC3BF002581F8555201F52F
:108DA00015710125DCBF4D7514318A600B71087097
:108DB0004A7802B14883022B04BF0020487194F81E
:108DC0009404012804BF0220B0BD00F0FFFF01F0B1
:108DD000EFFF00F0F7BFB0B501F00F01002501EB88
:108DE000C10400EB840404F5187784F8541284F865
:108DF000555204F515712CC78379012B08BFC4F8AF
:108E000070221A46006802F013FA0020B0BDB0B517
:108E10000446007901F00F05854284BF0120B0BDF2
:108E200048B2B0F1FF3F09DD01EBC100002104EBC6
:108E3000800080F8551200F5157107E005EBC500BC
:108E4000012104EB8000417500F1140194F8942491
:108E500001200D708870012A04BF0220B0BD84F883
:108E60009404206802F0C9F92DB9A179206804F2B0
:108E70009C4202F06FF900F0A5BFB0B501F00F05FC
:108E800005EBC50100EB8104214601F8145F0025C4
:108E900001F10C072CC701234B708379012B08BF0C
:108EA00022631A46006802F0C3F90020B0BD00003A
:108EB0002DE9F04F89B005688246284602F016FB7E
:108EC00010B109B0BDE8F08F00F032FF0028F8D0F3
:108ED000D5F80808C0F30D20CAF8D40400F028FF24
:108EE0000146DAF80000890703D5416901F0020163
:108EF000416105F50061049102F024FB0146DAF8B6
:108F000000000595C9063BD5816921F010018161FA
:108F10002C6AC4F3434004F00F05062818D0022839
:108F200027D147F6F07014EA000622D005EBC50001
:108F300034090AEB800705982246D7F8601202F040
:108F400005FBD7F8600200EB1610C7F8600207E0D7
:108F500005980AF29C41082202F0F8FAC4F30A14B8
:108F600005EBC5000AEB8000D0F868122144C0F878
:108F70006812DAF80000816941F010018161059DF5
:108F800002F0E0FA00030DD400F0D2FE049E40038C
:108F900000F1E08000F0CCFE002800F1A581DAF8B5
:108FA0000000B9E1DAF8000002F0ABFA06460AF276
:108FB0009C400AF51D744FF430684FF0000B089088
:108FC000002EE1D0F00700F0B8805FFA8BF9DAF8F4
:108FD0000000494602F0AEFA0746C0075CD005EB38
:108FE000080001218160DAF8000008EB0001036C41
:108FF0008A689AF80650012D24D115072FD49506BA
:1090000047D4059D12F0280F46D1AC46E34DAB4244
:1090100002D9120400F198802268096965466FF34D
:10902000DF41511AB8F5306F44F80C1C2CD1DAF836
:109030006422002A00F08C80DAF860020844CAF842
:10904000600221E0D54D05F58075AB4211D1059D3B
:1090500010040AD4900644BF2020886014E0CF4852
:10906000059D834218D9100416D54FF4004088603E
:1090700012E0059DB8F5306F06D1DAF8641219B91F
:109080000021089A02F066F850464946FFF716FE9E
:1090900002E020208860059D380722D505EB0800F6
:1090A0000821BE4B8160DAF800100A6C08EB010061
:1090B00081689A4212D9090444BF4FF4004181608B
:1090C000504600F02EFB9AF80600012809D1DAF884
:1090D0000000089A012102F03DF802E0504600F03D
:1090E00020FBF80642BF05EB080010218160B8079D
:1090F00016D56869000604D50499486840F4806074
:10910000486014F81D0C012806D10020494604F8D7
:109110001D0C504600F041FA05EB08000221816069
:10912000B80642BF05EB080020218160B80442BFA9
:1091300005EB08004FF400518160243408F1200849
:1091400076080BF1010B3BE74FF4004065468EE7D4
:10915000012196E7DAF8000002F0CCF907460AF29E
:109160009C400022029005F510600690002F3FF40D
:1091700011AFF80700F0B580DAF80000D1B207921D
:10918000089102F0C5F90446C00727D0079B0122C9
:10919000716B03F00F0002FA00F021EA0000706327
:1091A000069800EB431082609AF80600012811D15E
:1091B00003EBC3000AEB8000D0E9071211440162FF
:1091C00043B9DAF8240028B9DAF80000029A01213C
:1091D00001F0C0FF08995046FFF767FD079A200786
:1091E00004D50698082100EB42108160E00604D502
:1091F0000698102100EB42108160600604D50698A5
:10920000402100EB42108160A00718D52846114686
:1092100002F03FF9079A02EBC2000AEB800010F857
:10922000171F012906D1002101700899504600F04E
:10923000B0F9079A0698022100EB421081602006DF
:109240004FD502EBC2000AEB800BD94659F8241F18
:10925000C84658F8040F814243D35BF81C5FDAF824
:109260000040091A03975746A94238BF0D4604EB40
:1092700042110BF1040601F5106A15E0DBF800500D
:10928000BB79101A31680093A84238BF0546089A86
:10929000ABB2204602F02EFA306828443060D8F88D
:1092A00000002844C8F80000D9F80020DAF8183087
:1092B000E91C9BB2B3EB910F28BF8242DED88242F9
:1092C000BA46059DDDE90376079A0AD802F00F0039
:1092D000012101FA00F0D4F8341821EA0000C4F8A2
:1092E00034087F08013241E7706820F001007060A7
:1092F0009AF8CC04012807D1002000218AF8CC0478
:109300005046FFF7A9FC02E0504600F0F5F900F0E6
:109310004AFD01F00041416102F014F9000502D458
:10932000DAF800000AE0B068C00702D0504600F04A
:1093300017FA00F038FD01F40061416102F002F912
:10934000C00402D4DAF8000056E0D5F80408102171
:1093500020F00100C5F80408DAF8000002F099F8DE
:109360009AF8041005F510604FF67F32C1B18260A3
:109370000139036823F400130360C0F80822D0F811
:10938000003223F40013C0F80032D0F8003243F06A
:109390000063C0F800322030E8E700BF0A30544FC5
:1093A000F06940F00110F0619AF80F0040B1D6F872
:1093B000840040F00B00C6F8840006F1440006E08B
:1093C000706942F22B010843706106F110000168D8
:1093D0000AF29C4241F00B010160306820F4FE600B
:1093E0003060DAF800009AF8061001F0B3FE00F0E1
:1093F000DAFC01F48051416102F0A4F80146DAF888
:109400000000890419D501F011FDDAF8000002F01E
:1094100061F8DAF800408AF8070000F043FA9AF899
:1094200007200146204602F0EDF8504600F052F9C0
:1094300000F0B9FC01F40051416102F083F800072B
:1094400002D4DAF8000007E0504600F059F900F0C5
:10945000AAFC01F00801416102F074F8000606D48C
:1094600000F066FCC00219D4DAF8000038E0059973
:10947000012440F27B25886920F0800088619AF8F9
:1094800004008442ECD21AF80500012803D1E1B2AD
:109490005046FFF721FC24350134F0E705980AF126
:1094A0003B040126012700F512659AF80400874263
:1094B00011D228686178012909D1B0F1FF3F06DC9B
:1094C00047F080002670C1B25046FFF705FC2434F7
:1094D00020350137E9E700F066FC01F480114161B5
:1094E000059C02F02FF8800202D4DAF800002EE08A
:1094F0009AF8042004F532610AF51F700123012453
:1095000094421FD20D680678012E12D1B5F1FF3FAB
:109510000FDCDAF8D46486EA1545ED0709D1059E1B
:10952000B56945F08005B56100F8013C75692D0607
:1095300003D5243020310134E2E70499486840F42F
:109540000070486000F02FFC01F40011416101F04F
:10955000F9FF400002D4DAF8000007E05046FFF7B8
:10956000A0FB00F020FC01F08041416101F0EAFF26
:1095700040077FF5A6ACDAF800004468610704D51F
:109580005046FFF7A5FBDAF800004168214341602F
:1095900097E4D0F8E00401F0D2B8D0F8E00401F08C
:1095A000DDB87CB500284CD00446056890F89504D9
:1095B00028B9002084F89404204600F04FF80320D6
:1095C00084F89504B5F1A04F04BF0020A071206875
:1095D00001F0BAFD94E80F00257C009501F034FC01
:1095E00060BB20680021002501F0CBFF30BB207953
:1095F00001210022002398420AD0A6182432F385C4
:1096000033757175C6E90755756235760133F2E732
:1096100004F5157100220023984208D00B70C1E9AF
:1096200002220A610A714A7024310133F4E794E896
:109630000F00257C009501F0C1FC28B1022084F8C0
:109640009504012528467CBD00250120657484F819
:109650009504206801F0A6FCF4E70000B0B586B0E0
:109660000068B0F1A04F2FD10025184C009520685C
:1096700040F001002060206800F0010000900A2006
:1096800005900320CDE90350022002904FF4C05012
:109690000190009801A90E48FFF74EF9606800217B
:1096A000002240F0800060600095606940F48040D6
:1096B0006061606900F48040009000984320FFF7EB
:1096C00093FA4320FFF77EFA06B0B0BD303802406F
:1096D0000000024010B50446C079022818BFFEF70A
:1096E00044FFD4F8E004012101F0A4F8D4F8E00428
:1096F000BDE8104001F056B8D0F8E00401F083B89E
:10970000D0F8E00401F089B810B500F0EEFA04BF1B
:10971000022010BD617400F059FB01F063FF00F0FE
:1097200020BBD0F8E02400F29C41104601F08EB836
:1097300010B500F0DAFA04BF022010BD00F04BFBB8
:1097400006D5617B012903D1816B41F480318163AE
:1097500001F07CFE206801F019FC00F002BB000063
:1097600010B50446D0F8E00401F0B2F82068D0F853
:10977000001E41F00101C0F8001EE07A20B103484C
:10978000016841F00601016010BD00BF10ED00E06E
:109790002DE9F041002857D03F4B04468846D3F8C6
:1097A000000400F00700884204D283F8008400F02F
:1097B000A5FA49D12068810711D5410703D59968D9
:1097C00041F4E0519960010703D5996841F4604183
:1097D0009960A1689A6822F0F00211439960C0076D
:1097E0002BD100F08BFA04D983F8008400F086FABC
:1097F0002AD12068410705D5E1689A6822F4E05231
:1098000011439960000706D52069996821F46041E9
:1098100041EAC00098601C4600F04AF8A1681F4A5F
:10982000C1F30311515CC840204908601C4800681E
:10983000FFF78CF90020BDE8F0816068811E0229E5
:1098400005D21968890107D40120BDE8F0810128FB
:109850001DD119688903F7D599681D4621F00301C8
:1098600008439860FFF738F9064641F28837606888
:10987000A9682B4601F00C01B1EB800FB1D0FFF7C6
:109880002BF9801BB842F2D90320BDE8F08119689A
:109890008907D9D5E0E700BF003802408AB8000840
:1098A0000400002001480068704700BF4800002005
:1098B00010B5134C606800F00C00082804D0042890
:1098C00014BF1048104810BD2268206800234002D1
:1098D00002F03F020C485CBF42F20040C0F2F400CC
:1098E0002168C1F38811A0FB0101FEF7D5FC2168B6
:1098F0000222C1F3014102EB4101B0FBF1F010BDC6
:10990000043802400024F40040787D012DE9FC4138
:10991000002860D004460078C34EC0070BD0B06862
:1099200000F00C00042840F08F803068800302D5DE
:10993000606800284FD02078800718D5B06810F0F4
:109940000C0F07D000F011FA40F0968070684002CA
:1099500000F192803068800702D5E06801283AD192
:109960002069316821F0F80141EAC00030602078B8
:10997000000733D42078400743D4A76947B300F0E9
:10998000F4F940F0AA80012F25D0E169706800F455
:1099900080028A421FD1216A00F03F028A421AD116
:1099A00047F6C071626A0140B1EB821F13D1A16A10
:1099B0004FF6FF72C903914300F44032A1F58031A4
:1099C0008A4208D1E16A00F07060B0EB016F02D109
:1099D0000020BDE8FC810120BDE8FC81616993485D
:1099E00000296AD00121C0F8801EFFF775F80546EE
:1099F000706F8007BED4FFF76FF8401B0228F7D9BD
:109A0000C9E0306C10F080580AD100200190306C11
:109A100040F080503064306C00F08050019001982C
:109A2000834F3868C0053AD4386840F48070386095
:109A3000FFF752F805463868C00530D4FFF74CF8F8
:109A4000401B0228F7D9A6E000F08FF903D1706817
:109A500040023FF56AAF6068B0F5803F07D0B0F5CF
:109A6000A02F40F08280306840F480203060306861
:109A700040F48030306082E0E06800284CD06B48D1
:109A800001210160FFF728F80546306880073FF59F
:109A900067AFFFF721F8401B0228F6D97BE0A068EA
:109AA000012805D0052848D1306F40F00400306708
:109AB000306F40F00100306749E00021C0F8801E9F
:109AC000FFF70AF80546706F80077FF553AFFFF781
:109AD00003F8401B0228F6D95DE05449002088466F
:109AE0000866FEF7F9FF0546022F0AD1474630689F
:109AF000800153D5FEF7F0FF411B03200229F6D960
:109B000067E7306880017FF563AFFEF7E5FF411B33
:109B100003200229F5D95CE7444800210160FEF7E3
:109B2000DBFF0546306880077FF521AFFEF7D4FFE5
:109B3000411B03200229F5D94BE7316F002821F0A2
:109B400001013167316F21F00401316745D0FEF723
:109B5000C3FF054641F28837306F80074CD4FEF7CB
:109B6000BBFF401BB842F7D915E03168002821F44B
:109B700080313160316821F48021316045D0FEF7B9
:109B8000ABFF0546306880033FF5D5AEFEF7A4FF76
:109B9000401B6428F6D90320BDE8FC811C341FCC8F
:109BA0000843D90340EA82104FF6FF72914340EA1E
:109BB0000460A1F580310843706001203866FEF72B
:109BC0008BFF0446306880013FF502AFFEF784FF4B
:109BD000011B03200229F5D9FBE6FEF77DFF0546B0
:109BE00041F28837306F800706D5FEF775FF411BBD
:109BF0000320B942F6D9ECE6B8F1000F7FF4BDAE10
:109C0000306C20F080503064B7E6FEF765FF054603
:109C1000306880037FF58FAEFEF75EFF411B0320A7
:109C20006429F5D9D5E600BF00380240000047425C
:109C300000700040411E0020B0EB116F1CBF0120DE
:109C40007047044AF023516003490B70072190606C
:109C50001160704710E000E023ED00E0FEE770B512
:109C600001310023372472B1060F01F8023B04EBE7
:109C70001075B0F1204F38BF06F1300501F8035CD4
:109C8000013A0001EFE770BD80B5A6480E490022F9
:109C900000F056FC08B1FEF768FCA2480B4900F042
:109CA00038FE08B1FEF761FC9E48094900F08FFAC2
:109CB00008B1FEF75AFC9B4800F050FE18B1BDE811
:109CC0008040FEF752BC80BD2C0000204C000020DC
:109CD000C8000020FEE7FEE70148FFF7E9B800BF33
:109CE00088070020214600F004BC044690F8940444
:109CF00001287047C0F8041800207047D3F800040A
:109D000000F00700404570474CF25030FEF708BDA8
:109D1000D0F8D42200EB8202D2F8B822002A704791
:109D2000204600F012BB04468121304600F0C4BB3F
:109D3000DAF8000001F006BC0099013100910099A9
:109D4000B1F1706F70470020C4F8D402204610476C
:109D5000204600F02DBB054630460121012700F0CA
:109D6000ABBB002084F8940410BDB06800F00C0078
:109D7000082870470020C4F8D4022046084720462F
:109D800000F0C6BAB1F1FF3F00EBC00104EB810166
:109D90007047C9F83800D9F83800704794F89C0229
:109DA000013802287047DAF80000416970470A5804
:109DB00042F000620A500A5842F080420A5042F2D1
:109DC00010727047002084F89404B0BD012084F81C
:109DD0009404206870470121206884F89414C168B5
:109DE00049067047F8B501460078152812D01628A4
:109DF00056D017285FD0202818BFF8BD40484FF430
:109E000080610122A0F18770FEF760FEBDE8F84096
:109E1000FEF720BF364C01200025E0701520607051
:109E20003448016842688368C668076904F12800FD
:109E30004EC031488642314818BF2F4683423048D1
:109E4000304B18BF2F4641405A40844604F1180059
:109E5000114318BF2F4667612B490A684B688E680B
:109E6000CF680969CCC029488742294818BF2946CC
:109E7000864282EA0C00274A18BF29465A401043FE
:109E800018BF29462161FEF72BFE6060FEF72EFE0B
:109E9000A060FEF731FEE060C4E90E55257008E0D1
:109EA000124C3F22601CFEF76FFAD4E9010101F069
:109EB00045FC204614E00C4C3F22601CFEF764FA7F
:109EC000E2780AB1392A03D3382A28BF3822E2704F
:109ED0006068810703D104F1080101F056FC0248D3
:109EE000BDE8F84000F018B81002002090010020F2
:109EF000D0010020E8FF0008B7E4361AF9D2748CCC
:109F000000001041E183AB52EC7F0008A3F542CD85
:109F10008EAC970B2539D1F601460248402200F05D
:109F200061B900BFAC04002070477047FEF7EABD7E
:109F3000B0B592B000241421CDE90A44CDE908441B
:109F400001A8FEF766FA1F4800940225016841F057
:109F500080510160006800F08050009000980094EB
:109F60001948016841F440410160006800F4404034
:109F70000090042010951190C0200F9019200E9091
:109F80004FF48000CDE90C504FF480300790012051
:109F90000690009806A8FFF7B9FC08B172B6FEE774
:109FA0004FF480500594CDE90254032104900F2012
:109FB000019001A8FFF7ECFB08B172B6FEE712B002
:109FC000B0BD00BF40380240007000400248016848
:109FD00041F470010160704788ED00E0D0F8D412C0
:109FE00000EB81000021D0F8C00280F85010002062
:109FF000704780B5D0F8D41200EB8100D0F8C012C1
:10A0000039B1D0F8C402C268087849789047002076
:10A0100080BD032080BD70B58121044600F0ACFAFC
:10A0200000252046012184F83750256300F0A4FA6A
:10A03000D4F8D40284F87751C4F8705104EB80004E
:10A04000D0F8C01289B1D0F8C40280688047D4F833
:10A05000D40204F5307656F8200000F0A3FED4F8C0
:10A06000D40246F82050C4F8BC52002070BDB0B5F0
:10A07000D0F8D41200EB8100D0F8C0525DB1E96C89
:10A080000024012908D1D0F8C4026978C268287870
:10A090009047EC6400E003242046B0BD0A21018013
:10A0A00000487047BC000020F8B51F4EFFF73BFE8C
:10A0B000FFF751FE15B14021AF71A98018B1012100
:10A0C000817140218180292020801748F8BD00BF80
:10A0D00070B5154EFFF727FE05463046012100F00A
:10A0E000EBF91DB10521A9714021A98018B1052105
:10A0F000817140218180292020800B4870BD00BFE4
:10A10000F8B5094EFFF70FFEFFF725FE15B1402108
:10A11000AF71A98018B1012181714021818029206E
:10A1200020800148F8BD00BF8400002070B50446BF
:10A13000542000F039FE0546D4F8D40204EB800028
:10A1400000F5307075B30560207C0126C4F8BC5260
:10A1500000284FF0010008BF0520C4F870012063FB
:10A16000812103224023204600F007FB20460121E5
:10A170000322402384F8376000F0FFFAD4F8D402B9
:10A1800084F87761002685F8506004EB8000D0F8F1
:10A19000C40240688047204601212A46402300F03F
:10A1A000F8FA02E0002102260160304670BD80B559
:10A1B000D0F8D41200EB8101D1F8C0222AB10121DC
:10A1C000402300F0E6FA002080BD032080BD39B1B5
:10A1D000D0F8D42200EB8200C0F8C41200207047EF
:10A1E00003207047B0B513460A46D0F8D41200EBEE
:10A1F0008101D1F8C04274B190F89C12032908D1B2
:10A2000094F8505001213DB984F85010812100F09C
:10A210006CFB002100E003210846B0BD7CB5D0F8FE
:10A22000D42200EB82040022D4F8C032ADF806201C
:10A23000002B00F068800A7812F0600211D0202A0A
:10A2400040F05F804A78023A092A00F25A80DFE83B
:10A2500002F0051C58585858581F282C03F1440187
:10A2600038E04D780B2D4CD80022DFE805F0064D84
:10A270004A4A4A4A224A4A4A2D3890F89C22032ADE
:10A280003FD10DF10601022225E003F1400121E05A
:10A29000CA88412A35D20121D964194600F060F8F4
:10A2A0001BE0C878002258642EE0887800221864E9
:10A2B0002AE0CA78222A1AD0212A22D1CA88134B2E
:10A2C000092A28BF09221AE090F89C22032A18D1F3
:10A2D00003F14801012200F05DF8002214E090F83B
:10A2E0009C22032A0DD18878002298640CE0CA8849
:10A2F000222A28BF2222D4F8C4321B680BB1194687
:10A30000E9E700F022F8032210467CBDB0000020EF
:10A3100080B5D0F8B82252689047002818BF0320B3
:10A3200080BD002070470020704780B513460A4664
:10A33000002100F02EFA002080BD80B513460A46A9
:10A34000002100F0D2FA002080BD10B58021044623
:10A3500000F0ACFA20460021BDE8104000F0A6BA9B
:10A3600080B513460A46C0F864110321C0F8941260
:10A370000021C0E9553300F00CFA002080BD80B503
:10A38000052100220023C0F89412002100F001FAF8
:10A39000002080BD80B513460A4641620221C0F804
:10A3A00094120021C0E9053300F09FFA002080BD1F
:10A3B00080B5042100220023C0F89412002100F08F
:10A3C00094FA002080BD000010B52D4C0A4602A072
:10A3D000FFF788FC204610BD437573746F6D2048ED
:10A3E000494420436F6E66696700000012200880B0
:10A3F00000487047D800002010B5214C0A4602A042
:10A40000FFF770FC204610BD437573746F6D2048D4
:10A41000494420496E7465726661636500000000FE
:10A420000420088000487047EC00002010B5144C50
:10A430000A4602A0FFF756FC204610BD53544D6952
:10A4400063726F656C656374726F6E69637300002D
:10A4500010B50B4C0A4602A0FFF744FC204610BD85
:10A4600053544D333220437573746F6D2048756DAE
:10A47000616E20696E74657266616365000000003C
:10A4800054020020B0B51A200880094908688A687B
:10A4900080180BD0074D4C680822A91CFFF7DFFB82
:10A4A00005F1120120460422FFF7D9FB0148B0BD97
:10A4B000107AFF1FF000002010B502784388934205
:10A4C0000DD994B29C420AD20478204422444478A4
:10A4D000052CF6D184788C4208BF10BDF1E700202E
:10A4E00010BD0021027812B101300131FAE7C8B283
:10A4F000704770B5B0B116460C460546FFF7F1FF40
:10A500000221032201EB40003080207000206270A5
:10A510002A783AB1CBB202310135E25443F001025C
:10A52000A054F5E770BD0000044AC100032822FAD8
:10A5300001F188BF0321C8B2704700BF00030103C7
:10A5400078B10023C0F8D032C0F8C432C0F8B832B5
:10A5500009B1C0F8B4120121027080F89C1200F019
:10A56000AFB80320704780B5D0F8C802FEF7E3FB10
:10A57000BDE88040FFF7D8BF80B5D0F8C802FEF72D
:10A58000BCFBBDE88040FFF7CFBFB0B5044669B162
:10A5900094F89C02032848D1D4F8B8024269002AF2
:10A5A00043D0FFF7D0FB00283FD0B0BDD4F89402D1
:10A5B000022834D1218CA06988420ED9421A606ADF
:10A5C000A261014420466162FFF7B7FE20460021E8
:10A5D0000022002300F0DDF821E00FD16169814203
:10A5E0000CD3D4F89802814208D2204600210022E0
:10A5F0000025FFF7A2FEC4F89852E7E794F89C0202
:10A60000032805D1D4F8B802C16809B1FFF7B2FB3D
:10A610002046802100F04AF92046FFF7B0FE94F86A
:10A62000A00210B1002084F8A0020020B0BD10B537
:10A63000044659B194F89C0203282DD1D4F8B802ED
:10A6400082694AB3FFF77FFB30B310BDD4F89402A0
:10A65000032821D1B4F86021D4F8580190420ED9D2
:10A66000D4F86411801AC4F8580190421144C4F817
:10A67000641188BF02462046FFF757FE0CE094F8AD
:10A680009C02032805D1D4F8B802016909B1FFF78B
:10A6900071FB2046FFF78CFE002010BD00207047A4
:10A6A00080B5012180F89C12D0F8B82232B101792E
:10A6B00052689047002818BF032080BD002080BD4D
:10A6C00010B5017831BB1449C0F8C812C1F8E004D4
:10A6D000042008714FF0A04008600020C8810220CB
:10A6E000C1F809004FF40070C8800846FEF759FF12
:10A6F00008B1FDF73AFF084C80212046FEF7ADFA7D
:10A70000204600214022FEF7ACFA2046012180229B
:10A71000FEF7A7FA002010BD8807002001F07F0295
:10A72000D0F8C80249B202EBC202002900EB820055
:10A7300000F2562248BF00F116021078704780B52B
:10A74000FFF7E6FA08D090F89C32032B02D1126A88
:10A7500002B19047002080BD032080BD80B5FFF787
:10A76000D7FA08D090F89C32032B02D1526A02B17A
:10A770009047002080BD032080BD10B51446D0F85E
:10A78000C8021A462346FEF7FDFABDE81040FFF75F
:10A79000CBBE80B5D0F8C802FEF71DFBBDE88040F7
:10A7A000FFF7C2BEF8B501260025044680F89C627A
:10A7B000C0F8A452456080F8A052C0F89452D0F876
:10A7C000B80250B142683AB1204600219047054690
:10A7D000002818BF032500E00025204600210022A4
:10A7E00040234027FFF7C9FF204680210022402355
:10A7F00084F86361A4F86071FFF7BFFF284684F80E
:10A8000023602784F8BD90F89C12042904BF90F8B7
:10A810009D1280F89C120020704780B590F89C1221
:10A82000032905D1D0F8B81211B1C96901B188471F
:10A83000002080BD01740020704780B5D0F8C802A8
:10A84000FEF762FFBDE88040FFF76EBEB0B500F2D4
:10A85000AA250446284600F051F80120C4F89402C5
:10A86000B4F8B002C4F8980294F8AA0200F01F01EC
:10A87000022908D001290CD089B920462946BDE813
:10A88000B04000F06DB820462946BDE8B04000F069
:10A89000BFB920462946BDE8B04000F053BA00F0E9
:10A8A00080012046BDE8B040AFF3008080B5D0F80D
:10A8B000C802FEF7ACFABDE88040FFF735BE80B5B0
:10A8C000D0F8C802FEF734FFBDE88040FFF72CBE89
:10A8D00090F89C1204291CBF90F89C1280F89D12DD
:10A8E000042180F89C120020704780B5D0F8C8027F
:10A8F000FEF7C3FABDE88040FFF716BE0A78027083
:10A900004A7842704A8842808A888280C988C18099
:10A9100070471CB504460020ADF80600A9B1D4F874
:10A92000D402C4F8B81204F52E7151F82000C16A9F
:10A9300021B10DF106008847C4F8D002D4F8D8023E
:10A940000130C4F8D80200201CBD03201CBDD0F883
:10A95000B8220AB11268104700207047FFF7AFBF56
:10A96000BCB5044608780D4610F0600011D04028B0
:10A9700002D0202840F03D81D4F8D402294604EBCF
:10A980008000D0F8B8028268204602B0BDE8B0402E
:10A9900010476878092800F22C81DFE810F00A00DF
:10A9A0001E002A012C002A01360055002A016B00E6
:10A9B0007D00FFF7F3F900F21C81E888022840F0DF
:10A9C0001881D4F8A40203222146002808BF0122DE
:10A9D00041F80C2F2046022208E1FFF7DFF900F2D0
:10A9E000088168880025012840F00681C4F8A45237
:10A9F000FFF7AEF900E1688802286BD0012840F02B
:10AA0000F8800120C4F8A402F8E0A888002840F0EB
:10AA1000F080E888002840F0EC8068887F2800F209
:10AA2000E88094F89C12032900F0E380C5B284F812
:10AA30009E0220462946FFF700FFFFF789F9002D07
:10AA400000F0DF800220DDE000204FF0FF31ADF8A4
:10AA50000600688801EB1021062900F2CA80DFE8B1
:10AA600001F004444BC8C8586200D4F8B412207CEA
:10AA70000A68ACE0E888012840F0BB8094F89C02AA
:10AA8000411E02292AD2002521462046012241F8F2
:10AA9000085FFFF77FFCAFE068885C4D10F0FE0FA9
:10AAA000287003D0FFF73CF90325A5E0C1B294F864
:10AAB0009C02032843D0022859D1002900F09E802F
:10AAC00020466160FFF743FF002867D00546FFF787
:10AAD00027F948E0687984F8A0028FE0032840F065
:10AAE0008880211D2046012280E0217CD4F8B80214
:10AAF000002942D0C16A41E0C0B2052800F2798045
:10AB0000DFE800F0035054585C60D4F8B4024268A7
:10AB10005BE0207C00286CD1D4F8B802416B0DF1C9
:10AB20000600884756E0207C002862D1D4F8B8029D
:10AB3000016B0DF1060088470146072023E021B391
:10AB4000606888425AD0C1B2FFF719F929782046C7
:10AB50006160FFF7FCFE002850D00546FFF7E0F8E3
:10AB60002179FFF70CF9022084F89C0244E0FFF7FA
:10AB7000D7F82978FFF703F996E7816A0DF1060007
:10AB8000884701460220487025E0022061600021CC
:10AB9000002584F89C02FFF7F2F829E7FFF7D8F8C0
:10ABA00003202FE0D4F8B40282680EE0D4F8B40297
:10ABB000C2680AE0D4F8B402026906E0D4F8B4022C
:10ABC000426902E0D4F8B402826992B1207C0DF1AE
:10ABD000060190470146EA8882B1BDF8060040B1FF
:10ABE000904238BF0246ADF806202046FFF7D2FB60
:10ABF00001E0FFF795F800252846BCBDFFF7A8F84F
:10AC0000F9E7012084F89C02F5E700BF500200201C
:10AC100070B5044608780D790E4610F0600016D025
:10AC2000402801D0202864D120462946FFF779FB2F
:10AC3000002860D10020C4F8D402D4F8B802826899
:10AC4000002A58D020463146BDE870401047707841
:10AC500068B101281DD003284BD194F89C02032829
:10AC60001BD17088002854D0FFF772F843E094F8A5
:10AC70009C0203281ED002283BD1680639D1280641
:10AC800004F1140158BF04F5AA71002001F80E0F59
:10AC900053E094F89C0203282FD0022829D168069B
:10ACA00027D020462946FFF701FE20468021FFF7E6
:10ACB000FDFD20E005F00F00802D00EB800004EB8F
:10ACC00080002CBF90F8230090F8630188B105F054
:10ACD0007F00802D00EB800004EB800000F1140663
:10ACE00038BF00F5AA7645F0800080281BD10020EF
:10ACF00020E0FFF715F8002070BD70880028FAD119
:10AD0000680603D020462946FFF72DFCFFF720F800
:10AD10008AE76806A8D0F0880028A5D120462946F1
:10AD2000FFF7C4FDA0E720462946FFF7F7FC0028FF
:10AD3000DDD0012006F10E01B07320460222FFF79C
:10AD400029FBD8E7B0B5044608780D4610F060003E
:10AD500018BF40280DD1FFF721F80CD8A88810F0B3
:10AD6000FE0F08D1C1B22046FFF7DDFA38B103204B
:10AD700010E02028EFD0FEF7D3FF0020B0BDD4F8BC
:10AD8000B8028268002AF2D000202946C4F8D40212
:10AD900020469047E9880029F0D10028EED1FEF73F
:10ADA000D7FFEAE7704700000048704754040020CE
:10ADB00070B5D0F81C480A784E78530102F00F05A0
:10ADC000012E16D1012606FA05F52C43C0F81C48C1
:10ADD0001844D0F800391B0423D400F51060036830
:10ADE00043EA82520B7989686FF3DF2141EA83419C
:10ADF00013E04FF48032AA402243C0F81C281844C4
:10AE0000D0F8002B12040CD40A79896800F5306060
:10AE10006FF3DF2141EA824102681143024A114384
:10AE20000160002070BD00BF00800010D0F8001944
:10AE300040F2FF729143C0F80019D0F8041841F4B1
:10AE40008071FEF757BF000070B5044602F47F40E2
:10AE50000D46B0F5807F17D1A16B1B4A049821F4F1
:10AE60008031C0B2A163E1681140E1600128E1686E
:10AE700021F44011E16003D1E06840F48010E0600B
:10AE8000204600F023F810E0E0681E4640F0400045
:10AE9000E060204600F01AF8A16B16F47F4F14BF53
:10AEA00021F4803141F48031A16305F47F01B1F5D3
:10AEB000803F07D1A16841F00601A160A16841F07F
:10AEC0002001A16070BD00BFBFFFBDFF81B00021A8
:10AED00000917246FEF730FF964618D80169B1F12D
:10AEE000FF3FF6DC0A210091009911B10099013968
:10AEF000F9E7016941F0010101617246FEF71CFFAB
:10AF0000964604D80169C907F7D1002000E0032064
:10AF100001B07047B0B50A784B785101012B24D1AC
:10AF200043180124D3F8005903F51061164B002D86
:10AF300007D50D6845F000650D600D6845F080454A
:10AF40000D6002F00F0204FA02F2D0F83C4894437C
:10AF5000C0F83C48D0F81C4824EA0202C0F81C287B
:10AF60000868184008600020B0BD43184FF48034D2
:10AF7000D3F8005B03F53061034B03F17073B5F157
:10AF8000FF3FDEDCD5E700BF007833ECD0F8001ED1
:10AF900021F00301C0F8001ED0F8041821F00201CE
:10AFA000FEF7A8BED0F8001E21F00301C0F8001E75
:10AFB000D0F8041841F00201FEF79CBE2DE9FE4FC7
:10AFC0008B468146180C41210023502903D049F8B3
:10AFD00021300131F9E75FFA80FABAF1000F08D0A9
:10AFE000D9F8380020F40010FEF7D3FE40F400201A
:10AFF00011E0D9F8040840F00200C9F80408D9F8B3
:10B00000380040F40010FEF7C4FE20F40020FEF7E4
:10B01000C0FE20F48020C9F83800002002F47F41EF
:10B02000B1F5807FC9F8000E02920DD1D9F8001851
:10B0300009F50068B0EB1B6F0EBFC8F8001041F0B7
:10B040000100C8F8000007E0D9F8000809F5006819
:10B0500040F00300C9F800084846102100F019FA32
:10B060000190484600F0F8F95FFA8BF1002209F5EB
:10B0700010634FF67F3500264901C8F81020C8F844
:10B080001420C8F81C20B1420ED09F594FF09044B4
:10B09000002E08BF4FF0006404EAE7749C519C192D
:10B0A00020362261A560EEE709F5306200234FF6F5
:10B0B0007F350026B1420ED094594FF09047002EB4
:10B0C00008BF4FF0006707EAE474945194192036E2
:10B0D0002361A560EEE7D8F8101021F48071C8F85C
:10B0E00010100021C9F818106FF080411BF47F0F79
:10B0F000C9F8141005D1D9F8181041F01001C9F899
:10B100001810D9F818100E4A1143C9F818100299EE
:10B1100011F47F0F05D0D9F8181041F00801C9F8D3
:10B120001810BAF1010F05D1D9F81810054A1143CA
:10B13000C9F818100199084318BF0120BDE8FE8F17
:10B1400000383C8004000040816821F001018160EA
:10B150000020704710B5036C134CA34203D3D0F802
:10B16000003B002B1ED40023C0F8103B0129D0F86F
:10B17000103B43F40023C0F8103BD0F8103B43F0E1
:10B180001803C0F8103BD0F8103B43F0C043C0F8A0
:10B19000103B07D1C0F8142BD0F8001B41F08021E0
:10B1A000C0F8001B002010BD0B30544F0A784B78BC
:10B1B00052011044012B0DD1D0F8002922F40012C5
:10B1C000C0F80029097901F0FE01022913D100F528
:10B1D00010600CE0D0F8002B22F40012C0F8002B15
:10B1E000097901F0FE01022905D100F530600168FE
:10B1F00041F080510160002070470A784B7851017E
:10B200000144012B19BF01F53060D1F8001B01F595
:10B210001060D1F80019002904D41AB1016821F096
:10B2200080410160016841F4001101600020704715
:10B23000F8B54B780C78012B2BD100EB4415D5F8E1
:10B240001069D1F810C005F51063BCF1000F44D0AF
:10B250006FF31206002C1E611E696FF3DC461E613F
:10B260008E6867D00CEB0607013FB7FBF6FE5C4F1C
:10B270001E6907EACE473E431E610E79012E64D156
:10B280001E6926F0C0461E614FF0C04606EA4E77A2
:10B2900058E000EB4413D3F8105B6FF31205C3F8CA
:10B2A000105BD3F8105B6FF3DC45C3F8105B03F55C
:10B2B00030638D680E69ECB1FEB17419013CB4FBCA
:10B2C000F5F6B4B26C43464D0C626FF3DF4405EA09
:10B2D000C6451E6935431D6116E06FF3DC464FF02D
:10B2E000000C1E611E6946F400261E611F696FF383
:10B2F00012072FE006B10D610D621C696FF3DF4587
:10B300002C431C614FF400241D692C43012A1C614D
:10B3100002D1CA6802B15A61097901292FD1D0F846
:10B320000808C0054FF0805058BF4FF00050196812
:10B33000084323E0B44591BF4FF400270E614FF45A
:10B340000027B4461E693E431E6166461F696FF3BF
:10B35000DF463743012A1F6117D1CA690AB1C5F810
:10B360001429097901290AD1D0F80818D5F800095B
:10B37000C9054CBF40F0805040F00050186018687C
:10B3800040F0044018600020F8BD630100F510652E
:10B39000EE5846F00446EE500E79012E12D1D0F848
:10B3A00008685F59F6054FF0805658BF4FF00056B9
:10B3B0003E435E511FFA8CF3C9680092224600F0AA
:10B3C00099F9E0E7BCF1000FDDD004F00F01012294
:10B3D00002FA01F1D0F834281143C0F83418D2E74A
:10B3E0000000F81F81B0002200920A784B785101CA
:10B3F000012B13D100F510604258B2F1FF3F20DC61
:10B400007346FEF7D4FC9E46009B01330093009BDD
:10B41000934218D80B58002BF6D412E000F5306098
:10B420004258B2F1FF3F0CDC7346FEF7C0FC9E466B
:10B43000009B01330093009B934204D80B58002BD0
:10B44000F6D4002000E0012001B07047816841F08F
:10B45000010181600020704781B000210091724697
:10B46000FEF76AFC964611D80169B1F1FF3FF6DCA0
:10B4700000210091102101617246FEF75DFC9646A5
:10B4800004D80169C906F7D4002000E0032001B008
:10B49000704781B000220092009A01320092009A17
:10B4A000B2F1706F12D80269B2F1FF3FF4DC89018A
:10B4B00000222031009201617246FEF73DFC964663
:10B4C00004D801698906F7D4002000E0032001B008
:10B4D00070470000D0F8080802A100F00600085CE0
:10B4E000704700BF000F020F0F0F0200406900F00D
:10B4F00001007047D0F81818D0F81C08084080B236
:10B500007047D0F81818D0F81C080840000C704795
:10B5100010B5D0F81028D0F8344801F00F0300EB34
:10B520004110D0F8080924FA03F3DB01DBB21A4317
:10B53000104010BD00EB4111D1F8081BD0F81408E1
:10B54000084070474169806908407047B0B593086A
:10B550004FF4805423B10559013B41F8045BF9E7EE
:10B5600012F003020BD04FF48053C058002320FA8E
:10B5700003F40833013A01F8014B1404F7D10846EB
:10B58000B0BDB0B50446C06820F0C040E060A1B1D5
:10B5900001291CBF0120B0BDE068002540F000502B
:10B5A000E0600A20FDF712F9616905F10A00C90798
:10B5B00013D1BE2D0546F4D30FE0E068002540F01E
:10B5C0008040E0600A20FDF701F9616905F10A0099
:10B5D000C90702D0BE2D0546F4D3C838B0FA80F0B2
:10B5E0004009B0BDD0F8002801F07F0122F4FE62CE
:10B5F000C0F80028D0F8002842EA0111C0F800186D
:10B6000000207047022A34D1284A294B0A449A4222
:10B6100002D24FF470512EE0264A274B0A449A4238
:10B6200002D24FF4605126E0244A254B0A449A4244
:10B6300002D24FF450511EE0224A234B0A449A4250
:10B6400002D24FF4405116E0204A214B0A449A425C
:10B6500002D24FF430510EE01E4A1F4B0A449A4268
:10B6600002D24FF4205106E01C4A1D4B0A449A4274
:10B670000AD24FF41051C26822F47052C260C268FC
:10B680001143C16000207047164A174B0A449A4282
:10B6900002D24FF40051EEE7144A154B0A444FF41E
:10B6A000C0519A4238BF4FF4E051E4E7405327FFBE
:10B6B00000350C00401E1BFF40420F0000DC0BFF5A
:10B6C000804F1200808CF9FE20D6130060B6E5FE94
:10B6D00060E3160000D3CEFE40771B00C05BB3FED4
:10B6E000C091210000CA91FE20753800E05459FE37
:10B6F000E09C410010B5029C0CB1002010BD03334A
:10B70000120300F580509B08002BF6D051F8044B33
:10B71000013B1450F8E7FEE70648BFF34F8F064A97
:10B72000016801F4E06111430160BFF34F8F00BF76
:10B73000FDE700BF0CED00E00400FA0570B586B02F
:10B74000B0F1006F01D201241CE00D460446FDF764
:10B75000DFF80026204625440596FDF709F8044643
:10B76000681EFDF705F8001B0221CDE90066029472
:10B77000013004910390684605A9FDF737F80446A7
:10B78000FDF77CF8204606B070BDF8B50646800788
:10B7900003D04FF0FF342046F8BD1446002AF8D0FD
:10B7A0000D460029F5D0FDF7B3F80027A7420BD2CC
:10B7B000EA59F11902200023FDF768F80437002840
:10B7C000F4D06FF0010400E00024FDF757F8E2E741
:10B7D00086B0FDF7A1F9FEF7ABFB00252148224C0E
:10B7E000224E00224FF4807705950095016841F0C4
:10B7F00004010160016801F00401009100990095C5
:10B80000016841F080010160016801F08001009150
:10B8100000990095016841F0010101604FF48071C9
:10B82000006800F00100009000982046B047012019
:10B83000CDE90355CDE9017001A92046FDF77CF85B
:10B84000FEF722FA20464FF480710022B0474FF4F1
:10B85000FA60FCF7BBFF20464FF480710122B0472D
:10B86000FEE700BF3038024000000240CD8A0008E9
:10B87000F1EE100A4FF6FF71C0F2C03120EA01006C
:10B8800040F04070E1EE100A704700000000000038
:10B89000000001020304060708090000C0B8000800
:10B8A0000000002030010000D481000898B9000891
:10B8B000300100204011000010820008000000004C
:10B8C000420142102E0600FF0901A10109011500E5
:10B8D00026FF2D9540750891820901150026FF3835
:10B8E000954075088182C02FEDA3000821A40008AF
:10B8F0002DA4000851A42E0885A40008C9A300089F
:10B90000F9A300082E24F4002DA1000817A00008B8
:10B910001DA25208DD6FA00008DD9F0008F39F0004
:10B92000082FD1A00008A9A0000801A100089DA02F
:10B930003D0809022900010100C032090443020345
:10B940002F0921110100012222000705810340492E
:10B9500001070501034000015909211101000122DD
:10B9600022450A06000243400132082C204585008A
:10B97000084185000849854608120100023C4062E2
:10B98000043C57000201020301072B040309041AB7
:08B99000030214010000000095
:020000040800F2
:04FFE80000001041C4
:020000040800F2
:04FFEC00E183AB52B0
:020000040800F2
:04FFF000F9D2748C42
:020000040800F2
:04FFF400B7E4361A1E
:020000040800F2
:04FFF80015000000F0
:0400000508008199D5
:00000001FF
