:020000040800F2
:10000000682D002079020008FF2900085F250008FC
:10001000FD2900085F050008CB5000080000000023
:10002000000000000000000000000000A1320008F5
:1000300015060008000000006D3200085535000864
:10004000930200089302000893020008930200083C
:1000500093020008930200081906000839060008F8
:1000600045060008510600085D06000893020008D6
:10007000930200089302000893020008930200080C
:100080009302000893020008930200080000000099
:1000900000000000000000000000000069060008E9
:1000A00093020008930200089302000893020008DC
:1000B0000536000859370008653700089302000824
:1000C00093020008930200089302000893020008BC
:1000D0009302000893020008930200080000000049
:1000E00025060008930200089302000800000000A3
:1000F0000000000000000000000000009302000863
:100100000000000093020008930200089302000818
:1001100000000000000000000000000000000000DF
:100120008905000893020008930200089302000862
:100130009302000800000000000000000000000022
:10014000000000000000000000000000012A00087C
:10015000930200089302000893020008930200082B
:100160009302000893020008000000000000000055
:10017000000000000000000000000000000000007F
:1001800000000000930200080000000000000000D2
:10019000930200089302000800F002F800F05CF8F7
:1001A0000AA090E8000C82448344AAF10107DA45D2
:1001B00001D100F051F8AFF2090EBAE80F0013F0C8
:1001C000010F18BFFB1A43F001031847305D000010
:1001D000505D00000A444FF0000C10F8013B13F092
:1001E000070408BF10F8014B1D1108BF10F8015B90
:1001F000641E05D010F8016B641E01F8016BF9D183
:1002000013F0080F1EBF10F8014BAD1C0C1B09D1D9
:100210006D1E58BF01F801CBFAD505E014F8016B4B
:1002200001F8016B6D1EF9D59142D6D370470000DD
:100230000023002400250026103A28BF78C1FBD8EF
:10024000520728BF30C148BF0B6070471FB505F08B
:100250001DFE1FBD10B510BD00F047F91146FFF798
:10026000F5FF05F045FD00F065F903B4FFF7F2FF77
:1002700003BC00F06DF900000948804709480047B9
:10028000FEE7FEE7FEE7FEE7FEE7FEE7FEE7FEE746
:10029000FEE7FEE704480549054A064B70470000A3
:1002A000F53500089901000868270020682D002016
:1002B000682900206829002053EA020C00F06980B8
:1002C0002DE9F04B4FF00006002B1FBFB3FA83F56A
:1002D00003FA05F424FA05F65E4012BF1643B2FA9B
:1002E00082F502FA05F4C5F120051EBF22FA05FCCD
:1002F00044EA0C04203556EA044C4FEA144418BF73
:10030000641C4FF000084FF00009904271EB030CA1
:1003100039D3002919BFB1FA81F701FA07F6B0FA0B
:1003200080F700FA07F6C7F120071EBF20FA07FC86
:1003300046EA0C062037B6FBF4FCA7EB0507103F96
:1003400007F01F0BCBF120062CFA06F60CFA0BFB7C
:1003500044BFB3460026202FA4BF5E464FF0000BDB
:100360005BEA060C08BF4FF0010B19EB0B0948EBD9
:100370000608ABFB027C06FB02CC0BFB03CCC01BCC
:1003800071EB0C01C1E70B46024641464846BDE809
:10039000F08B13B5084318BF4FF0FF300146AFF3A1
:1003A0000080BDE81C407047032A40F2308010F006
:1003B000030C00F0158011F8013BBCF1020F624400
:1003C00098BF11F801CB00F8013B38BF11F8013B91
:1003D000A2F1040298BF00F801CB38BF00F8013B3E
:1003E00011F0030300F04F80083AC0F0088051F884
:1003F000043B083A51F804CBA0E80810F5E7121DB9
:100400005CBF51F8043B40F8043BAFF30080D207D7
:1004100024BF11F8013B11F801CB48BF11F8012BA3
:1004200024BF00F8013B00F801CB48BF00F8012BC6
:1004300070474FF0000200B51346944696462039A7
:1004400022BFA0E80C50A0E80C50B1F12001BFF48D
:10045000F7AF090728BFA0E80C5048BF0CC05DF8F3
:1004600004EB890028BF40F8042B08BF704748BF41
:1004700020F8022B11F0804F18BF00F8012B7047B5
:1004800070477047704710B5203AC0F00B80B1E854
:100490001850A0E81850B1E81850A0E81850203AB9
:1004A000BFF4F5AF5FEA027C24BFB1E81850A0E8C2
:1004B000185044BF18C918C0BDE810405FEA827CDC
:1004C00024BF51F8043B40F8043B08BF7047D207F3
:1004D00028BF31F8023B48BF11F8012B28BF20F894
:1004E000023B48BF00F8012B7047754600F02CF81E
:1004F000AE4605006946534620F00700854618B011
:1005000020B5FFF7C7FEBDE820404FF000064FF0D2
:1005100000074FF000084FF0000BAC46ACE8C009F4
:10052000ACE8C009ACE8C009ACE8C00921F007019B
:100530008D46704710B50446AFF300802046BDE8F5
:100540001040FFF792BE000000487047C80200202C
:1005500001491820ABBEFEE7260002007047FEE707
:10056000002070470020704780B50648D0F8BC02D4
:1005700030B102F0EBFB034803F0F3FA002080BD3A
:10058000032080BD141F0020B0B5094C54F8085C4E
:10059000A80603D52020206000F074F8280744BF87
:1005A00008202060680744BF04202060B0BD00BF61
:1005B000086402404848C17F01B170470949096891
:1005C000426F891A084AA1FB021291094EF6612274
:1005D0009142F2D30121C1774FF6FF71418400218E
:1005E00081717047041000E0ABAAAAAA074801680D
:1005F00041F080710160064800214160016841F0CE
:10060000010101603449406848677047FCED00E033
:10061000001000E07047000018480121016001202F
:1006200004F094BD1549086810F47C4008BF704779
:10063000086004F08BBD00BF104802210160022059
:1006400004F084BD0D4804210160042004F07EBD47
:100650000A4808210160082004F078BD07481021ED
:100660000160102004F072BD0449086810F478702D
:1006700008BF7047086004F069BD00BF143C01402A
:1006800072B6FEE7D94890F82A1590F82B259142CA
:100690000FD290F8291590F82B250131B1FBF2F318
:1006A00003FB121180F8291590F82A15013180F802
:1006B0002A150848007E00B170470748417E00298E
:1006C000FAD1017E0029F7D10121417600218176FE
:1006D000704700BF540B00209403002010B50C4B52
:1006E0001C6824F001041C601C68E407FCD13F2452
:1006F00043F8084C98600720D9605A605861186820
:1007000040F016001860186840F00100186010BD35
:10071000106402404B4A0329136823F440731360AA
:100720004FF4407338BF0B02116819431160116810
:1007300021F0F8011160116841EAC00040F00200A8
:100740001060106840F480301060704713480168F2
:1007500089050FD5016821F400710160016841F439
:1007600000610160016821F400610160016841F4E9
:1007700000710160016849050FD5016821F48061AD
:100780000160016841F480510160016821F48051E9
:100790000160016841F4806101607047003C0240E3
:1007A00028490A6822F440720A600A6842F004028A
:1007B0000A600A6842EA002040F48030086070470E
:1007C000204A136823F4407313601368136013689E
:1007D00043F0010313600170704700BF10B5194961
:1007E0000C6824F440740C600C6844F440740C6091
:1007F0000C6844F001040C600260BFF36F8F43602B
:1008000010BD00BF0F4A136823F4407313601368D0
:1008100043F480731360136843F001031360018095
:10082000704700BF074A136823F4407313601368CE
:1008300043F400731360136843F001031360016015
:10084000704700BF103C024033480168C90606D516
:100850003049CA6942F01002CA6110210160016882
:10086000890606D52B49CA6942F00802CA612021CF
:1008700001600168490606D52649CA6942F00402AA
:10088000CA61402101600168090606D52149CA698B
:1008900042F00202CA61802101600168C90507D5E2
:1008A000F549CA6942F00102CA614FF480710160E2
:1008B0000168890706D5F049CA6942F02002CA6179
:1008C00002210160704700BFF8B50446EA480021E4
:1008D000114EC16100F066FB0546671C3068C0031D
:1008E00009D5002FFAD024B100F05CFB401BA042D8
:1008F000F4D90320F8BD3068C0071CBF0120306068
:10090000306810F4F97F04BF0020F8BDFFF79CFFAA
:100910000120F8BDA80200200C3C02403348002111
:100920001E2280F8281580F8291580F82A1580F8ED
:100930002B250022C0F82C15A0F83015A0F8321590
:100940001E2A08BF704700232C2B02D0C15401334C
:10095000FAE72C300132F3E710B5244890F82A1555
:1009600000293ED090F82825D0F82C1511F0070169
:100970002BD1B0F830352C2B1AD390F82A257AB128
:1009800090F8282590F82B350132B2FBF3F404FBE4
:10099000132280F8282590F82A25013A80F82A2584
:1009A0000022A0F8302590F82A25E2B190F82825F9
:1009B0002C2312FB0302B0F83035D25CA0F83225AC
:1009C000B0F830250132A0F83025B0F83225D0F843
:1009D0002C350133C0F82C3522FA01F000F001006B
:1009E00010BD002010BD012010BD00BF98050020E3
:1009F00026480021002280F8441080F8451080F835
:100A000046100A2A08BF704700EB82030132D96101
:100A1000F7E700BF1D4991F84620B2B191F8452093
:100A2000531C01EB820281F84530D269026091F8D3
:100A300045000A2824BF002081F8450091F84600AF
:100A4000013881F84600012070470020704700BF40
:100A50000E4991F84620092A84BF0020704791F87A
:100A60004420531C01EB820281F84430D06191F89C
:100A700044000A2824BF002081F8440091F8460071
:100A8000013081F846000120704700BF10040020AB
:100A90000146154881423CBF0020704700F5804266
:100AA00091423CBF0120704700F5004291423CBF9B
:100AB0000220704700F5404291423CBF032070473E
:100AC00000F5E03291423CBF0420704700F57032DF
:100AD00091423CBF0520704700F5B82207209142A3
:100AE00038BF0620704700BF0040000810B51C4901
:100AF000884218BF002801D100212EE0194C1A4A63
:100B0000A04203D9904201D2611C26E0174B04F5A4
:100B10008064591CA04203D9884201D211461CE0CE
:100B2000134A984201D9904217D3124C03F58063BF
:100B3000611C984201D98842F0D3A04202D90E4AE2
:100B400090420AD30E4900230C4A88424FF000011C
:100B500038BF511C904298BF1946084610BD00BFCF
:100B6000CC0A0020FFFF014000040240FF070240C2
:100B7000000C0240FF0F024000140240FF1B024025
:100B80000020024080B50B480B490C4A016100214E
:100B9000016142610A4A4161026080220160426053
:100BA0004FF0FF3241608260816000F055FA002012
:100BB00080BD00BF103802400FC8E2103179170025
:100BC0009F106000B0B5044600F0ECF905460548FA
:100BD000611C007818BF044400F0E4F9401BA042F7
:100BE000FAD3B0BD000000202DE9F843DFF81881EA
:100BF000054698F81800012801D1022638E00120A6
:100C0000894688F8180001F01AFF064668BB4FF0C5
:100C1000FF303E4CC9F80000286801280AD1287C22
:100C2000FFF7BEFD01F00BFF0646206820F0040030
:100C3000206018E0A8680746E968084487420ED299
:100C4000297C3846FFF766FD01F0F9FE064620686C
:100C500020F0FA00206026B9A8680137ECE70026EA
:100C600001E0C9F80070FFF771FD002088F8180056
:100C70003046BDE8F88300BFA80200202348016881
:100C800041F0004101600020704700BF2DE9F041B4
:100C9000DFF87480074698F81800012804BF022086
:100CA000BDE8F08101201E4614460D4688F8180064
:100CB0004CF25030FFF708FE08BB022F07D0012F7F
:100CC0000AD077B9E1B22846FFF77AFD0EE0284650
:100CD0002146FFF7A7FD09E0A1B22846FFF792FDE4
:100CE00004E0284622463346FFF778FD4CF25030A8
:100CF000FFF7EAFD05490A6822F001020A600021B7
:100D000088F81810BDE8F081A8020020103C0240CD
:100D10000648C168B1F1FF3FC4BF002070470449D5
:100D2000016004490160C068C00F7047043C024084
:100D300023016745AB89EFCD2DE9F84F934A07248E
:100D40004FF000094FF000084FF00F0A9042904A10
:100D500008BF042402444FEAB223042B38BF4FEAF1
:100D6000B2248C4A009401230F240027A2F57E7B35
:100D7000102F08BFBDE8F88F03FA07F20A4241D0EE
:100D800009F00C0527F0030CD24304FA05FE5BF8CA
:100D90000C40009B04EA0E0403FA05F5AC4214D1A2
:100DA0007C4B7D4EBC081D6815401D605D6815407C
:100DB0005D603568154035609D6815409D605BF845
:100DC000245025EA0E054BF824500323056803FA46
:100DD00008F46FF0030303EA5706A54305600644D1
:100DE00009F01C05336A0AFA05F5AB433362C368A0
:100DF000A343C36043681A40012342608268A24350
:100E00000F24826009F1040908F102080137AFE7F5
:100E10002DE9FC4F5D4A07244FF0010B4FF000090C
:100E20004FF0000A90425A4A08BF042402444FEA95
:100E3000B223042B38BF4FEAB22400940022102AB8
:100E400008BFBDE8FC8F0F680BFA02F6374200F0CE
:100E50009780D1F80480032303FA0AF708F0030C03
:100E6000FF43ACF1010EBEF1010F0ED88468CD68CE
:100E70003C4005FA0AF52C438460C8F30014456829
:100E80009440B5432C43446005E0BCF1030F02D10C
:100E90004FF0030C20E0C4688D683C4005FA0AF569
:100EA0002C43BCF1020FC46016D109F01C0E0F23B5
:100EB00003FA0EFC6FF0030303EA520505442C6AA3
:100EC00024EA0C0C0C6904FA0EF444EA0C042C62BB
:100ED000D1F8048008F0030C05680CFA0AF43D40D0
:100EE0002C4318F4403F04604AD0002322F003074B
:100EF00001932A4B1C6844F480441C601C680F2337
:100F000004F48044019409F00C0403FA04FC214B1E
:100F1000019D9E461F44224BFD589846009B25EAA2
:100F20000C0503FA04F42C4347F80840DEF80840A7
:100F30004F68FB0244EA0605174B58BF24EA060532
:100F4000CEF80850BD029C461B6843EA060458BF11
:100F500023EA0604CCF80040BD03DEF8043043EA7F
:100F6000060458BF23EA0604CEF80440FD03DEF869
:100F7000003043EA060458BF23EA0604CEF80040D6
:100F800009F104090AF1020A013258E7001002408F
:100F90000000FEBF003C01400C3C014044380240D0
:100FA00008FCFFFF0E480068704700BF014800685A
:100FB000704700BF107AFF1F01480068704700BFEC
:100FC000147AFF1F01480068704700BF187AFF1F9E
:100FD0001F48034900780A6810440860704700BF42
:100FE0006427002080B50B48016841F4007101605E
:100FF000016841F480610160016841F48071016021
:10100000032000F07FF80F2000F006F800F026F82B
:10101000002080BD003C024070B50D4E04464FF4E8
:101020007A713078B1FBF0F00A490968B1FBF0F051
:1010300001F084F801250F2C08D838B94FF0FF30A3
:1010400021460022002500F037F87460284670BD64
:1010500000000020540000207047000082B00020F3
:101060000B4901904A6842F480424A604A6802F49F
:1010700080420192019A0090086840F08050086018
:10108000086800F080500090009802B0704700BFE0
:101090004038024000280BD400F01F010122C0B2EA
:1010A00002FA01F1034A42EAD00020F00300016095
:1010B000704700BF00E100E0F0B5184B4FF0FF367D
:1010C0001C68C4F30224E51E84F0070438BF002521
:1010D00006FA05F7BA43042C28BF042406FA04F4E0
:1010E000A14300F00F04A940043C1143044A2344E7
:1010F00009010244002848BF03F10C021170F0BD41
:1011000000E400E005494FF6FF030A681A4060F367
:101110000A22034810430860704700BF0CED00E04E
:101120000000FA0504F088FD704700684162002065
:10113000704770B50068436AB1B1846A013900250F
:1011400003EB1443CCB2A54207D200EB8506013570
:10115000D6F8046103EB1643F5E700EB810043EAA0
:101160000241C0F8041102E043EA0241816200201A
:1011700070BDD0F8E00402F06BBF01EBC10200EBE0
:101180008202D0F8E004126A02F0D9BE01EBC1027B
:1011900000EB8202D0F8E004D2F8602202F021BF16
:1011A000D0F8E00402F056BF01F00F0249B202EBA2
:1011B000C202002900EB820303F5157248BF03F158
:1011C00014020068114603F0E7BD10B5044601F0B3
:1011D0000F0049B201F0D4FCC3BF002281F85522B0
:1011E00001F515710122DCBF4A751431087094F8BD
:1011F0009404012804BF022010BD01F01DFD03F07E
:1012000063FB01F081BCB0B5044601F00F00227908
:10121000904201D901251BE049B201F0B1FCC3BFE6
:10122000002281F8552201F515710122DCBF4A75B3
:1012300014310870002594F894048D70012801D1B0
:10124000022505E001F0F8FC03F08AFC84F89454D0
:101250002846B0BDB0B5044601F00F0049B26FF3A7
:10126000DF2201F08DFCC3BF002581F8555201F546
:1012700015710125DCBF4D7514318A600B71087042
:101280004A7802B14883022B04BF0020487194F8C9
:101290009404012804BF0220B0BD01F0CDFC03F08E
:1012A00061FA01F0B1BCB0B501F00F01002501EB0E
:1012B000C10400EB840404F5187784F8541284F810
:1012C000555204F515712CC78379012B08BFC4F85A
:1012D00070221A46006803F085FC0020B0BDB0B54E
:1012E0000446007901F00F05854284BF0120B0BD9E
:1012F00048B2B0F1FF3F09DD01EBC100002104EB72
:10130000800080F8551200F5157107E005EBC50067
:10131000012104EB8000417500F1140194F894243C
:1013200001200D708870012A04BF0220B0BD84F82E
:101330009404206803F03BFC2DB9A179206804F2E5
:101340009C4203F0E1FB01F05FBCB0B501F00F057A
:1013500005EBC50100EB8104214601F8145F00256F
:1013600001F10C072CC701234B708379012B08BFB7
:1013700022631A46006803F035FC0020B0BD00006F
:101380002DE9F04F89B005688246284603F088FDB4
:1013900010B109B0BDE8F08F01F071FB0028F8D062
:1013A000D5F80808C0F30D20CAF8D40401F067FB93
:1013B0000146DAF80000890703D5416901F002010E
:1013C000416105F50061049103F096FD0146DAF8EC
:1013D00000000595C9063BD5816921F010018161A6
:1013E0002C6AC4F3434004F00F05062818D00228E5
:1013F00027D147F6F07014EA000622D005EBC500AD
:1014000034090AEB800705982246D7F8601203F0EA
:1014100077FDD7F8600200EB1610C7F8600207E00E
:1014200005980AF29C41082203F06AFDC4F30A14ED
:1014300005EBC5000AEB8000D0F868122144C0F823
:101440006812DAF80000816941F010018161059DA0
:1014500003F052FD00030DD401F011FB049E400384
:1014600000F1E08001F00BFB002800F1A581DAF823
:101470000000B9E1DAF8000003F01DFD06460AF2AB
:101480009C400AF51D744FF430684FF0000B089033
:10149000002EE1D0F00700F0B8805FFA8BF9DAF89F
:1014A0000000494603F020FD0746C0075CD005EB6D
:1014B000080001218160DAF8000008EB0001036CEC
:1014C0008A689AF80650012D24D115072FD4950665
:1014D00047D4059D12F0280F46D1AC46E34DAB42F0
:1014E00002D9120400F198802268096965466FF3F9
:1014F000DF41511AB8F5306F44F80C1C2CD1DAF8E2
:101500006422002A00F08C80DAF860020844CAF8ED
:10151000600221E0D54D05F58075AB4211D1059DE6
:1015200010040AD4900644BF2020886014E0CF48FD
:10153000059D834218D9100416D54FF400408860E9
:1015400012E0059DB8F5306F06D1DAF8641219B9CA
:101550000021089A03F0D8FA50464946FFF716FED4
:1015600002E020208860059D380722D505EB0800A1
:101570000821BE4B8160DAF800100A6C08EB01000C
:1015800081689A4212D9090444BF4FF40041816036
:10159000504600F02EFB9AF80600012809D1DAF82F
:1015A0000000089A012103F0AFFA02E0504600F073
:1015B00020FBF80642BF05EB080010218160B80748
:1015C00016D56869000604D50499486840F480601F
:1015D000486014F81D0C012806D10020494604F883
:1015E0001D0C504600F041FA05EB08000221816015
:1015F000B80642BF05EB080020218160B80442BF55
:1016000005EB08004FF400518160243408F12008F4
:1016100076080BF1010B3BE74FF4004065468EE77F
:10162000012196E7DAF8000003F03EFC07460AF2D3
:101630009C400022029005F510600690002F3FF4B8
:1016400011AFF80700F0B580DAF80000D1B20792C8
:10165000089103F037FC0446C00727D0079B0122FE
:10166000716B03F00F0002FA00F021EA00007063D2
:10167000069800EB431082609AF80600012811D109
:1016800003EBC3000AEB8000D0E9071211440162AA
:1016900043B9DAF8240028B9DAF80000029A0121E7
:1016A00003F032FA08995046FFF767FD079A2007C2
:1016B00004D50698082100EB42108160E00604D5AD
:1016C0000698102100EB42108160600604D5069850
:1016D000402100EB42108160A00718D52846114632
:1016E00003F0B1FB079A02EBC2000AEB800010F88E
:1016F000171F012906D1002101700899504600F0FA
:10170000B0F9079A0698022100EB4210816020068A
:101710004FD502EBC2000AEB800BD94659F8241FC3
:10172000C84658F8040F814243D35BF81C5FDAF8CF
:101730000040091A03975746A94238BF0D4604EBEB
:1017400042110BF1040601F5106A15E0DBF80050B8
:10175000BB79101A31680093A84238BF0546089A31
:10176000ABB2204603F0A0FC306828443060D8F8C3
:1017700000002844C8F80000D9F80020DAF8183032
:10178000E91C9BB2B3EB910F28BF8242DED88242A4
:10179000BA46059DDDE90376079A0AD802F00F00E4
:1017A000012101FA00F0D4F8341821EA0000C4F84D
:1017B00034087F08013241E7706820F00100706052
:1017C0009AF8CC04012807D1002000218AF8CC0423
:1017D0005046FFF7A9FC02E0504600F0F5F901F091
:1017E000F2F901F00041416103F086FB000502D4EB
:1017F000DAF800000AE0B068C00702D0504600F0F6
:1018000017FA01F0E0F901F40061416103F074FBA3
:10181000C00402D4DAF8000056E0D5F8040810211C
:1018200020F00100C5F80408DAF8000003F00BFB13
:101830009AF8041005F510604FF67F32C1B182604E
:101840000139036823F400130360C0F80822D0F8BC
:10185000003223F40013C0F80032D0F8003243F015
:101860000063C0F800322030E8E700BF0A30544F70
:10187000F06940F00110F0619AF80F0040B1D6F81D
:10188000840040F00B00C6F8840006F1440006E036
:10189000706942F22B010843706106F11000016883
:1018A0000AF29C4241F00B010160306820F4FE60B6
:1018B0003060DAF800009AF8061003F025F901F01C
:1018C00082F901F48051416103F016FB0146DAF818
:1018D0000000890419D502F083FFDAF8000003F054
:1018E000D3FADAF800408AF8070000F051FA9AF8C3
:1018F00007200146204603F05FFB504600F052F9F6
:1019000001F061F901F40051416103F0F5FA0007BB
:1019100002D4DAF8000007E0504600F059F901F06F
:1019200052F901F00801416103F0E6FA000606D41D
:1019300001F0A5F8C00219D4DAF8000038E00599E2
:10194000012440F27B25886920F0800088619AF8A4
:1019500004008442ECD21AF80500012803D1E1B258
:101960005046FFF721FC24350134F0E705980AF1D1
:101970003B040126012700F512659AF8040087420E
:1019800011D228686178012909D1B0F1FF3F06DC46
:1019900047F080002670C1B25046FFF705FC2434A2
:1019A00020350137E9E701F00EF901F480114161BA
:1019B000059C03F0A1FA800202D4DAF800002EE0C0
:1019C0009AF8042004F532610AF51F7001230124FE
:1019D00094421FD20D680678012E12D1B5F1FF3F57
:1019E0000FDCDAF8D46486EA1545ED0709D1059EC7
:1019F000B56945F08005B56100F8013C75692D06B3
:101A000003D5243020310134E2E70499486840F4DA
:101A10000070486001F0D7F801F40011416103F053
:101A20006BFA400002D4DAF8000007E05046FFF7F6
:101A3000A0FB01F0C8F801F08041416103F05CFABD
:101A400040077FF5A6ACDAF800004468610704D5CA
:101A50005046FFF7A5FBDAF80000416821434160DA
:101A600097E4D0F8E00402F044BBD0F8E00402F0C0
:101A70004FBB7CB500284CD00446056890F895040F
:101A800028B9002084F89404204600F04FF8032081
:101A900084F89504B5F1A04F04BF0020A071206820
:101AA00003F02CF894E80F00257C009502F0A6FEC8
:101AB00060BB20680021002503F03DFA30BB20798F
:101AC00001210022002398420AD0A6182432F3856F
:101AD00033757175C6E90755756235760133F2E7DE
:101AE00004F5157100220023984208D00B70C1E95B
:101AF00002220A610A714A7024310133F4E794E842
:101B00000F00257C009502F033FF28B1022084F8F5
:101B10009504012528467CBD00250120657484F8C4
:101B20009504206802F018FFF4E70000B0B586B015
:101B30000068B0F1A04F2FD10025184C0095206807
:101B400040F001002060206800F0010000900A20B1
:101B500005900320CDE90350022002904FF4C050BD
:101B60000190009801A90E48FFF752F9606804211E
:101B7000002240F0800060600095606940F4804081
:101B80006061606900F48040009000984320FFF796
:101B900093FA4320FFF77EFA06B0B0BD303802401A
:101BA0000000024010B50446C079022818BFFEF7B5
:101BB00067FDD4F8E004012102F016FBD4F8E0043C
:101BC000BDE8104002F0C8BAD0F8E00402F0F5BA5F
:101BD000D0F8E00402F0FBBA10B500F021FF04BF1A
:101BE000022010BD617401F027F803F0D5F900F070
:101BF0008BBFD0F8E02400F29C41104602F000BBFD
:101C000010B500F00DFF04BF022010BD01F01EF85A
:101C100006D5617B012903D1816B41F48031816359
:101C200003F0EEF8206802F08BFE00F06DBF0000BC
:101C300010B50446D0F8E00402F024FB2068D0F888
:101C4000001E41F00101C0F8001EE07A20B10348F7
:101C5000016841F00601016010BD00BF10ED00E019
:101C600081B0044801210160034800680090009899
:101C700001B0704720000E42007000402DE9F04195
:101C8000002857D03F4B04468846D3F8000400F0A4
:101C90000700884204D283F8008400F0CAFE49D1CC
:101CA0002068810711D5410703D5996841F4E051B7
:101CB0009960010703D5996841F460419960A16872
:101CC0009A6822F0F00211439960C0072BD100F00E
:101CD000B0FE04D983F8008400F0ABFE2AD120685E
:101CE000410705D5E1689A6822F4E05211439960F2
:101CF000000706D52069996821F4604141EAC000D7
:101D000098601C4600F058F8A1681F4AC1F30311FF
:101D1000515CC840254908601C480068FFF77CF901
:101D20000020BDE8F0816068811E022905D2196893
:101D3000890107D40120BDE8F08101281DD119686F
:101D40008903F7D599681D4621F00301084398607F
:101D5000FFF728F9064641F288376068A9682B46E4
:101D600001F00C01B1EB800FB1D0FFF71BF9801B24
:101D7000B842F2D90320BDE8F08119688907D9D5A6
:101D8000E0E700BF00380240A65E00080400002023
:101D900006480068704700BF04480549054A0068C6
:101DA0000968C1F34231515CC840704754000020BB
:101DB00008380240B65E000810B5134C606800F0A9
:101DC0000C00082804D0042814BF1048104810BD87
:101DD000226820680023400202F03F020C485CBFEA
:101DE00042F20040C0F2F4002168C1F38811A0FB68
:101DF0000101FEF761FA21680222C1F3014102EB01
:101E00004101B0FBF1F010BD043802400024F400A1
:101E100040787D012DE9FC41002860D0044600781F
:101E2000C34EC0070BD0B06800F00C00042840F08F
:101E30008F803068800302D5606800284FD02078FA
:101E4000800718D5B06810F00C0F07D000F060FEC6
:101E500040F096807068400200F192803068800700
:101E600002D5E06801283AD12069316821F0F801F3
:101E700041EAC00030602078000733D42078400762
:101E800043D4A76947B300F043FE40F0AA80012F76
:101E900025D0E169706800F480028A421FD1216A6E
:101EA00000F03F028A421AD147F6C071626A0140CF
:101EB000B1EB821F13D1A16A4FF6FF72C9039143A0
:101EC00000F44032A1F580318A4208D1E16A00F085
:101ED0007060B0EB016F02D10020BDE8FC810120F1
:101EE000BDE8FC816169934800296AD00121C0F8EE
:101EF000801EFFF757F80546706F8007BED4FFF7C6
:101F000051F8401B0228F7D9C9E0306C10F0805816
:101F10000AD100200190306C40F080503064306C69
:101F200000F0805001900198834F3868C0053AD482
:101F3000386840F480703860FFF734F80546386838
:101F4000C00530D4FFF72EF8401B0228F7D9A6E0D1
:101F500000F0DEFD03D1706840023FF56AAF6068B3
:101F6000B0F5803F07D0B0F5A02F40F082803068F8
:101F700040F480203060306840F48030306082E08F
:101F8000E06800284CD06B4801210160FFF70AF897
:101F90000546306880073FF567AFFFF703F8401B41
:101FA0000228F6D97BE0A068012805D0052848D191
:101FB000306F40F004003067306F40F00100306750
:101FC00049E00021C0F8801EFEF7ECFF0546706F67
:101FD00080077FF553AFFEF7E5FF401B0228F6D9D7
:101FE0005DE05449002088460866FEF7DBFF0546A1
:101FF000022F0AD147463068800153D5FEF7D2FF41
:10200000411B03200229F6D967E7306880017FF57C
:1020100063AFFEF7C7FF411B03200229F5D95CE738
:10202000444800210160FEF7BDFF05463068800787
:102030007FF521AFFEF7B6FF411B03200229F5D93A
:102040004BE7316F002821F001013167316F21F03A
:102050000401316745D0FEF7A5FF054641F28837F8
:10206000306F80074CD4FEF79DFF401BB842F7D974
:1020700015E03168002821F480313160316821F4A5
:102080008021316045D0FEF78DFF05463068800322
:102090003FF5D5AEFEF786FF401B6428F6D9032036
:1020A000BDE8FC811C341FCC0843D90340EA8210F0
:1020B0004FF6FF72914340EA0460A1F58031084376
:1020C000706001203866FEF76DFF044630688001BD
:1020D0003FF502AFFEF766FF011B03200229F5D989
:1020E000FBE6FEF75FFF054641F28837306F800759
:1020F00006D5FEF757FF411B0320B942F6D9ECE69F
:10210000B8F1000F7FF4BDAE306C20F08050306429
:10211000B7E6FEF747FF0546306880037FF58FAED0
:10212000FEF740FF411B03206429F5D9D5E600BF27
:10213000003802400000474200700040411E00206D
:10214000B0EB116F1CBF01207047044AF0235160AF
:1021500003490B70072190601160704710E000E0A8
:1021600023ED00E07047704710B590F83C30022234
:10217000012B26D080F83D2002680B68546824F0BB
:1021800070041C439368B2F1804F54600ED0F24C3F
:10219000A2420BD0434CA24208D0434CA24205D0ED
:1021A000424CA24202D0424CA24204D1496823F0E0
:1021B0008003194391600022012180F83C2080F8BF
:1021C0003D10104610BD00BF58B110B500F017FD0E
:1021D00003D100F0D0FC00F007F800F03EFD00F065
:1021E00059BC0120704700001CB500682D49884289
:1021F00013D0D949884218BF1CBD00201D2401906E
:102200001148016841F0020101600121006800F0FD
:102210000200019001981D200EE000201E24009075
:102220000948016841F0040101600521006800F0DF
:102230000400009000981E200022FEF73DFF20467B
:10224000BDE81C40FEF726BF4038024090F83D1024
:1022500001291CBF01207047022180F83D10006851
:10226000C168B0F1804F41F00101C1600ED0BA49A0
:1022700088420BD00B49884208D00B49884205D0D0
:102280000A49884202D00A49884204D1724600F0C5
:1022900031FC964603D0724600F0E6FC96460020DC
:1022A000704700BF00080040000C004000400140A3
:1022B00000000140016841F21113CA6822F00102D6
:1022C000CA600A6A1A420AD14DF808ED00F017FCFC
:1022D0005DF808EB03D10A6822F001020A6000F001
:1022E0009ABC10B500F085FC52D084F83D00012066
:1022F0004FF6777384F83C00206882689A438260C6
:102300000A68C2B1102A16D0202A14D0302A12D05E
:10231000402A17D0502A1ED0602A25D0B2F5005F7F
:102320002ED0B2F5805F30D0702A32D100F016FC8A
:1023300041F0770128E0816821F07001114341F0FC
:10234000070121E000F06CFC2068816841F0470142
:1023500021F0300118E000F063FC2068816841F052
:10236000570121F020010FE04B68CA68194601F0BF
:10237000FCFA2068816841F0670121F0100103E058
:1023800000F0ECFB41F480418160002000F04DFC46
:1023900010BD0120FAE7704770B504460068C568B3
:1023A0000669B10710D5A9070ED56FF002010161CA
:1023B000012121778069800702D000F029FC01E02B
:1023C00000F0F7FB00202077700712D5680710D5C2
:1023D00020686FF00401016102212177806910F407
:1023E000407F02D000F014FC01E000F0E2FB00208E
:1023F0002077300711D528070FD520686FF0080126
:10240000016104212177C069800702D000F000FC3F
:1024100001E000F0CEFB00202077F00612D5E806A0
:1024200010D520686FF01001016108212177C06983
:1024300010F4407F02D000F0EBFB01E000F0B9FBAC
:1024400000202077F00708D0E80706D020686FF05A
:1024500001010161204600F067F8300608D5280622
:1024600006D520686FF0800101612046FFF77AFEF3
:10247000700608D5680606D520686FF04001016136
:10248000204600F06BF8B00601D5A80600D470BD58
:1024900020686FF0200101612046BDE87040FFF721
:1024A00062BE000010B500F0CCFB04BF022010BDDE
:1024B00001204FEAB202032A84F83C0013D8DFE877
:1024C00002F002060A0E206801F0A0F90AE0206876
:1024D00001F0C2F906E0206801F0EAF902E02068A4
:1024E00001F010FA0020002184F83C1010BD704764
:1024F000B0B1B0B5044690F83D000D4618B900F0F3
:102500003AFB00F00FF800F0A8FB2068016821F00A
:102510000801016001682943016000F010FBB0BDB3
:102520000120704770477047B0B5044600680A4DF7
:10253000A84208D102F000FF20B9A748FFF7BAFE71
:1025400000206862206805F58061884218BFB0BD30
:10255000BDE8B04003F02ABB000400407047FEE72E
:102560009E484FF48071A0F878110649C0F87A119E
:10257000054901F10802C0E95C2100F5B8700021AD
:1025800000F008B80100000110000240012100F035
:1025900001B80000F0B585B0002800F09080044636
:1025A000407B002800F08B802689002E00F0878079
:1025B00020680F46FEF79AFA002800F08080054652
:1025C00037B12846314600F097F8002840F0778070
:1025D0003C4828444FEAB020032830D8DFE800F018
:1025E000020D1823002000903748016841F00101D6
:1025F0000160006800F001001FE0002000903248F8
:10260000016841F002010160006800F0020014E07E
:10261000002000902C48016841F00401016000682E
:1026200000F0040009E0002000902748016841F014
:1026300008010160006800F0080000900098217B0C
:102640000020CDE90300CDE90060A07A8A1EB2FA2D
:1026500082F25209012918BF5100029102280AD0C2
:1026600001280BD1022001210390E07A012808BF44
:102670001121019102E04FF444100190694628466F
:10268000FEF7C6FBA07A022819D121890023DAB20D
:10269000184621FA02F3DB0700F10103F7D02821E5
:1026A0000A2A38BF1721052A38BF811D4CB220469F
:1026B00000210022FEF700FD2046FEF7EBFC05B0EE
:1026C000F0BD00BF0000FEBF3038024070B50131E0
:1026D0000023372472B1060F01F8023B04EB10759A
:1026E000B0F1204F38BF06F1300501F8035C013A24
:1026F0000001EFE770BD0000B0B50A4C002354F8AC
:102700003320042B08D0824204D104EBC305AD88EA
:102710008D4201D00133F2E7002A18BF0122104692
:10272000B0BD00BFD45E000810B572B60446FEF717
:1027300029FA114800214FF0FF32016041608160A9
:10274000082907D000EB81030131C3F87021C3F8D9
:102750007022F5E70948BFF34F8FBFF36F8F046016
:10276000BFF34F8FBFF36F8F206880F308886068D6
:1027700062B6BDE81040004710E000E008ED00E060
:10278000E0B500200190084800F0A9F9074800686A
:10279000C0B28CBD1CB5044600200190024800F078
:1027A0009EF9024804601CBD403802405028004099
:1027B00080B51548012101700748FFF77BFD002017
:1027C00000F0DCFD0F48016841F001010160724832
:1027D00000F04EF980BD00BF1C270020180100202A
:1027E0000648002101600648017006480161026840
:1027F00042F0010202600448017070472404004066
:102800009903002014000140B0030020B0B5FFF789
:10281000B7FF134D04462868000102D50020FFF7DA
:10282000B9FF2868422C40F08070286005D1002054
:10283000FFF7B0FF0B48FFF777FFFFF791FE574810
:10284000012101765248FF21C171FEF767F8FEF7BA
:10285000CFF86420FEF7B6F9BDE8B040FDF7C6BE7C
:102860007438024000800008F8B50120FEF7AAF98C
:10287000FDF7A0FE464D40F24B41286F884204D838
:10288000411CB0F57A7F29670AD342484249807AD1
:10289000B1F85821002808BF1204D1F85001026095
:1028A000287870B13D4C002003262870300608D0EF
:1028B000204600F0D3FC20B10A20013EFEF782F949
:1028C000F4E7E87E012818BFF8BD0027334C344EEA
:1028D000EF76E069A866607E70702F76FEF71EF8CE
:1028E000FEF786F8EF666F7004F10802652707CAE5
:1028F000A863A86B10440138E86306202076E965D8
:10290000013F27D06420FEF75DF9E86D696E8842CB
:10291000F6D12449002028766876A8766870C1F838
:102920002C05A1F83005687128713070E87903280A
:1029300012D1608C1C4B3081D4E90420A168A88599
:10294000B5F92C00081A1144B5F92C201144C3E93B
:10295000010114E0042015E0208CF080608CB08030
:10296000114E94F82400A884A168D4E90423C81A5D
:102970001944114494F82520C6E90101EA8402F0C3
:1029800017FE002020762046BDE8F84000F066BC27
:1029900094030020940B002018010020540B002009
:1029A0000800002098050020D40B002080B50F48B7
:1029B0000F49002201F09EFA08B1FDF761FE0B48B5
:1029C0000C4901F080FC08B1FDF75AFE07480A499E
:1029D00001F0D7F808B1FDF753FE044801F098FC68
:1029E00018B1BDE88040FDF74BBE80BD141F00202C
:1029F0003800002058000020D4000020FEE7FEE749
:102A00000148FEF7BDBC00BFF0210020B86840F0CF
:102A10000100B8607E6038687047214601F043BA13
:102A2000044690F8940401287047C0F80418002068
:102A30007047D3F8000400F00700404570474CF29F
:102A40005030FDF741BFD0F8D42200EB8202D2F81B
:102A5000B822002A7047204601F051B9044681216E
:102A6000304601F003BA21463F22681CFDF79CBCAA
:102A7000D0F8E010B0F8E800000408607047DAF819
:102A8000000002F039BA0099013100910099B1F1CA
:102A9000706F7047012084F8460084F83E0084F887
:102AA0003F0084F8400084F8410084F8420084F834
:102AB000430084F8440084F8450084F83D00002079
:102AC00010BD0020C4F8D40220461047204601F073
:102AD00049B9054630460121012701F0C7B901680F
:102AE00041F080510160006800F080500190019831
:102AF000FFF7B6B8816801F00701062970470A6A36
:102B000040F244431A427047002084F8940410BDF8
:102B1000B06800F00C00082870470020C4F8D40208
:102B200020460847204601F0CDB84DF808ED05F1E4
:102B30005C00FDF76FFF00285DF808EB704701208F
:102B400084F8460084F83E0084F83F0084F8420090
:102B500084F8430084F83D0000207047D1E9012348
:102B6000C9681A4342EA0121826822F47F42114374
:102B7000816081687047002084F83C0020467047DF
:102B8000B1F1FF3F00EBC00104EB81017047C9F8D0
:102B90003800D9F83800704794F89C0201380228B0
:102BA0007047204650F8641F50F8042C91420146AB
:102BB00070474DF808ED2046FFF799FC20465DF878
:102BC00008EBFFF7B0BCDAF80000416970470A581B
:102BD00042F000620A500A5842F080420A5042F223
:102BE00010727047204650F84C1F8268914201468F
:102BF000704790F83C2004460220012A70470446A2
:102C000090F83D0000287047002084F89404B0BD7F
:102C10002046FFF7C0BB012180F83D10002070471F
:102C20004B68CA68194600F08FBE002184F83C103A
:102C3000012184F83D107047012084F89404206835
:102C40007047044690F83C00012870470121206835
:102C500084F89414C168490670470220211D84F845
:102C60003D00206800F084BD016841F00101016071
:102C7000704700002DE9F04F2A49324DDFF8C8C0F7
:102C8000DFF8BCE700200FF2A0090FF2A80A2CA47D
:102C90004FF001088B46032808BFBDE8F08F265C83
:102CA00059F820105AF8207005EB0612537B7BB3BD
:102CB0003301EE5866452BD012894EF820203A6831
:102CC00022F001023A603A68D207FCD10EEBC00252
:102CD000BE6002F10C03FB60C7F804805B46C7F8D6
:102CE00000B03B6843F001033B600B6823F0010335
:102CF0000B600B68DB07FCD110328E60CA60C1F834
:102D000004805A46C1F800B00A6842F0010206E0A9
:102D10003A6822F001023A600A6822F001020A6071
:102D20000130B8E74051030C28640240406402407F
:102D3000A06402408864024070640240586402400B
:102D40000E0F100018010020C05E0008FEB500281C
:102D500000F05C82044600781138162800F2568292
:102D6000DFE810F017005402420054024B009600B6
:102D70009F00B400BB005402540254025402540297
:102D8000C800C400D500F400060111012600790135
:102D9000A301DFF89854FFF766FEA888002800F02A
:102DA000E981FFF71DFDA888BDE8FE4000F0E6BA06
:102DB000DFF86854FFF757FE698ADFF86404DFF82C
:102DC000D8444181A98A2186697E2A7AE174012A40
:102DD000E16D40F09581626E914240F09281002158
:102DE0002972E968E1658CE1DFF83C54FFF73BFEAE
:102DF000A888BDE8FE4000F0E5BADFF8444415209D
:102E000000256070DF48E570016842688368C66825
:102E1000076904F128004EC0DB488642DB4818BF32
:102E20002F468342DA48DB4B18BF2F4641405A40B9
:102E3000844604F11800114318BF2F466761D64934
:102E40000A684B688E68CF680969CCC0D34887424E
:102E5000D34818BF2946864282EA0C00D14A18BFDF
:102E600029465A40104318BF29462161FEF79EF8B3
:102E70006060FEF7A1F8A060FEF7A4F8E060DFF85C
:102E800018042570C16C406EC4E90E1020466DE137
:102E9000DFF8A853FFF7E7FDD5E9010102F0DEFEF8
:102EA00063E1DFF89453FFF7DEFDEA780AB1392ACF
:102EB00003D3382A28BF3822EA706868810703D113
:102EC00005F1080102F0F1FEDB484FE1D94DFFF7B3
:102ED000CAFD4FF4C050288047E1D54821463F2223
:102EE0000130FDF761FA4220FFF754FCBDE8FE40D7
:102EF000FEF718B9C74DFFF7B6FDE748C16C69602A
:102F0000418C2981018C6981007A28732DE1CD4D96
:102F1000FFF7A9FDA8884FF0FF31192211FA80F1BF
:102F200080B291FBF2F3400003FB1211A0EB4100D1
:102F3000C549084400210238192900F0DD8005EB5D
:102F40004102D28820F811200131F5E7C14D95F8F2
:102F50002A0595F82B15884203D26078012840F0A5
:102F600023810120607095F82A05A07062B62EE1D9
:102F7000CA4DFFF778FD287E002800F0FF80BDE8ED
:102F8000FE4000F075B9A74DFFF76DFD95F83000D4
:102F9000C14C607495F8261095F8272095F82830D4
:102FA00095F829006372A272E172617A4A1EB2FA40
:102FB00082F252090139627318BF0121A173A17A0B
:102FC0004A1EB2FA82F252090139E27318BF012196
:102FD000217402F0F7F9FA4995F82E00B1F878203B
:102FE000002808BF12040B6F086A1A6095F82F209A
:102FF000098D002A08BF09040160E87D012803D17A
:103000000020E875E868A064687D18B9E06CA064E9
:10301000E06CE86095F82500012805D10020E06407
:1030200085F82500E860A06495F82410A87D7C4E02
:1030300021850128298AF180698AB18040F0888041
:1030400095F82200A08495F82300E084D5E90101D9
:1030500002F0AEFA7EE0704DFFF705FD8E480021CC
:103060000167F949E87AB1F85821002808BF12042D
:10307000D1F850010260E86800F014F9A88800F067
:10308000A1F9E88800F0BEF9287C697CAA7CEB7C79
:103090002C7D6E7DAF7D8DE8D00000F0D7F9E8780B
:1030A000002800F0B3805C4860E0684DFFF7DBFC6F
:1030B000A9884FF0FF30192310FA81F292FBF3F444
:1030C00004FB03F0C6087C2E18D889B204FB132237
:1030D0004900A1EB42015E4A114400220239182A3C
:1030E0000CD88318DB087C2B08D805EB4203DB885F
:1030F00021F812300132F2E7524837E0534835E008
:10310000E960E97E012904D100216166E976E96080
:10311000E1658178AA7DEB7D287E561EB6FA86F69B
:103120007609013A267518BF012262755A1EB2FA55
:1031300082F25209A275A976591E18BF0121E175C4
:1031400002F01EFD2520A5F80100606E68600CE00D
:1031500002F01AFBA88D3081688DA0852420A5F887
:103160000100E06CA861608CA8832846BDE8FE40A1
:1031700000F074B8BDE8FE40FFF71ABB46480121D5
:10318000C17643E0E8FF0008B7E4361AF9D2748C40
:1031900000001041E183AB52EC7F0008A3F542CD63
:1031A0008EAC970B2539D1F695F8290595F82B05A6
:1031B0002C212C2295F8290510FB015104F1130054
:1031C000FDF78CFA0020607095F82A05A070E07B6E
:1031D000012803D1D4F80700FDF73AFC1E48104A35
:1031E00090F84600B4F80B10C0F10A009180E0732B
:1031F00011812949B4F80D004A8CA4F80B20274A04
:10320000D080C86EC4F80300107E00B1FEBD601E01
:10321000ACE700BF540C0020940B0020140C0020DD
:1032200008000020D40B0020140B0020D40A00203A
:10323000D80400201805002058050020580400205C
:1032400098040020D01E002064140020901E00204E
:10325000940C00209805002010040020014602482C
:10326000402200F099BC00BF141F002070470000EE
:10327000F8B50446FFF79CFA074D01260020002709
:103280002E7700F07BF86F762F76EF7602F07CFADF
:1032900002482E700476F8BD94030020540B0020E1
:1032A000704700002DE9FE43DFF8B890044628B1CE
:1032B000D9F80000A04201D1BDE8FE832A4E002CBF
:1032C00047D04FF00008294FCDF80880786940F0CA
:1032D00001007861786900F0010002900298CDF851
:1032E0000480386840F480003860386800F480005A
:1032F0000190652004FB00F50198FEF74DFD57F89D
:10330000281C11F4604118BF01218840B0FBF5F181
:103310000139854288BF0021B16264201549F062FD
:103320004FF4F850C6F84080F0601148016012492F
:103330004160FFF79FFC706C40F40040706470695E
:1033400040F001007061C6F81080306840F0010064
:1033500003E03068002420F001003060C9F800402C
:10336000BDE8FE83D00A0020000001403038024052
:1033700008640240C00FFF0FFF0F3F00B0B50E49B9
:1033800000222F4B0978002918BF104601466428F7
:1033900028BF64210D461C68002918BF2546DD6042
:1033A0006428064838BF22041A61016001B1B0BD2B
:1033B000E548FFF75DFBB0BDB003002034000140DD
:1033C0001801002010B501461D4A642828BF642159
:1033D0000C460029536818BF1C4654610024642819
:1033E000074838BF1C049461016001B110BDD64884
:1033F000D0F8F010B0F8F8000004086010BD00BF6D
:103400003800014010B501460D4A642828BF6421E8
:103410000C460029936818BF1C46D4610024642818
:10342000084838BF1C041462016001B110BDC648D1
:10343000D0F80011B0F808010004086010BD00BF0A
:10344000280300203C000140180100202DE9F04F26
:1034500087B0152876D8DDF8489005460120DFF8BA
:10346000F0804E46B9F1000F18BF00FA02F6B648D8
:10347000B1F1FF0418BF3446FF2900EB05171ABF4E
:10348000324850F821600026002E1198BA46069066
:103490004046DDF840E018BF06F11000059018BF67
:1034A00006F118081AF80DBF3868CB4508BF40452B
:1034B00033D0CDE901E3CDE90312FDF717FBBBF1F2
:1034C000000F18BF002802D03989FDF735FC069897
:1034D000B9F1000F2A46C7F800808AF800903C81B5
:1034E00038730198F8720298B87205987860DDE92F
:1034F000031018BF002E07D0032998BF0F2803D848
:103500003846FFF743F82A46A2F10E00022819D8E0
:1035100007B0BDE8F04FFFF7ADBBB7F808C0A0B2E9
:1035200084454046C5D1B87A98424046C1D1F87A20
:1035300070454046BDD1B446387B069EB0426646D3
:103540004046B6D107B0BDE8F08F00BFC45E0008AA
:10355000CC0A0020FDF73CBDB0B592B00024142188
:10356000CDE90A44CDE9084401A8FCF762FF1F48F1
:1035700000940225016841F080510160006800F06C
:1035800080500090009800941948016841F440412F
:103590000160006800F440400090042010951190F4
:1035A000C0200F9019200E904FF48000CDE90C50F0
:1035B0004FF48030079001200690009806A8FEF78F
:1035C00029FC08B172B6FEE74FF480500594CDE9AE
:1035D0000254032104900F20019001A8FEF74EFB36
:1035E00008B172B6FEE712B0B0BD00BF403802406D
:1035F000007000400248016841F4700101607047AA
:1036000088ED00E0F8B54E4C2568E80775D06FF0FE
:103610000100206002F0CEF8DFF828C19CF800001D
:1036200003286AD0484E2146348B32693068336BA8
:10363000376C240414600C46328912040260B6F818
:10364000480000043860308F000418603F4802686A
:10365000002A52D000220092009A3B2A03DC00BFCD
:10366000009A0132F7E79CF80010012919D00229CD
:1036700043D10168002900D5494241F28832914284
:1036800038BF0A463349626200680978D1B1002820
:103690001ADD30683189016006F14001B6F8480052
:1036A00029E00168002900D5494241F2883291425F
:1036B00038BF0A4662620068B0F1FF3F0BDD02F0DE
:1036C000D3F910E00128E4DB3069318B016006F1A9
:1036D0003001308F0FE01E4800783189002818BF74
:1036E0000904306801601B480178308B002906F11D
:1036F000100118BF000409680860A8071AD56FF008
:10370000020020600F480078012814D0022811D14F
:103710000D48058B02690168036B046C2D0415606C
:10372000028912040A60B0F8481009042160008F71
:1037300000041860F8BDBDE8F84002F0A1B900BF70
:10374000100000409B03002018010020101F0020E3
:103750009D0300209E0300200148FEF71DBE00BF10
:103760001C2700200148FEF717BE00BF4C030020B5
:1037700070B5744B026898421FD000F140444FEA84
:10378000B424032C03D84C6822F070022243B0F119
:10379000804F16D0174CA04213D0174CA04210D027
:1037A000164CA0420DD0164CA0420AD0154CA04297
:1037B00007D0154CA04204D007E04C6822F07002FC
:1037C0002243CC6822F4407222430D688E684C6913
:1037D0009842C662856201D109691963016841F0A6
:1037E000040101600121416122F080012143016057
:1037F00070BD00BF0004004000080040000C004005
:10380000004001400048014000440140F0B5036A17
:10381000026A4C4E22F0010223F0020302628C681D
:103820000A68456823438469B0420CD1D1E9057622
:1038300025F44075D1F80CC023F00C033D4335430B
:103840002CF00406334324F0730445602243826164
:10385000496841630362F0BDF0B5036A026A394EFC
:1038600022F0100223F02003B04202628C680A6842
:10387000456843EA041384690FD1D1E9057625F43C
:103880004065D1F80CC023F0C0033E4345EA8605ED
:103890006FF0400606EA0C16334324F4E644456014
:1038A00044EA02228261496881630362F0BD00BF7D
:1038B000F0B5036A026A234E22F4807223F4007387
:1038C000B04202628C680A68456843EA0423C4690E
:1038D0000ED1CE6825F4405CD1E9057523F4406330
:1038E0003D43360240F2FF47BE434CEA05153343E1
:1038F00024F0730445602243C2614968C1630362D6
:10390000F0BD00BFF0B5026A036A0E4F23F4805386
:10391000B842036245680C688B68C66904D14F6978
:1039200025F4804545EA8715456026F4E64545EAD5
:103930000424C4614968016422F4005141EA03315E
:103940000162F0BD0000014010B5036A046A24F072
:1039500001040462846924F0F00444EA02128261E2
:1039600023F00A021143016210BD10B5036A046A14
:1039700024F010040462846924F4704444EA02329E
:10398000826123F0A00242EA0111016210BDD0F869
:10399000D41200EB81000021D0F8C00280F8501052
:1039A0000020704780B5D0F8D41200EB8100D0F829
:1039B000C01239B1D0F8C402C2680878497890477B
:1039C000002080BD032080BD70B58121044600F039
:1039D000ADFA00252046012184F83750256300F018
:1039E000A5FAD4F8D40284F87751C4F8705104EBE6
:1039F0008000D0F8C01289B1D0F8C4028068804736
:103A0000D4F8D40204F5307656F8200000F0A4FE75
:103A1000D4F8D40246F82050C4F8BC52002070BD3F
:103A2000B0B5D0F8D41200EB8100D0F8C0525DB12F
:103A3000E96C0024012908D1D0F8C4026978C26871
:103A400028789047EC6400E003242046B0BD0000D5
:103A50000A21018000487047C8000020F8B51F4EB9
:103A6000FEF7FCFFFFF735F815B14021AF71A980D3
:103A700018B10121817140218180292020801748BF
:103A8000F8BD00BF70B5154EFEF7E8FF054630469D
:103A9000012100F0EBF91DB10521A9714021A98098
:103AA00018B10521817140218180292020800B4897
:103AB00070BD00BFF8B5094EFEF7D0FFFFF709F85B
:103AC00015B14021AF71A98018B101218171402148
:103AD0008180292020800148F8BD00BF900000208F
:103AE00070B50446542000F039FE0546D4F8D402DF
:103AF00004EB800000F5307075B30560207C012672
:103B0000C4F8BC5200284FF0010008BF0520C4F8DB
:103B100070012063812103224023204600F007FB2F
:103B2000204601210322402384F8376000F0FFFA89
:103B3000D4F8D40284F87761002685F8506004EB4D
:103B40008000D0F8C40240688047204601212A4600
:103B5000402300F0F8FA02E000210226016030461E
:103B600070BD80B5D0F8D41200EB8101D1F8C0222D
:103B70002AB10121402300F0E6FA002080BD032095
:103B800080BD39B1D0F8D42200EB8200C0F8C41255
:103B90000020704703207047B0B513460A46D0F89E
:103BA000D41200EB8101D1F8C04274B190F89C129C
:103BB000032908D194F8505001213DB984F85010E0
:103BC000812100F06CFB002100E003210846B0BD1C
:103BD0007CB5D0F8D42200EB82040022D4F8C032A5
:103BE000ADF80620002B00F068800A7812F0600221
:103BF00011D0202A40F05F804A78023A092A00F268
:103C00005A80DFE802F0051C58585858581F282CD5
:103C100003F1440138E04D780B2D4CD80022DFE849
:103C200005F0064D4A4A4A4A224A4A4A2D3890F837
:103C30009C22032A3FD10DF10601022225E003F167
:103C4000400121E0CA88412A35D20121D9641946B0
:103C500000F060F81BE0C878002258642EE08878F5
:103C6000002218642AE0CA78222A1AD0212A22D1F6
:103C7000CA88134B092A28BF09221AE090F89C220F
:103C8000032A18D103F14801012200F05DF8002257
:103C900014E090F89C22032A0DD1887800229864C1
:103CA0000CE0CA88222A28BF2222D4F8C4321B681A
:103CB0000BB11946E9E700F022F8032210467CBD5B
:103CC000BC00002080B5D0F8B82252689047002888
:103CD00018BF032080BD002070470020704780B5CA
:103CE00013460A46002100F02EFA002080BD80B560
:103CF00013460A46002100F0D2FA002080BD10B51C
:103D00008021044600F0ACFA20460021BDE81040B6
:103D100000F0A6BA80B513460A46C0F86411032124
:103D2000C0F894120021C0E9553300F00CFA0020CD
:103D300080BD80B5052100220023C0F89412002127
:103D400000F001FA002080BD80B513460A464162AA
:103D50000221C0F894120021C0E9053300F09FFA57
:103D6000002080BD80B5042100220023C0F89412F9
:103D7000002100F094FA002080BD000010B52D4C09
:103D80000A4602A0FEF749FE204610BD4375737433
:103D90006F6D2048494420436F6E666967000000DC
:103DA0001220088000487047E400002010B5214C24
:103DB0000A4602A0FEF731FE204610BD437573741B
:103DC0006F6D2048494420496E7465726661636571
:103DD000000000000420088000487047F800002020
:103DE00010B5144C0A4602A0FEF717FE204610BD7F
:103DF00053544D6963726F656C656374726F6E695D
:103E00006373000010B50B4C0A4602A0FEF705FED6
:103E1000204610BD53544D333220437573746F6D7B
:103E20002048756D616E20696E74657266616365A8
:103E300000000000381C0020B0B51A200880094995
:103E400008688A6880180BD0074D4C680822A91CA6
:103E5000FEF73CFC05F1120120460422FEF736FC79
:103E60000148B0BD107AFF1FFC00002010B5027899
:103E7000438893420DD994B29C420AD204782044DC
:103E800022444478052CF6D184788C4208BF10BDBA
:103E9000F1E7002010BD0021027812B1013001319C
:103EA000FAE7C8B2704770B5B0B116460C46054681
:103EB000FFF7F1FF0221032201EB40003080207068
:103EC000002062702A783AB1CBB202310135E25457
:103ED00043F00102A054F5E770BD0000044AC100A0
:103EE000032822FA01F188BF0321C8B2704700BF3E
:103EF0000003010378B10023C0F8D032C0F8C43207
:103F0000C0F8B83209B1C0F8B4120121027080F8CB
:103F10009C1200F0AFB80320704780B5D0F8C802FB
:103F2000FDF771F9BDE88040FFF7D8BF80B5D0F844
:103F3000C802FDF74AF9BDE88040FFF7CFBFB0B532
:103F4000044669B194F89C02032848D1D4F8B80219
:103F50004269002A43D0FEF7B4FD00283FD0B0BD2F
:103F6000D4F89402022834D1218CA06988420ED959
:103F7000421A606AA261014420466162FFF7B7FEFF
:103F8000204600210022002300F0DDF821E00FD1BF
:103F9000616981420CD3D4F89802814208D220464C
:103FA000002100220025FFF7A2FEC4F89852E7E79F
:103FB00094F89C02032805D1D4F8B802C16809B16D
:103FC000FEF7ABFD2046802100F04AF92046FFF7BE
:103FD000B0FE94F8A00210B1002084F8A0020020E6
:103FE000B0BD10B5044659B194F89C0203282DD1F8
:103FF000D4F8B80282694AB3FEF763FD30B310BD4E
:10400000D4F89402032821D1B4F86021D4F85801DF
:1040100090420ED9D4F86411801AC4F85801904225
:104020001144C4F8641188BF02462046FFF757FECA
:104030000CE094F89C02032805D1D4F8B802016979
:1040400009B1FEF76AFD2046FFF78CFE002010BD87
:104050000020704780B5012180F89C12D0F8B8226A
:1040600032B1017952689047002818BF032080BD03
:10407000002080BD10B5017831BB1449C0F8C812CA
:10408000C1F8E004042008714FF0A040086000204F
:10409000C8810220C1F809004FF40070C8800846AA
:1040A000FDF7E7FC08B1FCF7EBFA084C802120464D
:1040B000FDF73BF8204600214022FDF73AF8204664
:1040C00001218022FDF735F8002010BDF0210020ED
:1040D00001F07F02D0F8C80249B202EBC202002907
:1040E00000EB820000F2562248BF00F11602107861
:1040F000704780B5FEF7A7FC08D090F89C32032BE0
:1041000002D1126A02B19047002080BD032080BD19
:1041100080B5FEF798FC08D090F89C32032B02D1B2
:10412000526A02B19047002080BD032080BD10B5C7
:104130001446D0F8C8021A462346FDF78BF8BDE8AE
:104140001040FFF7CBBE80B5D0F8C802FDF7ABF842
:10415000BDE88040FFF7C2BEF8B501260025044641
:1041600080F89C62C0F8A452456080F8A052C0F864
:104170009452D0F8B80250B142683AB120460021BA
:1041800090470546002818BF032500E0002520467B
:104190000021002240234027FFF7C9FF204680214D
:1041A0000022402384F86361A4F86071FFF7BFFF29
:1041B000284684F823602784F8BD90F89C120429CF
:1041C00004BF90F89D1280F89C120020704780B5C3
:1041D00090F89C12032905D1D0F8B81211B1C96921
:1041E00001B18847002080BD01740020704780B570
:1041F000D0F8C802FDF7F0FCBDE88040FFF76EBEC6
:10420000B0B500F2AA250446284600F051F8012076
:10421000C4F89402B4F8B002C4F8980294F8AA0260
:1042200000F01F01022908D001290CD089B92046CD
:104230002946BDE8B04000F06DB820462946BDE8EB
:10424000B04000F0BFB920462946BDE8B04000F0BC
:1042500053BA00F080012046BDE8B040AFF30080C3
:1042600080B5D0F8C802FDF73AF8BDE88040FFF706
:1042700035BE80B5D0F8C802FDF7C2FCBDE880406D
:10428000FFF72CBE90F89C1204291CBF90F89C12DA
:1042900080F89D12042180F89C120020704780B5A0
:1042A000D0F8C802FDF751F8BDE88040FFF716BE10
:1042B0000A7802704A7842704A8842808A888280EE
:1042C000C988C18070471CB504460020ADF80600BF
:1042D000A9B1D4F8D402C4F8B81204F52E7151F87B
:1042E0002000C16A21B10DF106008847C4F8D00250
:1042F000D4F8D8020130C4F8D80200201CBD032035
:104300001CBDD0F8B8220AB11268104700207047CF
:10431000FFF7AFBFBCB5044608780D4610F060004B
:1043200011D0402802D0202840F03D81D4F8D4029A
:10433000294604EB8000D0F8B8028268204602B01B
:10434000BDE8B04010476878092800F22C81DFE80A
:1043500010F00A001E002A012C002A013600550028
:104360002A016B007D00FEF717FC00F21C81E88833
:10437000022840F01881D4F8A40203222146002824
:1043800008BF012241F80C2F2046022208E1FEF767
:1043900003FC00F2088168880025012840F00681AE
:1043A000C4F8A452FEF792FB00E1688802286BD0A3
:1043B000012840F0F8800120C4F8A402F8E0A888A1
:1043C000002840F0F080E888002840F0EC80688801
:1043D0007F2800F2E88094F89C12032900F0E38023
:1043E000C5B284F89E0220462946FFF700FFFEF77B
:1043F0006DFB002D00F0DF800220DDE000204FF09B
:10440000FF31ADF80600688801EB1021062900F2A3
:10441000CA80DFE801F004444BC8C8586200D4F8F1
:10442000B412207C0A68ACE0E888012840F0BB8028
:1044300094F89C02411E02292AD2002521462046DA
:10444000012241F8085FFFF77FFCAFE068885C4D10
:1044500010F0FE0F287003D0FEF7FDFA0325A5E04B
:10446000C1B294F89C02032843D0022859D10029F4
:1044700000F09E8020466160FFF743FF002867D070
:104480000546FEF7E8FA48E0687984F8A0028FE074
:10449000032840F08880211D2046012280E0217CF5
:1044A000D4F8B802002942D0C16A41E0C0B2052860
:1044B00000F27980DFE800F0035054585C60D4F8D3
:1044C000B40242685BE0207C00286CD1D4F8B802CA
:1044D000416B0DF10600884756E0207C002862D130
:1044E000D4F8B802016B0DF1060088470146072099
:1044F00023E021B3606888425AD0C1B2FEF712FBB4
:10450000297820466160FFF7FCFE002850D0054660
:10451000FEF7A1FA2179FEF705FB022084F89C0240
:1045200044E0FEF798FA2978FEF7FCFA96E7816AEC
:104530000DF10600884701460220487025E0022060
:1045400061600021002584F89C02FEF7EBFA29E760
:10455000FEF7BCFA03202FE0D4F8B40282680EE024
:10456000D4F8B402C2680AE0D4F8B402026906E0E2
:10457000D4F8B402426902E0D4F8B402826992B17C
:10458000207C0DF1060190470146EA8882B1BDF812
:10459000060040B1904238BF0246ADF806202046E2
:1045A000FFF7D2FB01E0FEF756FA00252846BCBD16
:1045B000FEF78CFAF9E7012084F89C02F5E700BFCA
:1045C000341C002070B5044608780D790E4610F0B2
:1045D000600016D0402801D0202864D1204629460A
:1045E000FFF779FB002860D10020C4F8D402D4F88A
:1045F000B8028268002A58D020463146BDE8704093
:104600001047707868B101281DD003284BD194F869
:104610009C0203281BD17088002854D0FEF756FA5C
:1046200043E094F89C0203281ED002283BD1680680
:1046300039D1280604F1140158BF04F5AA710020ED
:1046400001F80E0F53E094F89C0203282FD00228A3
:1046500029D1680627D020462946FFF701FE2046CB
:104660008021FFF7FDFD20E005F00F00802D00EB1D
:10467000800004EB80002CBF90F8230090F86301C9
:1046800088B105F07F00802D00EB800004EB8000F6
:1046900000F1140638BF00F5AA7645F080008028A6
:1046A0001BD1002020E0FEF7D6F9002070BD7088F5
:1046B0000028FAD1680603D020462946FFF72DFCD2
:1046C000FEF704FA8AE76806A8D0F0880028A5D18A
:1046D00020462946FFF7C4FDA0E720462946FFF7FC
:1046E000F7FC0028DDD0012006F10E01B073204652
:1046F0000222FFF729FBD8E7B0B5044608780D463B
:1047000010F0600018BF40280DD1FEF745FA0CD814
:10471000A88810F0FE0F08D1C1B22046FFF7DDFADD
:1047200038B1032010E02028EFD0FEF794F90020E4
:10473000B0BDD4F8B8028268002AF2D00020294621
:10474000C4F8D40220469047E9880029F0D1002817
:10475000EED1FEF7BBF9EAE770470000004870476A
:10476000381E002070B5D0F81C480A784E785301E6
:1047700002F00F05012E16D1012606FA05F52C438D
:10478000C0F81C481844D0F800391B0423D400F5A5
:104790001060036843EA82520B7989686FF3DF2166
:1047A00041EA834113E04FF48032AA402243C0F82B
:1047B0001C281844D0F8002B12040CD40A798968FC
:1047C00000F530606FF3DF2141EA82410268114356
:1047D000024A11430160002070BD00BF008000103C
:1047E000D0F8001940F2FF729143C0F80019D0F8D8
:1047F000041841F48071FEF718B9000070B5044642
:1048000002F47F400D46B0F5807F17D1A16B1B4AA3
:10481000049821F48031C0B2A163E1681140E160E5
:104820000128E16821F44011E16003D1E06840F41F
:104830008010E060204600F023F810E0E0681E469B
:1048400040F04000E060204600F01AF8A16B16F43A
:104850007F4F14BF21F4803141F48031A16305F40E
:104860007F01B1F5803F07D1A16841F00601A16049
:10487000A16841F02001A16070BD00BFBFFFBDFF76
:1048800081B0002100917246FEF7FDF8964618D8D7
:104890000169B1F1FF3FF6DC0A210091009911B1E5
:1048A00000990139F9E7016941F00101016172469E
:1048B000FEF7E9F8964604D80169C907F7D1002048
:1048C00000E0032001B07047B0B50A784B78510181
:1048D000012B24D143180124D3F8005903F51061AA
:1048E000164B002D07D50D6845F000650D600D686D
:1048F00045F080450D6002F00F0204FA02F2D0F894
:104900003C489443C0F83C48D0F81C4824EA0202D2
:10491000C0F81C280868184008600020B0BD431883
:104920004FF48034D3F8005B03F53061034B03F19F
:104930007073B5F1FF3FDEDCD5E700BF007833ECE4
:10494000D0F8001E21F00301C0F8001ED0F80418B2
:1049500021F00201FEF769B8D0F8001E21F0030132
:10496000C0F8001ED0F8041841F00201FEF75DB84F
:104970002DE9FE4F8B468146180C4121002350291A
:1049800003D049F821300131F9E75FFA80FABAF132
:10499000000F08D0D9F8380020F40010FEF7F7F81F
:1049A00040F4002011E0D9F8040840F00200C9F8F2
:1049B0000408D9F8380040F40010FEF7E8F820F4B5
:1049C0000020FEF7E4F820F48020C9F83800002029
:1049D00002F47F41B1F5807FC9F8000E02920DD13B
:1049E000D9F8001809F50068B0EB1B6F0EBFC8F8C6
:1049F000001041F00100C8F8000007E0D9F80008F5
:104A000009F5006840F00300C9F800084846102185
:104A100000F019FA0190484600F0F8F95FFA8BF1BE
:104A2000002209F510634FF67F3500264901C8F8CA
:104A30001020C8F81420C8F81C20B1420ED09F598D
:104A40004FF09044002E08BF4FF0006404EAE77472
:104A50009C519C1920362261A560EEE709F5306271
:104A600000234FF67F350026B1420ED094594FF007
:104A70009047002E08BF4FF0006707EAE474945196
:104A8000941920362361A560EEE7D8F8101021F4C0
:104A90008071C8F810100021C9F818106FF080411B
:104AA0001BF47F0FC9F8141005D1D9F8181041F084
:104AB0001001C9F81810D9F818100E4A1143C9F896
:104AC0001810029911F47F0F05D0D9F8181041F091
:104AD0000801C9F81810BAF1010F05D1D9F818105A
:104AE000054A1143C9F818100199084318BF01205D
:104AF000BDE8FE8F00383C8004000040816821F052
:104B0000010181600020704710B5036C134CA34273
:104B100003D3D0F8003B002B1ED40023C0F8103B79
:104B20000129D0F8103B43F40023C0F8103BD0F823
:104B3000103B43F01803C0F8103BD0F8103B43F093
:104B4000C043C0F8103B07D1C0F8142BD0F8001BAD
:104B500041F08021C0F8001B002010BD0B30544FE5
:104B60000A784B7852011044012B0DD1D0F800295E
:104B700022F40012C0F80029097901F0FE0102298F
:104B800013D100F510600CE0D0F8002B22F40012D5
:104B9000C0F8002B097901F0FE01022905D100F5CA
:104BA0003060016841F080510160002070470A7850
:104BB0004B7851010144012B19BF01F53060D1F848
:104BC000001B01F51060D1F80019002904D41AB1B6
:104BD000016821F080410160016841F40011016029
:104BE00000207047F8B54B780C78012B2BD100EBE7
:104BF0004415D5F81069D1F810C005F51063BCF163
:104C0000000F44D06FF31206002C1E611E696FF373
:104C1000DC461E618E6867D00CEB0607013FB7FBD0
:104C2000F6FE5C4F1E6907EACE473E431E610E79D1
:104C3000012E64D11E6926F0C0461E614FF0C046A9
:104C400006EA4E7758E000EB4413D3F8105B6FF39D
:104C50001205C3F8105BD3F8105B6FF3DC45C3F8A3
:104C6000105B03F530638D680E69ECB1FEB1741909
:104C7000013CB4FBF5F6B4B26C43464D0C626FF3E5
:104C8000DF4405EAC6451E6935431D6116E06FF332
:104C9000DC464FF0000C1E611E6946F400261E61C2
:104CA0001F696FF312072FE006B10D610D621C69D9
:104CB0006FF3DF452C431C614FF400241D692C4326
:104CC000012A1C6102D1CA6802B15A61097901291D
:104CD0002FD1D0F80808C0054FF0805058BF4FF0D2
:104CE00000501968084323E0B44591BF4FF40027F2
:104CF0000E614FF40027B4461E693E431E616646AE
:104D00001F696FF3DF463743012A1F6117D1CA6954
:104D10000AB1C5F81429097901290AD1D0F808186F
:104D2000D5F80009C9054CBF40F0805040F0005054
:104D30001860186840F0044018600020F8BD630156
:104D400000F51065EE5846F00446EE500E79012E3F
:104D500012D1D0F808685F59F6054FF0805658BF59
:104D60004FF000563E435E511FFA8CF3C968009223
:104D7000224600F099F9E0E7BCF1000FDDD004F025
:104D80000F01012202FA01F1D0F834281143C0F8D2
:104D90003418D2E70000F81F81B0002200920A7890
:104DA0004B785101012B13D100F510604258B2F13C
:104DB000FF3F20DC7346FDF70AFF9E46009B013350
:104DC0000093009B934218D80B58002BF6D412E0A6
:104DD00000F530604258B2F1FF3F0CDC7346FDF73E
:104DE000F6FE9E46009B01330093009B934204D83D
:104DF0000B58002BF6D4002000E0012001B07047D2
:104E0000816841F0010181600020704781B000217C
:104E100000917246FDF737FE964611D80169B1F14F
:104E2000FF3FF6DC00210091102101617246FDF781
:104E30002AFE964604D80169C906F7D4002000E08E
:104E4000032001B0704781B000220092009A013225
:104E50000092009AB2F1706F12D80269B2F1FF3F6E
:104E6000F4DC890100222031009201617246FDF7D5
:104E70000AFE964604D801698906F7D4002000E0AE
:104E8000032001B070470000D0F8080802A100F02C
:104E90000600085C704700BF000F020F0F0F0200F2
:104EA000406900F001007047D0F81818D0F81C08CD
:104EB000084080B27047D0F81818D0F81C08084095
:104EC000000C704710B5D0F81028D0F8344801F025
:104ED0000F0300EB4110D0F8080924FA03F3DB01BB
:104EE000DBB21A43104010BD00EB4111D1F8081B92
:104EF000D0F814080840704741698069084070473D
:104F0000B0B593084FF4805423B10559013B41F8E3
:104F1000045BF9E712F003020BD04FF48053C05842
:104F2000002320FA03F40833013A01F8014B14047A
:104F3000F7D10846B0BDB0B50446C06820F0C04007
:104F4000E060A1B101291CBF0120B0BDE0680025CF
:104F500040F00050E0600A20FBF734FE616905F183
:104F60000A00C90713D1BE2D0546F4D30FE0E0684F
:104F7000002540F08040E0600A20FBF723FE6169D5
:104F800005F10A00C90702D0BE2D0546F4D3C83882
:104F9000B0FA80F04009B0BDD0F8002801F07F01E0
:104FA00022F4FE62C0F80028D0F8002842EA01117D
:104FB000C0F8001800207047022A34D1284A294B33
:104FC0000A449A4202D24FF470512EE0264A274BEF
:104FD0000A449A4202D24FF4605126E0244A254BFB
:104FE0000A449A4202D24FF450511EE0224A234B07
:104FF0000A449A4202D24FF4405116E0204A214B13
:105000000A449A4202D24FF430510EE01E4A1F4B1E
:105010000A449A4202D24FF4205106E01C4A1D4B2A
:105020000A449A420AD24FF41051C26822F47052D4
:10503000C260C2681143C16000207047164A174B16
:105040000A449A4202D24FF40051EEE7144A154B3B
:105050000A444FF4C0519A4238BF4FF4E051E4E79C
:10506000405327FF00350C00401E1BFF40420F003D
:1050700000DC0BFF804F1200808CF9FE20D613005D
:1050800060B6E5FE60E3160000D3CEFE40771B005D
:10509000C05BB3FEC091210000CA91FE20753800AC
:1050A000E05459FEE09C410010B5029C0CB1002078
:1050B00010BD0333120300F580509B08002BF6D07F
:1050C00051F8044B013B1450F8E7FEE710B5B04C23
:1050D000206DA16C226D891A022291FBF2F1084425
:1050E0006065A06CE16C884209DA4FF0FF3000F097
:1050F0002DFAFDF777FDD4BF043904300BE0A06C26
:10510000E16C88420BDD012000F020FAFDF76AFD1A
:10511000B4BF0431043800680968401A00E0002078
:10512000B4F92C1020EAE07088420749A4BFB4F912
:105130002C00013831F810009849B1F908100844E2
:105140000128D8BF012010BD940C0020F8B5634D94
:10515000E879032879D06248D0F81421B0F8181102
:10516000D0F824311268114018BF0121B0F828018D
:105170001A68104049F2696218BF012040EA4100F4
:10518000697F40EA8101CA40D2075ED1EA7A687736
:1051900054A0405C002A18BF4042E96C44B241FA76
:1051A00080F12046E96400F0A5F8012C27DB687E39
:1051B00028B3E86CA96B0139884220D16878F0B92E
:1051C000A87E0130A876A87E032818D3734E714FAD
:1051D000002401206C7628762C713470707884421B
:1051E00008D2FBF7B9FB297907EB8101214401348F
:1051F0000875F3E7FDF799FC6AD00020E866287E81
:1052000018B3E86CA96B884203DBE86CE96B884251
:105210002EDD287F08B9FDF7CBFA00206871A87948
:1052200001280FD1E86CE96B88420BDD687848B93A
:10523000FDF7BEFAFDF779FC4AD0E86E0130E8666A
:1052400001206870A879FF2800D0F8BDE86CA96B30
:105250008842FADA68780128F7D1FDF7A9FAFDF754
:1052600064FC35D0E86E0130E86600206870F8BD57
:10527000287F08B1FDF7B4FA484C464E46492078DD
:105280002871287906EB8000007DC988002808BFB6
:10529000014688B2FEF772F86078022807D3012031
:1052A0006871688C6178B0FBF1F000F079F82879CA
:1052B000002780F00100207060788742AFD2FBF7B2
:1052C0004BFB217806EB8101394401370875F3E780
:1052D0000120BDE8F840FDF7CBBF00BF94030020DC
:1052E0001801002000FF0100010000FFFF00000185
:1052F0000001FF000E490A68BF494B6F4A67D21A86
:105300000C4BA2FB03239A094EF660239A4205D365
:105310004FF6FF7000224884012006E04A840122F3
:105320000128B8BF4FF0FF3200208A71C87770475C
:10533000041000E0ABAAAAAAB0B5AF4CE06CA16B18
:10534000884203DBE06CE16B884206DD002000252B
:10535000FEF714F801206571B0BD20790D4901EB0D
:105360008000617908440C49007DC988002808BF85
:10537000014688B2FEF702F8607901306071074893
:10538000617942780020914228BF0120B0BD00BF62
:105390009403002010040020540B0020080000207B
:1053A0000749C862086920F001000861C86840F038
:1053B0000100C860086840F001000860704700BF45
:1053C000000400402DE9F04788B0DFF894860446D9
:1053D00098F80000A04278D03D4800263D4D4FF09F
:1053E000804A3D4F016841F001010160016821F0F0
:1053F000010101600196016A41F001010162802111
:10540000C5E90466AE60C5F800A0A961032C006A76
:1054100000F00100019001981BD142F210700821A8
:10542000E860532068602846FDF762F83E60052179
:105430000022FDF7EBFA40F0010038601C20FBF77A
:105440003BFE1C20FBF726FE64203862BE617E60B6
:1054500033E041F28930E860122068602846FCF7AA
:10546000B3FEDAF800000DF104091C2120F0080059
:10547000CAF800004846FAF7DCFF40F6C410494677
:10548000002202902846FDF70DF8DAF80000052109
:10549000002240F08000CAF80000F86840F00800E0
:1054A000F8603E60FDF7B2FA40F0030038601C205F
:1054B000FBF702FE1C20FBF7EDFDDAF8000040F0E0
:1054C0000100CAF8000088F8004008B0BDE8F08785
:1054D00020380240D42600200C00004080B5174937
:1054E0000978032917D00028014600D541420A292E
:1054F000134938BF00200860124968B141F2883270
:105500009042B8BF024610488242D8BF0246002AE5
:1055100000D552420A6080BD002008602348B0F8E0
:105520004830026C016B1B041360008F000408609C
:1055300000F09AFABDE8804000F0A2BA9B03002078
:10554000101F00203400004078ECFFFF10B5984990
:105550000A7B012A12D100220A73144AB2F8583089
:10556000CC7B002C08BF1B04126D1360CA6C024474
:1055700040B2CA64BDE8104000F040B801220A738E
:1055800001280A4814BF8A7B4A7B002A074AB0F8E0
:10559000680008BF0004146E136D2060B2F8580054
:1055A000097C002908BF0004186010BD1801002004
:1055B000F0B57F4AD37803B1F0BD00230124937482
:1055C000D4709370D46CD56CD66CD76C8E423E463A
:1055D000CCBF0E460F46BE1B471B8442C8BF2F1AC6
:1055E000B742B8BF01464FF000009164A8BF012048
:1055F00010725363F0BD00BF940300202DE9F04109
:105600000446FFF777FE012C2CDB694D687E48B31A
:10561000E86CA96B0139884224D1687810BBA87E58
:105620000130A876A87E03281CD3DFF8F485544FF8
:10563000002601206E7628762E7188F8006098F892
:105640000100864208D2FBF787F9297907EB81012F
:10565000314401360875F2E7FDF767FA00F08A80F9
:105660000020E866DFF8B48598F81800E8B1D8F8AB
:105670004C00D8F83810884205DBD8F84C00D8F830
:105680003C10884233DD00200025FDF777FE88F8C6
:105690000550012C0BDBD8F84C00D8F83C108842A0
:1056A00003DD98F80100002852D0BDE8F081B4F184
:1056B000FF3FFADCD8F84C00D8F838108842F4DA0A
:1056C00098F801000128F0D100200024FDF756FED3
:1056D00008F15C00FBF79EF900284BD0D8F86C006D
:1056E0000130C8F86C0088F80140BDE8F081D24E66
:1056F000D04F2449307888F8040098F8040007EB6C
:105700008000007DC988002808BF014688B2FDF7E7
:1057100035FE7078022809D3012088F80500B8F812
:105720002A007178B0FBF1F0FFF73AFE98F8040018
:10573000002580F00100307070788542A9D2FBF717
:105740000BF9317807EB8101294401350875F3E73E
:105750000020FDF713FE08F15C00FBF75BF948B190
:10576000D8F86C000130C8F86C00012088F80100FE
:10577000BDE8F0810120BDE8F041FDF779BD00BF33
:1057800010040020540B0020E248817801B17047DA
:105790000121817000218174C279032AF7D0C17080
:1057A000018441630172A249C9688164704700BFE6
:1057B0009403002070B5F14CE079032811D1E06C1E
:1057C000216D884203D0E06CA16C884201D1E06C6D
:1057D0002065607C01281FD1E06CB4F92C100844CE
:1057E00021E0E078012849D1608C28B1618C4FF626
:1057F000FF70814240F0A780002020648C488168BF
:10580000E26C8A425FDA4068E16C814262DC207AB5
:1058100000285FD000205AE0607C022804D1E06CB0
:10582000B4F92C10401AA064A07860B1E06CA16CAF
:10583000884208D10020E070A07C20B97C48C06874
:10584000A0640120A074E07850B17949D1E9010148
:10585000E26C8242D8BFA164E26C8A42A8BFA06415
:10586000A06CE16C884206BFED480089FFF72EFC72
:105870006085608DBDE8704000F0E2B86C49487DFD
:1058800001285ED1607C012803D0607C022840F0B2
:105890009680607C6FF00101012808BF0221E06C56
:1058A0000844A064608C002865D0618C4FF6FF70BE
:1058B000814260D0618CB0FBF1F147F6FF7081420C
:1058C00038BF084658E0207A012803D00120207212
:1058D00000206063D248217A8288002918BF524292
:1058E000A267A16F226C891A6164616CA28C4A4321
:1058F00050490A60626C636B1A44626342F2107230
:10590000636B934203DC636B4C4A934200DA62633D
:10591000626BE38C5A43642392FBF3F24A600A6899
:105920004B681A448A608968C288524213B299420D
:10593000A8BF0A46B0F906008142C8BF02462284C9
:1059400037E0002037E0618C3229FFF457AF618CDB
:105950004EF6602291423FF651AF618CB0FBF1F000
:10596000A17901293FF449AFA1790022FF2908BF9D
:105970004242104641E70020A94B20641426A06C47
:10598000E16C226C9D88AA42C8BF6FF01306884262
:10599000D8BF7642B4F92000D988494230440AB2CF
:1059A0009042A8BF0146B3F906209042C8BF1146F5
:1059B0002184B4F92000BDE87040FFF78FBDA06CD2
:1059C000E26C904206D100201A492084E26CC1E9C1
:1059D0000320EEE7831A1748E56CC668E26CC260E4
:1059E000228D5A43B54213D1097D002BD8BF4942BD
:1059F000036919448A4BDD886D422EB2B142A8BFBB
:105A00000D46B3F906309942C8BF1D4629B200E0E1
:105A10000021016188188249CA88524213B2984213
:105A2000A8BF0246B1F906108842C8BF0A4686E7F9
:105A3000D40B00201004002008000020F0D8FFFF45
:105A40000749097803290AD10649C861002048613D
:105A500008604FF08040016841F00101016070472B
:105A60009B0300201000004004484F4900780A8939
:105A7000002808BF12040868026070479D030020D8
:105A80000448494900780A8B002808BF12040869B5
:105A9000026070479E03002010B5604CA06DE16D60
:105AA000A26D891A022291FBF2F108442066E06D92
:105AB000616E884209DA4FF0FF3000F02FF8FDF7F1
:105AC00070F8D4BF08390C380BE0E06D616E884285
:105AD0000BDD012000F022F8FDF763F8B4BF0C39AC
