:020000040800F2
:10000000502C0020590200082B2B0008AB280008B8
:10001000292B00083F050008BB4D00080000000028
:10002000000000000000000000000000FD32000899
:100030002506000800000000B5320008593300080A
:1000400073020008730200087302000873020008BC
:1000500073020008730200087302000873020008AC
:10006000730200087302000873020008730200089C
:10007000730200087302000873020008730200088C
:1000800073020008730200087302000800000000F9
:10009000000000000000000000000000270600082B
:1000A00073020008113400087302000809340008C4
:1000B0001D34000829340008353400087302000894
:1000C000730200087302000873020008730200083C
:1000D00073020008730200087302000800000000A9
:1000E0007302000873020008730200080000000099
:1000F0000000000000000000000000007302000883
:100100000000000073020008730200087302000878
:1001100000000000000000000000000000000000DF
:1001200069050008730200087302000873020008E2
:100130007302000800000000000000000000000042
:100140000000000000000000000000002D2B00084F
:1001500073020008730200087302000873020008AB
:100160007302000873020008000000000000000095
:10017000000000000000000000000000000000007F
:1001800000000000730200080000000000000000F2
:10019000730200087302000800F002F800F04CF847
:1001A0000AA090E8000C82448344AAF10107DA45D2
:1001B00001D100F041F8AFF2090EBAE80F0013F0D8
:1001C000010F18BFFB1A43F001031847E85B00005A
:1001D000085C00000A4410F8014B14F00F0508BF3A
:1001E00010F8015B240908BF10F8014B6D1E05D003
:1001F00010F8013B6D1E01F8013BF9D1641E03D0DC
:10020000641E01F8015BFBD19142E4D3704700000A
:100210000023002400250026103A28BF78C1FBD80F
:10022000520728BF30C148BF0B6070471FB505F0AB
:10023000A7FD1FBD10B510BD00F047F91146FFF72F
:10024000F5FF05F05BFC00F065F903B4FFF7F2FF82
:1002500003BC00F06DF900000948804709480047D9
:10026000FEE7FEE7FEE7FEE7FEE7FEE7FEE7FEE766
:10027000FEE7FEE704480549054A064B70470000C3
:10028000F93300089901000850260020502C002066
:10029000502800205028002053EA020C00F069800A
:1002A0002DE9F04B4FF00006002B1FBFB3FA83F58A
:1002B00003FA05F424FA05F65E4012BF1643B2FABB
:1002C00082F502FA05F4C5F120051EBF22FA05FCED
:1002D00044EA0C04203556EA044C4FEA144418BF93
:1002E000641C4FF000084FF00009904271EB030CC2
:1002F00039D3002919BFB1FA81F701FA07F6B0FA2C
:1003000080F700FA07F6C7F120071EBF20FA07FCA6
:1003100046EA0C062037B6FBF4FCA7EB0507103FB6
:1003200007F01F0BCBF120062CFA06F60CFA0BFB9C
:1003300044BFB3460026202FA4BF5E464FF0000BFB
:100340005BEA060C08BF4FF0010B19EB0B0948EBF9
:100350000608ABFB027C06FB02CC0BFB03CCC01BEC
:1003600071EB0C01C1E70B46024641464846BDE829
:10037000F08B13B5084318BF4FF0FF300146AFF3C1
:100380000080BDE81C407047032A40F2308010F026
:10039000030C00F0158011F8013BBCF1020F624420
:1003A00098BF11F801CB00F8013B38BF11F8013BB1
:1003B000A2F1040298BF00F801CB38BF00F8013B5E
:1003C00011F0030300F04F80083AC0F0088051F8A4
:1003D000043B083A51F804CBA0E80810F5E7121DD9
:1003E0005CBF51F8043B40F8043BAFF30080D207F8
:1003F00024BF11F8013B11F801CB48BF11F8012BC4
:1004000024BF00F8013B00F801CB48BF00F8012BE6
:1004100070474FF0000200B51346944696462039C7
:1004200022BFA0E80C50A0E80C50B1F12001BFF4AD
:10043000F7AF090728BFA0E80C5048BF0CC05DF813
:1004400004EB890028BF40F8042B08BF704748BF61
:1004500020F8022B11F0804F18BF00F8012B7047D5
:1004600070477047704710B5203AC0F00B80B1E874
:100470001850A0E81850B1E81850A0E81850203AD9
:10048000BFF4F5AF5FEA027C24BFB1E81850A0E8E2
:10049000185044BF18C918C0BDE810405FEA827CFC
:1004A00024BF51F8043B40F8043B08BF7047D20713
:1004B00028BF31F8023B48BF11F8012B28BF20F8B4
:1004C000023B48BF00F8012B7047754600F02CF83E
:1004D000AE4605006946534620F00700854618B031
:1004E00020B5FFF7C7FEBDE820404FF000064FF0F3
:1004F00000074FF000084FF0000BAC46ACE8C00915
:10050000ACE8C009ACE8C009ACE8C00921F00701BB
:100510008D46704710B50446AFF300802046BDE815
:100520001040FFF792BE00000048704738010020DD
:1005300001491820ABBEFEE7260002007047FEE727
:10054000002070470020704780B50648D0F8BC02F4
:1005500030B102F04FFC034803F07BF9002080BD6E
:10056000032080BD0C1D00204E4800F091BA00BF52
:10057000026840F2FF3122EA010102F0F802103A6B
:100580005F2A88BF043181651823B2FBF3F202A30E
:100590009A5CC265084670470006101600061016E1
:1005A000B0B50468806825684028084625F4802591
:1005B0002560636008BF1046A06008BF0A46E2607D
:1005C000B0BD00003348417F01B170470949096857
:1005D000426F891A084AA1FB021291094EF6612264
:1005E0009142F2D3012141774FF6FF71018400213E
:1005F00081717047041000E03D0AD7A307480168E5
:1006000041F080710160064800214160016841F0BD
:10061000010101601F49406848677047FCED00E038
:10062000001000E0704780B5402000F091FC4FF4CE
:100630008070BDE8804000F08BBC72B6FEE7000021
:10064000CF4890F82A1590F82B2591420FD290F8B8
:10065000291590F82B250131B1FBF2F303FB1211A0
:1006600080F8291590F82A15013180F82A150848D4
:10067000007E00B170470748017E0029FAD1C17D94
:100680000029F7D10121017600214176704700BF92
:10069000500900209801002013460A4601460148EF
:1006A00000F04FBBE81F00204B4A0329136823F4D6
:1006B000407313604FF4407338BF0B021168194345
:1006C0001160116821F0F8011160116841EAC00061
:1006D00040F002001060106840F4803010607047F5
:1006E0001348016889050FD5016821F40071016084
:1006F000016841F400610160016821F4006101605A
:10070000016841F400710160016849050FD5016875
:1007100021F480610160016841F480510160016849
:1007200021F480510160016841F4806101607047EB
:10073000003C024028490A6822F440720A600A68B4
:1007400042F004020A600A6842EA002040F4803065
:1007500008607047204A136823F4407313601368DD
:100760001360136843F0010313600170704700BF0A
:1007700010B519490C6824F440740C600C6844F4FA
:1007800040740C600C6844F001040C600260BFF31C
:100790006F8F436010BD00BF0F4A136823F440738E
:1007A0001360136843F480731360136843F001030C
:1007B00013600180704700BF074A136823F4407339
:1007C0001360136843F400731360136843F001036C
:1007D00013600160704700BF103C0240334801685D
:1007E000C90606D53049CA6942F01002CA61102113
:1007F00001600168890606D52B49CA6942F00802E2
:10080000CA61202101600168490606D52649CA69E6
:1008100042F00402CA61402101600168090606D560
:100820002149CA6942F00202CA618021016001685F
:10083000C90507D51C49CA6942F00102CA614FF4D3
:10084000807101600168890706D51749CA6942F0BD
:100850002002CA6102210160704700BFF8B504465A
:1008600011480021114EC16100F04CFC0546671C87
:100870003068C00309D5002FFAD024B100F042FC43
:10088000401BA042F4D90320F8BD3068C0071CBF4C
:1008900001203060306810F4F97F04BF0020F8BDFB
:1008A000FFF79CFF0120F8BD140100200C3C024022
:1008B000334800211E2280F8281580F8291580F879
:1008C0002A1580F82B250022C0F82C15A0F8301529
:1008D000A0F832151E2A08BF704700232C2B02D027
:1008E000C1540133FAE72C300132F3E710B5244844
:1008F00090F82A1500293ED090F82825D0F82C151C
:1009000011F007012BD1B0F830352C2B1AD390F809
:100910002A257AB190F8282590F82B350132B2FBC0
:10092000F3F404FB132280F8282590F82A25013AD5
:1009300080F82A250022A0F8302590F82A25E2B177
:1009400090F828252C2312FB0302B0F83035D25C36
:10095000A0F83225B0F830250132A0F83025B0F8E3
:100960003225D0F82C350133C0F82C3522FA01F0AD
:1009700000F0010010BD002010BD012010BD00BF1F
:100980009C0300202A480021002280F8441080F8AF
:10099000451080F846100A2A08BF704700EB820312
:1009A0000132D961F7E700BF214991F84620C2B171
:1009B00091F8452001EB8202D26902600A2291F887
:1009C00045000130B0FBF2F202EB8202A0EB4200E4
:1009D00081F8450091F84600013881F84600012071
:1009E000704762B60020704781B00090104890F8C0
:1009F00046100A2902D362B6002017E0009990F849
:100A0000442000EB8202D1610A2290F844100131A7
:100A1000B1FBF2F202EB8202A1EB420180F844103A
:100A200090F84610013180F84610012001B070475F
:100A3000140200200146154881423CBF0020704747
:100A400000F5804291423CBF0120704700F5004212
:100A500091423CBF0220704700F5404291423CBFAA
:100A60000320704700F5E03291423CBF04207047FC
:100A700000F5703291423CBF0520704700F5B82266
:100A80000720914238BF0620704700BF0040000891
:100A9000F8B504460020544A08210090D4E91660B5
:100AA00015683768814039420CD0226813685B07AB
:100AB00008D5136823F004031360B160616D41F041
:100AC0000101616501218140394208D022685269E3
:100AD000120604D5B160616D41F002016165042127
:100AE0008140394208D022681268920704D5B1606B
:100AF000616D41F00401616510218140394217D0D8
:100B000020680268120713D5B160026801685203B9
:100B100006D4C90506D4016821F00801016001E08E
:100B2000080301D4216C00E0A16C09B1204688477C
:100B3000E16D202000FA01F23A4233D020680368C8
:100B4000DB062FD5B26094F835300268052B15D13D
:100B500022F016020260426922F080024261226C99
:100B60000AB9A26C1AB1026822F0080202603F20A2
:100B70008840B06002F003F8216D2FE00168520355
:100B800008D4C9050AD4016821F01001016001F000
:100B9000F6FF03E0080301D4616C00E0E16B09B1EA
:100BA00020468847606DF0B1606DC00715D0052103
:100BB0004FF4165084F83510B5FBF0F021680A6840
:100BC00022F001020A60009A01328242009202D8A9
:100BD0000A68D207F7D101F0D2FFE16C19B12046C3
:100BE000BDE8F8400847F8BD500000202DE9F0416D
:100BF000044600F087FAACB10546022084F83500BF
:100C000002F034F8206801F0E9FF21680868C007A5
:100C10000BD000F077FA401B0528F6D903252027D2
:100C200003205BE00120BDE8F081086804F1040CBA
:100C30002D4A9CE8E81100EA020ED4E9072043EAB5
:100C40000E032B4333433B4343EA08031A43636ACF
:100C5000104340EA0C02042B03D1D4E90B052843CE
:100C600002430A60042B486920F0070040EA0302AF
:100C700028D1D4E90A63324323B3BCF5005F08D01E
:100C8000BCF1000F14D1022E15D0012E0AD0002E77
:100C900010E0032E16D8012540270120DFE806F0DA
:100CA0001E0B1E02A3F1C070B0FA80F0400904E0F0
:100CB000032E03D306D1C3F3006018B101254027EA
:100CC00001200BE020464A61FFF752FCE16D3F2214
:100CD0000027012502FA01F181600020676584F890
:100CE0003550BDE8F08100BF3F8010F090F83430FF
:100CF000012B01D1022122E090F83530012B09D1DE
:100D0000052907D8DFE801F003080B0E111400F1E4
:100D10003C010FE001210FE000F140010AE000F189
:100D2000440107E000F1480104E000F14C0101E05A
:100D300000F150010A600021002280F834200846AA
:100D40007047B0B501F0DBFF27D00120A56D84F816
:100D5000340094F8350001281DD1022084F83500B4
:100D6000002060652046FFF71BFCE26D3F232068F2
:100D7000216C03FA02F2AA60026842F016020260D5
:100D800019B1016841F008010160016841F00101F9
:100D900001600020B0BD01F069FF0220B0BD00007D
:100DA00080B50B480B490C4A016100210161426189
:100DB0000A4A416102608022016042604FF0FF32C6
:100DC00041608260816000F0F7F9002080BD00BFC3
:100DD000103802400FC8E210317917009F106000F0
:100DE000B0B5044600F08EF90546F148611C007864
:100DF00018BF044400F086F9401BA042FAD3B0BDEE
:100E00002DE9F843DFF81481054698F81800012809
:100E100001D1022638E00120894688F8180001F047
:100E2000AAFE064668BB4FF0FF303D4CC9F80000F3
:100E3000286801280AD1287CFFF77CFC01F09BFE82
:100E40000646206820F00400206018E0A8680746E5
:100E5000E968084487420ED2297C3846FFF724FC13
:100E600001F089FE0646206820F0FA00206026B9CD
:100E7000A8680137ECE7002601E0C9F80070FFF729
:100E80002FFC002088F818003046BDE8F88300BF2A
:100E90002348016841F0004101600020704700BF15
:100EA0002DE9F041DFF87480074698F81800012812
:100EB00004BF0220BDE8F08101201E4614460D4605
:100EC00088F818004CF25030FFF7C8FC08BB022F1E
:100ED00007D0012F0AD077B9E1B22846FFF73AFCD4
:100EE0000EE028462146FFF767FC09E0A1B228463C
:100EF000FFF752FC04E0284622463346FFF738FC51
:100F00004CF25030FFF7AAFC05490A6822F00102B2
:100F10000A60002188F81810BDE8F0811401002053
:100F2000103C02400648C168B1F1FF3FC4BF002039
:100F300070470449016004490160C068C00F7047F0
:100F4000043C024023016745AB89EFCD03F076BF37
:100F500003490A68024208BF70470860FFF7F6BFFE
:100F6000143C01402DE9FC4F5D4A07244FF0010B72
:100F70004FF000094FF0000A90425A4A08BF04247B
:100F800002444FEAB223042B38BF4FEAB224009444
:100F90000022102A08BFBDE8FC8F0F680BFA02F68A
:100FA000374200F09780D1F80480032303FA0AF750
:100FB00008F0030CFF43ACF1010EBEF1010F0ED897
:100FC0008468CD683C4005FA0AF52C438460C8F378
:100FD000001445689440B5432C43446005E0BCF1DF
:100FE000030F02D14FF0030C20E0C4688D683C4031
:100FF00005FA0AF52C43BCF1020FC46016D109F0C2
:101000001C0E0F2303FA0EFC6FF0030303EA5205D4
:1010100005442C6A24EA0C0C0C6904FA0EF444EA28
:101020000C042C62D1F8048008F0030C05680CFA5B
:101030000AF43D402C4318F4403F04604AD000239A
:1010400022F0030701932A4B1C6844F480441C607F
:101050001C680F2304F48044019409F00C0403FA83
:1010600004FC214B019D9E461F44224BFD5898468F
:10107000009B25EA0C0503FA04F42C4347F80840CA
:10108000DEF808404F68FB0244EA0605174B58BFDC
:1010900024EA0605CEF80850BD029C461B6843EAC8
:1010A000060458BF23EA0604CCF80040BD03DEF86E
:1010B000043043EA060458BF23EA0604CEF804408D
:1010C000FD03DEF8003043EA060458BF23EA0604B5
:1010D000CEF8004009F104090AF1020A013258E78A
:1010E000001002400000FEBF003C01400C3C0140EB
:1010F0004438024008FCFFFF002A08BF0904816150
:10110000704700000E480068704700BF0148006843
:10111000704700BF107AFF1F01480068704700BF8A
:10112000147AFF1F01480068704700BF187AFF1F3C
:101130001F48034900780A6810440860704700BFE0
:101140004C26002080B50B48016841F40071016015
:10115000016841F480610160016841F480710160BF
:10116000032000F07FF80F2000F006F800F026F8CA
:10117000002080BD003C024070B50D4E04464FF487
:101180007A713078B1FBF0F00A490968B1FBF0F0F0
:1011900001F084F801250F2C08D838B94FF0FF3042
:1011A00021460022002500F037F87460284670BD03
:1011B00000000020500000207047000082B0002096
:1011C0000B4901904A6842F480424A604A6802F43E
:1011D00080420192019A0090086840F080500860B7
:1011E000086800F080500090009802B0704700BF7F
:1011F0004038024000280BD400F01F010122C0B289
:1012000002FA01F1034A42EAD00020F00300016033
:10121000704700BF00E100E0F0B5184B4FF0FF361B
:101220001C68C4F30224E51E84F0070438BF0025BF
:1012300006FA05F7BA43042C28BF042406FA04F47E
:10124000A14300F00F04A940043C1143044A234485
:1012500009010244002848BF03F10C021170F0BDDF
:1012600000E400E005494FF6FF030A681A4060F306
:101270000A22034810430860704700BF0CED00E0ED
:101280000000FA0504F0DEFB7047006841620020B0
:10129000704770B50068436AB1B1846A01390025AE
:1012A00003EB1443CCB2A54207D200EB850601350F
:1012B000D6F8046103EB1643F5E700EB810043EA3F
:1012C0000241C0F8041102E043EA024181620020B9
:1012D00070BDD0F8E00402F033BD01EBC10200EBB9
:1012E0008202D0F8E004126A02F0A1BC01EBC10254
:1012F00000EB8202D0F8E004D2F8602202F0E9BCF0
:10130000D0F8E00402F01EBD01F00F0249B202EB7A
:10131000C202002900EB820303F5157248BF03F1F6
:1013200014020068114603F0AFBB10B5044601F08B
:101330000F0049B201F0D7FCC3BF002281F855224B
:1013400001F515710122DCBF4A751431087094F85B
:101350009404012804BF022010BD01F02DFD03F00C
:101360002BF901F07ABCB0B5044601F00F002279E8
:10137000904201D901251BE049B201F0B4FCC3BF82
:10138000002281F8552201F515710122DCBF4A7552
:1013900014310870002594F894048D70012801D14F
:1013A000022505E001F008FD03F052FA84F8945498
:1013B0002846B0BDB0B5044601F00F0049B26FF346
:1013C000DF2201F090FCC3BF002581F8555201F5E2
:1013D00015710125DCBF4D7514318A600B710870E1
:1013E0004A7802B14883022B04BF0020487194F868
:1013F0009404012804BF0220B0BD01F0DDFC03F01D
:1014000029F801F0C1BCB0B501F00F01002501EBD6
:10141000C10400EB840404F5187784F8541284F8AE
:10142000555204F515712CC78379012B08BFC4F8F8
:1014300070221A46006803F04DFA0020B0BDB0B526
:101440000446007901F00F05854284BF0120B0BD3C
:1014500048B2B0F1FF3F09DD01EBC100002104EB10
:10146000800080F8551200F5157107E005EBC50006
:10147000012104EB8000417500F1140194F89424DB
:1014800001200D708870012A04BF0220B0BD84F8CD
:101490009404206803F003FA2DB9A179206804F2BE
:1014A0009C4203F0A9F901F06FBCB0B501F00F0543
:1014B00005EBC50100EB8104214601F8145F00250E
:1014C00001F10C072CC701234B708379012B08BF56
:1014D00022631A46006803F0FDF90020B0BD000049
:1014E0002DE9F04F89B005688246284603F050FB8D
:1014F00010B109B0BDE8F08F01F065FB0028F8D00D
:10150000D5F80808C0F30D20CAF8D40401F05BFB3D
:101510000146DAF80000890703D5416901F00201AC
:10152000416105F50061049103F05EFB0146DAF8C4
:1015300000000595C9063BD5816921F01001816144
:101540002C6AC4F3434004F00F05062818D0022883
:1015500027D147F6F07014EA000622D005EBC5004B
:1015600034090AEB800705982246D7F8601203F089
:101570003FFBD7F8600200EB1610C7F8600207E0E7
:1015800005980AF29C41082203F032FBC4F30A14C6
:1015900005EBC5000AEB8000D0F868122144C0F8C2
:1015A0006812DAF80000816941F010018161059D3F
:1015B00003F01AFB00030DD401F005FB049E400369
:1015C00000F1E08001F0FFFA002800F1A581DAF8CF
:1015D0000000B9E1DAF8000003F0E5FA06460AF285
:1015E0009C400AF51D744FF430684FF0000B0890D2
:1015F000002EE1D0F00700F0B8805FFA8BF9DAF83E
:101600000000494603F0E8FA0746C0075CD005EB46
:10161000080001218160DAF8000008EB0001036C8A
:101620008A689AF80650012D24D115072FD4950603
:1016300047D4059D12F0280F46D1AC46E34DAB428E
:1016400002D9120400F198802268096965466FF397
:10165000DF41511AB8F5306F44F80C1C2CD1DAF880
:101660006422002A00F08C80DAF860020844CAF88C
:10167000600221E0D54D05F58075AB4211D1059D85
:1016800010040AD4900644BF2020886014E0CF489C
:10169000059D834218D9100416D54FF40040886088
:1016A00012E0059DB8F5306F06D1DAF8641219B969
:1016B0000021089A03F0A0F850464946FFF716FEAD
:1016C00002E020208860059D380722D505EB080040
:1016D0000821BE4B8160DAF800100A6C08EB0100AB
:1016E00081689A4212D9090444BF4FF400418160D5
:1016F000504600F02EFB9AF80600012809D1DAF8CE
:101700000000089A012103F077F802E0504600F04B
:1017100020FBF80642BF05EB080010218160B807E6
:1017200016D56869000604D50499486840F48060BD
:10173000486014F81D0C012806D10020494604F821
:101740001D0C504600F041FA05EB080002218160B3
:10175000B80642BF05EB080020218160B80442BFF3
:1017600005EB08004FF400518160243408F1200893
:1017700076080BF1010B3BE74FF4004065468EE71E
:10178000012196E7DAF8000003F006FA07460AF2AC
:101790009C400022029005F510600690002F3FF457
:1017A00011AFF80700F0B580DAF80000D1B2079267
:1017B000089103F0FFF90446C00727D0079B0122D8
:1017C000716B03F00F0002FA00F021EA0000706371
:1017D000069800EB431082609AF80600012811D1A8
:1017E00003EBC3000AEB8000D0E907121144016249
:1017F00043B9DAF8240028B9DAF80000029A012186
:1018000002F0FAFF08995046FFF767FD079A200794
:1018100004D50698082100EB42108160E00604D54B
:101820000698102100EB42108160600604D50698EE
:10183000402100EB42108160A00718D528461146D0
:1018400003F079F9079A02EBC2000AEB800010F866
:10185000171F012906D1002101700899504600F098
:10186000B0F9079A0698022100EB42108160200629
:101870004FD502EBC2000AEB800BD94659F8241F62
:10188000C84658F8040F814243D35BF81C5FDAF86E
:101890000040091A03975746A94238BF0D4604EB8A
:1018A00042110BF1040601F5106A15E0DBF8005057
:1018B000BB79101A31680093A84238BF0546089AD0
:1018C000ABB2204603F068FA306828443060D8F89C
:1018D00000002844C8F80000D9F80020DAF81830D1
:1018E000E91C9BB2B3EB910F28BF8242DED8824243
:1018F000BA46059DDDE90376079A0AD802F00F0083
:10190000012101FA00F0D4F8341821EA0000C4F8EB
:1019100034087F08013241E7706820F001007060F0
:101920009AF8CC04012807D1002000218AF8CC04C1
:101930005046FFF7A9FC02E0504600F0F5F901F02F
:10194000FEF901F00041416103F04EF9000502D4B7
:10195000DAF800000AE0B068C00702D0504600F094
:1019600017FA01F0ECF901F40061416103F03CF970
:10197000C00402D4DAF8000056E0D5F804081021BB
:1019800020F00100C5F80408DAF8000003F0D3F8ED
:101990009AF8041005F510604FF67F32C1B18260ED
:1019A0000139036823F400130360C0F80822D0F85B
:1019B000003223F40013C0F80032D0F8003243F0B4
:1019C0000063C0F800322030E8E700BF0A30544F0F
:1019D000F06940F00110F0619AF80F0040B1D6F8BC
:1019E000840040F00B00C6F8840006F1440006E0D5
:1019F000706942F22B010843706106F11000016822
:101A00000AF29C4241F00B010160306820F4FE6054
:101A10003060DAF800009AF8061002F0EDFE01F0EE
:101A20008EF901F48051416103F0DEF80146DAF8E5
:101A30000000890419D502F04BFDDAF8000003F02C
:101A40009BF8DAF800408AF8070000F051FA9AF89B
:101A500007200146204603F027F9504600F052F9CE
:101A600001F06DF901F40051416103F0BDF8000788
:101A700002D4DAF8000007E0504600F059F901F00E
:101A80005EF901F00801416103F0AEF8000606D4EA
:101A900001F099F8C00219D4DAF8000038E005998D
:101AA000012440F27B25886920F0800088619AF843
:101AB00004008442ECD21AF80500012803D1E1B2F7
:101AC0005046FFF721FC24350134F0E705980AF170
:101AD0003B040126012700F512659AF804008742AD
:101AE00011D228686178012909D1B0F1FF3F06DCE5
:101AF00047F080002670C1B25046FFF705FC243441
:101B000020350137E9E701F01AF901F4801141614C
:101B1000059C03F069F8800202D4DAF800002EE098
:101B20009AF8042004F532610AF51F70012301249C
:101B300094421FD20D680678012E12D1B5F1FF3FF5
:101B40000FDCDAF8D46486EA1545ED0709D1059E65
:101B5000B56945F08005B56100F8013C75692D0651
:101B600003D5243020310134E2E70499486840F479
:101B70000070486001F0E3F801F40011416103F0E6
:101B800033F8400002D4DAF8000007E05046FFF7CF
:101B9000A0FB01F0D4F801F08041416103F024F88A
:101BA00040077FF5A6ACDAF800004468610704D569
:101BB0005046FFF7A5FBDAF8000041682143416079
:101BC00097E4D0F8E00402F00CB9D0F8E00402F099
:101BD00017B97CB500284CD00446056890F89504E8
:101BE00028B9002084F89404204600F04FF8032020
:101BF00084F89504B5F1A04F04BF0020A0712068BF
:101C000002F0F4FD94E80F00257C009502F06EFCD4
:101C100060BB20680021002503F005F830BB207967
:101C200001210022002398420AD0A6182432F3850D
:101C300033757175C6E90755756235760133F2E77C
:101C400004F5157100220023984208D00B70C1E9F9
:101C500002220A610A714A7024310133F4E794E8E0
:101C60000F00257C009502F0FBFC28B1022084F8CF
:101C70009504012528467CBD00250120657484F863
:101C80009504206802F0E0FCF4E70000B0B586B0EF
:101C90000068B0F1A04F2FD10025184C00952068A6
:101CA00040F001002060206800F0010000900A2050
:101CB00005900320CDE90350022002904FF4C0505C
:101CC0000190009801A90E48FFF74CF960680021C7
:101CD000002240F0800060600095606940F4804020
:101CE0006061606900F48040009000984320FFF735
:101CF00093FA4320FFF77EFA06B0B0BD30380240B9
:101D00000000024010B50446C079022818BFFEF753
:101D100094FCD4F8E004012102F0DEF8D4F8E004E9
:101D2000BDE8104002F090B8D0F8E00402F0BDB871
:101D3000D0F8E00402F0C3B810B500F00DFF04BF06
:101D4000022010BD617401F037F802F09DFF00F031
:101D500084BFD0F8E02400F29C41104602F0C8B8DD
:101D600010B500F0F9FE04BF022010BD01F02EF8FE
:101D700006D5617B012903D1816B41F480318163F8
:101D800002F0B6FE206802F053FC00F066BF0000CF
:101D900010B50446D0F8E00402F0ECF82068D0F862
:101DA000001E41F00101C0F8001EE07A20B1034896
:101DB000016841F00601016010BD00BF10ED00E0B8
:101DC00081B0044801210160034800680090009838
:101DD00001B0704720000E42007000402DE9F04134
:101DE000002857D03F4B04468846D3F8000400F043
:101DF0000700884204D283F8008400F0B6FE49D17F
:101E00002068810711D5410703D5996841F4E05155
:101E10009960010703D5996841F460419960A16810
:101E20009A6822F0F00211439960C0072BD100F0AC
:101E30009CFE04D983F8008400F097FE2AD1206824
:101E4000410705D5E1689A6822F4E0521143996090
:101E5000000706D52069996821F4604141EAC00075
:101E600098601C4600F058F8A1681F4AC1F303119E
:101E7000515CC840254908601C480068FFF77CF9A0
:101E80000020BDE8F0816068811E022905D2196832
:101E9000890107D40120BDE8F08101281DD119680E
:101EA0008903F7D599681D4621F00301084398601E
:101EB000FFF728F9064641F288376068A9682B4683
:101EC00001F00C01B1EB800FB1D0FFF71BF9801BC3
:101ED000B842F2D90320BDE8F08119688907D9D545
:101EE000E0E700BF003802409A5D000804000020CF
:101EF00006480068704700BF04480549054A006865
:101F00000968C1F38221515CC8407047500000202D
:101F100008380240AA5D000810B5134C606800F054
:101F20000C00082804D0042814BF1048104810BD25
:101F3000226820680023400202F03F020C485CBF88
:101F400042F20040C0F2F4002168C1F38811A0FB06
:101F50000101FEF7A1F921680222C1F3014102EB60
:101F60004101B0FBF1F010BD043802400024F40040
:101F700040787D012DE9FC41002860D004460078BE
:101F8000C34EC0070BD0B06800F00C00042840F02E
:101F90008F803068800302D5606800284FD0207899
:101FA000800718D5B06810F00C0F07D000F059FE6C
:101FB00040F096807068400200F19280306880079F
:101FC00002D5E06801283AD12069316821F0F80192
:101FD00041EAC00030602078000733D42078400701
:101FE00043D4A76947B300F03CFE40F0AA80012F1C
:101FF00025D0E169706800F480028A421FD1216A0D
:1020000000F03F028A421AD147F6C071626A01406D
:10201000B1EB821F13D1A16A4FF6FF72C90391433E
:1020200000F44032A1F580318A4208D1E16A00F023
:102030007060B0EB016F02D10020BDE8FC8101208F
:10204000BDE8FC816169934800296AD00121C0F88C
:10205000801EFFF757F80546706F8007BED4FFF764
:1020600051F8401B0228F7D9C9E0306C10F08058B5
:102070000AD100200190306C40F080503064306C08
:1020800000F0805001900198834F3868C0053AD421
:10209000386840F480703860FFF734F805463868D7
:1020A000C00530D4FFF72EF8401B0228F7D9A6E070
:1020B00000F0D7FD03D1706840023FF56AAF606859
:1020C000B0F5803F07D0B0F5A02F40F08280306897
:1020D00040F480203060306840F48030306082E02E
:1020E000E06800284CD06B4801210160FFF70AF836
:1020F0000546306880073FF567AFFFF703F8401BE0
:102100000228F6D97BE0A068012805D0052848D12F
:10211000306F40F004003067306F40F001003067EE
:1021200049E00021C0F8801EFEF7ECFF0546706F05
:1021300080077FF553AFFEF7E5FF401B0228F6D975
:102140005DE05449002088460866FEF7DBFF05463F
:10215000022F0AD147463068800153D5FEF7D2FFDF
:10216000411B03200229F6D967E7306880017FF51B
:1021700063AFFEF7C7FF411B03200229F5D95CE7D7
:10218000444800210160FEF7BDFF05463068800726
:102190007FF521AFFEF7B6FF411B03200229F5D9D9
:1021A0004BE7316F002821F001013167316F21F0D9
:1021B0000401316745D0FEF7A5FF054641F2883797
:1021C000306F80074CD4FEF79DFF401BB842F7D913
:1021D00015E03168002821F480313160316821F444
:1021E0008021316045D0FEF78DFF054630688003C1
:1021F0003FF5D5AEFEF786FF401B6428F6D90320D5
:10220000BDE8FC811C341FCC0843D90340EA82108E
:102210004FF6FF72914340EA0460A1F58031084314
:10222000706001203866FEF76DFF0446306880015B
:102230003FF502AFFEF766FF011B03200229F5D927
:10224000FBE6FEF75FFF054641F28837306F8007F7
:1022500006D5FEF757FF411B0320B942F6D9ECE63D
:10226000B8F1000F7FF4BDAE306C20F080503064C8
:10227000B7E6FEF747FF0546306880037FF58FAE6F
:10228000FEF740FF411B03206429F5D9D5E600BFC6
:10229000003802400000474200700040411E00200C
:1022A000B0EB116F1CBF01207047044AF02351604E
:1022B00003490B70072190601160704710E000E047
:1022C00023ED00E070477047F0B5024690F83C00FF
:1022D000012804BF0220F0BD01F10807D1E900C4C4
:1022E0004B690020C969E0CF82F83C00126826F4EF
:1022F0007C5624F4F04425F4705535432C432CF4DB
:10230000E0452C4327F4C0452C43234323F480436A
:1023100019435164F0BD000010B590F83C30022222
:10232000012B26D080F83D2002680B68546824F009
:1023300070041C439368B2F1804F54600ED0454C3A
:10234000A2420BD0444CA24208D0444CA24205D039
:10235000434CA24202D0434CA24204D1496823F02C
:102360008003194391600022012180F83C2080F80D
:102370003D10104610BD00BF58B110B500F0F4FC80
:1023800003D100F0A8FC00F007F800F026FD00F0F3
:102390002ABC0120704700001CB500682E49884205
:1023A00013D02C49884218BF1CBD00201D24019069
:1023B0001148016841F0020101600121006800F04C
:1023C0000200019001981D200EE000201E240090C4
:1023D000F948016841F0040101600221006800F041
:1023E0000400009000981E200022FEF715FF2046F2
:1023F000BDE81C40FEF7FEBE4038024090F83D109C
:1024000001291CBF01207047022180F83D1000689F
:10241000C168B0F1804F41F00101C1600ED00D499B
:1024200088420BD00C49884208D00C49884205D01C
:102430000B49884202D00B49884204D1724600F011
:10244000FBFB964603D0724600F0CEFC9646002079
:10245000704700BF0004004000080040000C00402E
:102460000040014000000140016841F21113CA68B8
:1024700022F00102CA600A6A1A420AD14DF808ED38
:1024800000F0DFFB5DF808EB03D10A6822F00102DF
:102490000A6000F080BC10B500F060FC52D084F8F7
:1024A0003D0001204FF6777384F83C002068826875
:1024B0009A4382600A68C2B1102A16D0202A14D02A
:1024C000302A12D0402A17D0502A1ED0602A25D098
:1024D000B2F5005F2ED0B2F5805F30D0702A32D1D5
:1024E00000F0E7FB41F0770128E0816821F07001FE
:1024F000114341F0070121E000F052FC206881689F
:1025000041F0470121F0300118E000F049FC20685B
:10251000816841F0570121F020010FE04B68CA6843
:10252000194601F09AF82068816841F0670121F0AE
:10253000100103E000F0BDFB41F480418160002008
:1025400000F033FC10BD0120FAE7704770B5044677
:102550000068C5680669B10710D5A9070ED56FF0E8
:1025600002010161012121778069800702D000F01A
:102570000FFC01E000F0D4FB00202077700712D59B
:10258000680710D520686FF00401016102212177EE
:10259000806910F4407F02D000F0FAFB01E000F007
:1025A000BFFB00202077300711D528070FD5206802
:1025B0006FF00801016104212177C069800702D012
:1025C00000F0E6FB01E000F0ABFB00202077F00616
:1025D00012D5E80610D520686FF0100101610821BE
:1025E0002177C06910F4407F02D000F0D1FB01E0F8
:1025F00000F096FB00202077F00708D0E80706D00F
:1026000020686FF001010161204600F029F93006D1
:1026100008D5280606D520686FF0800101612046A4
:10262000FFF750FE700608D5680606D520686FF0E3
:1026300040010161204600F037F9B00601D5A80637
:1026400000D470BD20686FF0200101612046BDE814
:102650007040FFF738BE0000FEB50068B0F1804F53
:1026600017D100200C4900900A6842F001020A606C
:10267000096801F001010091CDE903000220012168
:102680000290032005910190009801A90348FEF7EC
:1026900069FC06B080BD00BF303802400000024037
:1026A0007047B0B1B0B5044690F83D000D4618B97A
:1026B00000F011FB00F00FF800F08FFB20680168BC
:1026C00021F00801016001682943016000F0E2FA8D
:1026D000B0BD012070477047B0B500F072FB04BF79
:1026E0000220B0BD00F045FB37D8DFE801F0020A58
:1026F00012222068294600F001FF206850F8181FB8
:102700000EE02068294600F01FFF206850F8181FCF
:1027100016E02068294600F043FF206850F81C1F8F
:1027200041F008010160016821F00401016029699C
:102730000FE02068294600F05DFF206850F81C1F5C
:1027400041F400610160016821F480610160296940
:1027500009020268114301600020002184F83C1046
:10276000B0BD58B110B500F0FFFA03D100F0B3FAD4
:1027700000F006F800F031FB00F035BA0120704798
:10278000E0B50068B0F1804F18BF8CBD002000227A
:1027900001906F48016841F0010101600421006867
:1027A00000F00100019001981C20FEF735FD1C206F
:1027B000BDE88C40FEF71EBD403802407047000067
:1027C00010B50446B9B1082906D0042914BF04F194
:1027D000410004F13F0001E004F1400000780128CD
:1027E00011D10220082910D0042914BF84F8410017
:1027F00084F83F000BE094F83E00012803D102204A
:1028000084F83E0003E0012010BD84F840002068F9
:1028100000F01CFA20680E49884201D100F056FAF7
:10282000B0F1804F0DD01E4A90420AD0094A904222
:1028300007D0094A904204D0084A904201D0884209
:1028400002D100F0F9F901D000F0CEFA002010BD5D
:102850000000014000080040000C00400040014022
:10286000B0B50F4D0446006805F57C41884202D1A1
:1028700002F0C6FE2068A84207D102F0CDFB20B9C5
:102880000848FFF7F1FD00206862216805F58060C7
:10289000814218BFB0BDBDE8B04003F093B800BF9F
:1028A00000040040BC2500207047FEE770B50131F0
:1028B0000023372472B1060F01F8023B04EB1075B8
:1028C000B0F1204F38BF06F1300501F8035C013A42
:1028D0000001EFE770BD000010B572B60446FEF7C8
:1028E0005FFA114800214FF0FF32016041608160C2
:1028F000082907D000EB81030131C3F87021C3F828
:102900007022F5E70948BFF34F8FBFF36F8F046064
:10291000BFF34F8FBFF36F8F206880F30888606824
:1029200062B6BDE81040004710E000E008ED00E0AE
:1029300081B0002000900648016841F0805101609C
:10294000006800F080500090009801B0FFF738BA9E
:102950004038024080B5FFF7EBFF18480068C0B26E
:1029600080BD00BFB0B5144D144C2868000103D5DC
:10297000FFF7DEFF00202060286840F080702860AC
:10298000FFF7E8FF422806D1FFF7D2FF00202060C2
:102990000B48FFF7A1FF4C48012101764948FF2170
:1029A000C171FDF785FFFDF7EDFF6420FEF718FA12
:1029B000BDE8B040FDF722BE743802405028004008
:1029C00000800008F8B50120FEF70AFAFDF7FAFDCD
:1029D0003C4D287870B13C4C00200326287030060E
:1029E00008D0204600F05EFC20B10A20013EFEF730
:1029F000F7F9F4E7A87E012818BFF8BD0027324C8C
:102A0000324EAF76E069E866607E7070EF75FDF774
:102A10004FFFFDF7B7FF2F676F7004F108026527BE
:102A200007CAE863E86B1044013828640620207662
:102A30002966013F27D06420FEF7D2F9286EA96EDF
:102A40008842F6D122490020E875287668766870B9
:102A5000C1F82C05A1F83005687128713070E8794B
:102A6000032812D1608C1B4B6885D4E90420A1682F
:102A7000A885B5F92C00081A1144B5F92C20114489
:102A8000C3E9010114E0042015E0208CF080608C83
:102A9000B080104E94F824006884A168D4E904231F
:102AA000C81A1944114494F82520C6E90101AA84E2
:102AB00002F0A6FC002020762046BDE8F84000F099
:102AC000F1BB00BF98010020500900200800002041
:102AD0009C030020D009002080B50F480F49002238
:102AE00001F080F808B1FDF7A8FD0B480C4901F092
:102AF00062FA08B1FDF7A1FD07480A4900F0B9FEE6
:102B000008B1FDF79AFD044801F07AFA18B1BDE862
:102B10008040FDF792BD80BD0C1D002034000020D8
:102B200054000020D0000020FEE7FEE70148FEF739
:102B3000D7BC00BF482000200491CDE90211CDE9A7
:102B400008118161C0E90043C0E902120161FFF789
:102B500013BC214601F01FB8044690F894040128E4
:102B60007047C0F8041800207047D3F8000400F044
:102B70000700404570474CF25030FDF76FBE002013
:102B800084F83400012084F835007047D0F8D4224E
:102B900000EB8202D2F8B822002A7047204600F0EB
:102BA00026BF04468121304600F0D8BF21463F228F
:102BB000681CFDF7E9BB0A68D062C860106840F085
:102BC000010010607047DAF8000002F00DB80099BB
:102BD000013100910099B1F1706F7047016821F0E7
:102BE000010101607047012084F8460084F83E002E
:102BF00084F83F0084F8400084F8410084F84200E3
:102C000084F8430084F8440084F8450084F83D00CB
:102C1000002010BD0020C4F8D402204610472046F2
:102C200000F018BF054630460121012700F096BF8D
:102C30000020002500F088BB816801F0070106290B
:102C400070470A6A40F244431A427047012200F07A
:102C500045BC22462846FEF74FBA002084F894046B
:102C600010BDB06800F00C0008287047002084F800
:102C7000340070470020C4F8D4022046084720469C
:102C800000F098BE204650F8681F50F8042C91427E
:102C900001467047012084F8460084F83E0084F81D
:102CA0003F0084F8420084F8430084F83D0000208F
:102CB0007047D1E90123C9681A4342EA01218268B9
:102CC00022F47F4211438160816870474A6C42F46C
:102CD00000424A647047002084F83C002046704758
:102CE0002846FEF73FB9B1F1FF3F00EBC00104EB0E
:102CF00081017047C9F83800D9F838007047044698
:102D000090F834000128704794F89C02013802289A
:102D10007047204650F8501F826891420146704724
:102D20004DF808ED2046FFF7BBFC20465DF808EBA8
:102D3000FFF744BD08900898089720687047DAF8B4
:102D40000000416970470A5842F000620A500A5870
:102D500042F080420A5042F21072704790F83C20D4
:102D600004460220012A7047044690F83D000028DE
:102D700070470D4601204FEAB201032984F83C0058
:102D800070470022FEF748BA002084F89404B0BDD2
:102D90002046FFF7DABB012180F83D100020704784
:102DA0004B68CA68194600F047BC002184F83C1003
:102DB000012184F83D107047012084F894042068B4
:102DC0007047044690F83C000128704701212068B4
:102DD00084F89414C168490670470220211D84F8C4
:102DE0003D00206800F02CBB016841F0010101604A
:102DF00070470000F8B5002800F02A8204460078E9
:102E00001138162800F22482DFE810F017002202A1
:102E1000350022023E0088009000A400AB00220290
:102E20002202220222022202BA00B600C700E600F5
:102E3000F8000301200049015301DFF83454FFF783
:102E4000B5FEA888BDE8F84000F07EBADFF810545F
:102E5000FFF7ACFE688ADFF87C442086A88A60868B
:102E6000287A697E0128A17440F04E8100202872E2
:102E7000E86820664AE1DFF8F453FFF797FEA88878
:102E8000BDE8F84000F064BADFF8FC4315200025E7
:102E90006070CD48E570016842688368C66807695C
:102EA00004F128004EC0C9488642C94818BF2F46C1
:102EB0008342C848C84B18BF2F4641405A408446F9
:102EC00004F11800114318BF2F466761C3490A680F
:102ED0004B688E68CF680969CCC0C1488742C14839
:102EE00018BF2946864282EA0C00BF4A18BF29460D
:102EF0005A40104318BF29462161FEF707F9606068
:102F0000FEF70AF9A060FEF70DF9E060F1482570C0
:102F1000016D806EC4E90E1020464CE1D94DFFF7DB
:102F200045FED5E9010102F09FFD43E1D44DFFF7D5
:102F30003DFEEA780AB1392A03D3382A28BF38225D
:102F4000EA706868810703D105F1080102F0B3FD5A
:102F5000CB4830E1C94DFFF729FE4FF4C05028801F
:102F600028E1C44821463F220130FDF70DFAFFF762
:102F7000DFFCC14842210160BDE8F840FEF782B99C
:102F8000B54DFFF713FED348016D6960018C2981AF
:102F9000C18B6981007A28730CE1BC4DFFF706FEF6
:102FA000A8884FF0FF31192211FA80F180B291FB0D
:102FB000F2F3400003FB1211A0EB4100B4490844B6
:102FC00000210238192900F09B8005EB4102D288CC
:102FD00020F811200131F5E7B04D95F82A0595F854
:102FE0002B15884203D26078012840F0FF80012031
:102FF000607095F82A05A07062B60AE1B64DFFF739
:10300000D5FD287E002800F0DA80BDE8F84000F009
:1030100053B9954DFFF7CAFDE87D95F82F10AD4CDB
:103020000128217403D10020E875E868E06495F870
:10303000290095F8271095F828206272A17202F0F5
:103040002FF895F8261095F825004FF48072002986
:103050004FF0400108BF4022A28608BF4FF48071A4
:103060000128E18605D10020206585F82500E8606B
:10307000E064A87D95F824100128E1846ED1288AA7
:103080007849C880688A888095F82200608495F81D
:103090002300A084D5E9010102F0B2F965E06F4D8B
:1030A000FFF784FDA86800F02BF9A88800F050F91C
:1030B00080E0784DFFF77AFDA9884FF0FF301923A3
:1030C00010FA81F292FBF3F404FB03F0C6087C2EA5
:1030D00018D889B204FB13224900A1EB42016E4AC1
:1030E000114400220239182A0CD88318DB087C2BE3
:1030F00008D805EB4203DB8821F812300132F2E7F1
:10310000624858E0634856E0206EE860E87E012897
:1031100004D10020A066E876E860206651488178F6
:10312000AA7DEB7D287E561EB6FA86F67609013A10
:10313000E67418BF012222755A1EB2FA82F25209B1
:103140006275A976591E18BF0121A17502F016FCFF
:103150002520A5F80100A06E68602BE002F03AFA85
:10316000288A4049C880688A888095F82E0002F035
:1031700021F9A88D6085688DA08595F8281095F8AF
:1031800027004A1EB2FA82F252090139227318BF8F
:1031900001216173411EB1FA81F149090138A1731E
:1031A00018BF0120E0732420A5F80100206DA8615C
:1031B000208CA8832846BDE8F84000F073B8454845
:1031C0000121817644E000BFE8FF0008B7E4361A29
:1031D000F9D2748C00001041E183AB52EC7F0008FF
:1031E000A3F542CD8EAC970B2539D1F695F829057C
:1031F00095F82B052C212C2295F8290510FB01515F
:1032000004F11300FDF748FA0020607095F82A05D4
:10321000A070E07B012803D1D4F80700FDF7E4FBA0
:103220001F4810492B4A90F84600C0F10A00E0738D
:10323000B4F80B008880B4F80D105085108CA4F8F9
:103240000B002548C180116FC4F80310007E00B147
:10325000F8BD601EAFE700BF500A002090090020B3
:10326000100A002008000020D009002010090020CA
:10327000D0080020DC020020502800401C03002061
:103280005C0300205C0200209C020020CC1C00207B
:10329000601200208C1C0020900A00209C0300205B
:1032A0001402002001460248402200F0EDBA00BF9F
:1032B0000C1D00207047000070B50446FFF7B8FCF5
:1032C000044EF575B57602F085F90120307002489C
:1032D000047670BD9801002050090020044805497B
:1032E000054A0068098812881143084080B2704777
:1032F00010040240CC010020CE01002070470000E5
:1033000010B50446FEF7F8FD0E494FF6FF72096846
:10331000C1F3003188406421B0FBF1F0B0FBF4F15F
:10332000914238BF0A46511EA0423E4838BF002194
:103330000123026891626321D1625361C160002060
:10334000506210BD083802403649096888637047EA
:103350003449096848637047FDF7EABEB0B592B0DA
:1033600000241421CDE90A44CDE9084401A8FDF761
:1033700050F81F4800940225016841F08051016017
:10338000006800F08050009000980094194801688F
:1033900041F440410160006800F440400090042086
:1033A00010951190C0200F9019200E904FF48000BE
:1033B000CDE90C504FF48030079001200690009822
:1033C00006A8FEF7D7FD08B172B6FEE74FF48050AD
:1033D0000594CDE90254032104900F20019001A827
:1033E000FEF7FCFC08B172B6FEE712B0B0BD00BF3C
:1033F00040380240007000400248016841F470010A
:103400000160704788ED00E00348FFF79FB800BFF8
:103410000148FFF79BB800BF2C2500200148FFF7AB
:1034200095B800BF742500200148FFF78FB800BF92
:10343000BC2500200148FFF789B800BF0426002002
:1034400070B57C4B026898421FD000F140444FEAAF
:10345000B424032C03D84C6822F070022243B0F14C
:10346000804F16D0174CA04213D0174CA04210D05A
:10347000164CA0420DD0164CA0420AD0154CA042CA
:1034800007D0154CA04204D007E04C6822F070022F
:103490002243CC6822F4407222430D688E684C6946
:1034A0009842C662856201D109691963016841F0D9
:1034B000040101600121416122F08001214301608A
:1034C00070BD00BF0004004000080040000C004038
:1034D00000400140004801400044014010B501F0A7
:1034E0001F010123046A8B4002FA01F124EA03035D
:1034F0000362026A1143016210BD0000F0B5036A65
:10350000026A4C4E22F0010223F0020302628C6830
:103510000A68456823438469B0420CD1D1E9057635
:1035200025F44075D1F80CC023F00C033D4335431E
:103530002CF00406334324F0730445602243826177
:10354000496841630362F0BDF0B5036A026A394E0F
:1035500022F0100223F02003B04202628C680A6855
:10356000456843EA041384690FD1D1E9057625F44F
:103570004065D1F80CC023F0C0033E4345EA860500
:103580006FF0400606EA0C16334324F4E644456027
:1035900044EA02228261496881630362F0BD00BF90
:1035A000F0B5036A026A234E22F4807223F400739A
:1035B000B04202628C680A68456843EA0423C46921
:1035C0000ED1CE6825F4405CD1E9057523F4406343
:1035D0003D43360240F2FF47BE434CEA05153343F4
:1035E00024F0730445602243C2614968C1630362E9
:1035F000F0BD00BFF0B5026A036A0E4F23F480539A
:10360000B842036245680C688B68C66904D14F698B
:1036100025F4804545EA8715456026F4E64545EAE8
:103620000424C4614968016422F4005141EA033171
:103630000162F0BD0000014010B5036A046A24F085
:1036400001040462846924F0F00444EA02128261F5
:1036500023F00A021143016210BD10B5036A046A27
:1036600024F010040462846924F4704444EA0232B1
:10367000826123F0A00242EA0111016210BDD0F87C
:10368000D41200EB81000021D0F8C00280F8501065
:103690000020704780B5D0F8D41200EB8100D0F83C
:1036A000C01239B1D0F8C402C2680878497890478E
:1036B000002080BD032080BD70B58121044600F04C
:1036C000ADFA00252046012184F83750256300F02B
:1036D000A5FAD4F8D40284F87751C4F8705104EBF9
:1036E0008000D0F8C01289B1D0F8C4028068804749
:1036F000D4F8D40204F5307656F8200000F0A4FE89
:10370000D4F8D40246F82050C4F8BC52002070BD52
:10371000B0B5D0F8D41200EB8100D0F8C0525DB142
:10372000E96C0024012908D1D0F8C4026978C26884
:1037300028789047EC6400E003242046B0BD0000E8
:103740000A21018000487047C4000020F8B51F4ED0
:10375000FFF727FAFFF766FA15B14021AF71A9808C
:1037600018B10121817140218180292020801748D2
:10377000F8BD00BF70B5154EFFF713FA0546304689
:10378000012100F0EBF91DB10521A9714021A980AB
:1037900018B10521817140218180292020800B48AA
:1037A00070BD00BFF8B5094EFFF7FBF9FFF73AFA15
:1037B00015B14021AF71A98018B10121817140215B
:1037C0008180292020800148F8BD00BF8C000020A6
:1037D00070B50446542000F039FE0546D4F8D402F2
:1037E00004EB800000F5307075B30560207C012685
:1037F000C4F8BC5200284FF0010008BF0520C4F8EF
:1038000070012063812103224023204600F007FB42
:10381000204601210322402384F8376000F0FFFA9C
:10382000D4F8D40284F87761002685F8506004EB60
:103830008000D0F8C40240688047204601212A4613
:10384000402300F0F8FA02E0002102260160304631
:1038500070BD80B5D0F8D41200EB8101D1F8C02240
:103860002AB10121402300F0E6FA002080BD0320A8
:1038700080BD39B1D0F8D42200EB8200C0F8C41268
:103880000020704703207047B0B513460A46D0F8B1
:10389000D41200EB8101D1F8C04274B190F89C12AF
:1038A000032908D194F8505001213DB984F85010F3
:1038B000812100F06CFB002100E003210846B0BD2F
:1038C0007CB5D0F8D42200EB82040022D4F8C032B8
:1038D000ADF80620002B00F068800A7812F0600234
:1038E00011D0202A40F05F804A78023A092A00F27B
:1038F0005A80DFE802F0051C58585858581F282CE9
:1039000003F1440138E04D780B2D4CD80022DFE85C
:1039100005F0064D4A4A4A4A224A4A4A2D3890F84A
:103920009C22032A3FD10DF10601022225E003F17A
:10393000400121E0CA88412A35D20121D9641946C3
:1039400000F060F81BE0C878002258642EE0887808
:10395000002218642AE0CA78222A1AD0212A22D109
:10396000CA88134B092A28BF09221AE090F89C2222
:10397000032A18D103F14801012200F05DF800226A
:1039800014E090F89C22032A0DD1887800229864D4
:103990000CE0CA88222A28BF2222D4F8C4321B682D
:1039A0000BB11946E9E700F022F8032210467CBD6E
:1039B000B800002080B5D0F8B8225268904700289F
:1039C00018BF032080BD002070470020704780B5DD
:1039D00013460A46002100F02EFA002080BD80B573
:1039E00013460A46002100F0D2FA002080BD10B52F
:1039F0008021044600F0ACFA20460021BDE81040CA
:103A000000F0A6BA80B513460A46C0F86411032137
:103A1000C0F894120021C0E9553300F00CFA0020E0
:103A200080BD80B5052100220023C0F8941200213A
:103A300000F001FA002080BD80B513460A464162BD
:103A40000221C0F894120021C0E9053300F09FFA6A
:103A5000002080BD80B5042100220023C0F894120C
:103A6000002100F094FA002080BD000010B52D4C1C
:103A70000A4602A0FFF76DF8204610BD4375737427
:103A80006F6D2048494420436F6E666967000000EF
:103A90001220088000487047E000002010B5214C3B
:103AA0000A4602A0FFF755F8204610BD437573740F
:103AB0006F6D2048494420496E7465726661636584
:103AC000000000000420088000487047F400002037
:103AD00010B5144C0A4602A0FFF73BF8204610BD73
:103AE00053544D6963726F656C656374726F6E6970
:103AF0006373000010B50B4C0A4602A0FFF729F8CB
:103B0000204610BD53544D333220437573746F6D8E
:103B10002048756D616E20696E74657266616365BB
:103B200000000000341A0020B0B51A2008800949AE
:103B300008688A6880180BD0074D4C680822A91CB9
:103B4000FEF7B4FE05F1120120460422FEF7AEFE98
:103B50000148B0BD107AFF1FF800002010B50278B0
:103B6000438893420DD994B29C420AD204782044EF
:103B700022444478052CF6D184788C4208BF10BDCD
:103B8000F1E7002010BD0021027812B101300131AF
:103B9000FAE7C8B2704770B5B0B116460C46054694
:103BA000FFF7F1FF0221032201EB4000308020707B
:103BB000002062702A783AB1CBB202310135E2546A
:103BC00043F00102A054F5E770BD0000044AC100B3
:103BD000032822FA01F188BF0321C8B2704700BF51
:103BE0000003010378B10023C0F8D032C0F8C4321A
:103BF000C0F8B83209B1C0F8B4120121027080F8DF
:103C00009C1200F0AFB80320704780B5D0F8C8020E
:103C1000FDF7A9FBBDE88040FFF7D8BF80B5D0F81D
:103C2000C802FDF782FBBDE88040FFF7CFBFB0B50B
:103C3000044669B194F89C02032848D1D4F8B8022C
:103C40004269002A43D0FEF7E5FF00283FD0B0BD0F
:103C5000D4F89402022834D1218CA06988420ED96C
:103C6000421A606AA261014420466162FFF7B7FE12
:103C7000204600210022002300F0DDF821E00FD1D2
:103C8000616981420CD3D4F89802814208D220465F
:103C9000002100220025FFF7A2FEC4F89852E7E7B2
:103CA00094F89C02032805D1D4F8B802C16809B180
:103CB000FEF7E0FF2046802100F04AF92046FFF79A
:103CC000B0FE94F8A00210B1002084F8A0020020F9
:103CD000B0BD10B5044659B194F89C0203282DD10B
:103CE000D4F8B80282694AB3FEF794FF30B310BD2E
:103CF000D4F89402032821D1B4F86021D4F85801F3
:103D000090420ED9D4F86411801AC4F85801904238
:103D10001144C4F8641188BF02462046FFF757FEDD
:103D20000CE094F89C02032805D1D4F8B80201698C
:103D300009B1FEF79FFF2046FFF78CFE002010BD63
:103D40000020704780B5012180F89C12D0F8B8227D
:103D500032B1017952689047002818BF032080BD16
:103D6000002080BD10B5017831BB1449C0F8C812DD
:103D7000C1F8E004042008714FF0A0400860002062
:103D8000C8810220C1F809004FF40070C8800846BD
:103D9000FDF71FFF08B1FCF750FC084C80212046BE
:103DA000FDF773FA204600214022FDF772FA204603
:103DB00001218022FDF76DFA002010BD482000206F
:103DC00001F07F02D0F8C80249B202EBC20200291A
:103DD00000EB820000F2562248BF00F11602107874
:103DE000704780B5FEF7D2FE08D090F89C32032BC6
:103DF00002D1126A02B19047002080BD032080BD2D
:103E000080B5FEF7C3FE08D090F89C32032B02D198
:103E1000526A02B19047002080BD032080BD10B5DA
:103E20001446D0F8C8021A462346FDF7C3FABDE887
:103E30001040FFF7CBBE80B5D0F8C802FDF7E3FA1B
:103E4000BDE88040FFF7C2BEF8B501260025044654
:103E500080F89C62C0F8A452456080F8A052C0F877
:103E60009452D0F8B80250B142683AB120460021CD
:103E700090470546002818BF032500E0002520468E
:103E80000021002240234027FFF7C9FF2046802160
:103E90000022402384F86361A4F86071FFF7BFFF3C
:103EA000284684F823602784F8BD90F89C120429E2
:103EB00004BF90F89D1280F89C120020704780B5D6
:103EC00090F89C12032905D1D0F8B81211B1C96934
:103ED00001B18847002080BD01740020704780B583
:103EE000D0F8C802FDF728FFBDE88040FFF76EBE9E
:103EF000B0B500F2AA250446284600F051F801208A
:103F0000C4F89402B4F8B002C4F8980294F8AA0273
:103F100000F01F01022908D001290CD089B92046E0
:103F20002946BDE8B04000F06DB820462946BDE8FE
:103F3000B04000F0BFB920462946BDE8B04000F0CF
:103F400053BA00F080012046BDE8B040AFF30080D6
:103F500080B5D0F8C802FDF772FABDE88040FFF7DF
:103F600035BE80B5D0F8C802FDF7FAFEBDE8804046
:103F7000FFF72CBE90F89C1204291CBF90F89C12ED
:103F800080F89D12042180F89C120020704780B5B3
:103F9000D0F8C802FDF789FABDE88040FFF716BEE9
:103FA0000A7802704A7842704A8842808A88828001
:103FB000C988C18070471CB504460020ADF80600D2
:103FC000A9B1D4F8D402C4F8B81204F52E7151F88E
:103FD0002000C16A21B10DF106008847C4F8D00263
:103FE000D4F8D8020130C4F8D80200201CBD032048
:103FF0001CBDD0F8B8220AB11268104700207047E3
:10400000FFF7AFBFBCB5044608780D4610F060005E
:1040100011D0402802D0202840F03D81D4F8D402AD
:10402000294604EB8000D0F8B8028268204602B02E
:10403000BDE8B04010476878092800F22C81DFE81D
:1040400010F00A001E002A012C002A01360055003B
:104050002A016B007D00FEF757FE00F21C81E88804
:10406000022840F01881D4F8A40203222146002837
:1040700008BF012241F80C2F2046022208E1FEF77A
:1040800043FE00F2088168880025012840F006817F
:10409000C4F8A452FEF7C3FD00E1688802286BD083
:1040A000012840F0F8800120C4F8A402F8E0A888B4
:1040B000002840F0F080E888002840F0EC80688814
:1040C0007F2800F2E88094F89C12032900F0E38036
:1040D000C5B284F89E0220462946FFF700FFFEF78E
:1040E0009EFD002D00F0DF800220DDE000204FF07B
:1040F000FF31ADF80600688801EB1021062900F2B7
:10410000CA80DFE801F004444BC8C8586200D4F804
:10411000B412207C0A68ACE0E888012840F0BB803B
:1041200094F89C02411E02292AD2002521462046ED
:10413000012241F8085FFFF77FFCAFE068885C4D23
:1041400010F0FE0F287003D0FEF728FD0325A5E030
:10415000C1B294F89C02032843D0022859D1002907
:1041600000F09E8020466160FFF743FF002867D083
:104170000546FEF713FD48E0687984F8A0028FE059
:10418000032840F08880211D2046012280E0217C08
:10419000D4F8B802002942D0C16A41E0C0B2052873
:1041A00000F27980DFE800F0035054585C60D4F8E6
:1041B000B40242685BE0207C00286CD1D4F8B802DD
:1041C000416B0DF10600884756E0207C002862D143
:1041D000D4F8B802016B0DF10600884701460720AC
:1041E00023E021B3606888425AD0C1B2FEF747FD90
:1041F000297820466160FFF7FCFE002850D0054674
:10420000FEF7CCFC2179FEF73AFD022084F89C02EF
:1042100044E0FEF7C3FC2978FEF731FD96E7816A9A
:104220000DF10600884701460220487025E0022073
:1042300061600021002584F89C02FEF720FD29E73B
:10424000FEF7EDFC03202FE0D4F8B40282680EE004
:10425000D4F8B402C2680AE0D4F8B402026906E0F5
:10426000D4F8B402426902E0D4F8B402826992B18F
:10427000207C0DF1060190470146EA8882B1BDF825
:10428000060040B1904238BF0246ADF806202046F5
:10429000FFF7D2FB01E0FEF781FC00252846BCBDFC
:1042A000FEF7BDFCF9E7012084F89C02F5E700BFAA
:1042B000301A002070B5044608780D790E4610F0CB
:1042C000600016D0402801D0202864D1204629461D
:1042D000FFF779FB002860D10020C4F8D402D4F89D
:1042E000B8028268002A58D020463146BDE87040A6
:1042F0001047707868B101281DD003284BD194F87D
:104300009C0203281BD17088002854D0FEF787FC3C
:1043100043E094F89C0203281ED002283BD1680693
:1043200039D1280604F1140158BF04F5AA71002000
:1043300001F80E0F53E094F89C0203282FD00228B6
:1043400029D1680627D020462946FFF701FE2046DE
:104350008021FFF7FDFD20E005F00F00802D00EB30
:10436000800004EB80002CBF90F8230090F86301DC
:1043700088B105F07F00802D00EB800004EB800009
:1043800000F1140638BF00F5AA7645F080008028B9
:104390001BD1002020E0FEF701FC002070BD7088DA
:1043A0000028FAD1680603D020462946FFF72DFCE5
:1043B000FEF735FC8AE76806A8D0F0880028A5D16A
:1043C00020462946FFF7C4FDA0E720462946FFF70F
:1043D000F7FC0028DDD0012006F10E01B073204665
:1043E0000222FFF729FBD8E7B0B5044608780D464E
:1043F00010F0600018BF40280DD1FEF785FC0CD8E6
:10440000A88810F0FE0F08D1C1B22046FFF7DDFAF0
:1044100038B1032010E02028EFD0FEF7BFFB0020CA
:10442000B0BDD4F8B8028268002AF2D00020294634
:10443000C4F8D40220469047E9880029F0D100282A
:10444000EED1FEF7ECFBEAE770470000004870474A
:10445000341C002070B5D0F81C480A784E785301FF
:1044600002F00F05012E16D1012606FA05F52C43A0
:10447000C0F81C481844D0F800391B0423D400F5B8
:104480001060036843EA82520B7989686FF3DF2179
:1044900041EA834113E04FF48032AA402243C0F83E
:1044A0001C281844D0F8002B12040CD40A7989680F
:1044B00000F530606FF3DF2141EA82410268114369
:1044C000024A11430160002070BD00BF008000104F
:1044D000D0F8001940F2FF729143C0F80019D0F8EB
:1044E000041841F48071FEF73CBB000070B504462F
:1044F00002F47F400D46B0F5807F17D1A16B1B4AB7
:10450000049821F48031C0B2A163E1681140E160F8
:104510000128E16821F44011E16003D1E06840F432
:104520008010E060204600F023F810E0E0681E46AE
:1045300040F04000E060204600F01AF8A16B16F44D
:104540007F4F14BF21F4803141F48031A16305F421
:104550007F01B1F5803F07D1A16841F00601A1605C
:10456000A16841F02001A16070BD00BFBFFFBDFF89
:1045700081B0002100917246FEF729FB964618D8BB
:104580000169B1F1FF3FF6DC0A210091009911B1F8
:1045900000990139F9E7016941F0010101617246B1
:1045A000FEF715FB964604D80169C907F7D100202C
:1045B00000E0032001B07047B0B50A784B78510194
:1045C000012B24D143180124D3F8005903F51061BD
:1045D000164B002D07D50D6845F000650D600D6880
:1045E00045F080450D6002F00F0204FA02F2D0F8A7
:1045F0003C489443C0F83C48D0F81C4824EA0202E6
:10460000C0F81C280868184008600020B0BD431896
:104610004FF48034D3F8005B03F53061034B03F1B2
:104620007073B5F1FF3FDEDCD5E700BF007833ECF7
:10463000D0F8001E21F00301C0F8001ED0F80418C5
:1046400021F00201FEF78DBAD0F8001E21F003011F
:10465000C0F8001ED0F8041841F00201FEF781BA3C
:104660002DE9FE4F8B468146180C4121002350292D
:1046700003D049F821300131F9E75FFA80FABAF145
:10468000000F08D0D9F8380020F40010FEF732FBF4
:1046900040F4002011E0D9F8040840F00200C9F805
:1046A0000408D9F8380040F40010FEF723FB20F48A
:1046B0000020FEF71FFB20F48020C9F838000020FE
:1046C00002F47F41B1F5807FC9F8000E02920DD14E
:1046D000D9F8001809F50068B0EB1B6F0EBFC8F8D9
:1046E000001041F00100C8F8000007E0D9F8000808
:1046F00009F5006840F00300C9F800084846102199
:1047000000F019FA0190484600F0F8F95FFA8BF1D1
:10471000002209F510634FF67F3500264901C8F8DD
:104720001020C8F81420C8F81C20B1420ED09F59A0
:104730004FF09044002E08BF4FF0006404EAE77485
:104740009C519C1920362261A560EEE709F5306284
:1047500000234FF67F350026B1420ED094594FF01A
:104760009047002E08BF4FF0006707EAE4749451A9
:10477000941920362361A560EEE7D8F8101021F4D3
:104780008071C8F810100021C9F818106FF080412E
:104790001BF47F0FC9F8141005D1D9F8181041F097
:1047A0001001C9F81810D9F818100E4A1143C9F8A9
:1047B0001810029911F47F0F05D0D9F8181041F0A4
:1047C0000801C9F81810BAF1010F05D1D9F818106D
:1047D000054A1143C9F818100199084318BF012070
:1047E000BDE8FE8F00383C8004000040816821F065
:1047F000010181600020704710B5036C134CA34287
:1048000003D3D0F8003B002B1ED40023C0F8103B8C
:104810000129D0F8103B43F40023C0F8103BD0F836
:10482000103B43F01803C0F8103BD0F8103B43F0A6
:10483000C043C0F8103B07D1C0F8142BD0F8001BC0
:1048400041F08021C0F8001B002010BD0B30544FF8
:104850000A784B7852011044012B0DD1D0F8002971
:1048600022F40012C0F80029097901F0FE010229A2
:1048700013D100F510600CE0D0F8002B22F40012E8
:10488000C0F8002B097901F0FE01022905D100F5DD
:104890003060016841F080510160002070470A7863
:1048A0004B7851010144012B19BF01F53060D1F85B
:1048B000001B01F51060D1F80019002904D41AB1C9
:1048C000016821F080410160016841F4001101603C
:1048D00000207047F8B54B780C78012B2BD100EBFA
:1048E0004415D5F81069D1F810C005F51063BCF176
:1048F000000F44D06FF31206002C1E611E696FF387
:10490000DC461E618E6867D00CEB0607013FB7FBE3
:10491000F6FE5C4F1E6907EACE473E431E610E79E4
:10492000012E64D11E6926F0C0461E614FF0C046BC
:1049300006EA4E7758E000EB4413D3F8105B6FF3B0
:104940001205C3F8105BD3F8105B6FF3DC45C3F8B6
:10495000105B03F530638D680E69ECB1FEB174191C
:10496000013CB4FBF5F6B4B26C43464D0C626FF3F8
:10497000DF4405EAC6451E6935431D6116E06FF345
:10498000DC464FF0000C1E611E6946F400261E61D5
:104990001F696FF312072FE006B10D610D621C69EC
:1049A0006FF3DF452C431C614FF400241D692C4339
:1049B000012A1C6102D1CA6802B15A610979012930
:1049C0002FD1D0F80808C0054FF0805058BF4FF0E5
:1049D00000501968084323E0B44591BF4FF4002705
:1049E0000E614FF40027B4461E693E431E616646C1
:1049F0001F696FF3DF463743012A1F6117D1CA6968
:104A00000AB1C5F81429097901290AD1D0F8081882
:104A1000D5F80009C9054CBF40F0805040F0005067
:104A20001860186840F0044018600020F8BD630169
:104A300000F51065EE5846F00446EE500E79012E52
:104A400012D1D0F808685F59F6054FF0805658BF6C
:104A50004FF000563E435E511FFA8CF3C968009236
:104A6000224600F099F9E0E7BCF1000FDDD004F038
:104A70000F01012202FA01F1D0F834281143C0F8E5
:104A80003418D2E70000F81F81B0002200920A78A3
:104A90004B785101012B13D100F510604258B2F14F
:104AA000FF3F20DC7346FEF74EF99E46009B013324
:104AB0000093009B934218D80B58002BF6D412E0B9
:104AC00000F530604258B2F1FF3F0CDC7346FEF750
:104AD0003AF99E46009B01330093009B934204D811
:104AE0000B58002BF6D4002000E0012001B07047E5
:104AF000816841F0010181600020704781B0002190
:104B000000917246FEF763F8964611D80169B1F13B
:104B1000FF3FF6DC00210091102101617246FEF793
:104B200056F8964604D80169C906F7D4002000E07B
:104B3000032001B0704781B000220092009A013238
:104B40000092009AB2F1706F12D80269B2F1FF3F81
:104B5000F4DC890100222031009201617246FEF7E7
:104B600036F8964604D801698906F7D4002000E09B
:104B7000032001B070470000D0F8080802A100F03F
:104B80000600085C704700BF000F020F0F0F020005
:104B9000406900F001007047D0F81818D0F81C08E0
:104BA000084080B27047D0F81818D0F81C080840A8
:104BB000000C704710B5D0F81028D0F8344801F038
:104BC0000F0300EB4110D0F8080924FA03F3DB01CE
:104BD000DBB21A43104010BD00EB4111D1F8081BA5
:104BE000D0F8140808407047416980690840704750
:104BF000B0B593084FF4805423B10559013B41F8F7
:104C0000045BF9E712F003020BD04FF48053C05855
:104C1000002320FA03F40833013A01F8014B14048D
:104C2000F7D10846B0BDB0B50446C06820F0C0401A
:104C3000E060A1B101291CBF0120B0BDE0680025E2
:104C400040F00050E0600A20FCF7CAF8616905F105
:104C50000A00C90713D1BE2D0546F4D30FE0E06862
:104C6000002540F08040E0600A20FCF7B9F8616957
:104C700005F10A00C90702D0BE2D0546F4D3C83895
:104C8000B0FA80F04009B0BDD0F8002801F07F01F3
:104C900022F4FE62C0F80028D0F8002842EA011190
:104CA000C0F8001800207047022A34D1284A294B46
:104CB0000A449A4202D24FF470512EE0264A274B02
:104CC0000A449A4202D24FF4605126E0244A254B0E
:104CD0000A449A4202D24FF450511EE0224A234B1A
:104CE0000A449A4202D24FF4405116E0204A214B26
:104CF0000A449A4202D24FF430510EE01E4A1F4B32
:104D00000A449A4202D24FF4205106E01C4A1D4B3D
:104D10000A449A420AD24FF41051C26822F47052E7
:104D2000C260C2681143C16000207047164A174B29
:104D30000A449A4202D24FF40051EEE7144A154B4E
:104D40000A444FF4C0519A4238BF4FF4E051E4E7AF
:104D5000405327FF00350C00401E1BFF40420F0050
:104D600000DC0BFF804F1200808CF9FE20D6130070
:104D700060B6E5FE60E3160000D3CEFE40771B0070
:104D8000C05BB3FEC091210000CA91FE20753800BF
:104D9000E05459FEE09C410010B5029C0CB100208B
:104DA00010BD0333120300F580509B08002BF6D092
:104DB00051F8044B013B1450F8E7FEE710B5AB4C3B
:104DC000606DE16C626D891A022291FBF2F1084478
:104DD000A065E06C216D884209DA4FF0FF3000F0E9
:104DE000B3FAFDF796FFD4BF043904300BE0E06C52
:104DF000216D88420BDD012000F0A6FAFDF789FF46
:104E0000B4BF0431043800680968401A00E000208B
:104E1000B4F92C1020EAE07088420749A4BFB4F925
:104E20002C00013831F81000B4F92A100844012888
:104E3000D8BF012010BD00BF900A0020F8B5604C1B
:104E4000E079032877D0FEF749FAE18E014018BFD8
:104E50000121A28E104018BF012041EA4001E07EEE
:104E6000E27E41EA800557A09142405703D0E176A7
:104E7000216D0144216549F26961E940C9075AD1B0
:104E8000C0B240B200F0A6F842F61400E840C007F5
:104E90002AD0207E40B3206DE16B0139884223D1B6
:104EA000607808BB607E01306076607E03281BD38B
:104EB000714E6F4F002501202576E0752571357004
:104EC0007078854208D2FBF711FD217907EB81014B
:104ED000294401350875F3E704F16000FBF764FD30
:104EE000002868D000202067E07D20B3206DE16BB2
:104EF000884203DB206D216C884230DDFDF798FE8F
:104F00006571A079012813D1206D216C88420FDDD5
:104F1000607868B90020FEF717FA04F16000FBF72B
:104F200043FD002847D0206F0130206701206070CA
:104F3000A079FF2800D0F8BD206DE16B8842FADA35
:104F400060780128F7D1FDF773FE04F16000FBF7EC
:104F50002BFD80B3206F013020676570F8BD464D92
:104F6000434E444928782071207906EB8000007D6B
:104F7000C988002808BF014688B2FEF7E5F96878BD
:104F8000022807D301206071208C6978B0FBF1F012
:104F900000F074F82079002780F00100287068780C
:104FA0008742AED2FBF7A2FC297806EB8101394497
:104FB00001370875F3E70120BDE8F840FEF77CB93A
:104FC0009801002000FF0100010000FFFF00000128
:104FD0000001FF000E490A68EC494B6F4A67D21A7C
:104FE0000C4BA2FB03239A094EF660239A4205D389
:104FF0004FF6FF7000220884012006E00A84012297
:105000000128B8BF4FF0FF3200208A7148777047FF
:10501000041000E03D0AD7A3B0B5DC4C206DE16B75
:10502000884203DB206D216C884204DDFDF700FE21
:1050300001206571B0BD20790D4901EB80006179D7
:1050400008440C49007DC988002808BF014688B281
:10505000FEF77AF96079013060710748617942782A
:105060000020914228BF0120B0BD00BF9801002060
:105070001402002050090020080000200749C862DF
:10508000086920F001000861C86840F00100C860AC
:10509000086840F001000860704700BF000400404D
:1050A0002DE9F04399B0DFF89082044698F80000AB
:1050B000A04200F0F9807E487E4A002C016841F051
:1050C00001010160016821F0010101605AD0002650
:1050D000012702F5823591460196C16841F002012F
:1050E000C160C16801F00201019101990196016A54
:1050F00041F001010162006A00F001000190019895
:10510000CDE91666159718964FF40040149014A92F
:10511000FDF7E6FD28464FF400410122FBF7ECFFC6
:10512000032C3DD10220CDE9157617904FF4C040F5
:10513000149014A9FDF7D4FD28464FF40051002225
:10514000FBF7DAFF28464FF480410022FBF7D4FF3B
:10515000594D42F210706021C5E90091C5E9026025
:1051600028460821C5E90466AE61FDF79AFA1920C0
:105170000121FDF706FE1920FCF73CF82846FDF753
:105180003DF98FE000244FF460400190CDE90444E4
:10519000CDE9024402F5823001A9FBF7E3FE81E08C
:1051A000189702274FF4005014901797CDE9157601
:1051B00014A9FDF795FD4FF48040022C149003D103
:1051C00001201597189004E00020179716900120F1
:1051D000159014A9FDF784FD0027374D42F2986021
:1051E0000921012C08BF41F24C3008BF1221C5E94A
:1051F00002702846C5E90091C5E90477AF61FDF763
:10520000BBF84FF480501397CDE91177109010A997
:105210002846FDF740F92846FDF7A3FA602018213B
:10522000099009AE301DFBF7F4F8284631460022FC
:10523000FDF752FA284631460422FDF74DFA01AE39
:105240001C213046FBF7E5F84FF400503146089733
:1052500006902846FDF738F819200221FDF791FD48
:105260001920FBF7C7FF2846FDF7C8F8284600219C
:10527000FDF7A6FAD9F84400022C40F40040C9F822
:105280004400D9F8200040F00400C9F8200009D1FA
:1052900009480421FDF794FAD9F8200040F04000B5
:1052A000C9F8200088F8004019B0BDE8F08300BFBD
:1052B00024380240000001402C25002070B541F246
:1052C00088341D4E1D4DA042B8BF04461948844283
:1052D000D8BF0446307801281BD1002C204600D5C9
:1052E0006042174A41F288311278002A18BF081A22
:1052F00028604FF4804113480022B4F1FF3FC8BF3B
:105300000122007800283D4808BFE20FFBF7F4FEB9
:10531000307802280DD10A480078002841F2883000
:105320001DBF011B29602044211804BF2960001BF8
:10533000686070BD78ECFFFF9F01002034000140E1
:10534000A2010020A1010020B0B5AC4D0446E87ACE
:1053500001280CD10020E872A87B00F03DF8286DF0
:105360002044286560B2BDE8B04000F06DB801206F
:10537000E8720D20012C08BF0C20285C00F008F812
:10538000E87BBDE8B04000F027B800BF98010020DE
:10539000B0B51A4D044600284FF4804118BF0124CF
:1053A000FDF757FC284604212246BDE8B040FBF734
:1053B000A3BE00BFB0B5114D044600284FF4004114
:1053C00018BF0124FDF745FC28464FF480512246C2
:1053D000BDE8B040FBF790BEB0B5084D04460028CC
:1053E0004FF4005118BF0124FDF733FC2846022179
:1053F0002246BDE8B040FBF77FBE00BF000402407C
:10540000F0B57E4AD37803B1F0BD00230124537474
:10541000D4709370146D156D166D176D8E423E46E7
:10542000CCBF0E460F46BE1B471B8442C8BF2F1A77
:10543000B742B8BF01464FF00000D164A8BF0120B9
:1054400010729363F0BD00BF2DE9F0410446FFF7F1
:10545000C1FD012C2FDB694D287E60B3286DE96BFF
:105460000139884227D1687828BB687E0130687688
:10547000687E03281FD3DFF8C085544F0026012023
:105480002E76E8752E7188F8006098F80100864243
:1054900008D2FBF72BFA297907EB81013144013659
:1054A0000875F2E705F16000FBF77EFA002800F0CE
:1054B000888000202867DFF87C8598F81700D8B12D
:1054C000D8F85000D8F83C10884205DBD8F85000D6
:1054D000D8F84010884231DDFDF7AAFB88F8055066
:1054E000012C0BDBD8F85000D8F84010884203DDBF
:1054F00098F80100002852D0BDE8F081B4F1FF3FD8
:10550000FADCD8F85000D8F83C108842F4DA98F861
:1055100001000128F0D100200024FDF715FF08F15B
:105520006000FBF741FA00284BD0D8F8700001303A
:10553000C8F8700088F80140BDE8F081D14ED04F26
:105540002349307888F8040098F8040007EB8000BD
:10555000007DC988002808BF014688B2FDF7F4FE27
:105560007078022809D3012088F80500B8F82800CF
:105570007178B0FBF1F0FFF781FD98F80400002589
:1055800080F00100307070788542A9D2FBF7AEF947
:10559000317807EB8101294401350875F3E70020D4
:1055A000FDF7D2FE08F16000FBF7FEF948B1D8F82C
:1055B00070000130C8F87000012088F80100BDE8D3
:1055C000F0810120BDE8F041FDF776BE1402002015
:1055D00050090020E348817801B1704701218170B2
:1055E00000214174C279032AF7D0C170C18381635D
:1055F0000172A249C968C164704700BF98010020C8
:1056000070B5D84CE079032811D1206D616D8842C6
:1056100003D0206DE16C884201D1206D6065207C53
:1056200001281FD1206DB4F92C10084421E0E07846
:10563000012848D1208C28B1218C4FF6FF7081427F
:1056400040F0A680002060648C488168226D8A4208
:105650005EDA4068216D814261DC207A00285ED0EC
:10566000002059E0207C022804D1206DB4F92C10D0
:10567000401AE064A07860B1206DE16C884208D1E6
:105680000020E070607C20B97C48C068E0640120A4
:105690006074E07850B17949D1E90101226D82420C
:1056A000D8BFE164226D8A42A8BFE064E06C216D3E
:1056B00088420CBF0120FFF781FB2085208DBDE8CB
:1056C000704000F0E3B86D49487D01285ED1207C30
:1056D000012803D0207C022840F09680207C6FF0C7
:1056E0000101012808BF0221206D0844E064208CDC
:1056F000002865D0218C4FF6FF70814260D0218C4C
:10570000B0FBF1F147F6FF70814238BF084658E020
:10571000207A012803D0012020720020A063C6480F
:10572000217A8288002918BF5242A267A16F626C59
:10573000891AA164A16C628C4A4351490A60A26C27
:10574000A36B1A44A26342F21072A36B934203DC70
:10575000A36B4D4A934200DAA263A26BA38C5A4317
:10576000642392FBF3F24A600A684B681A448A6029
:105770008968C288524213B29942A8BF0A46B0F95A
:1057800006008142C8BF0246E28337E0002037E0CE
:10579000218C3229FFF458AF218C4EF660229142C1
:1057A0003FF652AF218CB0FBF1F0A17901293FF413
:1057B0004AAFA1790022FF2908BF4242104642E7C2
:1057C00000209D4B60641426E06C216D626C9D8806
:1057D000AA42C8BF6FF013068842D8BF7642B4F918
:1057E0001E00D988494230440AB29042A8BF0146FF
:1057F000B3F906209042C8BF1146E183B4F91E00F8
:10580000BDE87040FFF75ABDE06C226D904206D1B2
:1058100000201B49E083226DC1E90320EEE7831AD3
:105820001748256DC668226DC260E28C5A43B542A6
:1058300013D1097D002BD8BF4942036919447E4B1F
:10584000DD886D422EB2B142A8BF0D46B3F90630D5
:105850009942C8BF1D4629B200E0002101618818A5
:105860007549CA88524213B29842A8BF0246B1F99C
:1058700006108842C8BF0A4686E700BFD00900204C
:105880001402002008000020F0D8FFFF0149FDF7B6
:1058900092B900BF2C2500200249884208BFFAF7C0
:1058A000CFBE7047E81F002010B5624CE06D216E3E
:1058B000E26D891A022291FBF2F108446066206EC3
:1058C000A16E884209DA4FF0FF3000F02DF8FDF7A5
:1058D000D9F9D4BF08390C380BE0206EA16E88428C
:1058E0000BDD012000F020F8FDF7CCF9B4BF0C3936
:1058F000083800680968401A00E00020B4F9321046
:1059000020EAE07088420749A4BFB4F932000138A8
:1059100031F81000B4F9301008440128D8BF012034
:1059200010BD00BF60120020B0B5424D0446287F74
:10593000012808D100202877687D00F039F8A86E8A
:105940002044A866B0BD012028771420012C08BF90
:105950001320285C00F008F8A87DBDE8B04000F0F6
:1059600027B800BF9801002002460028024818BF4F
:1059700001220121FBF7C0BB0004024070B5104CAE
:1059800005460A4E4FF48051002D18BF01252A46C6
:1059900004F58060B047204640212A46B0472046A3
:1059A00020212A463346BDE870401847F910000808
:1059B00002460028024818BF01228021FBF79CBB49
:1059C0000000024010B51B4CA07C012804D1A06E41
:1059D000B4F9321008442066A07C022804D1A06EDD
:1059E000B4F93210401A2066206EA16E401A124996
:1059F000B0FA80F040098870206EA16E88420CBF1A
:105A00000120FFF751FFE085204650F8681F50F84D
:105A10000C2C914207D0204650F8681F50F8082CF3
:105A2000914218BF0C380068E065E08DBDE8104079
:105A300000F004B89801002008000020CE49FDF7CE
:105A4000BAB800BF0648BFF34F8F064A016801F499
:105A5000E06111430160BFF34F8F00BFFDE700BF5E
:105A60000CED00E00400FA0570B586B0B0F1006FEF
:105A700001D201241CE00D460446FBF753FA002630
:105A8000204625440596FAF7D5FF0446681EFAF726
:105A9000D1FF001B0221CDE9006602940130049180
:105AA0000390684605A9FBF7ABF90446FBF7F0F94C
:105AB000204606B070BDF8B50646800703D04FF00B
:105AC000FF342046F8BD1446002AF8D00D460029C0
:105AD000F5D0FBF727FA0027A7420BD2EA59F119B4
