:020000040800F2
:10000000A82A0020B9020008CF2E00084F2C0008B3
:10001000CD2E0008AF040008794F00080000000052
:10002000000000000000000000000000753700081C
:10003000E9050008000000002D370008D13700084E
:10004000D3020008D3020008D3020008D30200083C
:10005000D3020008D3020008D3020008D30200082C
:10006000D3020008D3020008D3020008D904000814
:10007000D3020008D3020008D3020008D30200080C
:10008000D302000800000000D3020008D3020008D9
:10009000194F0008D3020008D3020008EB0500083E
:1000A000D302000855380008D30200084D38000874
:1000B000613800086D38000879380008D30200085C
:1000C000D3020008D3020008D3020008D3020008BC
:1000D000D3020008D3020008D3020008D3020008AC
:1000E000D3020008D3020008D3020008D30200089C
:1000F000D3020008D3020008D30200080000000069
:1001000000000000D302000800000000D302000835
:10011000D302000800000000D3020008D302000848
:10012000D3020008D3020008D3020008D30200085B
:10013000D30200080000000000000000D302000805
:10014000D3020008D30200080000000000000000F5
:10015000000000000000000000000000000000009F
:10016000000000000000000000000000D3020008B2
:10017000D3020008000000000000000000000000A2
:1001800000000000D3020008000000000000000092
:10019000000000000000000000000000000000005F
:1001A0000000000000000000D3020008D302000895
:1001B000D3020008D3020008D302000800000000A8
:1001C00000000000D3020008000000000000000052
:1001D000D3020008D302000800F002F800F05CF837
:1001E0000AA090E8000C82448344AAF10107DA4592
:1001F00001D100F051F8AFF2090EBAE80F0013F088
:10020000010F18BFFB1A43F0010318470C5E0000F2
:100210002C5E00000A444FF0000C10F8013B13F074
:10022000070408BF10F8014B1D1108BF10F8015B4F
:10023000641E05D010F8016B641E01F8016BF9D142
:1002400013F0080F1EBF10F8014BAD1C0C1B09D199
:100250006D1E58BF01F801CBFAD505E014F8016B0B
:1002600001F8016B6D1EF9D59142D6D3704700009D
:100270000023002400250026103A28BF78C1FBD8AF
:10028000520728BF30C148BF0B6070471FB505F04B
:10029000A9FE1FBD10B510BD00F0CFF81146FFF745
:1002A000F5FF05F025FD00F0EDF803B4FFF7F2FFD0
:1002B00003BC00F0F5F800000948804709480047F2
:1002C000FEE7FEE7FEE7FEE7FEE7FEE7FEE7FEE706
:1002D000FEE7FEE704480549054A064B7047000063
:1002E0003D380008D9010008A8240020A82A0020D1
:1002F000A8260020A8260020032A40F2308010F013
:10030000030C00F0158011F8013BBCF1020F6244B0
:1003100098BF11F801CB00F8013B38BF11F8013B41
:10032000A2F1040298BF00F801CB38BF00F8013BEE
:1003300011F0030300F04F80083AC0F0088051F834
:10034000043B083A51F804CBA0E80810F5E7121D69
:100350005CBF51F8043B40F8043BAFF30080D20788
:1003600024BF11F8013B11F801CB48BF11F8012B54
:1003700024BF00F8013B00F801CB48BF00F8012B77
:1003800070474FF0000200B5134694469646203958
:1003900022BFA0E80C50A0E80C50B1F12001BFF43E
:1003A000F7AF090728BFA0E80C5048BF0CC05DF8A4
:1003B00004EB890028BF40F8042B08BF704748BFF2
:1003C00020F8022B11F0804F18BF00F8012B704766
:1003D00070477047704710B5203AC0F00B80B1E805
:1003E0001850A0E81850B1E81850A0E81850203A6A
:1003F000BFF4F5AF5FEA027C24BFB1E81850A0E873
:10040000185044BF18C918C0BDE810405FEA827C8C
:1004100024BF51F8043B40F8043B08BF7047D207A3
:1004200028BF31F8023B48BF11F8012B28BF20F844
:10043000023B48BF00F8012B7047754600F02CF8CE
:10044000AE4605006946534620F00700854618B0C1
:1004500020B5FFF73FFFBDE820404FF000064FF00A
:1004600000074FF000084FF0000BAC46ACE8C009A5
:10047000ACE8C009ACE8C009ACE8C00921F007014C
:100480008D46704710B50446AFF300802046BDE8A6
:100490001040FFF70ABF000000487047900100209D
:1004A00001491820ABBEFEE7260002007047FEE7B8
:1004B000002070470020704780B50648D0F8BC0285
:1004C00030B102F0D5FE034803F0B0FC002080BD3F
:1004D000032080BD641D0020634800F013BA00BFF4
:1004E00010B510490368446C01F18002C264A1F5A3
:1004F0007E72203193423CBF40F60001C4F20201FB
:1005000024F0030211441422816403F0FC01083931
:10051000B1FBF2F1012201F01F0102FA01F10165C4
:1005200010BD00BF0008024010B503790649012440
:100530005430013B01F1400201EB830103F01F0342
:1005400004FA03F30EC010BD00090240F0B500F13B
:100550004C0670CE656016B1D0E91645656004683A
:100560008568D0E91060012700F01F00102D07FA00
:1005700000F070600846636008BF1046A06008BFC6
:100580000A46E260F0BD00003348417F01B1704788
:1005900009490968426F891A084AA1FB02129109A8
:1005A0004EF661229142F2D3012141774FF6FF715D
:1005B0000184002181717047041000E0F13B5D600F
:1005C0000748016841F080710160064800214160E0
:1005D000016841F0010101601F49406848677047A8
:1005E000FCED00E0001000E0704780B5202000F036
:1005F0008DFB4020BDE8804000F088BBEFF3108009
:1006000072B6FEE7924890F82A1590F82B25914291
:100610000FD290F8291590F82B250131B1FBF2F398
:1006200003FB121180F8291590F82A15013180F882
:100630002A150848007E00B170470748017E00294E
:10064000FAD1C17D0029F7D101210176002141763F
:10065000704700BFA8090020F001002013460A4699
:100660000146014800F018BA3420002043481549DB
:10067000027F032A03D0022A15D0012A1FD10B685A
:1006800002F0FE02022A23F400730B600B6843F4AD
:1006900000630B600B6823F400630B600B6843F48A
:1006A00000730B600BD10A6842F480520A600A683A
:1006B00022F480520A600A6842F480620A600021D3
:1006C0000177704700200240C007184803D0016836
:1006D00041F004010160016841F48031016070471C
:1006E0001249C0B20A6822F4FC7242EAC0000860F3
:1006F000086840F002000860086840F48030086034
:10070000704700BF10B5094A136843F48023136093
:10071000EFF31082EFF3108372B6402310C9013B50
:1007200010C01C06FAD182F3108810BD14200240BC
:1007300070B5114E044600F0C1FB05463068C00399
:1007400007D500F0BBFB401BA04284BF032070BD57
:10075000F4E730684CF2FA31014005D007484268AE
:100760000A434260012005E03068C0074FF00000F6
:1007700001D00121316070BD102002406C010020C9
:10078000334800211E2280F8281580F8291580F8AA
:100790002A1580F82B250022C0F82C15A0F830155A
:1007A000A0F832151E2A08BF704700232C2B02D058
:1007B000C1540133FAE72C300132F3E710B5244875
:1007C00090F82A1500293ED090F82825D0F82C154D
:1007D00011F007012BD1B0F830352C2B1AD390F83B
:1007E0002A257AB190F8282590F82B350132B2FBF2
:1007F000F3F404FB132280F8282590F82A25013A07
:1008000080F82A250022A0F8302590F82A25E2B1A8
:1008100090F828252C2312FB0302B0F83035D25C67
:10082000A0F83225B0F830250132A0F83025B0F814
:100830003225D0F82C350133C0F82C3522FA01F0DE
:1008400000F0010010BD002010BD012010BD00BF50
:10085000F40300202A480021002280F8441080F888
:10086000451080F846100A2A08BF704700EB820343
:100870000132D961F7E700BF214991F84620C2B1A2
:1008800091F8452001EB8202D26902600A2291F8B8
:1008900045000130B0FBF2F202EB8202A0EB420015
:1008A00081F8450091F84600013881F846000120A2
:1008B0007047002062B6704781B00090104890F8F1
:1008C00046100A2902D362B6002017E0009990F87A
:1008D000442000EB8202D1610A2290F844100131D9
:1008E000B1FBF2F202EB8202A1EB420180F844106C
:1008F00090F84610013180F84610012001B0704791
:100900006C020020F0B5D0E910130268042403F053
:100910001F030E6804FA03F51468354201D0670717
:100920001BD402259D40354201D0A7071FD426FACB
:1009300003F52D072ED524072CD5146824F00E04BA
:100940001460012202FA03F34B600021C26380F8B5
:10095000241080F82520416B18E013689B0603D40F
:10096000136823F0040313604D60016B0EE01368FD
:100970009B0606D4136823F00A031360012280F853
:100980002520002280F824204D60C16A11B1BDE805
:10099000F0400847F0BD0000002847D0F8B50446F5
:1009A0000220294984F8250004F10806206801F195
:1009B000080268CE9042254A38BFA1F5806138BF51
:1009C00002F5806214270244B2FBF7F29200C4E9F8
:1009D000101247F6F0720168914362691943294386
:1009E00031431143A2691143E2691143226A114361
:1009F00001602046FFF774FDA06804F14803B0F5DC
:100A0000804F06BF002060606068C5B20ECB013821
:100A100003280D6053600BD82046FFF785FD04F1D5
:100A20005402002307CA03604A6005E001207047B2
:100A30000020C4E91500E06500200121E06384F88E
:100A4000240084F82510F8BD00040240F8FBFDBF27
:100A500090F82430012B01D102211BE090F82530C1
:100A6000012B08D1032906D8DFE801F002070A0D9F
:100A700000F12C0109E0012109E000F1300104E05E
:100A800000F1340101E000F138010A600021002288
:100A900080F8242008467047B0B5044690F824003A
:100AA000012818D002F06DFA13D1022084F8250035
:100AB0000020E0632068056825F0010505602046F8
:100AC000FFF744FD2068226B016832B141F00E014E
:100AD00009E002F025FA0220B0BD21F00401016016
:100AE000016841F00A010160A16C0A68D20303D5D4
:100AF0000A6842F480720A60616D19B10A6842F4B2
:100B000080720A60016841F0010101600020B0BDFF
:100B100080B509484FF0FF31002201610261816117
:100B2000826101600260416042608160826000F029
:100B300019FA002080BD00BF28100240B0B504465D
:100B400000F0BCF90546EC48611C406818BF04443D
:100B500000F0B4F9401BA042FAD3B0BD2DE9F84330
:100B6000DFF87491054699F80000012801D10226AA
:100B70004EE00120884689F8000002F0CDF90646D3
:100B8000002842D10020554CC9F804002068216893
:100B9000490502D4C0F3402009E010F40070206839
:100BA00020F4806020604FF0030008BF022089F825
:100BB0001C00286801280AD16868FFF785FD02F04B
:100BC000ABF90646606920F0040060611BE04FF05D
:100BD000FF30C8F80000A8680746E9680844874263
:100BE0000DD23846FFF77CFD02F096F906466069A3
:100BF00020F4FD70606126B9A8680137EDE7002692
:100C000001E0C8F80070FFF731FD002089F800000E
:100C10003046BDE8F88300BF0448016841F0004158
:100C200001600068C043C00F704700BF142002403D
:100C30002DE9F047DFF8A090074699F80000012859
:100C400001D1022645E00120984615460C4689F858
:100C5000000002F05DF90646C0BB00201F4AC9F83B
:100C600004001168490504D5106820F48060106004
:100C7000022089F81C00781E022809D22046294645
:100C80009246FFF73FFD022F12D16FF480240CE053
:100C90006FB95069924640F0010050612560BFF382
:100CA0006F8FC4F804806FF00104002503E09246C2
:100CB0004FF0FF34012502F02BF9064625B9DAF88A
:100CC00014002040CAF81400FFF7D0FC002089F877
:100CD00000003046BDE8F0876C0100200020024093
:100CE0000648C168B1F1FF3FC4BF00207047044906
:100CF000016004490160C068C00F704708200240CD
:100D000023016745AB89EFCD04F078B903490A6840
:100D1000024208BF70470860FFF7F6BF14040140A5
:100D20002DE9FC4F5D4A06244FF0000B4FF0010AFD
:100D30004FF00009904200F1384208BF05244FEA05
:100D4000B223052B38BF4FEAB224009400220B686F
:100D500033FA02F408BFBDE8FC8F0AFA02F813EA7E
:100D6000080700F0958003234C6803FA09F36FEA43
:100D7000030E04F00303A3F1010CBCF1010F13D81F
:100D8000866806EA0E0CCE6806FA09F646EA0C06F4
:100D90008660C4F3001606FA02FC466826EA0806D6
:100DA00046EA0C06466003E0032B01D103231DE055
:100DB000C6688D6806EA0E0605FA09F53543022B6A
:100DC000C56013D16FF003050BF01C030F2405EA77
:100DD00052059C4005442E6A26EA04040E6906FA70
:100DE00003F323432B624C6804F00303056803FA02
:100DF00009F305EA0E052B4314F4403F036047D086
:100E0000294C274E22F003052368B446354443F0AD
:100E10000103236023680F2403F0010301930BF007
:100E20000C03019E9C40214EB646AE5926EA0404AE
:100E3000009E06FA03F3234345F80E30DCF8083031
:100E40004D6843EA0704EE0258BF23EA0704154B36
:100E5000CCF80840AE029E461B6843EA070458BF20
:100E600023EA0704CEF80040AE03DCF8043043EA7E
:100E7000070458BF23EA0704CCF80440ED03DCF86C
:100E8000003043EA070458BF23EA0704CCF80040C7
:100E90000BF1040B09F10209013258E70014004874
:100EA000000401400C0401406010024008FCFFFFF8
:100EB0001823002A08BF2823C15070470F48006834
:100EC000704700BF01480068704700BF9075FF1F62
:100ED00001480068704700BF9475FF1F0148006813
:100EE000704700BF9875FF1F1C48044940680A6896
:100EF00010440860704700BF00000020A0240020BC
:100F000080B5032000F082F80F2000F007F808B148
:100F1000012080BD00F028F8002080BD70B50F4E84
:100F200004467068B0B14FF47A71B1FBF0F00C492F
:100F30000968B1FBF0F001F0B3FA01250F2C0AD8D3
:100F400048B94FF0FF3021460022002500F038F864
:100F5000346000E00125284670BD00BF000000207D
:100F6000500000207047000082B00B48816841F0BB
:100F700001018160816801F001010191019901681D
:100F800041F080510160006800F0805000900098AE
:100F900002B000F049BE00BF5810024000280BD438
:100FA00000F01F010122C0B202FA01F1034A42EA35
:100FB000D00020F003000160704700BF00E100E0B6
:100FC000F0B5184B4FF0FF361C68C4F30224E51E41
:100FD00084F0070438BF002506FA05F7BA43042C4D
:100FE00028BF042406FA04F4A14300F00F04A9402A
:100FF000043C1143044A234409010244002848BF29
:1010000003F10C021170F0BD00E400E005494FF659
:10101000FF030A681A4060F30A220348104308607D
:10102000704700BF0CED00E00000FA0504F0E8FD99
:101030000168B1F8542042F00102A1F854200122C5
:10104000C0F8D022002280F8C822B1F8540040F045
:101050000200A1F85400002070477047B0B501F0BD
:10106000070501EB810405EB850500EBC40400EBEB
:10107000C5001030090658BF04F5A87012B101214F
:10108000836001E0C380002101730020B0BD01EB4B
:10109000810200EBC202D0F8D802526A03F015B800
:1010A00001EB810200EBC202D0F8D802D2F8642131
:1010B00003F05DB810B5044601F0070049B202F034
:1010C00069F8C3BF002281F8512101F5A8710122FE
:1010D000DCBF4A741031087094F89002012804BFF4
:1010E000022010BD01F031FF03F0E8FC01F0FBBE6F
:1010F000B0B50446007901F00F02824201D9012502
:101100001DE001F0070049B202F044F8C3BF00221D
:1011100081F8512101F5A8710122DCBF4A74103118
:101120000870002594F890028D70012801D10225E5
:1011300005E001F00AFF03F037FD84F890522846DD
:10114000B0BDB0B5044601F0070049B26FF3DF222D
:1011500002F020F8C3BF002581F8515101F5A871B4
:101160000125DCBF4D741031CB700A610870022B71
:1011700004BF0020087194F89002012804BF0220E7
:10118000B0BD01F0E2FE03F045FB002084F89002C0
:10119000B0BDB0B501F00701002501EB810400EB03
:1011A000C404006804F5B27784F8501104F5A871FE
:1011B00084F851512CC703F043FD0020B0BD10B599
:1011C000044601F007002279904284BF012010BD3F
:1011D0004AB2B2F1FF3F09DD01EB8101002204EBCD
:1011E000C10181F8512101F5A87106E000EB8001F1
:1011F000012204EBC1014A74103194F89022087066
:1012000001208870012A04BF022010BD84F89002DA
:10121000206803F0FDFC01F066BEB0B501F00704E4
:10122000002504EB840100EBC101006801F8104FB8
:10123000012401F1140781F824400B624C702CC783
:1012400003F0FEFC0020B0BD2DE9F84F0446006815
:1012500003F068FE01041CD4410500F148834104F9
:1012600000F15483810400F15683C10400F15883D6
:10127000010500F17883010600F18183810500F109
:101280008C83C00540F16D8301F0C1FF21F48071B2
:1012900065E304F52670009040F60F752068B0F9FC
:1012A0004410B1F1FF3F00F35C83B0F8442012F02A
:1012B0000F0842D030F928104FEA480A1FFA81F986
:1012C000B1F1FF3F00F3178130F81A102940803147
:1012D00020F81A1008EB880104EBC10B9BF85C1195
:1012E0000BF5A876002900F0A3809BF85311022982
:1012F00040F0AD80B0F85010DBF868310A18317852
:101300005FEA494702EBC1050BF5B47200F1BA8000
:10131000B5F8067400256FF39F27DB1B38BF2B46FB
:10132000136001D801F085FE5FEA496240F60F754F
:1013300000F1A48001F053FFA0E00188D20625D47B
:10134000294001F500410180B0F850100844217C8B
:1013500000EBC100616AB0F802046FF39F20E06205
:101360000844002160622046FFF791FE207B0028A0
:1013700094D0A06A002891D12068217B41F080019F
:10138000C9B2A0F84C100020207387E70A0539D4B1
:1013900009B2B1F1FF3F3FF781AF018829408031A9
:1013A000018001F01CFEB1F806346FF39F23C4F8EE
:1013B0006C3193B1D4F8641179B1B4F8562103F0CB
:1013C000B4FDD4F86401D4F86C1108440021C4F8C9
:1013D00064012046FFF764FE206801880A053FF596
:1013E0005DAF01F44051B1F5405F3FF457AF018864
:1013F00043F60F7211404CF28002A2F58052514028
:1014000001804BE701F0EBFDB4F85621B1F806344A
:1014100000996FF39F23C4F86C3103F086FD2068B8
:101420000188294080310180204600F07EFB35E7AD
:10143000B0F850103278014401EBC201B1F80674E3
:101440006FF39F27002F3ED0BBF8562135E032784E
:1014500048F2A003203330F822102940194320F825
:10146000221000EBC20130F822205204B0F85020C4
:1014700011441BD4B1F806746FF39F271FB3BBF858
:101480005A211AE0B5F8027400256FF39F27DB1B81
:1014900038BF2B46136001D801F0CBFD5FEA4962EB
:1014A00040F60F7506D501F09AFE03E0B1F802741C
:1014B0006FF39F273FB1BBF85821DBF864113B461F
:1014C00003F033FD00E000270BF5B27207CA3A447F
:1014D0003844CBF86C21CBF8640119B1DBF860011A
:1014E000B84204D931782046FFF7DAFD03E02068DE
:1014F000314603F0A5FB5FEA09607FF5CFAE2068B7
:1015000030F81A10294001F5004120F81A1008EBB4
:10151000880104EBC105EF7C05F11008012F00F0F4
:10152000AD805FEAC95140F1C6802A4698F80010A4
:101530005FEA496352F828BFB0F8506000EBC10A77
:1015400030D40AF2064E3EF806C000266FF39F2CF8
:10155000BBEB0C0338BF3346136000F2DB806A7CC0
:10156000012A50D0002A40F60F7558D1B0F850200B
:101570005244B2F802346FF39F23A2F80234B2F857
:10158000023443F40043A2F80234B0F850203EF88D
:1015900002306FF39F232EF802303EF8023043F4FE
:1015A00000433AE00AF2024C3CF806E000266FF3F2
:1015B0009F2EBBEB0E0338BF3346136000F2D5807D
:1015C0006A7C012A37D0002A40F60F753FD1B0F867
:1015D00050203CF802306FF39F232CF802303CF887
:1015E000023043F400432CF80230B0F8502052444B
:1015F000B2F806346FF39F23A2F80634B2F806342B
:1016000043F4004321E0B0F85020002340F60F756A
:101610005244A2F80234B0F850202EF80230022FC3
:1016200001D101F092FD2046FFF731FD5FEA49400C
:101630003FF534AE16E0B0F85020002340F60F75A9
:101640002CF80230B0F850205244A2F80634022F91
:1016500001D101F07AFD2046FFF719FD5FEA49400C
:101660007FF51CAE98F8000021684CF2800331F839
:1016700020202A401A4321F820200FE60021A962E9
:10168000297F002900F0A8805FEA496130D4697C95
:10169000012900F09880002940F09E8001F0D8FDDB
:1016A000B0F806146FF39F21A0F80614B0F80614E2
:1016B00041F4004189E0AB6AB0F8501000264218AE
:1016C00098F8001002EBC102B2F802246FF39F22D7
:1016D0009B1A38BF3346AB6240F28080696AEB6A7E
:1016E000114469629918E962414603F0A9FAD3E509
:1016F000697C01296CD000296ED101F0A9FDB0F8F8
:1017000002146FF39F21A0F80214B0F8021441F400
:1017100000415FE05FEA494209D430F8212040F6F9
:101720000F731A404CF280031A4320F821202A46F6
:1017300012F8341F012940F0CB802F4657F8309F14
:1017400057E904A157F8043C6144634447F80C1C72
:1017500047F8043CD14545D20023B9F1000F13707E
:101760001ABF3B60CA46E2463FE05FEA494209D5FC
:1017700030F8212040F60F731A404CF280031A43D0
:1017800020F821202B4613F8341F012940F0A080B7
:101790002A46664652F830BF52E904C152F8049C0A
:1017A000714409EB0E0742F80C1C42F8047CE34537
:1017B00037D24FF00009BBF1000F374683F8009095
:1017C00033D1F34633E001F03AFDA0F8061403E00C
:1017D00001F035FDA0F8021498F800102046FFF73C
:1017E00056FC59E5A9EB0A023A606A7C012A37D017
:1017F000002A55D1B0F85020BAF1000F3EF802305F
:101800006FF39F232EF8023034D0BAF13E0F36D852
:101810000AF0010632F80E3006EB5A0643EA862338
:101820003CE0ABEB0C09E3463746C2F800906A7C1B
:10183000012A1AD0002A46D1B0F85030BBF1000F6F
:10184000FA5A6FF39F22FA5217D0BBF13E0F2BD8F2
:101850000BF00106DA5B06EB5B0642EA862231E01A
:10186000B0F850202EF802A01AE0B0F8502027F867
:1018700002B028E032F80E300EE0DA5B20E05FEADA
:10188000CA634FF0FF364FEA5A1308BF06EB5A13EC
:1018900032F80E6046EA832343F4004322F80E3008
:1018A0006A8B1FFA8AF311E05FEACB624FF0FF36D2
:1018B0004FEA5B1208BF06EB5B12DE5B46EA822250
:1018C00042F40042DA532A8B1FFA8BF303F047FBF2
:1018D00098F80000216840F63F7331F820201A4044
:1018E00048F2A00310335A4021F82020D4E401F03C
:1018F0008EFC21F48061A0F84410204600F0E0F84E
:1019000020460021BDE8F84F00F002B901F07FFC4D
:1019100021F4804123E001F07AFC21F400511EE023
:101920002068B0F8401021F00401A0F84010B0F891
:10193000401021F00801A0F8401094F8C8020128D6
:1019400006D10020002184F8C8022046FFF785FB5D
:10195000204600F0C7F801F05AFC21F48051A0F8AD
:101960004410BDE8F88F206801F055FBB0F8441032
:1019700021F40061A0F8441001F03FFB08E001F001
:1019800046FC21F08001A0F8441094F8C81279B107
:101990002046BDE8F84F00F0DFB801F038FC21F434
:1019A0000071A0F844102046BDE8F84F00F0ACB834
:1019B00001F023FB01F02FFB012184F8C8123C2128
:1019C000B0F8540001EA90000121C4F8CC0220468E
:1019D000BDE8F84FFFF741BB70B5002840D0044682
:1019E00090F8910228B9002084F89002204600F077
:1019F00039F8032084F89102206803F0CEF82079AA
:101A00000021012200230025A84209D0E61828332E
:101A10003574C6E90811B162F17472740135F3E7E7
:101A200004F5A87100220023984208D00B70C1E988
:101A300004228A61CA704A7028310133F4E794E8BD
:101A4000070003F09EF800200121207384F8911212
:101A5000A17A012903D12046FFF7EAFA002070BDE0
:101A6000012070BD10B592B0044601A84021043099
:101A7000FEF787FC2068104988421AD14FF40050C5
:101A8000019001A800F0DCF808B1FEF7B7FD0B48A3
:101A90000022016841F4000101600021006800F4A7
:101AA0000000009000981420FFF78AFA1420FFF736
:101AB00075FA12B010BD00BF005C00405810024023
:101AC00010B504464079022818BFFEF797FDD4F8F8
:101AD000D802012102F022FCD4F8D802BDE810405F
:101AE00002F0D4BB10B50446407A30B121480168F9
:101AF00021F00601016001F06DFED4F8D802BDE8C6
:101B0000104002F0F2BB00BFD0F8D80202F0F7BBE1
:101B100010B501F0D7FA04BF022010BD217301F007
:101B200014FA03F016FA01F0DEB9D0F8D82200F565
:101B30002671104602F0FEBB10B501F0C3FA04BFD7
:101B4000022010BD01F001FA03F0DEF9206803F075
:101B500010F801F0C8B9000010B50446D0F8D8025A
:101B600002F02AFC607A20B10248016841F00601C7
:101B7000016010BD10ED00E010B5B0F5007F21D080
:101B8000002844D1AA480168D0F8802001F4C0613F
:101B900022F48072B1F5806FC0F880203DD101F051
:101BA000A1FA1F49096851431E4AB1FBF2F1002214
:101BB00001314469013942F10003640521D5002B4C
:101BC000F7D11EE09A480168D0F8802001F4C06186
:101BD00042F48072B1F5806FC0F880201DD101F011
:101BE00081FA0F49096851430E4AB1FBF2F1002214
:101BF00001314469013942F10003640501D5002B2C
:101C0000F7D14069400544BF032010BD05E0884876
:101C10000222016862F34A210160002010BD00BF6A
:101C20005000002040420F00014801F014BA00BFEC
:101C3000087000407E48016841F48071016070477F
:101C40002DE9FC4104468078784E000701D400203D
:101C50004BE0F06C10F0805808D1F06C40F08050F0
:101C6000F064F06C00F0805001900198704F38687B
:101C700040F480703860FFF721F905463868C005E8
:101C800006D4FFF71BF9401B0228F7D9032025E0F3
:101C9000D6F8840010F4407017D0216C884211D01F
:101CA000D6F88400D6F8841041F4803120F44070D6
:101CB000C6F88410D6F8841021F48031C6F8841058
:101CC000C6F88400C00740F0A180206CD6F88410CC
:101CD00021F440710843C6F884000020B8F1000FD9
:101CE00003D1F16C21F08051F1642168CA0705D05D
:101CF0006268F36F23F003031A43F2678A0705D57E
:101D0000A268F36F23F00C031A43F2674A0705D564
:101D1000E268F36F23F030031A43F2670A0705D530
:101D20002269F36F23F0C0031A43F2678A0605D5D0
:101D30006269F36F23F440631A43F2674A0605D5DC
:101D4000A269F36F23F440531A43F2670A0605D5DC
:101D5000E269F36F23F440431A43F267CA0505D5DD
:101D6000226AF36F23F440331A43F2678A0505D5DC
:101D7000626AF36F23F440231A43F2674A050AD5D7
:101D8000A26AF36F23F440131343B2F5801FF36785
:101D900001D101F0B8F80A050AD5E26AF36F23F41D
:101DA00040031343B2F5800FF36701D101F0ABF8A4
:101DB000CA040AD5226BF36F23F040731343B2F1C8
:101DC000807FF36701D101F09EF88A0405D5626B2C
:101DD00001F0CFF801D101F096F84A0405D5A26BC5
:101DE00001F0C7F801D101F08EF809040CD5E16BC0
:101DF000F26F22F040520A43B1F1805FF26703D1E3
:101E0000316841F480313160BDE8FC81FFF756F85C
:101E1000054641F28837D6F8840080073FF555AF74
:101E2000FFF74CF8401BB842F5D92FE70C100240E1
:101E3000007000402DE9F047002855D0744B04464F
:101E40000D46186800F00F00884209D2186820F08B
:101E50000F0028431860186800F00F00A84243D113
:101E600020688D4E9A46C107B14602D1810779D4C8
:101E70008BE06168022933D0032938D156F8081C59
:101E8000890131D5716872687368B4467668022733
:101E900001F00301C6F341660329C2F3031107EB06
:101EA00046067E4FC3F3062201F1010104BF41F251
:101EB0000027C0F27A07B7FBF1F15143554AB1FB55
:101EC000F6F1914224D9DCF80010664611F0F00FCB
:101ED00016D0800701D5A06890B14FF000081AE035
:101EE00056F8080C800306D40120BDE8F08756F8A8
:101EF000080C4005F8D500F0A1F846498842ECD915
:101F0000306808214FF0010861F30710306002E0EB
:101F10004FF0000866466068316821F0030108430D
:101F200001F0DDF8064641F2883749466068D9F885
:101F3000001001F00C01B1EB800F05D0FEF7BEFFE1
:101F4000801BB842F1D93BE02068810708D4B8F182
:101F5000000F4E46534618D0316821F0F00113E0CF
:101F60004E465346410703D5316841F4E061316084
:101F7000010704D53168072262F30D213160A168A1
:101F8000326822F0F00211433160196801F00F014C
:101F9000A9421AD9186820F00F0028431860FEF7EC
:101FA0008DFF064641F288375046DAF8000000F00F
:101FB0000F00A84207D0FEF781FF801BB842F3D97B
:101FC0000320BDE8F08720684E46410705D5E1684B
:101FD000326822F4E06211433160000706D52069BF
:101FE000316821F4605141EAC000306000F026F809
:101FF0003168094AC1F30311515C01F01F01C84067
:102000000C49086005480068BDE8F047FEF786BF48
:102010000020024000B4C404FE5F0008000000205D
:1020200004481D49044A00680968C1F3022101F00F
:102030000DB800BF500000200E6000081649174A76
:10204000086800F00C000428104624D0086800F04E
:102050000C031348082B1ED00B6803F00C030C2B49
:102060001CBF002070474B6803F00303032B08BF1D
:1020700002464868C0F303100130B2FBF0F04A6832
:102080004968C2F30622C1F341615043022202EBC8
:102090004101B0FBF1F07047081002400024F40049
:1020A00000127A002DE9FC4100287BD0044600781C
:1020B000D04EC00712D0B068F16800F00C000C28B8
:1020C00003D101F00301032902D0082840F0D08099
:1020D0003068800302D56068002863D020788007CC
:1020E00046D42078000760D42078400774D4207844
:1020F000800600F1A580E769002F00F0B681B06886
:1021000000F00C000C2840F0E780012F4AD0216A33
:10211000F06800F003028A4244D1616A6FF00F0256
:1021200002EB011100F0F0028A423BD1A16A00F4F7
:10213000FE42B2EB012F35D1E16A00F07842B2EBFA
:10214000C16F2FD1216BD54A02EA015100F4C002C0
:10215000A1F500118A4225D1616B4FF07E4200F05B
:10216000C06002EA016101F17E4188421AD17CE13E
:10217000B068F16800F00C000C2803D101F00301F5
:10218000022902D0042840F095803068400501D52E
:10219000E06838B100F0AFFEBC480068FEF7BEFE54
:1021A00000289ED00120BDE8FC81D6F8940061692A
:1021B00000296DD040F00100C6F89400FEF77EFEC5
:1021C0000546D6F8940080073FF58EAFFEF776FE01
:1021D000401B0228F5D9DFE0B06D10F0805808D11F
:1021E000B06D40F08050B065B06D00F0805001904F
:1021F0000198A74F3868C0050FD4386840F4807044
:102200003860FEF75BFE05463868C00505D4FEF76A
:1022100055FE401B0228F7D9BEE0A068012808D06F
:10222000052840F08780D6F8900040F00400C6F8FA
:102230009000D6F8900040F00100C6F8900086E0CB
:10224000D6F89800A169002962D040F00100C6F8D4
:102250009800FEF733FE0546D6F8980080073FF554
:102260004AAFFEF72BFE00F080FEF5D9BDE8FC81F9
:102270006068B0F5803F06D0B0F5A02F76D1306809
:1022800040F480203060306840F48030306077E087
:1022900020F00100C6F89400FEF710FE0546D6F8BF
:1022A000940080077FF520AFFEF708FE401B022850
:1022B000F5D971E03068E168002970D040F4807091
:1022C00000F00DFF05463068400577D4FEF7F6FDB7
:1022D00000F04BFEF7D9C9E7306820F0807000F0BD
:1022E000FEFE0546022F09D13068800140F184804E
:1022F000FEF7E4FD00F039FEF6D9B7E7306880015B
:1023000040F1AF80FEF7DAFD00F02FFEF6D9ADE721
:1023100020F00100C6F89800FEF7D0FD0546D6F87B
:10232000980080077FF5E7AEFEF7C8FD00F01DFEC0
:10233000F5D99BE7D6F8901021F00101C6F890106E
:10234000D6F8901021F00401C6F89010C8B3FEF73B
:10235000B5FD054641F28837D6F89000800740D495
:10236000FEF7ACFD401BB842F6D915E031680028F5
:1023700021F480313160316821F48021316077D0DF
:10238000FEF79CFD0546306880033FF5A7AEFEF7DB
:1023900095FD401B6428F6D90320BDE8FC8120F49C
:1023A000807000F09CFE0546306840057FF599AED0
:1023B000FEF784FD00F0D9FDF6D957E700F09BFD4C
:1023C0008FE6FEF77BFD054641F28837D6F8900090
:1023D000800706D5FEF772FD411B0320B942F5D9EF
:1023E00044E7B8F1000F7FF482AEB06D20F080506A
:1023F000B0657CE60010024004F120036FF00F0589
:10240000254F0FCB05EB0111F5683D4028430843EC
:10241000216B40EA0220214A02EA01514FF07E423C
:10242000A1F500110843616B40EAC36002EA016153
:1024300001F17E410843F060306840F08070306008
:10244000F06840F08070F060FEF738FD04463068B8
:1024500080010AD4FEF732FD011B03200229F6D9C0
:1024600004E7F0680B490840F0600020BDE8FC81FB
:10247000FEF724FD0546306880037FF52FAEFEF79A
:102480001DFD411B03206429F5D9EFE60000002063
:1024900000700040FCFFEEFE0C809F010000E0FF9A
:1024A000411E0020B0EB116F1CBF01207047044A91
:1024B000F023516003490B70072190601160704751
:1024C00010E000E023ED00E0704770477047000027
:1024D000F0B590F83C20012A01D102213FE091E8BB
:1024E0007800204A26F47C5625F470551440354374
:1024F0002C4302F500652B400D69234302F5C054BF
:102500002C4023434C69234302F5605402F5F0420A
:1025100023400C6B2240144C1A43CB691A438B693D
:1025200004EA03436D4C13430268A24202D0694C93
:10253000A24210D10D4C01F120060D4FC96A234073
:1025400070CE07EA0656334324F00854234325F09F
:10255000005423430B43002180F83C105364084689
:10256000F0BD00BFFF87F0EF0000FFEFFFFF0FDCC3
:102570000000F0DC704770477047000070B590F8BD
:102580003C300222012B2FD080F83D20534C0268B2
:1025900055689368A24202D04E4EB24203D14E68B3
:1025A00025F470053543114E35400E683543B2F1C0
:1025B000804F55600DD0454DAA420AD0444DAA42E5
:1025C00007D0444DAA4204D0434DAA4201D0A242B2
:1025D00004D1896823F0800319439160002201210E
:1025E00080F83C2080F83D10104670BD8FFFFFFD45
:1025F000704758B110B500F0EDFD03D100F08BFD30
:1026000000F006F800F02CFE00F0C2BC012070477C
:102610001CB500682E49884211D02C49884218BF49
:102620001CBD11481D24016841F002010160012117
:10263000006800F00200019001981D200CE00A489B
:102640001E24016841F0040101600221006800F0CD
:102650000400009000981E200022FEF7B1FC2046E6
:10266000BDE81C40FEF79ABC5810024090F83D109F
:1026700001291CBF01207047022180F83D1001682C
:10268000C868B1F1804F40F00100C8600ED00F481B
:1026900081420BD00E48814208D00E48814205D0BD
:1026A0000D48814202D00D48814209D188680C4A08
:1026B000734600F080FD9E4606D0B2F5803F03D001
:1026C000724600F094FC9646704700BF000400403C
:1026D00000080040002C014000400140003401404F
:1026E00007000100016841F21113CA6822F00102DB
:1026F000CA600A6A1A4208D10A6A44F244431A427A
:1027000003D10A6822F001020A6000F084BD0000D3
:1027100010B500F059FD3DD084F83D0001202F4B4D
:1027200084F83C00206882681A4082600A683AB3E4
:10273000102A25D0202A23D0302A21D0402A2AD07E
:10274000502A30D0602A36D0254B9A4218D0B2F5A4
:10275000805F1CD0B2F5005F38D0B2F1101F0FD0EF
:10276000204B9A420CD0204B9A4209D01F4B9A42E0
:1027700006D0702A2FD100F095FC41F0770105E0DA
:1027800081681B4B1940114341F007018160002013
:1027900000F036FD10BD00F043FD2068144A81684A
:1027A00011404731F2E700F03BFD2068104A816894
:1027B00011405731EAE74B68CA68194601F031FA0F
:1027C00020680B4A816811406731DFE700F06AFC3E
:1027D00041F48041DAE70120DAE700BF8800CEFF4C
:1027E00070001000200010003000100040001000A9
:1027F00088FFCFFF704770B504460068C56806695A
:10280000B10710D5A9070ED56FF0020101610121B2
:1028100021778069800702D000F0EFFC01E000F032
:1028200083FC00202077700712D5680710D5206838
:102830006FF00401016102212177806910F4407F6B
:1028400002D000F0DAFC01E000F06EFC00202077FE
:10285000300711D528070FD520686FF008010161F6
:1028600004212177C069800702D000F0C6FC01E096
:1028700000F05AFC00202077F00612D5E80610D5AB
:1028800020686FF01001016108212177C06910F400
:10289000407F02D000F0B1FC01E000F045FC0020D8
:1028A0002077F00708D0E80706D020686FF0010114
:1028B0000161204600F0A6F916F4025F08D0280650
:1028C00006D520686FF4025101612046FFF7FDFD37
:1028D000F00508D5280606D520686FF480710161DF
:1028E0002046FFF7F1FD700608D5680606D520687A
:1028F0006FF040010161204600F0A8F9B00608D54C
:10290000A80606D520686FF0200101612046FFF778
:10291000DDFDF00208D5E80206D520686FF48011CD
:1029200001612046FFF727FEB00208D5A80206D5B0
:1029300020686FF4001101612046FFF71BFE700252
:1029400008D5680206D520686FF480010161204631
:10295000FFF712FE300201D5280200D470BD2068B6
:102960006FF4000101612046BDE87040FFF740BEF2
:10297000FEB50068B0F1804F17D10D48016841F0F5
:1029800001010160006800F0010000900120059045
:102990000020CDE90300022002900320019000985E
:1029A00001A94FF09040FEF7BBF906B080BD00BF13
:1029B0004C1002407047B0B1B0B5044690F83D00ED
:1029C0000D4618B900F0A7FB00F00FF800F048FC26
:1029D0002068016821F00801016001682943016055
:1029E00000F04CFBB0BD012070477047B0B500F05F
:1029F00021FC04BF0220B0BD0D4601204FEAB20108
:102A0000052984F83C0048D8DFE801F0030B131BCC
:102A100023332068294600F0A7FF206850F8181FCC
:102A20001EE02068294600F0DFFF206850F8181FDC
:102A300026E02068294601F00FF8206850F81C1F96
:102A40000EE02068294601F043F8206850F81C1F6A
:102A500016E02068294601F07BF8206850F8501FE6
:102A600041F008010160016821F004010160296959
:102A70000FE02068294601F095F8206850F8501FB3
:102A800041F400610160016821F4806101602969FD
:102A900009020268114301600020002184F83C1003
:102AA000B0BD58B110B500F095FB03D100F033FB79
:102AB00000F006F800F0D4FB00F06ABA012070477D
:102AC000E0B50068B0F1804F18BF8CBD8948002286
:102AD000016841F0010101600421006800F001007B
:102AE000019001981C20FEF76BFA1C20BDE88C4079
:102AF000FEF754BA70470000B0B5044651B1081F44
:102B000000F090FA0DD8DFE800F0020F121504F182
:102B10003F0211E094F83E00012819D100F069FB52
:102B200023E004F1430207E004F1400204E004F171
:102B3000410201E004F142021278012A08D103287F
:102B400008D8DFE800F0020A0D1000F0E9FA0CE006
:102B50000120B0BD00F00EFB07E000F017FB04E021
:102B600000F00CFB01E000F00DFB00F05EFB2168C3
:102B70001D4800F0CBFA1FD800F021FB1CD000F05C
:102B800043FA0ED02F4881420BD01848814208D01A
:102B90001748814205D01748814202D01648814229
:102BA00007D18868164A00F006FB04D0B2F5803FD2
:102BB00001D000F01CFAB0BDB1F1804FF1D0214836
:102BC0008142EED009488142EBD009488142E8D0E9
:102BD00009488142E5D007488142E2D00748814256
:102BE000E7D100F05AFAE4E700D4FEBF0008004045
:102BF000002C0140004001400034014000480140E9
:102C000007000100B0B50F4D0446006805F594318A
:102C1000884202D102F0D4FD2068A84207D102F018
:102C2000DBFA20B90848FFF75DFD002068622168E3
:102C300005F58060814218BFB0BDBDE8B04002F02C
:102C40009FBF00BF00040040082400207047FEE73B
:102C500070B501310023372472B1060F01F8023B31
:102C600004EB1075B0F1204F38BF06F1300501F8C4
:102C7000035C013A0001EFE770BD000010B50446A7
:102C8000EFF3108072B6FDF743FF114800214FF0BB
:102C9000FF32016041608160082907D000EB8103A9
:102CA0000131C3F87021C3F87022F5E70948BFF37A
:102CB0004F8FBFF36F8F0460BFF34F8FBFF36F8FE2
:102CC000206880F30888606862B6BDE8104000475D
:102CD00010E000E008ED00E081B00648016841F036
:102CE00080510160006800F080500090009801B0B1
:102CF000FEF7A0BF5810024080B5FFF7EDFF18485F
:102D00000068C0B280BD00BFB0B5144D144C286837
:102D1000000103D5FFF7E0FF00202060286840F4A1
:102D200000002860FFF7E8FF422806D1FFF7D4FF34
:102D3000002020600B48FFF7A1FF4C4801210176DD
:102D40004948FF21C171FDF71BFDFDF783FD64209C
:102D5000FDF7F4FEBDE8B040FDF732BC9410024030
:102D60000025004000800008F8B50120FDF7E6FED0
:102D7000FDF70AFC3C4D287870B13C4C002003263E
:102D80002870300608D0204600F0C8FC20B10A2088
:102D9000013EFDF7D3FEF4E7A87E012818BFF8BD79
:102DA0000027324C324EAF76E069E866607E707084
:102DB000EF75FDF7E5FCFDF74DFD2F676F7004F132
:102DC0000802652707CAE863E86B104401382864E5
:102DD000062020762966013F27D06420FDF7AEFE4D
:102DE000286EA96E8842F6D122490020E87528761F
:102DF00068766870C1F82C05A1F8300568712871F3
:102E00003070E879032812D1608C1B4B6885D4E9B7
:102E10000420A168A885B5F92C00081A1144B5F959
:102E20002C201144C3E9010114E0042015E0208C9A
:102E3000F080608CB080104E94F824006884A16803
:102E4000D4E90423C81A1944114494F82520C6E98A
:102E50000101AA8402F0B4FB002020762046BDE8E0
:102E6000F84000F05BBC00BFF0010020A809002082
:102E700008000020F4030020280A002080B50F4835
:102E80000F49002201F0FCF808B1FDF7B7FB0B4831
:102E90000C4901F0AEFA08B1FDF7B0FB07480A494A
:102EA00000F0D0FF08B1FDF7A9FB044801F0BBFA20
:102EB00018B1BDE88040FDF7A1BB80BD641D0020B6
:102EC00010000020540000203C010020FEE7FEE737
:102ED0000A68D062C860106840F001001060704756
:102EE000214601F0A4B8002084F8900210BDA0F89B
:102EF0004010002070472069716821F0FE4141EACE
:102F0000006070607047326842F48012326070472F
:102F10004FF47A70FDF70CBC4FF47A70FDF708BCE3
:102F2000002084F824007047204601F051B8C0F812
:102F30009412002101F049BA21463F22681CFDF796
:102F4000DBB922462846FDF7B3BF012084F8900282
:102F50002068704730F8113040F60F74234002F5B6
:102F60008044234320F811307047411B032002297D
:102F70007047F36F23F040631343B2F1006FF367C0
:102F80007047012084F8240094F825000128704738
:102F9000012084F8480084F83E0084F83F0084F85B
:102FA000400084F8410084F8420084F8430084F82B
:102FB000440084F8450084F8460084F8470084F80B
:102FC0003D00002010BD204601F029B8C0F8941241
:102FD000002101F052B90020002500F0F1BBB0F84B
:102FE000501094F85021014401EBC2017047086869
:102FF00040F00100086000207047B0F8401041F038
:103000000401A0F840107047486CB1F1804F40F4C3
:10301000004048647047B0F8401041F00801A0F843
:10302000401070474FEAB000032870472846FDF76C
:1030300077BE30F8212043F60F731A4048F2A00300
:1030400003F5FF535A4020F821207047515C01F0EE
:103050001F01C8407047016841F48041016070471A
:10306000D4F8B8022946826820467047204650F8B6
:10307000681F50F8042C914201467047012084F8E3
:10308000480084F83E0084F83F0084F8440084F847
:10309000450084F83D0000207047486C40F4004033
:1030A00048647047D1E90123C9681A4342EA012103
:1030B000826822F47F421143816081687047002258
:1030C000FDF77EBF044690F89002012870476869BA
:1030D0002A690023C119286A6961904270473060EB
:1030E000FDF7ECBE0168012262F34A213222016041
:1030F0007047044608780D4610F06000704720467F
:1031000050F8501F826891420146704708444FEAC8
:10311000B02006287047002084F83C002046704705
:10312000022084F83F0070474DF808ED2046FFF775
:1031300041FC20465DF808EBFFF7DCBCB0420262C0
:103140008C68D1F800C04568704730F8212040F6FF
:103150003F731A4048F2A0035A4020F821207047DC
:10316000B4F850202B78224402EBC302704720466B
:1031700000F016BF022084F843007047022084F854
:1031800041007047022084F842007047022084F812
:1031900040007047B1F1FF3F00EB800104EBC1013B
:1031A0007047204669692A8901F0D9BE94F89C02CB
:1031B00001380228704702400020062A704705FAAD
:1031C00000F010F0650F704790F83C200446022094
:1031D000012A7047044690F83D000028704730F8F7
:1031E000212048F2A00320332A401A4320F821204E
:1031F0007047022084F83E0070472046FFF7FABA75
:10320000002184F83C10012184F83D1070472068AB
:10321000B0F844107047012180F83D10002070473D
:103220004B68CA68194600F0EBBC206801220125F2
:1032300000F08ABB044690F83C0001287047B0F8C3
:103240005010084498F8001000EBC10000217047AE
:10325000B0F85010084498F8001000EBC100704717
:103260000220211D84F83D00206800F00BBB000007
:10327000F8B5002800F02882044600781138162896
:1032800000F22282DFE810F0170020023500200251
:103290003E0088009000A400AB0020022002200223
:1032A00020022002BA00B600C700E600F8000301C1
:1032B000200047015101DFF83054FFF73DFEA88898
:1032C000BDE8F84000F07CBADFF80C54FFF734FE9C
:1032D000688ADFF878442086A88A6086287A697E22
:1032E0000128A17440F04C8100202872E868206613
:1032F00048E1DFF8F053FFF71FFEA888BDE8F8406B
:1033000000F062BADFF8F843152000256070CC4861
:10331000E570016842688368C668076904F128009F
:103320004EC0C8488642C84818BF2F468342C74887
:10333000C74B18BF2F4641405A40844604F118003D
:10334000114318BF2F466761C2490A684B688E68EF
:10335000CF680969CCC0C0488742C04818BF294619
:10336000864282EA0C00BE4A18BF29465A401043E2
:1033700018BF29462161FDF7A5FD6060FDF7A8FD96
:10338000A060FDF7ABFDE060F0482570016D806E38
:10339000C4E90E1020464AE1D84DFFF7CDFDD5E92E
:1033A000010102F03FFC41E1D34DFFF7C5FDEA7892
:1033B0000AB1392A03D3382A28BF3822EA7068684C
:1033C000810703D105F1080102F051FCCA482EE142
:1033D000C84DFFF7B1FD4FF4C050288026E1C34827
:1033E00021463F220130FCF787FFFFF775FCC048FC
:1033F00042210160BDE8F840FDF718BEB44DFFF76B
:103400009BFDD248016D6960018C2981C18B698166
:10341000007A28730AE1BB4DFFF78EFDA8884FF0B4
:10342000FF31192211FA80F180B291FBF2F34000D2
:1034300003FB1211A0EB4100B349084400210238FC
:10344000192900F0998005EB4102D28820F811205B
:103450000131F5E7AF4D95F82A0595F82B1588420F
:1034600003D26078012840F0FD800120607095F85B
:103470002A05A07062B608E1B54DFFF75DFD287E14
:10348000002800F0D880BDE8F84000F051B9944D14
:10349000FFF752FDE87D95F82F10AC4C0128217400
:1034A00003D10020E875E868E06495F8290095F8F4
:1034B000271095F828206272A17201F0D1FE95F8CC
:1034C0002610202295F8250000294FF0400108BF62
:1034D0004022A28608BF20210128E18605D10020D4
:1034E000206585F82500E860E064A87D95F8241043
:1034F0000128E1846ED1288A7849C880688A88804A
:1035000095F82200608495F82300A084D5E9010194
:1035100002F056F865E06F4DFFF70EFDA86800F069
:103520002BF9A88800F050F980E0784DFFF704FDF2
:10353000A9884FF0FF30192310FA81F292FBF3F4BF
:1035400004FB03F0C6087C2E18D889B204FB1322B2
:103550004900A1EB42016E4A114400220239182AA7
:103560000CD88318DB087C2B08D805EB4203DB88DA
:1035700021F812300132F2E7624858E0634856E021
:10358000206EE860E87E012804D10020A066E8767D
:10359000E860206651488178AA7DEB7D287E561E22
:1035A000B6FA86F67609013AE67418BF012222754A
:1035B0005A1EB2FA82F252096275A976591E18BFD4
:1035C0000121A17502F0B8FA2520A5F80100A06E2E
:1035D00068602BE002F0DEF8288A4049C880688ADB
:1035E000888095F82E0001F0C5FFA88D6085688D54
:1035F000A08595F8281095F827004A1EB2FA82F2A5
:1036000052090139227318BF01216173411EB1FAB9
:1036100081F149090138A17318BF0120E07324200A
:10362000A5F80100206DA861208CA8832846BDE87C
:10363000F84000F073B845480121817644E000BFAE
:10364000E8FF000801FFEEDDCCBBAA9900001043A3
:1036500088776F5EEC7F000878695A4B3C2D1E0F0F
:10366000F0DEBC9A95F8290595F82B052C212C2223
:1036700095F8290510FB015104F11300FCF7EEFF4A
:103680000020607095F82A05A070E07B012803D126
:10369000D4F80700FDF710F91F4810492B4A90F89D
:1036A0004600C0F10A00E073B4F80B008880B4F85B
:1036B0000D105085108CA4F80B002548C180116FA7
:1036C000C4F80310007E00B1F8BD601EAFE700BF74
:1036D000A80A0020E8090020680A0020080000204D
:1036E000280A00206809002028090020340300204F
:1036F0000025004074030020B4030020B402002021
:10370000F4020020241D0020B8120020E41C002038
:10371000E80A0020F40300206C0200200146024861
:10372000402200F096BB00BF641D002070470000DF
:1037300070B50446FFF74FFC044EF575B57602F000
:1037400029F8012030700248047670BDF001002095
:10375000A809002004480549054A0068098812881C
:103760001143084080B27047100400482402002032
:10377000260200207047000010B50446FEF750FCFA
:103780000E494FF6FF720968C1F380218840642119
:10379000B0FBF1F0B0FBF4F1914238BF0A46511E84
:1037A000A042314838BF00210123026891626321A1
:1037B000D1625361C1600020506210BD0810024008
:1037C0002949096848637047274909688863704731
:1037D000FDF78ABBB0B594B000240020CDE90A44BF
:1037E000CDE90844FEF7C8F92A21022003251091EB
:1037F00001211390CDE911000E95CDE90C104FF485
:1038000080300F9107902120069006A8FEF74AFC11
:1038100018B1EFF3108072B6FEE70F20CDE9044433
:10382000CDE902540421019001A8FEF703FB18B171
:10383000EFF3108072B6FEE714B0B0BD0248016825
:1038400041F470010160704788ED00E00348FEF725
:10385000D2BF00BF0148FEF7CEBF00BF70230020DB
:103860000148FEF7C8BF00BFBC2300200148FEF797
:10387000C2BF00BF082400200148FEF7BCBF00BF44
:103880005424002070B5AF4A0368904225D0B0F1AF
:10389000804F08D0264CA04205D0264CA04202D032
:1038A000254CA04203D14C6823F070032343B0F1B0
:1038B000804F16D01E4CA04213D01F4CA04210D0F7
:1038C0001C4CA0420DD01D4CA0420AD01C4CA04262
:1038D00007D01C4CA04204D007E04C6823F07003D2
:1038E0002343CC6823F4407323434E6923F08003C1
:1038F0000C688D68334390420360C56284620BD0CC
:10390000914A02444FEAB222052A07D8012303FA5A
:1039100002F212F0390F01D00969016301214161FE
:103920000169C90703D0016921F00101016170BD7E
:103930000004004000340140000800400040014005
:10394000004801400044014010B501F01F0101236F
:10395000046A8B4002FA01F124EA03030362026A5B
:103960001143016210BD0000F0B5026A036A764E91
:1039700023F0010322F0020203628B68D1F800C039
:103980004568D0F818E013436E4A904209D0871971
:103990004FEAB727052F0FD80124BC4014F0390F88
:1039A0000AD0CC6823F00C0324F004042343904293
:1039B00009D082194FEAB227052F0AD80122BA404E
:1039C00012F0390F05D025F44072D1E905452243A4
:1039D00015433E4A456002EA0E0242EA0C02826149
:1039E000496841630362F0BDF0B5036A026A554E4F
:1039F00022F0100223F02003FFF7A0FB43EA041398
:103A0000846903D006F50067B84209D1CF686FF02A
:103A1000400223F0C00302EA07121343B0420AD067
:103A2000494A02444FEAB226052E0BD80122B24081
:103A300012F0390F06D025F44062D1E9055635431E
:103A400042EA8505414A4560224042EA0C228261F1
:103A5000496881630362F0BDF0B5036A026A394EBA
:103A600022F4807223F40073FFF768FB43EA042317
:103A7000C46903D006F50067B8420AD1CF6840F2A6
:103A8000FF4223F440633F0227EA02021343B0429D
:103A90000AD02D4A02444FEAB226052E0BD8012245
:103AA000B24012F0390F06D025F44052D1E9055644
:103AB000354342EA0515054A4560224042EA0C02B8
:103AC000C2614968C1630362F0BD00BF8CFFFEFFA5
:103AD000F0B5036A026A1B4E22F4805223F40053AD
:103AE000FFF72CFB43EA0433C46903D006F50067F3
:103AF000B8420AD1CF6844F6FF7223F440433F0333
:103B000027EA02021343B0420AD00F4A02444FEAA6
:103B1000B226052E0BD80122B24012F0390F06D082
:103B200025F44042D1E90556354342EA8515074A56
:103B30004560224042EA0C22C26149680164036286
:103B4000F0BD00BF002C014000CCFEBFFF8CFFFE8B
:103B5000F0B5D0F820C0036A23F480330362264B0B
:103B600046680C6803444FEAB3278B68056D072F3E
:103B700009D80122BA4012F0E50F1EBF4A6926F4A7
:103B8000803646EA0226064A46602A4022430265FB
:103B9000496881642CF4003141EA03410162F0BDBF
:103BA0008FFFFEFFF0B5D0F820C0036A23F4801326
:103BB0000362114B46680C6803444FEAB3278B68D5
:103BC000056D072F09D80122BA4012F0E50F1EBF7C
:103BD0004A6926F4802646EA8226084A46602A4038
:103BE00042EA042202654968C1642CF4001141EAEA
:103BF00003510162F0BD00BF00D4FEBFFF8FFFFE86
:103C000010B5036A046A24F001040462846924F094
:103C1000F00444EA0212826123F00A0211430162B5
:103C200010BD10B5036A046A24F0100404628469AC
:103C300024F4704444EA0232826123F0A00242EA92
:103C40000111016210BD000010B5774C0A4602A0B8
:103C5000FFF746F9204610BD437573746F6D204819
:103C6000494420436F6E666967000000D0F8BC02CB
:103C7000002180F850100020704780B5D0F8BC12A9
:103C800041B1D0F8C0020A784978C3681046984715
:103C9000002080BD032080BDB0B58121044600F026
:103CA0000BFA002520460121A56300F005FAD4F89F
:103CB000BC02C4F8785148B1D4F8C002806880478B
:103CC000D4F8BC0200F0A0FDC4F8BC520020B0BD86
:103CD0001220088000487047F0000020B0B5D0F8EE
:103CE000BC5265B1E96C0024012909D1D0F8C002A9
:103CF0002A786978C36810469847EC6400E003248A
:103D00002046B0BD0A210180004870470401002010
:103D100029210180004870478C0000202921018062
:103D200000487047B80000202921018000487047F2
:103D30001001002070B50446542000F067FD48B320
:103D40000546C4F8BC02207C012600284FF0010083
:103D500008BF0520A4F87A0160878121032240234F
:103D6000204600F07EFA20460121032240232687C8
:103D700000F077FAD4F8C002A4F87861002685F83C
:103D8000506040688047204601212A46402300F0C9
:103D900074FA03E000200226C4F8BC02304670BD6D
:103DA00010B5214C0A4602A0FFF79AF8204610BD34
:103DB000437573746F6D2048494420496E74657271
:103DC00066616365000000000420088000487047B9
:103DD0004C01002010B5144C0A4602A0FFF780F8F1
:103DE000204610BD53544D6963726F656C656374F2
:103DF000726F6E696373000010B50B4C0A4602A027
:103E0000FFF76EF8204610BD53544D3332204375F2
:103E100073746F6D2048756D616E20696E74657284
:103E200066616365000000008C1A002080B5D0F840
:103E3000BC222AB10121402300F01FFA002080BDDE
:103E4000032080BD19B1C0F8C012002070470320C4
:103E50007047B0B5D0F8BC4284B113460A4690F81A
:103E60009C12032908D194F8505001213DB984F8DF
:103E70005010812100F0A9FA002100E0032108463A
:103E8000B0BD0000B0B51A200880094908688A68EA
:103E900080180BD0074D4C680822A91CFEF7D8FEED
:103EA00005F1120120460422FEF7D2FE0148B0BD02
:103EB0009075FF1F50010020BCB5D0F8BC32002225
:103EC000ADF80620002B00F05C800A7812F060024A
:103ED0000FD0202A53D14A78023A092A4FD8DFE876
:103EE00002F0051C4E4E4E4E4E1F333703F1440177
:103EF00038E04C780B2C42D80022DFE804F006436F
:103F000040404040184040402D3890F89C22032A01
:103F100035D10DF10601022225E003F1400121E037
:103F20000122DA64CA88194600F05DF81DE0CA78FB
:103F3000212A29D0222A2DD1CA88222A28BF22222A
:103F4000D0F8C01209680EE0C8780022586419E061
:103F500088780022186415E090F89C22032A0ED17C
:103F600003F14801012200F050F800220AE090F825
:103F70009C22032A03D188780022986402E000F092
:103F800027F803221046BCBDCA880449092A28BF65
:103F90000922E8E700220021E5E700BFE400002055
:103FA00080B5D0F8B8220AB152689047002080BD91
:103FB00080B513460A46002100F05FF9002080BD5D
:103FC00080B513460A46002100F0FFF9002080BDAD
:103FD00010B58021044600F0DDF920460021BDE83F
:103FE000104000F0D7B980B513460A460321C0E956
:103FF0005633FEF7EBFF002080BD80B5052100227F
:104000000023FEF7E3FF002080BD80B513460A467B
:104010000221C0E90633FEF78AFF002080BD80B58B
:10402000042100220023FEF782FF002080BDB0B5EE
:10403000C8B100230446257815B101340133FAE7ED
:10404000DCB2022303EB4404148003220C704A7098
:10405000002204783CB1DDB2023301304C5545F00A
:1040600001040A55F5E7B0BD044AC100032822FA4D
:1040700001F188BF0321C8B2704700BF00030103EC
:1040800078B10023C0F8CC32C0F8C032C0F8B832E2
:1040900009B1C0F8B4120121027080F89C1200F03E
:1040A00099B80320704780B5D0F8C402FDF720F816
:1040B000BDE88040FFF7D8BF80B5D0F8C402FCF758
:1040C000F9FFBDE88040FFF7CFBFB0B5044669B146
:1040D00094F89C02032848D1D4F8B8024269002A17
:1040E00043D02046904700283FD0B0BDD4F894027A
:1040F000022833D1D4E9070188420DD9431A114669
:1041000020461A46E361FFF75BFF204600210022AC
:10411000002300F0B2F821E00FD1A16981420CD355
:10412000D4F89802814208D22046002100220025BE
:10413000FFF746FFC4F89852E7E794F89C0203287B
:1041400005D1D4F8B802C16809B120468847204695
:10415000802100F01FF92046FFF74FFF94F8A002DE
:10416000012804BF002084F8A0020020B0BD10B5D3
:10417000044659B194F89C02032828D1D4F8B80217
:10418000826922B32046904708B310BDD4F8940248
:1041900003281CD1D4E9570398420BD9C01A114601
:1041A000C4F85C01984238BF034620461A46FFF720
:1041B000FFFE0CE094F89C02032805D1D4F8B80265
:1041C000016909B1204688472046FFF728FF0020F3
:1041D00010BD0000B0B504461648002181600221E0
:1041E000C4F8C402C0F8D842C1714FF40271818092
:1041F00011490160FDF7F0FB08B1FCF7FFF9D4F8B5
:10420000C4020E4D002100221823A847D4F8C4028E
:10421000802100225823A847D4F8C402812100221B
:104220009823A847D4F8C40201210022D823A84724
:104230000020B0BD94200020005C00405D1000080C
:1042400001F07F02D0F8C40249B202EB82020029D9
:1042500000EBC20000F5A97248BF00F1120210780D
:10426000704710B51446D0F8C4021A462346FCF72E
:1042700068FFBDE81040FFF7F7BE80B5D0F8C40274
:10428000FCF787FFBDE88040FFF7EEBEF8B50446B7
:10429000012084F89C020020C4F8A4026060C4F8E5
:1042A0009402D4F8B802E8B1D4F8BC1221B1426843
:1042B00012B12046002190472046002100224023D1
:1042C00000254026FFF7CDFF012720468021002250
:1042D0004023C4F86061A4F86471FFF7C2FFA784AB
:1042E000266200E003252846F8BD90F89C120429B8
:1042F00004BF90F89D1280F89C120020704780B592
:10430000D0F8B81241B190F89C22032A02D1C969B1
:1043100001B18847002080BD032080BD01740020CA
:10432000704780B5D0F8C402FDF7F2FBBDE88040CD
:10433000FFF79ABEB0B500F2AA250446284600F061
:104340004DF80120C4F89402B4F8B002C4F8980201
:1043500094F8AA0200F01F01022908D001290CD00C
:1043600089B920462946BDE8B04000F05FB8204634
:104370002946BDE8B04000F0A1B920462946BDE875
:10438000B04000F025BA00F080012046BDE8B04002
:10439000AFF3008080B5D0F8C402FCF710FFBDE891
:1043A0008040FFF761BE80B5D0F8C402FDF7C4FBC2
:1043B000BDE88040FFF758BE90F89C1280F89D122F
:1043C000042180F89C120020704780B5D0F8C40208
:1043D000FCF723FFBDE88040FFF746BE0A78027075
:1043E0004A7842704A8842808A888280C988C1801F
:1043F00070471CB504460020ADF8060051B1C4F862
:10440000B812C96A21B10DF106008847C4F8CC0280
:1044100000201CBD03201CBDD0F8B8220AB11268D0
:10442000104703207047FFF7BEBF0000BCB5FEF782
:1044300060FE0AD0402802D0202840F03081FEF7EC
:104440000FFE02B0BDE8B04010476878092800F2BE
:104450002681DFE810F00A001E0024012C00240150
:1044600034005300240169007B00FEF79FFE00F238
:104470001681E888022840F01281D4F8A4020322B1
:104480002146002808BF012241F80C2F20460222B5
:1044900002E1FEF78BFE00F2028168880025012808
:1044A00040F00081C4F8A452FEF78DFDFAE0688860
:1044B000012840F0F6800120C4F8A402F4E0A888A6
:1044C000002840F0EC80E888002840F0E880688808
:1044D0007F2800F2E48094F89C12032900F0DF802A
:1044E000C5B284F89E0220462946FFF71AFFFEF760
:1044F0006AFD002D00F0DB800220D9E000204FF0A3
:10450000FF31ADF80600688801EB1021062900F2A2
:10451000C680DFE801F0044047C4C4545E00D4F80C
:10452000B412207C0A68A8E0E888012840F0B7802F
:1045300094F89C02411E022926D2002521462046DD
:10454000012241F8085FFFF760FDABE068885A4D33
:1045500010F0FE0F287003D0FEF7E6FC0325A1E063
:10456000C1B294F89C0203283FD0022855D10029FB
:1045700000F09A8020466160FFF74EFF002863D06C
:104580000546FEF7D1FC8DE0032840F08880211D10
:104590002046012280E0217CD4F8B802002942D0D4
:1045A000C16A41E0C0B2052800F27980DFE800F07E
:1045B000035054585C60D4F8B40242685BE0207C3D
:1045C00000286CD1D4F8B802416B0DF10600884781
:1045D00056E0207C002862D1D4F8B802016B0DF1BE
:1045E000060088470146072023E021B3606888421F
:1045F0005AD0C1B2FEF7BBFD297820466160FFF7B3
:104600000BFF002850D00546FEF78EFC2179FEF7FF
:10461000AEFD022084F89C0244E0FEF785FC297878
:10462000FEF7A5FD9AE7816A0DF10600884701466D
:104630000220487025E0022061600021002584F8F6
:104640009C02FEF794FD2FE7FEF7BDFC03202FE050
:10465000D4F8B40282680EE0D4F8B402C2680AE06A
:10466000D4F8B402026906E0D4F8B402426902E068
:10467000D4F8B402826992B1207C0DF10601904712
:104680000146EA8882B1BDF8060040B1904238BFC9
:104690000246ADF806202046FFF7B7FC01E0FEF722
:1046A00043FC00252846BCBDFEF78DFCF9E7012040
:1046B00084F89C02F5E700BF881A0020B0B5FEF729
:1046C00018FD08D0402801D020285CD1FEF7C8FC96
:1046D000BDE8B04010476878297968B1012824D036
:1046E000032850D194F89C02032822D1688800281E
:1046F00058D0FEF768FC48E094F89C02032824D0C8
:10470000022840D148063ED111F080004FF014013C
:1047100008BF4FF4AA710022625004F1140100286E
:10472000204608BF04F5AA714EE094F89C020328C5
:104730002DD0022827D1480625D02046FFF72AFE93
:1047400020468021FFF726FE1FE001F00F008029A0
:1047500000EB800004EB80002CBF808CB0F864017B
:1047600088B101F07F00802900EB800004EB80001D
:1047700000F1140538BF00F5AA7541F080008028CB
:1047800019D100201DE0FEF7CFFB0020B0BD6888E6
:104790000028FAD1480602D02046FFF784FCFEF735
:1047A00012FC93E74806A4D0E8880028A1D120464F
:1047B000FFF7F0FD9DE72046FFF742FD002818BFF8
:1047C00001202860204629460222FFF71EFCDCE774
:1047D000B0B5FEF78EFC18BF40280FD1FEF7E6FCFF
:1047E0000ED8A88810F0FE0F0AD1FEF739FC9047CA
:1047F000E98841B938B9FEF7E6FB03E02028EDD09F
:10480000FEF792FB0020B0BD7047000000487047E3
:104810008C1C00202DE9F0410D78CE78804647F2BF
:10482000706400EB850330F82500032E20EA0404B1
:1048300007D80020DFE806F002070D0A44F40074F0
:1048400006E0012005E044F4806401E044F4C06423
:104850000020984F40F60F7248F2800C3C431C80B9
:104860001C8822402A433A431A800A7B002A47D0F8
:1048700048F28002022E40F60F6708BF02F58072F0
:104880001C883C4022431A8008EBC502B8F850400F
:104890000F89144427F00107A4F80074B8F85040B9
:1048A00022444C8924F00104A2F804441A8802F43A
:1048B00080444A78002A46D03CB1198840F60F72ED
:1048C00011400CF58042114319801988490607D51B
:1048D000198840F60F7211400CF140021143198003
:1048E000198840F63F7211400CF120024A40012E17
:1048F00008BF41EA0C021A80198843F60F72A5E03E
:10490000B8F850E0CA88EC0022F001074A78002A83
:1049100043D008EB04017144A1F8007419884906DA
:1049200007D5198840F60F7211400CF1400211436F
:104930001980198840F63F721140012E00F08780DF
:104940000CF12002B1E03CB11A8840F60F7422400D
:104950000CF5804422431A801A88ED00520607D5D0
:104960001A8840F60F7422400CF1400422431A804A
:104970004544B8F8507005F20246F25B6FF39F228F
:10498000F253096921B33E2924D801F00104BA5B2E
:1049900004EB510442EA842429E008EB040202EB10
:1049A0000E0402F20646A4F80474B8F85070F25BE4
:1049B0006FF39F22F253096900294BD03E294BD84F
:1049C00001F00104BA5B04EB510142EA812150E09D
:1049D000BA5B0AE0CC064FF0FF324FEA511408BF31
:1049E00002EB5114BA5B42EA8422334C1443BC53A9
:1049F00005F20645B8F85020AC5A6FF39F24AC522C
:104A000049B13E2909D801F00106545B06EB51017A
:104A100044EA81210EE0515B0AE0CE064FF0FF34FC
:104A20004FEA511608BF04EB5116515B41EA86214B
:104A3000214C2143515343F60F72198811400CF554
:104A40004052514040F63F7219801988114041EAA6
:104A50000C012BE0B95B0AE0CC064FF0FF324FEAC5
:104A6000511408BF02EB5114B95B41EA8421124A88
:104A70001143B9531988490407D5198840F60F72B4
:104A800011400CF5804211431980002D1FBF198879
:104A900043F60F7211400CF5005201BFB8F8001038
:104AA00043F60F7211400CF5405251401980BDE899
:104AB000F08100BF8080FFFF0080FFFFF0B50A7823
:104AC0000D7B4C78510030F8223048F2800225B33B
:104AD00003F480434CB30BB1FEF73CFA30F81130CD
:104AE00002F5804540F63F745B0643F60F7309D527
:104AF00030F8116040F60F773E4002F140073E4328
:104B000020F8116030F8116040F60F773E403543D1
:104B100020F8115048F280051DE0A4B15B0640F674
:104B20003F731ED502F1400513E00BB1FEF712FAF8
:104B300030F8113002F1400543F60F745B0640F681
:104B40003F73D5D4DEE75B0443F60F7309D502F556
:104B5000804540F60F7430F8116034402C4320F843
:104B6000114030F8114023401A4320F81120002052
:104B7000F0BDB0F8581041F40041A0F858100020E2
:104B800070470121A0F840100021A0F84010A0F8C3
:104B90004410A0F8501000207047B0F8401044F2C4
:104BA0007F021140FEF7A3B9B0B50A784C7830F80F
:104BB000223052009CB15B0648F2A00309D530F8C0
:104BC000124040F60F752C4003F120052C4320F8CD
:104BD0001240C978012918D040F63F710FE05904FE
:104BE0004BF2800309D530F8121040F60F742140C3
:104BF00003F58054214320F8121043F60F7130F86A
:104C000012402140594020F812100020B0BD000091
:104C100010B50A784978094B002940F63F7108BF62
:104C200003F57F6308BF43F60F7130F8224021403F
:104C3000594020F82210002010BD00BF9080FFFFD7
:104C40002DE9F041044648780D46012858D1AF6956
:104C50002A69974228BF1746287B002867D0E97841
:104C6000286A022940F08C80297840F60F6634F8D3
:104C700021301E404B00904240F29F80A14AC01B51
:104C8000C90048F280082144324342F4807224F87B
:104C90001320286234F813004006B4F8500008448A
:104CA00000F1AA80A0F80274BBB2FEF77AFAFEF710
:104CB0000EFA88BFC31B2B6288BF38466A78012A68
:104CC00000F0D780002A40F0F880B4F850202B780C
:104CD0000028224402F2064232F833606FF39F2626
:104CE00022F8336000F0CF803E2800F2D68000F03A
:104CF000010732F8336007EB500746EA8726DAE00F
:104D0000287B18B3E87801284CD0022852D1E869F2
:104D1000002849D0297848F2800034F8213003F087
:104D200040025B0400F19480002A3ED192E0EA88C0
:104D30006969BBB2204600F012F9B4F85000297836
:104D4000204400EBC100A0F8027450E0A96948F2C9
:104D5000800019B9EA78002A00F0888048F28002C1
:104D60002B7840F60F6734F823603E40324324F836
:104D700023202A6991428CBF891A0021A96114E07D
:104D8000C01B2862287834F8201049064FEAC00179
:104D9000B4F850002144084421D4A0F80274696991
:104DA0002A8920E00020A861564800F5405043F6CB
:104DB0000F719DE00120BDE8F081524F04EBC1016D
:104DC00046EA070224F8132083B2B4F850201144B5
:104DD000A1F80204FEF7E5F907F1300086E0A0F83B
:104DE000067469696A89BBB2204600F0B8F8454884
:104DF00040F63F7130307BE0A0F80674BBB220462D
:104E000069696A8900F0ABF8FEF761F988BFC31BD6
:104E10002B6288BF38466A78012A2FD0002A5ED1DB
:104E2000B4F850202B78224402F2024232F8337058
:104E30006FF39F2722F8337040B33E283FD800F02D
:104E4000010732F833C007EB50074CEA872721E00F
:104E5000002AAAD0490040F60F7334F811201A40F6
:104E600000F140031A4324F811209EE700F58072F8
:104E700076E7FEF775F9A2F806041EE0FEF770F972
:104E8000A2F802042BE032F8336012E032F83370FB
:104E900047F4004722F8337021E0C7064FF0FF3691
:104EA0004FEA501708BF06EB501732F8336046EA56
:104EB000872646F4004622F833606A8910E0C70668
:104EC0004FF0FF3C4FEA501708BF0CEB501732F879
:104ED000336046EA872646F4004622F833602A8982
:104EE00083B2204600F03BF808F1300040F63F71F5
:104EF0002A7834F822301940484024F82200002053
:104F0000BDE8F0818080FFFF0021A0F844104BF63F
:104F10008071FDF7ECBF00000148FCF795B900BFB8
:104F200094200020B0F84400704710B5104400F5FC
:104F30008062481C590831B132F8024B013920F81F
:104F4000014C0230F7E7D9071CBF118800F8011C9B
:104F500010BD11B98021A0F84C10002070471044FA
:104F60005A1C00F5806052082AB131F8023B013A20
:104F700020F8023BF8E77047FEE7000010B5AB4CA5
:104F8000606DE16C626D891A022291FBF2F10844B6
:104F9000A065E06C216D884209DA4FF0FF3000F027
:104FA000B3FAFEF7ACF8D4BF043904300BE0E06C80
:104FB000216D88420BDD012000F0A6FAFEF79FF874
:104FC000B4BF0431043800680968401A00E00020CA
:104FD000B4F92C1020EAE07088420749A4BFB4F964
:104FE0002C00013831F81000B4F92A1008440128C7
:104FF000D8BF012010BD00BFE80A0020F8B5604C02
:10500000E079032877D0FEF7A5FBE18E014018BFB9
:105010000121A28E104018BF012041EA4001E07E2C
:10502000E27E41EA800557A09142405703D0E176E5
:10503000216D0144216549F26961E940C9075AD1EE
:10504000C0B240B200F0A6F842F61400E840C00733
:105050002AD0207E40B3206DE16B0139884223D1F4
:10506000607808BB607E01306076607E03281BD3C9
:10507000714E6F4F002501202576E0752571357042
:105080007078854208D2FBF799FB217907EB810103
:10509000294401350875F3E704F16000FBF7ECFBE8
:1050A000002868D000202067E07D20B3206DE16BF0
:1050B000884203DB206D216C884230DDFDF78BFFD9
:1050C0006571A079012813D1206D216C88420FDD14
:1050D000607868B90020FEF773FB04F16000FBF70D
:1050E000CBFB002847D0206F013020670120607083
:1050F000A079FF2800D0F8BD206DE16B8842FADA74
:1051000060780128F7D1FDF766FF04F16000FBF736
:10511000B3FB80B3206F013020676570F8BD464D4A
:10512000434E444928782071207906EB8000007DA9
:10513000C988002808BF014688B2FEF741FB68789D
:10514000022807D301206071208C6978B0FBF1F050
:1051500000F074F82079002780F00100287068784A
:105160008742AED2FBF72AFB297806EB810139444E
:1051700001370875F3E70120BDE8F840FEF7D8BA1B
:10518000F001002000FF0100010000FFFF0000010E
:105190000001FF000E490A68EC494B6F4A67D21ABA
:1051A0000C4BA2FB03239A094EF660239A4205D3C7
:1051B0004FF6FF7000220884012006E00A840122D5
:1051C0000128B8BF4FF0FF3200208A71487770473E
:1051D000041000E0F13B5D60B0B5DC4C206DE16B8C
:1051E000884203DB206D216C884204DDFDF7F3FE6D
:1051F00001206571B0BD20790D4901EB8000617916
:1052000008440C49007DC988002808BF014688B2BF
:10521000FEF7D6FA6079013060710748617942780B
:105220000020914228BF0120B0BD00BFF001002046
:105230006C020020A8090020080000200749C8626D
:10524000086920F001000861C86840F00100C860EA
:10525000086840F001000860704700BF000400408B
:105260002DE9F0479EB0DFF89082044698F80000E0
:10527000A04200F0F9807E48D04D002C016841F436
:1052800000610160016821F40061016057D0C168CC
:105290000026012741F00201C160C16801F002014E
:1052A00001910199016A41F400610162006A00F410
:1052B000006001900198CDE91B661A971D964FF486
:1052C0000040199019A9FDF7B1FE28464FF400419E
:1052D0000122FBF7EDFD6748032C3CD181460220FB
:1052E000CDE91A761C904FF4C040199019A9FDF72A
:1052F0009DFE28464FF400510022FBF7D9FD2846B9
:105300004FF480410022FBF7D3FD5B4D42F2107059
:10531000A721C5E90091C5E9026028460821C5E931
:105320000466AE61FDF747FB19200121FDF7C7FEBA
:105330001920FBF733FE2846FDF798F992E0002488
:105340004FF460400190CDE90444CDE9024401A945
:10535000FDF76CFE86E0022782464FF006094FF407
:1053600000501990CDF874901C97CDE91A7619A9C0
:10537000FDF75CFE4FF48040022C199003D1CDF86C
:1053800074901A9704E000201C971B9001201A903B
:1053900019A9FDF74BFE0027374D42F29860102106
:1053A000D146012C08BF41F24C3008BF2121C5E98C
:1053B00002702846C5E900A1C5E90477AF61FDF791
:1053C00018F94FF480501897CDE91677159015A964
:1053D0002846FDF79DF92846FDF763FB602018215C
:1053E0000E900EAE301DFAF7CCFF28463146002253
:1053F000FDF7FCFA284631460422FDF7F7FA01AE24
:1054000030213046FAF7BDFF4FF4005031460D977A
:1054100006902846FDF75CF819200221FDF74FFEA3
:105420001920FBF7BBFD2846FDF720F9284600218F
:10543000FDF762FBDAF84400022C40F40040CAF8A1
:105440004400DAF8200040F00400CAF8200009D136
:1054500009480421FDF750FBD9F8200040F0400036
:10546000C9F8200088F800401EB0BDE8F08700BFF2
:1054700040100240002C01407023002070B541F222
:1054800088341D4E1D4DA042B8BF044619488442C1
:10549000D8BF0446307801281BD1002C204600D507
:1054A0006042174A41F288311278002A18BF081A60
:1054B00028604FF4804113480022B4F1FF3FC8BF79
:1054C0000122007800283D4808BFE20FFBF7F0FCFE
:1054D000307802280DD10A480078002841F288303F
:1054E0001DBF011B29602044211804BF2960001B37
:1054F000686070BD78ECFFFFF7010020342C01409C
:10550000FA010020F9010020B0B5AC4D0446E87A5C
:1055100001280CD10020E872A87B00F03DF8286D2E
:105520002044286560B2BDE8B04000F06DB80120AD
:10553000E8720D20012C08BF0C20285C00F008F850
:10554000E87BBDE8B04000F027B800BFF0010020C4
:10555000B0B51A4D044600284FF4804118BF01240D
:10556000FDF7EFFC28464FF480612246BDE8B040CD
:10557000FBF79EBCB0B5114D044600284FF4004126
:1055800018BF0124FDF7DDFC28464FF48051224668
:10559000BDE8B040FBF78CBCB0B5084D0446002810
:1055A0004FF4005118BF0124FDF7CBFC284604211D
:1055B0002246BDE8B040FBF77BBC00BF00040048BA
:1055C000F0B57E4AD37803B1F0BD002301245374B3
:1055D000D4709370146D156D166D176D8E423E4626
:1055E000CCBF0E460F46BE1B471B8442C8BF2F1AB6
:1055F000B742B8BF01464FF00000D164A8BF0120F8
:1056000010729363F0BD00BF2DE9F0410446FFF72F
:10561000C1FD012C2FDB694D287E60B3286DE96B3D
:105620000139884227D1687828BB687E01306876C6
:10563000687E03281FD3DFF8BC85544F0026012065
:105640002E76E8752E7188F8006098F80100864281
:1056500008D2FBF7B3F8297907EB81013144013611
:105660000875F2E705F16000FBF706F9002800F085
:10567000888000202867DFF8788598F81700D8B16F
:10568000D8F85000D8F83C10884205DBD8F8500014
:10569000D8F84010884231DDFDF79DFC88F80550B0
:1056A000012C0BDBD8F85000D8F84010884203DDFD
:1056B00098F80100002852D0BDE8F081B4F1FF3F16
:1056C000FADCD8F85000D8F83C108842F4DA98F8A0
:1056D00001000128F0D100200024FEF771F808F144
:1056E0006000FBF7C9F800284BD0D8F870000130F3
:1056F000C8F8700088F80140BDE8F081D14ED04F65
:105700002349307888F8040098F8040007EB8000FB
:10571000007DC988002808BF014688B2FEF750F80E
:105720007078022809D3012088F80500B8F828000D
:105730007178B0FBF1F0FFF781FD98F804000025C7
:1057400080F00100307070788542A9D2FBF736F8FE
:10575000317807EB8101294401350875F3E7002012
:10576000FEF72EF808F16000FBF786F848B1D8F88C
:1057700070000130C8F87000012088F80100BDE811
:10578000F0810120BDE8F041FDF7D2BF6C0200209E
:10579000A8090020E348817801B170470121817098
:1057A00000214174C279032AF7D0C170C18381639B
:1057B0000172A249C968C164704700BFF0010020AE
:1057C00070B5D84CE079032811D1206D616D884205
:1057D00003D0206DE16C884201D1206D6065207C92
:1057E00001281FD1206DB4F92C10084421E0E07885
:1057F000012848D1208C28B1218C4FF6FF708142BE
:1058000040F0A680002060648C488168226D8A4246
:105810005EDA4068216D814261DC207A00285ED02A
:10582000002059E0207C022804D1206DB4F92C100E
:10583000401AE064A07860B1206DE16C884208D124
:105840000020E070607C20B97C48C068E0640120E2
:105850006074E07850B17949D1E90101226D82424A
:10586000D8BFE164226D8A42A8BFE064E06C216D7C
:1058700088420CBF0120FFF781FB2085208DBDE809
:10588000704000F0E3B86D49487D01285ED1207C6E
:10589000012803D0207C022840F09680207C6FF005
:1058A0000101012808BF0221206D0844E064208C1A
:1058B000002865D0218C4FF6FF70814260D0218C8A
:1058C000B0FBF1F147F6FF70814238BF084658E05F
:1058D000207A012803D0012020720020A063C5484F
:1058E000217A8288002918BF5242A267A16F626C98
:1058F000891AA164A16C628C4A4351490A60A26C66
:10590000A36B1A44A26342F21072A36B934203DCAE
:10591000A36B4D4A934200DAA263A26BA38C5A4355
:10592000642392FBF3F24A600A684B681A448A6067
:105930008968C288524213B29942A8BF0A46B0F998
:1059400006008142C8BF0246E28337E0002037E00C
:10595000218C3229FFF458AF218C4EF660229142FF
:105960003FF652AF218CB0FBF1F0A17901293FF451
:105970004AAFA1790022FF2908BF4242104642E700
:1059800000209C4B60641426E06C216D626C9D8845
:10599000AA42C8BF6FF013068842D8BF7642B4F956
:1059A0001E00D988494230440AB29042A8BF01463D
:1059B000B3F906209042C8BF1146E183B4F91E0036
:1059C000BDE87040FFF75ABDE06C226D904206D1F1
:1059D00000201B49E083226DC1E90320EEE7831A12
:1059E0001748256DC668226DC260E28C5A43B542E5
:1059F00013D1097D002BD8BF4942036919447D4B5F
:105A0000DD886D422EB2B142A8BF0D46B3F9063013
:105A10009942C8BF1D4629B200E0002101618818E3
:105A20007449CA88524213B29842A8BF0246B1F9DB
:105A300006108842C8BF0A4686E700BF280A002031
:105A40006C02002008000020F0D8FFFF0149FDF79C
:105A50003FBA00BF702300200249884208BFFAF70E
:105A6000D1BD70473420002010B5614CE06D216E2F
:105A7000E26D891A022291FBF2F108446066206E01
:105A8000A16E884209DA4FF0FF3000F02DF8FDF7E3
:105A9000EDFAD4BF08390C380BE0206EA16E8842B5
:105AA0000BDD012000F020F8FDF7E0FAB4BF0C395F
:105AB000083800680968401A00E00020B4F9321084
:105AC00020EAE07088420749A4BFB4F932000138E7
:105AD00031F81000B4F9301008440128D8BF012073
