:020000040800F2
:10000000B82B0020B90200085F2E0008272900083D
:100010005D2E0008AF040008C15200080000000077
:10002000000000000000000000000000A9370008E8
:10003000650500080000000075370008053A000853
:10004000D3020008D3020008D3020008D30200083C
:10005000D3020008D30200086905000889050008DA
:1000600095050008A1050008AD050008D3020008A9
:10007000D3020008D3020008D3020008D30200080C
:10008000D302000800000000D3020008D3020008D9
:1000900061520008D3020008D3020008B905000825
:1000A000D3020008D3020008D3020008D3020008DC
:1000B000813A0008D53B0008E13B0008D302000864
:1000C000D3020008D3020008D3020008D3020008BC
:1000D000D3020008D3020008D3020008D3020008AC
:1000E00075050008D3020008D3020008D3020008F7
:1000F000D3020008D3020008D30200080000000069
:1001000000000000D302000800000000D302000835
:10011000D302000800000000D3020008D302000848
:10012000D9040008D3020008D3020008D302000853
:10013000D30200080000000000000000D302000805
:10014000D3020008D30200080000000000000000F5
:10015000000000000000000000000000000000009F
:10016000000000000000000000000000D3020008B2
:10017000D3020008000000000000000000000000A2
:1001800000000000D3020008000000000000000092
:10019000000000000000000000000000000000005F
:1001A0000000000000000000D3020008D302000895
:1001B000D3020008D3020008D302000800000000A8
:1001C00000000000D3020008000000000000000052
:1001D000D3020008D302000800F002F800F05CF837
:1001E0000AA090E8000C82448344AAF10107DA4592
:1001F00001D100F051F8AFF2090EBAE80F0013F088
:10020000010F18BFFB1A43F00103184700600000FC
:10021000206000000A444FF0000C10F8013B13F07E
:10022000070408BF10F8014B1D1108BF10F8015B4F
:10023000641E05D010F8016B641E01F8016BF9D142
:1002400013F0080F1EBF10F8014BAD1C0C1B09D199
:100250006D1E58BF01F801CBFAD505E014F8016B0B
:1002600001F8016B6D1EF9D59142D6D3704700009D
:100270000023002400250026103A28BF78C1FBD8AF
:10028000520728BF30C148BF0B6070471FB505F04B
:100290008BFF1FBD10B510BD00F0CFF81146FFF762
:1002A000F5FF05F057FE00F0EDF803B4FFF7F2FF9D
:1002B00003BC00F0F5F800000948804709480047F2
:1002C000FEE7FEE7FEE7FEE7FEE7FEE7FEE7FEE706
:1002D000FEE7FEE704480549054A064B7047000063
:1002E000713A0008D9010008B8250020B82B002079
:1002F000B8270020B8270020032A40F2308010F0F1
:10030000030C00F0158011F8013BBCF1020F6244B0
:1003100098BF11F801CB00F8013B38BF11F8013B41
:10032000A2F1040298BF00F801CB38BF00F8013BEE
:1003300011F0030300F04F80083AC0F0088051F834
:10034000043B083A51F804CBA0E80810F5E7121D69
:100350005CBF51F8043B40F8043BAFF30080D20788
:1003600024BF11F8013B11F801CB48BF11F8012B54
:1003700024BF00F8013B00F801CB48BF00F8012B77
:1003800070474FF0000200B5134694469646203958
:1003900022BFA0E80C50A0E80C50B1F12001BFF43E
:1003A000F7AF090728BFA0E80C5048BF0CC05DF8A4
:1003B00004EB890028BF40F8042B08BF704748BFF2
:1003C00020F8022B11F0804F18BF00F8012B704766
:1003D00070477047704710B5203AC0F00B80B1E805
:1003E0001850A0E81850B1E81850A0E81850203A6A
:1003F000BFF4F5AF5FEA027C24BFB1E81850A0E873
:10040000185044BF18C918C0BDE810405FEA827C8C
:1004100024BF51F8043B40F8043B08BF7047D207A3
:1004200028BF31F8023B48BF11F8012B28BF20F844
:10043000023B48BF00F8012B7047754600F02CF8CE
:10044000AE4605006946534620F00700854618B0C1
:1004500020B5FFF73FFFBDE820404FF000064FF00A
:1004600000074FF000084FF0000BAC46ACE8C009A5
:10047000ACE8C009ACE8C009ACE8C00921F007014C
:100480008D46704710B50446AFF300802046BDE8A6
:100490001040FFF70ABF000000487047200300200B
:1004A00001491820ABBEFEE7260002007047FEE7B8
:1004B000002070470020704780B50648D0F8BC0285
:1004C00030B102F0C7FE034803F054FE002080BDA7
:1004D000032080BD701F0020B0B5094C2568A80717
:1004E00006D50220012160605C48017000F074F8BC
:1004F000280704D508200121606058480170B0BD6C
:10050000000402404948C17F01B1704709490968A8
:10051000826F891A084AA1FB021291094CF25132EA
:100520009142F2D30121C1774FF6FF71018500217D
:1005300081717047041000E0F13B5D60074801687D
:1005400041F080710160064800214160016841F07E
:10055000010101603549406888677047FCED00E0A3
:10056000001000E0704700001848012101600120E0
:1005700004F0E8BE1549086810F47C4008BF7047D5
:10058000086004F0DFBE00BF1048022101600220B5
:1005900004F0D8BE0D4804210160042004F0D2BE4E
:1005A0000A4808210160082004F0CCBE0748102149
:1005B0000160102004F0C6BE0449086810F4787089
:1005C00008BF7047086004F0BDBE00BF14040140BE
:1005D000EFF3108072B6FEE79B4890F82A1590F86A
:1005E0002B2591420FD290F8291590F82B25013137
:1005F000B1FBF2F303FB121180F8291590F82A15CC
:10060000013180F82A150848007E00B1704707487C
:10061000417E0029FAD1017E0029F7D101214176DE
:1006200000218176704700BFB40B0020E803002052
:1006300010B50A4B00241C70094B1C6824F00104FF
:100640001C601C68E407FCD1012443F8044C98604A
:1006500044F2CB00D9605A60186010BDB00B002086
:100660000804024043481549027F032A03D0022AA6
:1006700015D0012A1FD10B6802F0FE02022A23F4D2
:1006800000730B600B6843F400630B600B6823F48A
:1006900000630B600B6843F400730B600BD10A68B6
:1006A00042F480520A600A6822F480520A600A68A2
:1006B00042F480620A600021017770470020024006
:1006C000C007184803D0016841F0040101600168C7
:1006D00041F4803101607047F549C0B20A6822F4E4
:1006E000FC7242EAC0000860086840F0020008603E
:1006F000086840F480300860704700BF10B5EC4ACD
:10070000136843F480231360EFF31082EFF3108338
:1007100072B6402310C9013B10C01C06FAD182F307
:10072000108810BD1420024070B5114E044600F030
:1007300067FB05463068C00307D500F061FB401B2E
:10074000A04284BF032070BDF4E730684CF2FA3158
:10075000014005D0D04842680A434260012005E0CC
:100760003068C0074FF0000001D00121316070BD3A
:100770001020024000030020334800211E2280F890
:10078000281580F8291580F82A1580F82B250022D5
:10079000C0F82C15A0F83015A0F832151E2A08BF95
:1007A000704700232C2B02D0C1540133FAE72C30C0
:1007B0000132F3E710B5244890F82A1500293ED0FD
:1007C00090F82825D0F82C1511F007012BD1B0F89E
:1007D00030352C2B1AD390F82A257AB190F8282599
:1007E00090F82B350132B2FBF3F404FB132280F8AE
:1007F000282590F82A25013A80F82A250022A0F819
:10080000302590F82A25E2B190F828252C2312FBF8
:100810000302B0F83035D25CA0F83225B0F83025AC
:100820000132A0F83025B0F83225D0F82C3501334C
:10083000C0F82C3522FA01F000F0010010BD0020B4
:1008400010BD012010BD00BFF80500202648002182
:10085000002280F8501080F8511080F852100A2AB7
:1008600008BF704700EB820301329962F7E700BFCF
:100870001D4991F85220B2B191F85120531C01EB5F
:10088000820281F85130926A026091F851000A2880
:1008900024BF002081F8510091F85200013881F8FE
:1008A0005200012070470020704700BF0E4991F8A8
:1008B0005220092A84BF0020704791F85020531C11
:1008C00001EB820281F85030906291F850000A28C2
:1008D00024BF002081F8500091F85200013081F8C7
:1008E00052000120704700BF6404002010B5204969
:1008F000884218BF002801D1002136E01D4B591C49
:10090000B0F1904F04D3884202D24FF090412CE0D6
:10091000194A984201D9904227D3184C03F58063B5
:10092000611C984203D9884201D211461DE0144B44
:10093000A04201D9984218D3124A04F58064511C90
:10094000A04201D988420FD30F4B904201D998425F
:100950000BD303F580610024884228BF234602F5AB
:100960008061884298BF23461946084610BD00BFE3
:100970002C0B0020FF03004800080048FF0B004834
:1009800000100048FF1300480018004880B50948CF
:100990004FF0FF31002201610261816182610160DB
:1009A0000260416042608160826000F07BFA00205A
:1009B00080BD00BF28100240B0B5044600F020FA08
:1009C00005460548611C406818BF044400F018FA49
:1009D000401BA042FAD3B0BD000000202DE9F8432F
:1009E000DFF87891054699F80000012801D1022628
:1009F0004EE00120884689F8000002F050FA0646D1
:100A0000002842D10020564CC9F804002068216813
:100A1000490502D4C0F3402009E010F400702068BA
:100A200020F4806020604FF0030008BF022089F8A6
:100A30001C00286801280AD16868FFF741FE02F00F
:100A40002EFA0646606920F0040060611BE04FF05A
:100A5000FF30C8F80000A8680746E96808448742E4
:100A60000DD23846FFF738FE02F019FA06466069E3
:100A700020F4FD70606126B9A8680137EDE7002613
:100A800001E0C8F80070FFF7EDFD002089F80000D4
:100A90003046BDE8F88300BF000300200448016829
:100AA00041F0004101600068C043C00F704700BFC3
:100AB000142002402DE9F047DFF8A090074699F88E
:100AC0000000012801D1022645E001209846154684
:100AD0000C4689F8000002F0DEF90646C0BB002093
:100AE0001F4AC9F804001168490504D5106820F4AC
:100AF00080601060022089F81C00781E022809D24C
:100B0000204629469246FFF7F9FD022F12D16FF4D5
:100B100080240CE06FB95069924640F001005061AA
:100B20002560BFF36F8FC4F804806FF001040025C7
:100B300003E092464FF0FF34012502F0ACF906467F
:100B400025B9DAF814002040CAF81400FFF78AFD2E
:100B5000002089F800003046BDE8F087000300203F
:100B6000002002400648C168B1F1FF3FC4BF002029
:100B700070470449016004490160C068C00F7047B4
:100B80000820024023016745AB89EFCD2DE9F04FE6
:100B9000964A4FF0060A4FF000084FF00F0E4FF044
:100BA000000B904200F1384208BF4FF0050A4FEAAF
:100BB000B223052B38BF4FEAB22A002631FA06F2DB
:100BC00008BFBDE8F08F012202FA06F717EA01021A
:100BD00048D0874B08F00C0C0EFA0CF926F0030EE7
:100BE0000AFA0CF4A3F57E7555F80E3003EA0903F2
:100BF000A34218D17E4B4FEA960C1C6894431C60AC
:100C00005C6894435C607B4CA64624689443CEF8B1
:100C100000409C6824EA02029A6055F82C2022EADF
:100C2000090245F82C20032203686FF003044FF0FB
:100C30000F0E02FA0BF204EA560413430444036055
:100C400008F01C03256A0EFA03F325EA0303236266
:100C5000C3689343C3604368BB434360836823EA2C
:100C60000202826008F104080BF1020B0136A5E7CD
:100C70002DE9FC4F5D4A06244FF0000B4FF0010AAE
:100C80004FF00009904200F1384208BF05244FEAB6
:100C9000B223052B38BF4FEAB224009400220B6820
:100CA00033FA02F408BFBDE8FC8F0AFA02F813EA2F
:100CB000080700F0958003234C6803FA09F36FEAF4
:100CC000030E04F00303A3F1010CBCF1010F13D8D0
:100CD000866806EA0E0CCE6806FA09F646EA0C06A5
:100CE0008660C4F3001606FA02FC466826EA080687
:100CF00046EA0C06466003E0032B01D103231DE006
:100D0000C6688D6806EA0E0605FA09F53543022B1A
:100D1000C56013D16FF003050BF01C030F2405EA27
:100D200052059C4005442E6A26EA04040E6906FA20
:100D300003F323432B624C6804F00303056803FAB2
:100D400009F305EA0E052B4314F4403F036047D036
:100D5000294C274E22F003052368B446354443F05E
:100D60000103236023680F2403F0010301930BF0B8
:100D70000C03019E9C40214EB646AE5926EA04045F
:100D8000009E06FA03F3234345F80E30DCF80830E2
:100D90004D6843EA0704EE0258BF23EA0704154BE7
:100DA000CCF80840AE029E461B6843EA070458BFD1
:100DB00023EA0704CEF80040AE03DCF8043043EA2F
:100DC000070458BF23EA0704CCF80440ED03DCF81D
:100DD000003043EA070458BF23EA0704CCF8004078
:100DE0000BF1040B09F10209013258E70014004825
:100DF000000401400C0401406010024008FCFFFFA9
:100E00000E480068704700BF01480068704700BF87
:100E10009075FF1F01480068704700BF9475FF1F61
:100E200001480068704700BF9875FF1F1B480349C1
:100E300040680A6810440860704700BFB42500206D
:100E400080B5032000F0AAF80F2000F007F808B1E1
:100E5000012080BD00F028F8002080BD70B50F4E45
:100E600004467068B0B14FF47A71B1FBF0F00C49F0
:100E70000968B1FBF0F001F0DBFA01250F2C0AD86C
:100E800048B94FF0FF3021460022002500F060F8FD
:100E9000346000E00125284670BD00BF000000203E
:100EA000540000207047000082B00B48816841F078
:100EB00001018160816801F00101019101990168DE
:100EC00041F080510160006800F08050009000986F
:100ED00002B000F071BE00BF5810024000280BD4D1
:100EE00000F01F010122C0B202FA01F1034A42EAF6
:100EF000D00020F003000160704700BF80E200E0F6
:100F000000280FD400F01F010122C0B202FA01F143
:100F1000054A42EAD00020F003000160BFF34F8F82
:100F2000BFF36F8F704700BF80E100E000280BD453
:100F300000F01F010122C0B202FA01F1034A42EAA5
:100F4000D00020F003000160704700BF00E100E026
:100F5000F0B5184B4FF0FF361C68C4F30224E51EB1
:100F600084F0070438BF002506FA05F7BA43042CBD
:100F700028BF042406FA04F4A14300F00F04A9409A
:100F8000043C1143044A234409010244002848BF99
:100F900003F10C021170F0BD00E400E005494FF6CA
:100FA000FF030A681A4060F30A22034810430860EE
:100FB000704700BF0CED00E00000FA0504F052FF9E
:100FC0000168B1F8542042F00102A1F85420012236
:100FD000C0F8D022002280F8C822B1F8540040F0B6
:100FE0000200A1F85400002070477047B0B501F02E
:100FF000070501EB810405EB850500EBC40400EB5C
:10100000C5001030090658BF04F5A87012B10121BF
:10101000836001E0C380002101730020B0BD01EBBB
:10102000810200EBC202D0F8D802526A03F0F1B993
:1010300001EB810200EBC202D0F8D802D2F86421A1
:1010400003F039BA10B5044601F0070049B202F0C6
:101050004AF8C3BF002281F8512101F5A87101228D
:10106000DCBF4A741031087094F89002012804BF64
:10107000022010BD01F02BFF03F0C4FE01F0F6BE0C
:10108000B0B50446007901F00F02824201D9012572
:101090001DE001F0070049B202F025F8C3BF0022AD
:1010A00081F8512101F5A8710122DCBF4A74103189
:1010B0000870002594F890028D70012801D1022556
:1010C00005E001F004FF03F013FF84F89052284676
:1010D000B0BDB0B5044601F0070049B26FF3DF229E
:1010E00002F001F8C3BF002581F8515101F5A87144
:1010F0000125DCBF4D741031CB700A610870022BE2
:1011000004BF0020087194F89002012804BF022057
:10111000B0BD01F0DCFE03F021FD002084F8900258
:10112000B0BDB0B501F00701002501EB810400EB73
:10113000C404006804F5B27784F8501104F5A8716E
:1011400084F851512CC703F01FFF0020B0BD10B52B
:10115000044601F007002279904284BF012010BDAF
:101160004AB2B2F1FF3F09DD01EB8101002204EB3D
:10117000C10181F8512101F5A87106E000EB800161
:10118000012204EBC1014A74103194F890220870D6
:1011900001208870012A04BF022010BD84F890024B
:1011A000206803F0D9FE01F061BEB0B501F007047C
:1011B000002504EB840100EBC101006801F8104F29
:1011C000012401F1140781F824400B624C702CC7F4
:1011D00003F0DAFE0020B0BD2DE9F84F04460068A8
:1011E00004F044F801041CD4410500F14883410493
:1011F00000F15483810400F15683C10400F1588347
:10120000010500F17883010600F18183810500F179
:101210008C83C00540F16D8301F0A7FF21F480713C
:1012200065E304F52670009040F60F752068B0F96C
:101230004410B1F1FF3F00F35C83B0F8442012F09A
:101240000F0842D030F928104FEA480A1FFA81F9F6
:10125000B1F1FF3F00F3178130F81A1029408031B7
:1012600020F81A1008EB880104EBC10B9BF85C1105
:101270000BF5A876002900F0A3809BF853110229F2
:1012800040F0AD80B0F85010DBF868310A183178C2
:101290005FEA494702EBC1050BF5B47200F1BA8071
:1012A000B5F8067400256FF39F27DB1B38BF2B466C
:1012B000136001D801F076FE5FEA496240F60F75CF
:1012C00000F1A48001F036FFA0E00188D20625D409
:1012D000294001F500410180B0F850100844217CFC
:1012E00000EBC100616AB0F802046FF39F20E06276
:1012F0000844002160622046FFF791FE207B002811
:1013000094D0A06A002891D12068217B41F080010F
:10131000C9B2A0F84C100020207387E70A0539D421
:1013200009B2B1F1FF3F3FF781AF01882940803119
:10133000018001F016FEB1F806346FF39F23C4F864
:101340006C3193B1D4F8641179B1B4F8562103F03B
:1013500090FFD4F86401D4F86C1108440021C4F85B
:1013600064012046FFF764FE206801880A053FF506
:101370005DAF01F44051B1F5405F3FF457AF0188D4
:1013800043F60F7211404CF28002A2F58052514098
:1013900001804BE701F0E5FDB4F85621B1F80634C1
:1013A00000996FF39F23C4F86C3103F062FF20684B
:1013B0000188294080310180204600F07EFB35E71E
:1013C000B0F850103278014401EBC201B1F8067454
:1013D0006FF39F27002F3ED0BBF8562135E03278BF
:1013E00048F2A003203330F822102940194320F896
:1013F000221000EBC20130F822205204B0F8502035
:1014000011441BD4B1F806746FF39F271FB3BBF8C8
:101410005A211AE0B5F8027400256FF39F27DB1BF1
:1014200038BF2B46136001D801F0BCFD5FEA49626A
:1014300040F60F7506D501F07DFE03E0B1F80274A9
:101440006FF39F273FB1BBF85821DBF864113B468F
:1014500003F00FFF00E000270BF5B27207CA3A4411
:101460003844CBF86C21CBF8640119B1DBF860018A
:10147000B84204D931782046FFF7DAFD03E020684E
:10148000314603F081FD5FEA09607FF5CFAE206849
:1014900030F81A10294001F5004120F81A1008EB25
:1014A000880104EBC105EF7C05F11008012F00F065
:1014B000AD805FEAC95140F1C6802A4698F8001015
:1014C0005FEA496352F828BFB0F8506000EBC10AE8
:1014D00030D40AF2064E3EF806C000266FF39F2C69
:1014E000BBEB0C0338BF3346136000F2DB806A7C31
:1014F000012A50D0002A40F60F7558D1B0F850207C
:101500005244B2F802346FF39F23A2F80234B2F8C7
:10151000023443F40043A2F80234B0F850203EF8FD
:1015200002306FF39F232EF802303EF8023043F46E
:1015300000433AE00AF2024C3CF806E000266FF362
:101540009F2EBBEB0E0338BF3346136000F2D580ED
:101550006A7C012A37D0002A40F60F753FD1B0F8D7
:1015600050203CF802306FF39F232CF802303CF8F7
:10157000023043F400432CF80230B0F850205244BB
:10158000B2F806346FF39F23A2F80634B2F806349B
:1015900043F4004321E0B0F85020002340F60F75DB
:1015A0005244A2F80234B0F850202EF80230022F34
:1015B00001D101F07BFD2046FFF731FD5FEA494094
:1015C0003FF534AE16E0B0F85020002340F60F751A
:1015D0002CF80230B0F850205244A2F80634022F02
:1015E00001D101F063FD2046FFF719FD5FEA494094
:1015F0007FF51CAE98F8000021684CF2800331F8AA
:1016000020202A401A4321F820200FE60021A96259
:10161000297F002900F0A8805FEA496130D4697C05
:10162000012900F09880002940F09E8001F0BEFD65
:10163000B0F806146FF39F21A0F80614B0F8061452
:1016400041F4004189E0AB6AB0F85010002642181E
:1016500098F8001002EBC102B2F802246FF39F2247
:101660009B1A38BF3346AB6240F28080696AEB6AEE
:10167000114469629918E962414603F085FCD3E59B
:10168000697C01296CD000296ED101F08FFDB0F882
:1016900002146FF39F21A0F80214B0F8021441F471
:1016A00000415FE05FEA494209D430F8212040F66A
:1016B0000F731A404CF280031A4320F821202A4667
:1016C00012F8341F012940F0CB802F4657F8309F85
:1016D00057E904A157F8043C6144634447F80C1CE3
:1016E00047F8043CD14545D20023B9F1000F1370EF
:1016F0001ABF3B60CA46E2463FE05FEA494209D56D
:1017000030F8212040F60F731A404CF280031A4340
:1017100020F821202B4613F8341F012940F0A08027
:101720002A46664652F830BF52E904C152F8049C7A
:10173000714409EB0E0742F80C1C42F8047CE345A7
:1017400037D24FF00009BBF1000F374683F8009005
:1017500033D1F34633E001F020FDA0F8061403E096
:1017600001F01BFDA0F8021498F800102046FFF7C6
:1017700056FC59E5A9EB0A023A606A7C012A37D087
:10178000002A55D1B0F85020BAF1000F3EF80230CF
:101790006FF39F232EF8023034D0BAF13E0F36D8C3
:1017A0000AF0010632F80E3006EB5A0643EA8623A9
:1017B0003CE0ABEB0C09E3463746C2F800906A7C8C
:1017C000012A1AD0002A46D1B0F85030BBF1000FE0
:1017D000FA5A6FF39F22FA5217D0BBF13E0F2BD863
:1017E0000BF00106DA5B06EB5B0642EA862231E08B
:1017F000B0F850202EF802A01AE0B0F8502027F8D8
:1018000002B028E032F80E300EE0DA5B20E05FEA4A
:10181000CA634FF0FF364FEA5A1308BF06EB5A135C
:1018200032F80E6046EA832343F4004322F80E3078
:101830006A8B1FFA8AF311E05FEACB624FF0FF3642
:101840004FEA5B1208BF06EB5B12DE5B46EA8222C0
:1018500042F40042DA532A8B1FFA8BF303F023FD84
:1018600098F80000216840F63F7331F820201A40B4
:1018700048F2A00310335A4021F82020D4E401F0AC
:1018800074FC21F48061A0F84410204600F0E0F8D8
:1018900020460021BDE8F84F00F002B901F065FCD8
:1018A00021F4804123E001F060FC21F400511EE0AE
:1018B0002068B0F8401021F00401A0F84010B0F802
:1018C000401021F00801A0F8401094F8C802012847
:1018D00006D10020002184F8C8022046FFF785FBCE
:1018E000204600F0C7F801F040FC21F48051A0F838
:1018F0004410BDE8F88F206801F048FBB0F84410B0
:1019000021F40061A0F8441001F039FB08E001F077
:101910002CFC21F08001A0F8441094F8C81279B191
:101920002046BDE8F84F00F0DFB801F01EFC21F4BE
:101930000071A0F844102046BDE8F84F00F0ACB8A4
:1019400001F01DFB01F022FB012184F8C8123C21AB
:10195000B0F8540001EA90000121C4F8CC022046FE
:10196000BDE8F84FFFF741BB70B5002840D00446F2
:1019700090F8910228B9002084F89002204600F0E7
:1019800039F8032084F89102206803F0AAFA20793C
:101990000021012200230025A84209D0E61828339F
:1019A0003574C6E90811B162F17472740135F3E758
:1019B00004F5A87100220023984208D00B70C1E9F9
:1019C00004228A61CA704A7028310133F4E794E82E
:1019D000070003F07AFA00200121207384F89112A5
:1019E000A17A012903D12046FFF7EAFA002070BD51
:1019F000012070BD10B592B0044601A8402104300A
:101A0000FEF7BFFC2068104988421AD14FF40050FD
:101A1000019001A800F0DCF808B1FEF7D9FD0B48F1
:101A20000022016841F4000101600421006800F413
:101A30000000009000981420FFF78AFA1420FFF7A6
:101A400075FA12B010BD00BF005C00405810024093
:101A500010B504464079022818BFFEF7B9FDD4F846
:101A6000D802012102F0FEFDD4F8D802BDE81040F2
:101A700002F0B0BD10B50446407A30B1214801688B
:101A800021F00601016001F0BFFFD4F8D802BDE8E3
:101A9000104002F0CEBD00BFD0F8D80202F0D3BD96
:101AA00010B501F0C6FA04BF022010BD217301F089
:101AB0000EFA03F0F2FB01F0D9B9D0F8D82200F504
:101AC0002671104602F0DABD10B501F0B2FA04BF7B
:101AD000022010BD01F0FBF903F0BAFB206803F00F
:101AE000ECF901F0C3B9000010B50446D0F8D802F3
:101AF00002F006FE607A20B10248016841F006015A
:101B0000016010BD10ED00E010B5B0F5007F21D0F0
:101B1000002844D1AA480168D0F8802001F4C061AF
:101B200022F48072B1F5806FC0F880203DD101F0C1
:101B300090FA1F49096851431E4AB1FBF2F1002295
:101B400001314469013942F10003640521D5002BBC
:101B5000F7D11EE09A480168D0F8802001F4C061F6
:101B600042F48072B1F5806FC0F880201DD101F081
:101B700070FA0F49096851430E4AB1FBF2F1002295
:101B800001314469013942F10003640501D5002B9C
:101B9000F7D14069400544BF032010BD05E08848E7
:101BA0000222016862F34A210160002010BD00BFDB
:101BB0005400002040420F00014801F005BA00BF68
:101BC000087000407E48016841F4807101607047F0
:101BD0002DE9FC4104468078784E000701D40020AE
:101BE0004BE0F06C10F0805808D1F06C40F0805061
:101BF000F064F06C00F0805001900198704F3868EC
:101C000040F480703860FFF7FBF805463868C0057F
:101C100006D4FFF7F5F8401B0228F7D9032025E08A
:101C2000D6F8840010F4407017D0216C884211D08F
:101C3000D6F88400D6F8841041F4803120F4407046
:101C4000C6F88410D6F8841021F48031C6F88410C8
:101C5000C6F88400C00740F0A180206CD6F884103C
:101C600021F440710843C6F884000020B8F1000F49
:101C700003D1F16C21F08051F1642168CA0705D0CD
:101C80006268F36F23F003031A43F2678A0705D5EE
:101C9000A268F36F23F00C031A43F2674A0705D5D5
:101CA000E268F36F23F030031A43F2670A0705D5A1
:101CB0002269F36F23F0C0031A43F2678A0605D541
:101CC0006269F36F23F440631A43F2674A0605D54D
:101CD000A269F36F23F440531A43F2670A0605D54D
:101CE000E269F36F23F440431A43F267CA0505D54E
:101CF000226AF36F23F440331A43F2678A0505D54D
:101D0000626AF36F23F440231A43F2674A050AD547
:101D1000A26AF36F23F440131343B2F5801FF367F5
:101D200001D101F0B3F80A050AD5E26AF36F23F492
:101D300040031343B2F5800FF36701D101F0A6F819
:101D4000CA040AD5226BF36F23F040731343B2F138
:101D5000807FF36701D101F099F88A0405D5626BA1
:101D600001F0C9F801D101F091F84A0405D5A26B40
:101D700001F0C1F801D101F089F809040CD5E16B3B
:101D8000F26F22F040520A43B1F1805FF26703D153
:101D9000316841F480313160BDE8FC81FFF730F8F3
:101DA000054641F28837D6F8840080073FF555AFE5
:101DB000FFF726F8401BB842F5D92FE70C10024078
:101DC000007000402DE9F047002855D0744B0446C0
:101DD0000D46186800F00F00884209D2186820F0FC
:101DE0000F0028431860186800F00F00A84243D184
:101DF00020688D4E9A46C107B14602D1810779D439
:101E00008BE06168022933D0032938D156F8081CC9
:101E1000890131D5716872687368B44676680227A3
:101E200001F00301C6F341660329C2F3031107EB76
:101E300046067E4FC3F3062201F1010104BF41F2C1
:101E40000027C0F27A07B7FBF1F15143554AB1FBC5
:101E5000F6F1914224D9DCF80010664611F0F00F3B
:101E600016D0800701D5A06890B14FF000081AE0A5
:101E700056F8080C800306D40120BDE8F08756F818
:101E8000080C4005F8D500F0A1F846498842ECD985
:101E9000306808214FF0010861F30710306002E05C
:101EA0004FF0000866466068316821F0030108437E
:101EB00001F0CCF8064641F2883749466068D9F807
:101EC000001001F00C01B1EB800F05D0FEF798FF78
:101ED000801BB842F1D93BE02068810708D4B8F1F3
:101EE000000F4E46534618D0316821F0F00113E040
:101EF0004E465346410703D5316841F4E0613160F5
:101F0000010704D53168072262F30D213160A16811
:101F1000326822F0F00211433160196801F00F01BC
:101F2000A9421AD9186820F00F0028431860FEF75C
:101F300067FF064641F288375046DAF8000000F0A5
:101F40000F00A84207D0FEF75BFF801BB842F3D911
:101F50000320BDE8F08720684E46410705D5E168BB
:101F6000326822F4E06211433160000706D520692F
:101F7000316821F4605141EAC000306000F026F879
:101F80003168094AC1F30311515C01F01F01C840D7
:101F90000C49086005480068BDE8F047FEF75EBFE1
:101FA0000020024000B4C404C26100080000002008
:101FB00004481D49044A00680968C1F3C22100F0C1
:101FC000FEBF00BF54000020D26100081649174A26
:101FD000086800F00C000428104624D0086800F0BF
:101FE0000C031348082B1ED00B6803F00C030C2BBA
:101FF0001CBF002070474B6803F00303032B08BF8E
:1020000002464868C0F303100130B2FBF0F04A68A2
:102010004968C2F30622C1F341615043022202EB38
:102020004101B0FBF1F07047081002400024F400B9
:1020300000127A002DE9FC4100287BD0044600788C
:10204000D04EC00712D0B068F16800F00C000C2828
:1020500003D101F00301032902D0082840F0D08009
:102060003068800302D56068002863D0207880073C
:1020700046D42078000760D42078400774D42078B4
:10208000800600F1A580E769002F00F0B681B068F6
:1020900000F00C000C2840F0E780012F4AD0216AA4
:1020A000F06800F003028A4244D1616A6FF00F02C7
:1020B00002EB011100F0F0028A423BD1A16A00F468
:1020C000FE42B2EB012F35D1E16A00F07842B2EB6B
:1020D000C16F2FD1216BD54A02EA015100F4C00231
:1020E000A1F500118A4225D1616B4FF07E4200F0CC
:1020F000C06002EA016101F17E4188421AD17CE1AF
:10210000B068F16800F00C000C2803D101F0030165
:10211000022902D0042840F095803068400501D59E
:10212000E06838B100F0AAFEBC480068FEF796FEF1
:1021300000289ED00120BDE8FC81D6F8940061699A
:1021400000296DD040F00100C6F89400FEF758FE5B
:102150000546D6F8940080073FF58EAFFEF750FE97
:10216000401B0228F5D9DFE0B06D10F0805808D18F
:10217000B06D40F08050B065B06D00F080500190BF
:102180000198A74F3868C0050FD4386840F48070B4
:102190003860FEF735FE05463868C00505D4FEF701
:1021A0002FFE401B0228F7D9BEE0A068012808D006
:1021B000052840F08780D6F8900040F00400C6F86B
:1021C0009000D6F8900040F00100C6F8900086E03C
:1021D000D6F89800A169002962D040F00100C6F845
:1021E0009800FEF70DFE0546D6F8980080073FF5EB
:1021F0004AAFFEF705FE00F07AFEF5D9BDE8FC8196
:102200006068B0F5803F06D0B0F5A02F76D1306879
:1022100040F480203060306840F48030306077E0F7
:1022200020F00100C6F89400FEF7EAFD0546D6F856
:10223000940080077FF520AFFEF7E2FD401B0228E7
:10224000F5D971E03068E168002970D040F4807001
:1022500000F0FCFE05463068400577D4FEF7D0FD5F
:1022600000F045FEF7D9C9E7306820F0807000F033
:10227000EDFE0546022F09D13068800140F18480CF
:10228000FEF7BEFD00F033FEF6D9B7E730688001F7
:1022900040F1AF80FEF7B4FD00F029FEF6D9ADE7BE
:1022A00020F00100C6F89800FEF7AAFD0546D6F812
:1022B000980080077FF5E7AEFEF7A2FD00F017FE5D
:1022C000F5D99BE7D6F8901021F00101C6F89010DF
:1022D000D6F8901021F00401C6F89010C8B3FEF7AC
:1022E0008FFD054641F28837D6F89000800740D42C
:1022F000FEF786FD401BB842F6D915E0316800288C
:1023000021F480313160316821F48021316077D04F
:10231000FEF776FD0546306880033FF5A7AEFEF771
:102320006FFD401B6428F6D90320BDE8FC8120F432
:10233000807000F08BFE0546306840057FF599AE51
:10234000FEF75EFD00F0D3FDF6D957E700F096FDED
:102350008FE6FEF755FD054641F28837D6F8900026
:10236000800706D5FEF74CFD411B0320B942F5D985
:1023700044E7B8F1000F7FF482AEB06D20F08050DA
:10238000B0657CE60010024004F120036FF00F05F9
:10239000254F0FCB05EB0111F5683D40284308435D
:1023A000216B40EA0220214A02EA01514FF07E42AD
:1023B000A1F500110843616B40EAC36002EA0161C4
:1023C00001F17E410843F060306840F08070306079
:1023D000F06840F08070F060FEF712FD044630684F
:1023E00080010AD4FEF70CFD011B03200229F6D957
:1023F00004E7F0680B490840F0600020BDE8FC816C
:10240000FEF7FEFC0546306880037FF52FAEFEF731
:10241000F7FC411B03206429F5D9EFE600000020FA
:1024200000700040FCFFEEFE0C809F010000E0FF0A
:10243000411E0020B0EB116F1CBF01207047044A01
:10244000F023516003490B700721906011607047C1
:1024500010E000E023ED00E07047704770477047E0
:102460007047704770B590F83C300222012B2FD096
:1024700080F83D20534C026855689368A24202D010
:102480004E4EB24203D14E6825F470053543114ECD
:1024900035400E683543B2F1804F55600DD0454D43
:1024A000AA420AD0444DAA4207D0444DAA4204D0C1
:1024B000434DAA4201D0A24204D1896823F080038F
:1024C000194391600022012180F83C2080F83D10E2
:1024D000104670BD8FFFFFFD704758B110B500F07A
:1024E00024FE03D100F0CCFD00F006F800F066FEFB
:1024F00000F009BD012070471CB500682E498842D4
:1025000011D02C49884218BF1CBD11481D240168F8
:1025100041F0020101600121006800F00200019019
:1025200001981D200CE00A481E24016841F00401B6
:1025300001600521006800F00400009000981E2052
:102540000022FEF705FD2046BDE81C40FEF7EEBC6C
:102550005810024090F83D1001291CBF012070471F
:10256000022180F83D100168C868B1F1804F40F049
:102570000100C8600ED0EA4881420BD00E4881426B
:1025800008D00E48814205D00D48814202D00D4846
:10259000814209D188680C4A734600F0BCFD9E4612
:1025A00006D0B2F5803F03D0724600F0E2FC9646BA
:1025B000704700BF0004004000080040002C0140AC
:1025C000004001400034014007000100016841F271
:1025D0001113CA6822F00102CA600A6A1A4208D1BD
:1025E0000A6A44F244431A4203D10A6822F0010203
:1025F0000A6000F0C3BD000010B500F090FD3DD0B2
:1026000084F83D0001202F4B84F83C00206882684C
:102610001A4082600A683AB3102A25D0202A23D0B3
:10262000302A21D0402A2AD0502A30D0602A36D0F1
:10263000254B9A4218D0B2F5805F1CD0B2F5005FEE
:1026400038D0B2F1101F0FD0204B9A420CD0204B43
:102650009A4209D01F4B9A4206D0702A2FD100F01F
:10266000D4FC41F0770105E081681B4B1940114310
:1026700041F007018160002000F070FD10BD00F006
:1026800082FD2068144A816811404731F2E700F06A
:102690007AFD2068104A816811405731EAE74B689B
:1026A000CA68194601F061FC20680B4A8168114034
:1026B0006731DFE700F0A9FC41F48041DAE701204F
:1026C000DAE700BF8800CEFF700010002000100085
:1026D000300010004000100088FFCFFF704770B539
:1026E00004460068C5680669B10710D5A9070ED56C
:1026F0006FF002010161012121778069800702D01A
:1027000000F029FD01E000F0C0FC002020777007F8
:1027100012D5680710D520686FF00401016102210D
:102720002177806910F4407F02D000F014FD01E0B1
:1027300000F0ABFC00202077300711D528070FD51B
:1027400020686FF00801016104212177C0698007CA
:1027500002D000F000FD01E000F097FC002020779F
:10276000F00612D5E80610D520686FF0100101615F
:1027700008212177C06910F4407F02D000F0EBFC03
:1027800001E000F082FC00202077F00708D0E80785
:1027900006D020686FF001010161204600F0A8F822
:1027A00016F4025F08D0280606D520686FF402519F
:1027B00001612046FFF751FEF00508D5280606D531
:1027C00020686FF4807101612046FFF745FE7006B6
:1027D00008D5680606D520686FF0400101612046E3
:1027E00000F0A0F8B00608D5A80606D520686FF05E
:1027F000200101612046FFF731FEF00208D5E80212
:1028000006D520686FF4801101612046FFF728FE8D
:10281000B00208D5A80206D520686FF40011016146
:102820002046FFF71CFE700208D5680206D5206816
:102830006FF4800101612046FFF713FE300201D5DD
:10284000280200D470BD20686FF4000101612046A9
:10285000BDE87040FFF740BE10B500F099FC04BF22
:10286000022010BD01204FEAB202052A84F83C0084
:102870001CD8DFE802F003070B0F1317206801F0E4
:1028800017FA12E0206801F053FA0EE0206801F018
:1028900087FA0AE0206801F0BFFA06E0206801F03C
:1028A000FBFA02E0206801F021FB0020002184F8FF
:1028B0003C1010BD7047B0B1B0B5044690F83D0073
:1028C0000D4618B900F0DCFB00F00FF800F076FCC4
:1028D0002068016821F00801016001682943016056
:1028E00000F084FBB0BD01207047704770470000C6
:1028F000B0B5044600680A4DA84208D102F018FE9F
:1029000020B99F48FFF762FE00206862206805F545
:102910008061884218BFB0BDBDE8B04003F05CBA2A
:10292000000400407047FEE796484FF48071A0F81D
:1029300078110649C0F87A11054901F10802C0E989
:102940005C2100F5B870002100F008B8010000011A
:1029500010000048012100F001B80000F0B585B07A
:10296000002800F087800446407B002800F0828029
:102970002689002E00F07E8020680F46FDF7B6FF06
:10298000002800F0778005462FB12846314600F038
:102990008BF800286ED105F138404FEAB0200328AB
:1029A00028D8DFE800F0020B141D3348016841F01D
:1029B00001010160006800F0010019E02E48016883
:1029C00041F002010160006800F0020010E02A48B6
:1029D000016841F004010160006800F0040007E0B4
:1029E0002548016841F008010160006800F0080016
:1029F00000900098217B0020CDE90300CDE9006024
:102A0000A07A8A1EB2FA82F25209012918BF510037
:102A1000029102280AD001280BD102200121039043
:102A2000E07A012808BF1121019102E04FF444101F
:102A3000019069462846FEF71BF9A07A022819D1B1
:102A400021890023DAB2184621FA02F3DB0700F1EC
:102A50000103F7D028210A2A38BF1721052A38BFD9
:102A6000811D4CB2204600210022FEF771FA20465B
:102A7000FEF75CFA05B0F0BD4C10024070B50131B4
:102A80000023372472B1060F01F8023B04EB1075E6
:102A9000B0F1204F38BF06F1300501F8035C013A70
:102AA0000001EFE770BD0000B0B50A4C002354F8F8
:102AB0003320032B08D0824204D104EBC305AD8838
:102AC0008D4201D00133F2E7002A18BF01221046DF
:102AD000B0BD00BFEC61000810B50446EFF31080F4
:102AE00072B6FDF753FF114800214FF0FF3201602D
:102AF00041608160082907D000EB81030131C3F8F0
:102B00007021C3F87022F5E70948BFF34F8FBFF378
:102B10006F8F0460BFF34F8FBFF36F8F206880F318
:102B20000888606862B6BDE81040004710E000E029
:102B300008ED00E0E0B5074800F008FA0648006834
:102B4000C0B28CBD1CB50446024800F0FFF9024833
:102B500004601CBD581002400025004080B5144898
:102B6000012101700648FFF731FD002000F080FED2
:102B70000E4800F012FAA04800F0A2F980BD00BF94
:102B800068250020700100200648002101600648E9
:102B9000017006480161026842F0010202600448C7
:102BA0000170704724040040ED030020142C014004
:102BB00004040020B0B5FFF7BDFF134D044628689C
:102BC000000102D50020FFF7BDFF2868422C40F429
:102BD0000000286005D10020FFF7B4FF0B48FFF785
:102BE0007BFFFFF7A1FE8548012101768048FF2188
:102BF000C171FDF7C1FDFDF729FE6420FDF7DCFE84
:102C0000BDE8B040FDF79ABC941002400080000877
:102C1000F8B57448744900680A68831A734AA3FBBC
:102C20000234A309B3F57A7F09D3714C40F24B45C6
:102C30000860636FAB4207D80133636701E06C4BF8
:102C40005B6FB3F57A7F0AD96A4B6B4C9B7AB4F809
:102C50005851002B08BF2D04D4F850311D604B682B
:102C6000C31AA3FB02239A09142A25D3486060489B
:102C700090F820100131CAB2632A5F4A88BF002150
:102C800080F8201092F8FD304BB1448CCBB2B2F8F2
:102C9000F8509C4298BF2D04D2F8F0301D6092F895
:102CA0000D314BB1808CC9B2B2F80831884298BF5F
:102CB0001B04D2F8000103604D4D2878E0B10020DC
:102CC00028704D4890F8FD1009B100F01DFA90F8F9
:102CD0000D1109B100F083F9484C0020032685F856
:102CE0002000300608D0204600F03CFD20B10A202C
:102CF000013EFDF761FEF4E7E87E012818BFF8BD4C
:102D000000273E4C3E4EEF76E069E866607E7070CC
:102D10002F76FDF731FDFDF799FD2F676F7004F1F8
:102D2000080207CAE863E86B1044013828640620EB
:102D300020763148296690F8FD1009B100F0E4F9D9
:102D400090F80D1109B100F04AF90020652785F8C7
:102D50002000013F27D06420FDF72EFE286EA96ECB
:102D60008842F6D12749002028766876A8766870D0
:102D7000C1F82C05A1F83005687128713070E87928
:102D8000032812D1608C204B3081D4E90420A16843
:102D90006886B5F93200081A1144B5F93220114499
:102DA000C3E9010114E0042015E0208CF080608C60
:102DB000B080154E94F824006885A168D4E90423F6
:102DC000C81A1944114494F82520C6E90101AA85BE
:102DD00002F0F8FC002020762046BDE8F84000F024
:102DE000C1BC00BF041000E064040020F13B5D6042
:102DF000E8030020F40B002070010020B40B002039
:102E000008000020F8050020340C002080B50F4891
:102E10000F49002201F0D8FA08B1FDF7D9FB0B48A1
:102E20000C4901F08AFC08B1FDF7D2FB07480A49BA
:102E300001F0ACF908B1FDF7CBFB044801F097FCB9
:102E400018B1BDE88040FDF7C3BB80BD701F0020F6
:102E5000140000205800002040010020FEE7FEE79B
:102E6000002100222847214601F085BA002084F87D
:102E7000900210BDA0F840100020704720697168D2
:102E800021F0FE4141EA006070607047326842F410
:102E90008012326070474FF47A70FDF745BC4FF4F2
:102EA0007A70FDF741BC204601F036BAC0F89412A2
:102EB000002101F02EBC21463F22681CFDF71CBA00
:102EC000D0F8E010B0F8E800000408607047012076
:102ED00084F890022068704730F8113040F60F7483
:102EE000234002F58044234320F811307047411BF2
:102EF000032002297047F36F23F040631343B2F1BC
:102F0000006FF3677047012084F8480084F83E00A2
:102F100084F83F0084F8400084F8410084F84200BF
:102F200084F8430084F8440084F8450084F846009F
:102F300084F8470084F83D00002010BD204601F0D1
:102F400012BAC0F89412002101F03BBB016841F0B5
:102F500080510160006800F0805001900198FEF7F8
:102F600031BEB0F8501094F85021014401EBC20179
:102F70007047086840F00100086000207047B0F812
:102F8000401041F00401A0F840107047B0F8401024
:102F900041F00801A0F840107047016841F00101BC
:102FA0000160704730F8212043F60F731A4048F251
:102FB000A00303F5FF535A4020F821207047515CCD
:102FC00001F01F01C8407047016841F48041016071
:102FD0007047D4F8B8022946826820467047D0F876
:102FE0000011B0F80801000408607047012084F85F
:102FF000480084F83E0084F83F0084F8440084F8D8
:10300000450084F83D0000207047D1E90123C968DC
:103010001A4342EA0121826822F47F42114381600F
:1030200081687047B06840F00100B0607760306838
:103030007047044690F890020128704768692A6931
:103040000023C119286A6961904270473060FDF71A
:10305000D7BE0168012262F34A2132220160704723
:10306000044608780D4610F0600070474DF808EDF2
:1030700005F16000FDF7FCFB00285DF808EB7047E8
:10308000002084F83C00204670474DF808ED2046AB
:10309000FFF710FC20465DF808EBFFF727BCB042B5
:1030A00002628C68D1F800C04568704730F8212072
:1030B00040F63F731A4048F2A0035A4020F82120FE
:1030C0007047B4F850202B78224402EBC3027047BB
:1030D000204601F009B9204650F8681F50F8042C2A
:1030E000914201467047B1F1FF3F00EB800104EBD4
:1030F000C1017047204669692A8902F0D4B894F862
:103100009C02013802287047B0F8F820D0F8F0107F
:1031100012040A60704702400020062A704790F8A7
:103120003C2004460220012A7047044690F83D00E6
:103130000028704730F8212048F2A00320332A40AD
:103140001A4320F821207047204650F8501F82680B
:103150009142014670472046FFF7C0BA002184F82B
:103160003C10012184F83D1070472068B0F84410ED
:10317000704790F82000C98800287047012180F826
:103180003D10002070474B68CA68194600F0DCBE4D
:10319000044690F83C0001287047B0F850100844ED
:1031A00098F8001000EBC10000217047B0F85010F3
:1031B000084498F8001000EBC10070470220211D60
:1031C00084F83D00206800F011BD0000F0B51D48F6
:1031D0001D4A416821F001014160016C21F00101AB
:1031E000016492F8ED1049B3B2F8E830D2F8E0107B
:1031F0001A040A6041F201020260144A02F110044A
:10320000A1421AD09360124B2E252A271C6865F321
:10321000070443F631251C6002F11404C160046107
:10322000012484604560DE6867F30706DE60816420
:1032300002F11801C16444640564F0BD41F201016A
:103240000160F0BD040002407001002080030020F6
:1032500000080240FEB5002800F05C8204460078B9
:103260001138162800F25682DFE810F017005402D9
:10327000420054024B0096009F00B400BB00540271
:103280005402540254025402C800C400D500F40091
:103290000601110126007901A301DFF89854FFF718
:1032A0000AFEA888002800F0E981FFF76DFCA888D5
:1032B000BDE8FE4000F0DCBADFF86854FFF7FBFD24
:1032C000698ADFF86404DFF830464181A98AE18623
:1032D000697E2A7AE174012A216E40F09581A26EFE
:1032E000914240F0928100212972E96821668CE1C7
:1032F000DFF83C54FFF7DFFDA888BDE8FE4000F092
:10330000DDBADFF84444152000256070DF48E57021
:10331000016842688368C668076904F128004EC0E6
:10332000DB488642DB4818BF2F468342DA48DB4B36
:1033300018BF2F4641405A40844604F118001143FB
:1033400018BF2F466761D6490A684B688E68CF68F8
:103350000969CCC0D3488742D34818BF2946864262
:1033600082EA0C00D14A18BF29465A40104318BFC0
:1033700029462161FDF748FD6060FDF74BFDA06027
:10338000FDF74EFDE060DFF870052570016D806E81
:10339000C4E90E1020466DE1DFF8A853FFF78BFD5E
:1033A000D5E9010102F070FD63E1DFF89453FFF706
:1033B00082FDEA780AB1392A03D3382A28BF382295
:1033C000EA706868810703D105F1080102F081FD08
:1033D000DB484FE1D94DFFF76EFD4FF4C050288018
:1033E00047E1D54821463F220130FCF785FF4220C6
:1033F000FFF7A8FBBDE8FE40FDF7E0BDC74DFFF7B6
:103400005AFDE748016D6960018D2981C18C698190
:10341000007A28732DE1CD4DFFF74DFDA8884FF0C0
:10342000FF31192211FA80F180B291FBF2F34000D2
:1034300003FB1211A0EB4100C549084400210238EA
:10344000192900F0DD8005EB4102D28820F8112017
:103450000131F5E7C14D95F82A0595F82B158842FD
:1034600003D26078012840F023810120607095F834
:103470002A05A07062B62EE1CA4DFFF71CFD287E1A
:10348000002800F0FF80BDE8FE4000F075B9A74DB0
:10349000FFF711FD95F83000C14C607495F82610C7
:1034A00095F8272095F8283095F829006372A272C4
:1034B000E172617A4A1EB2FA82F2520901396273EC
:1034C00018BF0121A173A17A4A1EB2FA82F25209F1
:1034D0000139E27318BF0121217402F06FF8F64937
:1034E00095F82E00B1F87820002808BF12040B6F61
:1034F000086A1A6095F82F20098D002A08BF090470
:103500000160E87D012803D10020E875E868E064E7
:10351000687D18B9206DE064206DE86095F825009D
:10352000012805D10020206585F82500E860E064C9
:1035300095F82410A87D7C4EE1850128298AF18028
:10354000698AB18040F0888095F82200608595F8FE
:103550002300A085D5E9010102F034F97EE0704D29
:10356000FFF7A9FCE44800214167E449E87AB1F893
:103570005821002808BF1204D1F850010260E86801
:1035800000F014F9A88800F099F9E88800F0A6F98D
:10359000287C697CAA7CEB7C2C7D6E7DAF7D8DE8E0
:1035A000D00000F0ADF9E878002800F0B3805C4866
:1035B00060E0684DFFF77FFCA9884FF0FF301923CA
:1035C00010FA81F292FBF3F404FB03F0C6087C2EA0
:1035D00018D889B204FB13224900A1EB42015E4ACC
:1035E000114400220239182A0CD88318DB087C2BDE
:1035F00008D805EB4203DB8821F812300132F2E7EC
:10360000524837E0534835E0E960E97E012904D1AA
:103610000021A166E976E96021668178AA7DEB7DCB
:10362000287E561EB6FA86F67609013A267518BF28
:10363000012262755A1EB2FA82F25209A275A97667
:10364000591E18BF0121E17502F0B0FB2520A5F835
:103650000100A06E68600CE002F0AAF9A88D30812C
:10366000688D60862420A5F80100206DA861208D5A
:10367000A8832846BDE8FE4000F074B8BDE8FE40CF
:10368000FFF76CBA9C480121C17643E0E8FF0008CF
:1036900001FFEEDDCCBBAA990000104388776F5E76
:1036A000EC7F000878695A4B3C2D1E0FF0DEBC9A67
:1036B00095F8290595F82B052C212C2295F829053C
:1036C00010FB015104F11300FCF7B2FF0020607001
:1036D00095F82A05A070E07B012803D1D4F80700F3
:1036E000FDF7E4F81E48104A90F85200B4F80B10A9
:1036F000C0F10A009180E07311817F49B4F80D0098
:103700000A8DA4F80B20274AD080086FC4F8030064
:10371000107E00B1FEBD601EACE700BFB40C0020FF
:10372000F40B0020740C002008000020340C002052
:10373000700B0020300B0020380500207805002099
:10374000B8050020B8040020F8040020301F002035
:10375000C4140020F01E0020F40C0020F805002006
:103760006404002001460248402200F016BD00BF5C
:10377000701F002070470000F8B50446FFF7EEF90F
:103780005D4D0126002000272E7700F071F86F763E
:103790002F76EF7602F00CF902482E700476F8BD11
:1037A000E8030020B40B002070470000FEB5404D38
:1037B000044618B1E868A04200D1FEBD2A4E002C94
:1037C0004BD02A4FB86940F40060B861B86900F482
:1037D000006002900298386840F001003860386854
:1037E00000F0010001900198386840F00400386052
:1037F000386800F0040000900098FEF7D9FB57F8F5
:10380000401C326822F0010232606522624311F4EA
:10381000605118BF01218840B0FBF2F101398242AA
:1038200088BF0021B16264200027F0624FF440702D
:103830007763B761F761F0606F61AF61FFF7C6FC56
:10384000706C40F4004070643761706940F00100B2
:103850007061306840F0010003E03068002420F01F
:1038600001003060EC60FEBD002C014048100240B9
:10387000B0B50E490022D44B0978002918BF104674
:103880000146642828BF64210D469C68002918BFA2
:1038900025465D616428074838BF22049A610160AB
:1038A00001B1B0BDC748FFF70BFBB0BD0404002059
:1038B00080030020342C01407001002064280E4950
:1038C00028BF6420488400B17047BE48D0F8F0108B
:1038D000B0F8F80000040860704700BF642806498B
:1038E00028BF6420888400B17047B6487246FFF74D
:1038F00076FB9646704700BFE80300207001002069
:103900002DE9F04F87B0152874D8DDF848900546AA
:103910000120DFF8EC804E46B9F1000F18BF00FA25
:1039200002F6A848B1F1FF0418BF3446FF2900EBA6
:1039300005171ABF314850F821600026002E119853
:10394000BA4606904046DDF840E018BF06F1100088
:10395000059018BF06F118081AF80DBF3868CB4556
:1039600008BF404531D0CDE901E3CDE90312FCF7B2
:10397000BDFFBBF1000F18BF002802D03989FDF749
:1039800005F90698B9F1000F2A46C7F800808AF8B1
:1039900000903C8138730198F8720298B8720598CB
:1039A0007860DDE9031018BF002E07D0032998BF07
:1039B0000F2803D83846FEF7CDFF2A460E2A19D124
:1039C00007B0BDE8F04FFFF701BCB7F808C0A0B2E0
:1039D00084454046C7D1B87A98424046C3D1F87A68
:1039E00070454046BFD1B446387B069EB04266461D
:1039F0004046B8D107B0BDE8F08F00BFDC610008D9
:103A00002C0B0020FDF712BAB0B594B000240020B2
:103A1000CDE90A44CDE90844FEF776F82A210220D0
:103A20000325109101211390CDE911000E95CDE9E8
:103A30000C104FF480300F9107902120069006A8BB
:103A4000FEF7F8FA18B1EFF3108072B6FEE70F2018
:103A5000CDE90444CDE902540421019001A8FEF708
:103A6000B1F918B1EFF3108072B6FEE714B0B0BD33
:103A70000248016841F470010160704788ED00E080
:103A8000F8B54E4C2568E80764D06FF0010020605F
:103A900001F0A4FF4A49087803285BD04948078B06
:103AA0000269036B066C3F041760B0F848201204EB
:103AB0003260028F12041A600A78022A03D1038945
:103AC00002681B041360404A5368002B42D0002355
:103AD0000093009B632B03DC00BF009B0133F7E7DF
:103AE0000978012919D0022934D15168002900D55B
:103AF000494241F22433994238BF0B466362516810
:103B0000324A1278E2B100291CDD016802890A609C
:103B100000F14002B0F848101AE05168002900D5C1
:103B2000494241F22432914238BF0A466262274A32
:103B3000018B1278002A00F1100218BF090407E077
:103B40000129E2DB0169028B0A6000F13002018F7A
:103B500010680160A8072CD56FF00200206018489B
:103B60000078012814D0022823D11648058B026959
:103B70000168036B046C2D041560028912040A604D
:103B8000B0F8481009042160008F00041860F8BDE7
:103B900002F08CF80C484168C90F0170007848B1F8
:103BA0000B48084900780A89002818BF12040868E1
:103BB0000260F8BDBDE8F84002F06CB810000040AB
:103BC000EF0300207001002080030020F20300209A
:103BD000F10300200148FEF782BD00BF68250020E8
:103BE0000148FEF77CBD00BF9C03002070B5A74ACA
:103BF0000368904225D0B0F1804F08D0264CA042F7
:103C000005D0264CA04202D0254CA04203D14C68DE
:103C100023F070032343B0F1804F16D01E4CA04216
:103C200013D01F4CA04210D01C4CA0420DD01D4CF4
:103C3000A0420AD01C4CA04207D01C4CA04204D089
:103C400007E04C6823F070032343CC6823F44073EF
:103C500023434E6923F080030C688D683343904200
:103C60000360C56284620BD0894A02444FEAB222E3
:103C7000052A07D8012303FA02F212F0390F01D006
:103C800009690163012141610169C90703D0016923
:103C900021F00101016170BD0004004000340140C9
:103CA000000800400040014000480140004401403D
:103CB000F0B5026A036A764E23F0010322F0020295
:103CC00003628B68D1F800C04568D0F818E0134350
:103CD0006E4A904209D087194FEAB727052F0FD8AF
:103CE0000124BC4014F0390F0AD0CC6823F00C0337
:103CF00024F004042343904209D082194FEAB227EA
:103D0000052F0AD80122BA4012F0390F05D025F448
:103D10004072D1E90545224315433E4A456002EA17
:103D20000E0242EA0C028261496841630362F0BDFF
:103D3000F0B5036A026A554E22F0100223F0200308
:103D4000FFF7ADF943EA0413846903D006F5006771
:103D5000B84209D1CF686FF0400223F0C00302EAF5
:103D600007121343B0420AD0494A02444FEAB2262E
:103D7000052E0BD80122B24012F0390F06D025F4DF
:103D80004062D1E90556354342EA8505414A45601E
:103D9000224042EA0C228261496881630362F0BDDD
:103DA000F0B5036A026A394E22F4807223F400737C
:103DB000FFF775F943EA0423C46903D006F50067E9
:103DC000B8420AD1CF6840F2FF4223F440633F0279
:103DD00027EA02021343B0420AD02D4A02444FEAB6
:103DE000B226052E0BD80122B24012F0390F06D0B0
:103DF00025F44052D1E90556354342EA0515054AF6
:103E00004560224042EA0C02C2614968C163036214
:103E1000F0BD00BF8CFFFEFFF0B5036A026A1B4EC7
:103E200022F4805223F40053FFF739F943EA0433B4
:103E3000C46903D006F50067B8420AD1CF6844F6DA
:103E4000FF7223F440433F0327EA02021343B042C8
:103E50000AD00F4A02444FEAB226052E0BD801229F
:103E6000B24012F0390F06D025F44042D1E9055690
:103E7000354342EA8515074A4560224042EA0C2252
:103E8000C261496801640362F0BD00BF002C0140BB
:103E900000CCFEBFFF8CFFFEF0B5D0F820C0036A57
:103EA00023F480330362264B46680C6803444FEAD0
:103EB000B3278B68056D072F09D80122BA4012F08D
:103EC000E50F1EBF4A6926F4803646EA0226064AF6
:103ED00046602A4022430265496881642CF400311F
:103EE00041EA03410162F0BD8FFFFEFFF0B5D0F85B
:103EF00020C0036A23F480130362114B46680C68E8
:103F000003444FEAB3278B68056D072F09D80122B8
:103F1000BA4012F0E50F1EBF4A6926F4802646EA31
:103F20008226084A46602A4042EA0422026549681D
:103F3000C1642CF4001141EA03510162F0BD00BFDD
:103F400000D4FEBFFF8FFFFE10B5036A046A24F0A1
:103F500001040462846924F0F00444EA02128261DC
:103F600023F00A021143016210BD10B5036A046A0E
:103F700024F010040462846924F4704444EA023298
:103F8000826123F0A00242EA0111016210BD00002B
:103F900010B5774C0A4602A0FEF765FF204610BD1B
:103FA000437573746F6D2048494420436F6E666992
:103FB00067000000D0F8BC02002180F850100020FB
:103FC000704780B5D0F8BC1241B1D0F8C0020A7871
:103FD0004978C36810469847002080BD032080BD03
:103FE000B0B58121044600F00BFA002520460121DE
:103FF000A56300F005FAD4F8BC02C4F8785148B1C2
:10400000D4F8C00280688047D4F8BC0200F0A0FD5C
:10401000C4F8BC520020B0BD122008800048704790
:10402000F4000020B0B5D0F8BC5265B1E96C0024B2
:10403000012909D1D0F8C0022A786978C3681046EE
:104040009847EC6400E003242046B0BD0A210180BB
:10405000004870470801002029210180004870476E
:10406000900000202921018000487047BC000020FA
:1040700029210180004870471401002070B50446D2
:10408000542000F067FD48B30546C4F8BC02207C0C
:10409000012600284FF0010008BF0520A4F87A018E
:1040A0006087812103224023204600F07EFA2046CB
:1040B000012103224023268700F077FAD4F8C002BA
:1040C000A4F87861002685F8506040688047204653
:1040D00001212A46402300F074FA03E00020022662
:1040E000C4F8BC02304670BD10B5214C0A4602A08F
:1040F000FEF7B9FE204610BD437573746F6D2048FE
:10410000494420496E746572666163650000000071
:1041100004200880004870475001002010B5144C5E
:104120000A4602A0FEF79FFE204610BD53544D697B
:1041300063726F656C656374726F6E6963730000A0
:1041400010B50B4C0A4602A0FEF78DFE204610BDAE
:1041500053544D333220437573746F6D2048756D21
:10416000616E20696E7465726661636500000000AF
:10417000981C002080B5D0F8BC222AB10121402330
:1041800000F01FFA002080BD032080BD19B1C0F8E7
:10419000C0120020704703207047B0B5D0F8BC4271
:1041A00084B113460A4690F89C12032908D194F86A
:1041B000505001213DB984F85010812100F0A9FA36
:1041C000002100E003210846B0BD0000B0B51A2070
:1041D0000880094908688A6880180BD0074D4C6828
:1041E0000822A91CFEF74AFC05F112012046042210
:1041F000FEF744FC0148B0BD9075FF1F540100203C
:10420000BCB5D0F8BC320022ADF80620002B00F07F
:104210005C800A7812F060020FD0202A53D14A78CD
:10422000023A092A4FD8DFE802F0051C4E4E4E4EE6
:104230004E1F333703F1440138E04C780B2C42D841
:104240000022DFE804F00643404040401840404070
:104250002D3890F89C22032A35D10DF10601022257
:1042600025E003F1400121E00122DA64CA88194601
:1042700000F05DF81DE0CA78212A29D0222A2DD12C
:10428000CA88222A28BF2222D0F8C01209680EE06C
:10429000C8780022586419E088780022186415E074
:1042A00090F89C22032A0ED103F14801012200F06C
:1042B00050F800220AE090F89C22032A03D1887863
:1042C0000022986402E000F027F803221046BCBDEB
:1042D000CA880449092A28BF0922E8E700220021E8
:1042E000E5E700BFE800002080B5D0F8B8220AB1A9
:1042F00052689047002080BD80B513460A460021D1
:1043000000F05FF9002080BD80B513460A46002109
:1043100000F0FFF9002080BD10B58021044600F0B8
:10432000DDF920460021BDE8104000F0D7B980B586
:1043300013460A460321C0E95633FEF702FE002069
:1043400080BD80B5052100220023FEF7FAFD002084
:1043500080BD80B513460A460221C0E90633FEF748
:10436000A5FD002080BD80B5042100220023FEF7BA
:104370009DFD002080BDB0B5C8B10023044625785E
:1043800015B101340133FAE7DCB2022303EB440434
:10439000148003220C704A70002204783CB1DDB214
:1043A000023301304C5545F001040A55F5E7B0BD24
:1043B000044AC100032822FA01F188BF0321C8B2D0
:1043C000704700BF0003010378B10023C0F8CC326E
:1043D000C0F8C032C0F8B83209B1C0F8B412012137
:1043E000027080F89C1200F099B80320704780B5E5
:1043F000D0F8C402FCF744FEBDE88040FFF7D8BF08
:1044000080B5D0F8C402FCF71DFEBDE88040FFF780
:10441000CFBFB0B5044669B194F89C02032848D1D7
:10442000D4F8B8024269002A43D0204690470028B9
:104430003FD0B0BDD4F89402022833D1D4E90701AB
:1044400088420DD9431A114620461A46E361FFF708
:104450005BFF204600210022002300F0B2F821E09B
:104460000FD1A16981420CD3D4F89802814208D2BD
:104470002046002100220025FFF746FFC4F898528D
:10448000E7E794F89C02032805D1D4F8B802C16884
:1044900009B1204688472046802100F01FF92046B8
:1044A000FFF74FFF94F8A002012804BF002084F812
:1044B000A0020020B0BD10B5044659B194F89C028A
:1044C000032828D1D4F8B802826922B32046904745
:1044D00008B310BDD4F8940203281CD1D4E95703C3
:1044E00098420BD9C01A1146C4F85C01984238BFF3
:1044F000034620461A46FFF7FFFE0CE094F89C02A4
:10450000032805D1D4F8B802016909B120468847CB
:104510002046FFF728FF002010BD0000B0B504467C
:104520001648002181600221C4F8C402C0F8D842B4
:10453000C1714FF40271818011490160FDF714FAD5
:1045400008B1FCF745F8D4F8C4020E4D0021002252
:104550001823A847D4F8C402802100225823A84772
:10456000D4F8C402812100229823A847D4F8C402B9
:1045700001210022D823A8470020B0BD40220020FE
:10458000005C0040ED0F000801F07F02D0F8C4028B
:1045900049B202EB8202002900EBC20000F5A972C9
:1045A00048BF00F112021078704710B51446D0F8D9
:1045B000C4021A462346FCF78CFDBDE81040FFF705
:1045C000F7BE80B5D0F8C402FCF7ABFDBDE8804073
:1045D000FFF7EEBEF8B50446012084F89C020020E7
:1045E000C4F8A4026060C4F89402D4F8B802E8B138
:1045F000D4F8BC1221B1426812B120460021904784
:10460000204600210022402300254026FFF7CDFF51
:1046100001272046802100224023C4F86061A4F8CD
:104620006471FFF7C2FFA784266200E003252846D5
:10463000F8BD90F89C12042904BF90F89D1280F8F0
:104640009C120020704780B5D0F8B81241B190F8A4
:104650009C22032A02D1C96901B18847002080BD8C
:10466000032080BD01740020704780B5D0F8C402DB
:10467000FDF716FABDE88040FFF79ABEB0B500F22C
:10468000AA250446284600F04DF80120C4F89402FB
:10469000B4F8B002C4F8980294F8AA0200F01F011E
:1046A000022908D001290CD089B920462946BDE845
:1046B000B04000F05FB820462946BDE8B04000F0A9
:1046C000A1B920462946BDE8B04000F025BA00F067
:1046D00080012046BDE8B040AFF3008080B5D0F83F
:1046E000C402FCF734FDBDE88040FFF761BE80B531
:1046F000D0F8C402FDF7E8F9BDE88040FFF758BEE6
:1047000090F89C1280F89D12042180F89C120020E1
:10471000704780B5D0F8C402FCF747FDBDE8804083
:10472000FFF746BE0A7802704A7842704A88428093
:104730008A888280C988C18070471CB504460020E1
:10474000ADF8060051B1C4F8B812C96A21B10DF133
:1047500006008847C4F8CC0200201CBD03201CBD05
:10476000D0F8B8220AB11268104703207047FFF74B
:10477000BEBF0000BCB5FEF773FC0AD0402802D0D3
:10478000202840F03081FEF724FC02B0BDE8B040A4
:1047900010476878092800F22681DFE810F00A0047
:1047A0001E0024012C002401340053002401690060
:1047B0007B00FEF7A4FC00F21681E888022840F096
:1047C0001281D4F8A40203222146002808BF012246
:1047D00041F80C2F2046022202E1FEF790FC00F285
:1047E000028168880025012840F00081C4F8A452A5
:1047F000FEF7A4FBFAE06888012840F0F68001206B
:10480000C4F8A402F4E0A888002840F0EC80E8880E
:10481000002840F0E88068887F2800F2E48094F85F
:104820009C12032900F0DF80C5B284F89E02204666
:104830002946FFF71AFFFEF781FB002D00F0DB8011
:104840000220D9E000204FF0FF31ADF80600688863
:1048500001EB1021062900F2C680DFE801F00440D8
:1048600047C4C4545E00D4F8B412207C0A68A8E09F
:10487000E888012840F0B78094F89C02411E022984
:1048800026D2002521462046012241F8085FFFF785
:1048900060FDABE068885A4D10F0FE0F287003D021
:1048A000FEF701FB0325A1E0C1B294F89C020328A6
:1048B0003FD0022855D1002900F09A80204661603F
:1048C000FFF74EFF002863D00546FEF7ECFA8DE0B7
:1048D000032840F08880211D2046012280E0217CB1
:1048E000D4F8B802002942D0C16A41E0C0B205281C
:1048F00000F27980DFE800F0035054585C60D4F88F
:10490000B40242685BE0207C00286CD1D4F8B80285
:10491000416B0DF10600884756E0207C002862D1EB
:10492000D4F8B802016B0DF1060088470146072054
:1049300023E021B3606888425AD0C1B2FEF7C8FBB9
:10494000297820466160FFF70BFF002850D005460C
:10495000FEF7A9FA2179FEF7BBFB022084F89C023E
:1049600044E0FEF7A0FA2978FEF7B2FB9AE7816AE5
:104970000DF10600884701460220487025E002201C
:1049800061600021002584F89C02FEF7A1FB2FE75F
:10499000FEF7D4FA03202FE0D4F8B40282680EE0C8
:1049A000D4F8B402C2680AE0D4F8B402026906E09E
:1049B000D4F8B402426902E0D4F8B402826992B138
:1049C000207C0DF1060190470146EA8882B1BDF8CE
:1049D000060040B1904238BF0246ADF8062020469E
:1049E000FFF7B7FC01E0FEF75EFA00252846BCBDE4
:1049F000FEF7A4FAF9E7012084F89C02F5E700BF6E
:104A0000941C0020B0B5FEF72BFB08D0402801D045
:104A100020285CD1FEF7DDFABDE8B0401047687889
:104A2000297968B1012824D0032850D194F89C0238
:104A3000032822D16888002858D0FEF77FFA48E082
:104A400094F89C02032824D0022840D148063ED185
:104A500011F080004FF0140108BF4FF4AA7100223A
:104A6000625004F114010028204608BF04F5AA7121
:104A70004EE094F89C0203282DD0022827D1480646
:104A800025D02046FFF72AFE20468021FFF726FE8C
:104A90001FE001F00F00802900EB800004EB800094
:104AA0002CBF808CB0F8640188B101F07F008029B0
:104AB00000EB800004EB800000F1140538BF00F526
:104AC000AA7541F08000802819D100201DE0FEF772
:104AD000EAF90020B0BD68880028FAD1480602D063
:104AE0002046FFF784FCFEF729FA93E74806A4D096
:104AF000E8880028A1D12046FFF7F0FD9DE7204679
:104B0000FFF742FD002818BF0120286020462946F3
:104B10000222FFF71EFCDCE7B0B5FEF7A1FA18BFD2
:104B200040280FD1FEF7EBFA0ED8A88810F0FE0F40
:104B30000AD1FEF74EFA9047E98841B938B9FEF735
:104B4000FDF903E02028EDD0FEF7ADF90020B0BD5F
:104B50007047000000487047981E00202DE9F04182
:104B60000D78CE78804647F2706400EB850330F80C
:104B70002500032E20EA040407D80020DFE806F011
:104B800002070D0A44F4007406E0012005E044F435
:104B9000806401E044F4C0640020984F40F60F7236
:104BA00048F2800C3C431C801C8822402A433A4334
:104BB0001A800A7B002A47D048F28002022E40F673
:104BC0000F6708BF02F580721C883C4022431A80A0
:104BD00008EBC502B8F850400F89144427F00107CC
:104BE000A4F80074B8F8504022444C8924F0010421
:104BF000A2F804441A8802F480444A78002A46D075
:104C00003CB1198840F60F7211400CF580421143F7
:104C100019801988490607D5198840F60F72114086
:104C20000CF1400211431980198840F63F7211407F
:104C30000CF120024A40012E08BF41EA0C021A8002
:104C4000198843F60F72A5E0B8F850E0CA88EC0066
:104C500022F001074A78002A43D008EB040171448E
:104C6000A1F800741988490607D5198840F60F7213
:104C700011400CF1400211431980198840F63F722F
:104C80001140012E00F087800CF12002B1E03CB110
:104C90001A8840F60F7422400CF5804422431A8093
:104CA0001A88ED00520607D51A8840F60F74224084
:104CB0000CF1400422431A804544B8F8507005F2C4
:104CC0000246F25B6FF39F22F253096921B33E293A
:104CD00024D801F00104BA5B04EB510442EA8424B5
:104CE00029E008EB040202EB0E0402F20646A4F8E7
:104CF0000474B8F85070F25B6FF39F22F2530969A5
:104D000000294BD03E294BD801F00104BA5B04EBDB
:104D1000510142EA812150E0BA5B0AE0CC064FF033
:104D2000FF324FEA511408BF02EB5114BA5B42EA5A
:104D30008422334C1443BC5305F20645B8F8502086
:104D4000AC5A6FF39F24AC5249B13E2909D801F007
:104D50000106545B06EB510144EA81210EE0515BF0
:104D60000AE0CE064FF0FF344FEA511608BF04EBBD
:104D70005116515B41EA8621214C2143515343F6A0
:104D80000F72198811400CF54052514040F63F72A5
:104D900019801988114041EA0C012BE0B95B0AE047
:104DA000CC064FF0FF324FEA511408BF02EB51140A
:104DB000B95B41EA8421124A1143B9531988490465
:104DC00007D5198840F60F7211400CF58042114347
:104DD0001980002D1FBF198843F60F7211400CF582
:104DE000005201BFB8F8001043F60F7211400CF5E5
:104DF000405251401980BDE8F08100BF8080FFFF24
:104E00000080FFFFF0B50A780D7B4C78510030F838
:104E1000223048F2800225B303F480434CB30BB137
:104E2000FEF75AF830F8113002F5804540F63F742D
:104E30005B0643F60F7309D530F8116040F60F7723
:104E40003E4002F140073E4320F8116030F8116007
:104E500040F60F773E40354320F8115048F2800568
:104E60001DE0A4B15B0640F63F731ED502F140057C
:104E700013E00BB1FEF730F830F8113002F14005C5
:104E800043F60F745B0640F63F73D5D4DEE75B0450
:104E900043F60F7309D502F5804540F60F7430F8DC
:104EA000116034402C4320F8114030F81140234069
:104EB0001A4320F811200020F0BDB0F8581041F43A
:104EC0000041A0F85810002070470121A0F84010C0
:104ED0000021A0F84010A0F84410A0F850100020C5
:104EE0007047B0F8401044F27F021140FDF7C2BF96
:104EF000B0B50A784C7830F8223052009CB15B068D
:104F000048F2A00309D530F8124040F60F752C4046
:104F100003F120052C4320F81240C978012918D04C
:104F200040F63F710FE059044BF2800309D530F889
:104F3000121040F60F74214003F58054214320F8ED
:104F4000121043F60F7130F812402140594020F8FA
:104F500012100020B0BD000010B50A784978094B46
:104F6000002940F63F7108BF03F57F6308BF43F691
:104F70000F7130F822402140594020F822100020C3
:104F800010BD00BF9080FFFF2DE9F0410446487836
:104F90000D46012858D1AF692A69974228BF1746A4
:104FA000287B002867D0E978286A022940F08C80A5
:104FB000297840F60F6634F821301E404B009042AD
:104FC00040F29F80A14AC01BC90048F280082144DA
:104FD000324342F4807224F81320286234F813001C
:104FE0004006B4F85000084400F1AA80A0F802740A
:104FF000BBB2FEF77FF8FEF721F888BFC31B2B6218
:1050000088BF38466A78012A00F0D780002A40F02D
:10501000F880B4F850202B780028224402F206428F
:1050200032F833606FF39F2622F8336000F0CF80B0
:105030003E2800F2D68000F0010732F8336007EB1B
:10504000500746EA8726DAE0287B18B3E87801287B
:105050004CD0022852D1E869002849D0297848F27A
:10506000800034F8213003F040025B0400F19480AA
:10507000002A3ED192E0EA886969BBB2204600F07E
:1050800012F9B4F850002978204400EBC100A0F8D0
:10509000027450E0A96948F2800019B9EA78002A40
:1050A00000F0888048F280022B7840F60F6734F8D1
:1050B00023603E40324324F823202A6991428CBF6A
:1050C000891A0021A96114E0C01B2862287834F8ED
:1050D000201049064FEAC001B4F8500021440844AA
:1050E00021D4A0F8027469692A8920E00020A8610F
:1050F000564800F5405043F60F719DE00120BDE891
:10510000F081524F04EBC10146EA070224F8132054
:1051100083B2B4F850201144A1F80204FDF7EAFF6D
:1051200007F1300086E0A0F8067469696A89BBB2AD
:10513000204600F0B8F8454840F63F7130307BE03B
:10514000A0F80674BBB2204669696A8900F0ABF822
:10515000FDF774FF88BFC31B2B6288BF38466A788F
:10516000012A2FD0002A5ED1B4F850202B78224497
:1051700002F2024232F833706FF39F2722F8337045
:1051800040B33E283FD800F0010732F833C007EBA8
:1051900050074CEA872721E0002AAAD0490040F6B0
:1051A0000F7334F811201A4000F140031A4324F819
:1051B00011209EE700F5807276E7FDF782FFA2F8E6
:1051C00006041EE0FDF77DFFA2F802042BE032F892
:1051D000336012E032F8337047F4004722F833703E
:1051E00021E0C7064FF0FF364FEA501708BF06EB25
:1051F000501732F8336046EA872646F4004622F814
:1052000033606A8910E0C7064FF0FF3C4FEA501741
:1052100008BF0CEB501732F8336046EA872646F495
:10522000004622F833602A8983B2204600F03BF81A
:1052300008F1300040F63F712A7834F822301940E6
:10524000484024F822000020BDE8F0818080FFFF64
:105250000021A0F844104BF68071FDF70BBE000052
:105260000148FBF7B9BF00BF40220020B0F844005E
:10527000704710B5104400F58062481C590831B1E0
:1052800032F8024B013920F8014C0230F7E7D90718
:105290001CBF118800F8011C10BD11B98021A0F8B5
:1052A0004C100020704710445A1C00F580605208D2
:1052B0002AB131F8023B013A20F8023BF8E7704787
:1052C000FEE7000010B5AF4C606DE16C626D891AAD
:1052D000022291FBF2F10844A065E06C216D884246
:1052E00009DA4FF0FF3000F03BFAFDF72DFFD4BF95
:1052F000043904300BE0E06C216D88420BDD0120A5
:1053000000F02EFAFDF720FFB4BF04310438006826
:105310000968401A00E00020B4F9321020EAE07079
:1053200088420749A4BFB4F93200013831F81000AF
:105330009749B1F9081008440128D8BF012010BDD1
:10534000F40C0020F8B5634DE87903287AD0624860
:10535000D0F81421B0F81811D0F824311268114097
:1053600018BF0121B0F828011A68104049F269629B
:1053700018BF012040EA4100697F40EA8101CA402C
:10538000D2075FD1EA7A687754A0405C002A18BF40
:105390004042296D44B241FA80F12046296500F06F
:1053A000A5F8012C28DB687E30B3286DE96B013944
:1053B000884221D16878F8B9A87E0130A876A87E05
:1053C000032819D3724E704F002401206C76287682
:1053D0002C7134707078844209D2FBF7EBF929798B
:1053E00007EB81012144013481F82000F2E7FDF749
:1053F0003DFE6AD000202867287E18B3286DE96B2F
:10540000884203DB286D296C88422EDD287F08B98D
:10541000FDF7A4FB00206871A87901280FD1286D41
:10542000296C88420BDD687848B9FDF797FBFDF7DA
:105430001DFE4AD0286F0130286701206870A879C6
:10544000FF2800D0F8BD286DE96B8842FADA687849
:105450000128F7D1FDF782FBFDF708FE35D0286F54
:105460000130286700206870F8BD287F08B1FDF77B
:105470008BFB474C444E454920782871287906EB30
:105480008000FDF776FE08BF014688B2FEF7F0F90E
:105490006078022807D301206871288D6178B0FBFD
:1054A000F1F000F077F82879002780F001002070F3
:1054B00060788742B0D2FBF77DF9217806EB810155
:1054C0003944013781F82000F2E70120BDE8F840B7
:1054D000FEF752B9E80300207001002000FF010030
:1054E000010000FFFF0000010001FF000E490A68F3
:1054F000C6498B6F8A67D21A0C4BA2FB03239A0909
:105500004CF250339A4205D34FF6FF7000220885C3
:10551000012006E00A8501220128B8BF4FF0FF32C2
:1055200000208A71C8777047041000E0F13B5D608D
:10553000B0B5B64C206DE16B884203DB206D216C69
:10554000884206DD00200025FEF792F901206571F2
:10555000B0BD20790C4901EB8000617908440B490A
:10556000FDF707FE08BF014688B2FEF781F96079B2
:10557000013060710648617942780020914228BF6D
:105580000120B0BDE803002064040020B40B00201B
:105590000800002010B504461D20FBF7C7FC064894
:1055A000C462016921F001010161C16841F001019A
:1055B000C160FDF7F2FC10BD000400402DE9F0478A
:1055C00088B0DFF8C886044698F80000A04200F0D2
:1055D00085801C20FBF794FC1C20FBF77FFC4148D6
:1055E000414E424D4FF0804A0027FDF7D6FC01683E
:1055F00021F001010160016A41F001010162006ACC
:1056000000F0010001900198CAF8007046F8087C8B
:10561000376077607761C5E90477AF60C5F800A0AF
:105620008020A8614C48032C47601BD142F21070C7
:105630000821E860A92068602846FDF73CF937603A
:1056400005210022FDF7EEFC40F0010030601C2037
:10565000FBF77EFC1C20FBF769FC64203062B7611D
:10566000776033E041F28830E860212068602846A6
:10567000FCF733FFDAF800000DF104091C2120F0DB
:105680000800CAF800004846FAF77BFE40F6C4104E
:105690004946002202902846FDF7DEF8DAF80000BD
:1056A0000521002240F08000CAF80000F06840F0B8
:1056B0000800F0603760FDF7B5FC40F00300306093
:1056C0001C20FBF745FC1C20FBF730FCDAF800003F
:1056D00040F00100CAF8000088F8004008B0BDE8BA
:1056E000F08700BF381002400C0000401C2500204D
:1056F000B0B517490978032916D041F22431154A6B
:105700008842B8BF01469142D8BF1146002800D553
:1057100040420A28104C114838BF0021616021B175
:10572000002900D549420160B0BD0025056024482C
:10573000B0F84830026C016B1B041360008F00044A
:10574000086000F0A7FA00F0B1FA2570B0BD00BF04
:10575000EF030020DCECFFFF80030020340000405A
:1057600010B59D490A7B012A12D100220A73144AFE
:10577000B2F85830CC7B002C08BF1B04126D1360AC
:105780000A6D024440B20A65BDE8104000F040B81E
:1057900001220A7301280A4814BF8A7B4A7B002A27
:1057A000074AB0F8680008BF0004146E136D20604B
:1057B000B2F85800097C002908BF0004186010BD29
:1057C00070010020F0B5844AD37803B1F0BD002306
:1057D00001249374D4709370146D156D166D176D4C
:1057E0008E423E46CCBF0E460F46BE1B471B844230
:1057F000C8BF2F1AB742B8BF01464FF00000D164AE
:10580000A8BF012010729363F0BD00BFE803002021
:105810002DE9F0410446FFF769FE012C2DDB6E4DAA
:10582000687E50B3286DE96B0139884225D16878CC
:1058300018BBA87E0130A876A87E03281DD3DFF808
:105840000C86594F002601206E7628762E7188F836
:10585000006098F80100864209D2FAF7ABFF297977
:1058600007EB81013144013681F82000F1E7FDF7B3
:10587000FDFB00F0948000202867DFF8CC8598F8C5
:10588000180010B3D8F85000D8F83C10884205DB57
:10589000D8F85000D8F84010884238DD00200025A4
:1058A000FDF7E6FF98F81C0008B9FDF757F988F8EE
:1058B0000550012C0BDBD8F85000D8F84010884276
:1058C00003DD98F80100002857D0BDE8F081B4F15D
:1058D000FF3FFADCD8F85000D8F83C108842F4DAE0
:1058E00098F801000128F0D100200024FDF7C0FF46
:1058F00008F16000FAF7BCFF002850D0D8F870001B
:105900000130C8F8700088F80140BDE8F081D54E3C
:10591000307888F8040098F81C0008B1FDF734F9D5
:1059200098F80400CE4F214907EB8000FDF721FCD9
:1059300008BF014688B2FDF79BFF7078022809D3A3
:10594000012088F80500B8F830007178B0FBF1F05C
:10595000FFF720FE98F80400002580F00100307069
:1059600070788542A5D2FAF725FF317807EB8101DF
:105970002944013581F82000F2E70020FDF778FF87
:1059800008F16000FAF774FF48B1D8F870000130F0
:10599000C8F87000012088F80100BDE8F0810120FE
:1059A000BDE8F041FDF7E8BE64040020B40B002020
:1059B000E348817801B17047012181700021817431
:1059C000C279032AF7D0C170C18481630172A349EF
:1059D000C968C164704700BFE803002070B5FAF7DA
:1059E00091FDF14CE079032811D1206D616D884261
:1059F00003D0206DE16C884201D1206D6065607C30
:105A000001281FD1206DB4F93210084421E0E0785C
:105A1000012849D1208D28B1218D4FF6FF70814298
:105A200040F0A780002060648C488168226D8A4223
:105A30005FDA4068216D814262DC207A00285FD005
:105A400000205AE0607C022804D1206DB4F93210A5
:105A5000401AE064A07860B1206DE16C884208D102
:105A60000020E070A07C20B97C48C068E064012080
:105A7000A074E07850B17949D1E90101226D8242E8
:105A8000D8BFE164226D8A42A8BFE064E06C216D5A
:105A9000884206BFED480089FFF714FC2086208E5F
:105AA000BDE8704000F0E2B86C49487D01285ED145
:105AB000607C012803D0607C022840F09680607CE6
:105AC0006FF00101012808BF0221206D0844E06445
:105AD000208D002865D0218D4FF6FF70814260D067
