:020000040800F2
:10000000A02A0020B9020008BB2E00084B2C0008D3
:10001000B92E0008AF0400087D4F00080000000062
:100020000000000000000000000000007937000818
:10003000E90500080000000031370008D537000846
:10004000D3020008D3020008D3020008D30200083C
:10005000D3020008D3020008D3020008D30200082C
:10006000D3020008D3020008D3020008D904000814
:10007000D3020008D3020008D3020008D30200080C
:10008000D302000800000000D3020008D3020008D9
:100090001D4F0008D3020008D3020008EB0500083A
:1000A000D302000859380008D3020008513800086C
:1000B00065380008713800087D380008D302000850
:1000C000D3020008D3020008D3020008D3020008BC
:1000D000D3020008D3020008D3020008D3020008AC
:1000E000D3020008D3020008D3020008D30200089C
:1000F000D3020008D3020008D30200080000000069
:1001000000000000D302000800000000D302000835
:10011000D302000800000000D3020008D302000848
:10012000D3020008D3020008D3020008D30200085B
:10013000D30200080000000000000000D302000805
:10014000D3020008D30200080000000000000000F5
:10015000000000000000000000000000000000009F
:10016000000000000000000000000000D3020008B2
:10017000D3020008000000000000000000000000A2
:1001800000000000D3020008000000000000000092
:10019000000000000000000000000000000000005F
:1001A0000000000000000000D3020008D302000895
:1001B000D3020008D3020008D302000800000000A8
:1001C00000000000D3020008000000000000000052
:1001D000D3020008D302000800F002F800F05CF837
:1001E0000AA090E8000C82448344AAF10107DA4592
:1001F00001D100F051F8AFF2090EBAE80F0013F088
:10020000010F18BFFB1A43F001031847105E0000EE
:10021000305E00000A444FF0000C10F8013B13F070
:10022000070408BF10F8014B1D1108BF10F8015B4F
:10023000641E05D010F8016B641E01F8016BF9D142
:1002400013F0080F1EBF10F8014BAD1C0C1B09D199
:100250006D1E58BF01F801CBFAD505E014F8016B0B
:1002600001F8016B6D1EF9D59142D6D3704700009D
:100270000023002400250026103A28BF78C1FBD8AF
:10028000520728BF30C148BF0B6070471FB505F04B
:10029000ABFE1FBD10B510BD00F0CFF81146FFF743
:1002A000F5FF05F027FD00F0EDF803B4FFF7F2FFCE
:1002B00003BC00F0F5F800000948804709480047F2
:1002C000FEE7FEE7FEE7FEE7FEE7FEE7FEE7FEE706
:1002D000FEE7FEE704480549054A064B7047000063
:1002E00041380008D9010008A0240020A02A0020DD
:1002F000A0260020A0260020032A40F2308010F023
:10030000030C00F0158011F8013BBCF1020F6244B0
:1003100098BF11F801CB00F8013B38BF11F8013B41
:10032000A2F1040298BF00F801CB38BF00F8013BEE
:1003300011F0030300F04F80083AC0F0088051F834
:10034000043B083A51F804CBA0E80810F5E7121D69
:100350005CBF51F8043B40F8043BAFF30080D20788
:1003600024BF11F8013B11F801CB48BF11F8012B54
:1003700024BF00F8013B00F801CB48BF00F8012B77
:1003800070474FF0000200B5134694469646203958
:1003900022BFA0E80C50A0E80C50B1F12001BFF43E
:1003A000F7AF090728BFA0E80C5048BF0CC05DF8A4
:1003B00004EB890028BF40F8042B08BF704748BFF2
:1003C00020F8022B11F0804F18BF00F8012B704766
:1003D00070477047704710B5203AC0F00B80B1E805
:1003E0001850A0E81850B1E81850A0E81850203A6A
:1003F000BFF4F5AF5FEA027C24BFB1E81850A0E873
:10040000185044BF18C918C0BDE810405FEA827C8C
:1004100024BF51F8043B40F8043B08BF7047D207A3
:1004200028BF31F8023B48BF11F8012B28BF20F844
:10043000023B48BF00F8012B7047754600F02CF8CE
:10044000AE4605006946534620F00700854618B0C1
:1004500020B5FFF73FFFBDE820404FF000064FF00A
:1004600000074FF000084FF0000BAC46ACE8C009A5
:10047000ACE8C009ACE8C009ACE8C00921F007014C
:100480008D46704710B50446AFF300802046BDE8A6
:100490001040FFF70ABF000000487047900100209D
:1004A00001491820ABBEFEE7260002007047FEE7B8
:1004B000002070470020704780B50648D0F8BC0285
:1004C00030B102F0D5FE034803F0B2FC002080BD3D
:1004D000032080BD601D0020634800F011BA00BFFA
:1004E00010B510490368446C01F18002C264A1F5A3
:1004F0007E72203193423CBF40F60001C4F20201FB
:1005000024F0030211441422816403F0FC01083931
:10051000B1FBF2F1012201F01F0102FA01F10165C4
:1005200010BD00BF0008024010B503790649012440
:100530005430013B01F1400201EB830103F01F0342
:1005400004FA03F30EC010BD00090240F0B500F13B
:100550004C0670CE656016B1D0E91645656004683A
:100560008568D0E91060012700F01F00102D07FA00
:1005700000F070600846636008BF1046A06008BFC6
:100580000A46E260F0BD00003348417F01B1704788
:1005900009490968026F891A084AA1FB02129109E8
:1005A0004EF661229142F2D3012141774FF6FF715D
:1005B0000184002181717047041000E0F13B5D600F
:1005C0000748016841F080710160064800214160E0
:1005D000016841F0010101601F49406808677047E8
:1005E000FCED00E0001000E0704780B5202000F036
:1005F0008BFB4020BDE8804000F086BBEFF310800D
:1006000072B6FEE7924890F82A1590F82B25914291
:100610000FD290F8291590F82B250131B1FBF2F398
:1006200003FB121180F8291590F82A15013180F882
:100630002A150848007E00B170470748017E00294E
:10064000FAD1C17D0029F7D101210176002141763F
:10065000704700BFA4090020F001002013460A469D
:100660000146014800F016BA3020002043481549E1
:10067000027F032A03D0022A15D0012A1FD10B685A
:1006800002F0FE02022A23F400730B600B6843F4AD
:1006900000630B600B6823F400630B600B6843F48A
:1006A00000730B600BD10A6842F480520A600A683A
:1006B00022F480520A600A6842F480620A600021D3
:1006C0000177704700200240C007184803D0016836
:1006D00041F004010160016841F48031016070471C
:1006E0001249C0B20A6822F4FC7242EAC0000860F3
:1006F000086840F002000860086840F48030086034
:10070000704700BF10B5094A136843F48023136093
:10071000EFF31082EFF3108372B6402310C9013B50
:1007200010C01C06FAD182F3108810BD14200240BC
:1007300070B5114E044600F0BFFB05463068C0039B
:1007400007D500F0B9FB401BA04284BF032070BD59
:10075000F4E730684CF2FA31014005D007484268AE
:100760000A434260012005E03068C0074FF00000F6
:1007700001D00121316070BD1020024070010020C5
:10078000334800211E2280F8281580F8291580F8AA
:100790002A1580F82B250022C0F82C15A0F830155A
:1007A000A0F832151E2A08BF704700232C2B02D058
:1007B000C1540133FAE72C300132F3E710B5244875
:1007C00090F82A1500293ED090F82825D0F82C154D
:1007D00011F007012BD1B0F830352C2B1AD390F83B
:1007E0002A257AB190F8282590F82B350132B2FBF2
:1007F000F3F404FB132280F8282590F82A25013A07
:1008000080F82A250022A0F8302590F82A25E2B1A8
:1008100090F828252C2312FB0302B0F83035D25C67
:10082000A0F83225B0F830250132A0F83025B0F814
:100830003225D0F82C350133C0F82C3522FA01F0DE
:1008400000F0010010BD002010BD012010BD00BF50
:10085000F003002029480021062280F8401080F88B
:10086000411080F84210102A08BF704740F822104B
:100870000132F8E7214991F84220C2B191F84120B4
:1008800001EB8202926902600A2291F84100013074
:10089000B0FBF2F202EB8202A0EB420081F84100D1
:1008A00091F84200013881F8420001207047002091
:1008B00062B6704781B00090104890F842100A2943
:1008C00002D362B6002017E0009990F8402000EBB8
:1008D000820291610A2290F840100131B1FBF2F2DC
:1008E00002EB8202A1EB420180F8401090F8421026
:1008F000013180F84210012001B070476C020020E5
:10090000F0B5D0E910130268042403F01F030E6849
:1009100004FA03F51468354201D067071BD4022599
:100920009D40354201D0A7071FD426FA03F52D07B5
:100930002ED524072CD5146824F00E04146001224F
:1009400002FA03F34B600021C26380F8241080F8A0
:100950002520416B18E013689B0603D4136823F02D
:10096000040313604D60016B0EE013689B0606D410
:10097000136823F00A031360012280F82520002267
:1009800080F824204D60C16A11B1BDE8F0400847ED
:10099000F0BD0000002847D0F8B5044602202949E0
:1009A00084F8250004F10806206801F1080268CEE9
:1009B0009042254A38BFA1F5806138BF02F58062B8
:1009C00014270244B2FBF7F29200C4E9101247F672
:1009D000F07201689143626919432943314311431D
:1009E000A2691143E2691143226A11430160204662
:1009F000FFF776FDA06804F14803B0F5804F06BF0D
:100A0000002060606068C5B20ECB013803280D601D
:100A100053600BD82046FFF787FD04F154020023F2
:100A200007CA03604A6005E0012070470020C4E95E
:100A30001500E06500200121E06384F8240084F8BB
:100A40002510F8BD00040240F8FBFDBF90F82430EB
:100A5000012B01D102211BE090F82530012B08D198
:100A6000032906D8DFE801F002070A0D00F12C0186
:100A700009E0012109E000F1300104E000F1340156
:100A800001E000F138010A600021002280F82420F2
:100A900008467047B0B5044690F82400012818D0E5
:100AA00002F065FA13D1022084F825000020E063EB
:100AB0002068056825F0010505602046FFF746FD22
:100AC0002068226B016832B141F00E0109E002F0AA
:100AD0001DFA0220B0BD21F004010160016841F05F
:100AE0000A010160A16C0A68D20303D50A6842F4C6
:100AF00080720A60616D19B10A6842F480720A60FE
:100B0000016841F0010101600020B0BD80B50948D5
:100B10004FF0FF3100220161026181618261016059
:100B20000260416042608160826000F019FA00203A
:100B300080BD00BF28100240B0B5044600F0BCF9EB
:100B40000546EC48611C406818BF044400F0B4F945
:100B5000401BA042FAD3B0BD2DE9F843DFF87491F1
:100B6000054699F80000012801D102264EE0012037
:100B7000884689F8000002F0C5F90646002842D1EF
:100B80000020554CC9F8040020682168490502D4AA
:100B9000C0F3402009E010F40070206820F4806069
:100BA00020604FF0030008BF022089F81C0028686D
:100BB00001280AD16868FFF787FD02F0A3F906460D
:100BC000606920F0040060611BE04FF0FF30C8F85E
:100BD0000000A8680746E968084487420DD23846F5
:100BE000FFF77EFD02F08EF90646606920F4FD7085
:100BF000606126B9A8680137EDE7002601E0C8F872
:100C00000070FFF733FD002089F800003046BDE892
:100C1000F88300BF0448016841F0004101600068AA
:100C2000C043C00F704700BF142002402DE9F047B9
:100C3000DFF8A090074699F80000012801D10226AC
:100C400045E00120984615460C4689F8000002F060
:100C500055F90646C0BB00201F4AC9F804001168B8
:100C6000490504D5106820F480601060022089F8DE
:100C70001C00781E022809D2204629469246FFF71A
:100C800041FD022F12D16FF480240CE06FB950693E
:100C9000924640F0010050612560BFF36F8FC4F8A9
:100CA00004806FF00104002503E092464FF0FF340A
:100CB000012502F023F9064625B9DAF81400204090
:100CC000CAF81400FFF7D2FC002089F80000304673
:100CD000BDE8F08770010020002002400648C1688E
:100CE000B1F1FF3FC4BF00207047044901600449CF
:100CF0000160C068C00F70470820024023016745AB
:100D0000AB89EFCD04F07CB903490A68024208BF01
:100D100070470860FFF7F6BF140401402DE9FC4F4F
:100D20005D4A06244FF0000B4FF0010A4FF0000916
:100D3000904200F1384208BF05244FEAB223052B48
:100D400038BF4FEAB224009400220B6833FA02F451
:100D500008BFBDE8FC8F0AFA02F813EA080700F0A2
:100D6000958003234C6803FA09F36FEA030E04F03D
:100D70000303A3F1010CBCF1010F13D8866806EA46
:100D80000E0CCE6806FA09F646EA0C068660C4F335
:100D9000001606FA02FC466826EA080646EA0C0631
:100DA000466003E0032B01D103231DE0C6688D6874
:100DB00006EA0E0605FA09F53543022BC56013D184
:100DC0006FF003050BF01C030F2405EA52059C404D
:100DD00005442E6A26EA04040E6906FA03F3234347
:100DE0002B624C6804F00303056803FA09F305EA73
:100DF0000E052B4314F4403F036047D0294C274E87
:100E000022F003052368B446354443F00103236010
:100E100023680F2403F0010301930BF00C03019EE0
:100E20009C40214EB646AE5926EA0404009E06FABE
:100E300003F3234345F80E30DCF808304D6843EAED
:100E40000704EE0258BF23EA0704154BCCF808400C
:100E5000AE029E461B6843EA070458BF23EA070414
:100E6000CEF80040AE03DCF8043043EA070458BF74
:100E700023EA0704CCF80440ED03DCF8003043EA31
:100E8000070458BF23EA0704CCF800400BF1040B19
:100E900009F10209013258E700140048000401403A
:100EA0000C0401406010024008FCFFFF1823002AD8
:100EB00008BF2823C15070470F480068704700BF23
:100EC00001480068704700BF9075FF1F0148006827
:100ED000704700BF9475FF1F01480068704700BF4E
:100EE0009875FF1F1C48044940680A681044086050
:100EF000704700BF000000209C24002080B5032024
:100F000000F082F80F2000F007F808B1012080BD42
:100F100000F028F8002080BD70B50F4E04467068C0
:100F2000B0B14FF47A71B1FBF0F00C490968B1FB34
:100F3000F0F001F0B3FA01250F2C0AD848B94FF0B0
:100F4000FF3021460022002500F038F8346000E030
:100F50000125284670BD00BF00000020540000207D
:100F60007047000082B00B48816841F00101816048
:100F7000816801F0010101910199016841F08051FE
:100F80000160006800F080500090009802B000F00E
:100F900049BE00BF5810024000280BD400F01F01CA
:100FA0000122C0B202FA01F1034A42EAD00020F065
:100FB00003000160704700BF00E100E0F0B5184B8E
:100FC0004FF0FF361C68C4F30224E51E84F00704CA
:100FD00038BF002506FA05F7BA43042C28BF0424BD
:100FE00006FA04F4A14300F00F04A940043C1143A5
:100FF000044A234409010244002848BF03F10C02BB
:101000001170F0BD00E400E005494FF6FF030A68E7
:101010001A4060F30A22034810430860704700BF7B
:101020000CED00E00000FA0504F0ECFD0168B1F8F9
:10103000542042F00102A1F854200122C0F8D0222D
:10104000002280F8C822B1F8540040F00200A1F854
:101050005400002070477047B0B501F0070501EB60
:10106000810405EB850500EBC40400EBC5001030DE
:10107000090658BF04F5A87012B10121836001E090
:10108000C380002101730020B0BD01EB810200EBA1
:10109000C202D0F8D802526A03F019B801EB8102FB
:1010A00000EBC202D0F8D802D2F8642103F061B894
:1010B00010B5044601F0070049B202F06CF8C3BF56
:1010C000002281F8512101F5A8710122DCBF4A7488
:1010D0001031087094F89002012804BF022010BD5E
:1010E00001F029FF03F0ECFC01F0F3BEB0B50446BB
:1010F000007901F00F02824201D901251DE001F0C3
:10110000070049B202F047F8C3BF002281F851211D
:1011100001F5A8710122DCBF4A7410310870002566
:1011200094F890028D70012801D1022505E001F0AC
:1011300002FF03F03BFD84F890522846B0BDB0B5E5
:10114000044601F0070049B26FF3DF2202F023F8F2
:10115000C3BF002581F8515101F5A8710125DCBFFD
:101160004D741031CB700A610870022B04BF00204F
:10117000087194F89002012804BF0220B0BD01F06C
:10118000DAFE03F049FB002084F89002B0BDB0B550
:1011900001F00701002501EB810400EBC4040068A5
:1011A00004F5B27784F8501104F5A87184F8515110
:1011B0002CC703F047FD0020B0BD10B5044601F078
:1011C00007002279904284BF012010BD4AB2B2F1DB
:1011D000FF3F09DD01EB8101002204EBC10181F831
:1011E000512101F5A87106E000EB8001012204EB1A
:1011F000C1014A74103194F890220870012088705F
:10120000012A04BF022010BD84F89002206803F078
:1012100001FD01F05EBEB0B501F00704002504EB4E
:10122000840100EBC101006801F8104F012401F1B5
:10123000140781F824400B624C702CC703F002FDA8
:101240000020B0BD2DE9F84F0446006803F06CFEA5
:1012500001041CD4410500F14883410400F154838A
:10126000810400F15683C10400F15883010500F1A7
:101270007883010600F18183810500F18C83C0052C
:1012800040F16D8301F0C4FF21F4807165E304F542
:101290002670009040F60F752068B0F94410B1F147
:1012A000FF3F00F35C83B0F8442012F00F0842D0F7
:1012B00030F928104FEA480A1FFA81F9B1F1FF3FCF
:1012C00000F3178130F81A102940803120F81A10E5
:1012D00008EB880104EBC10B9BF85C110BF5A876B9
:1012E000002900F0A3809BF85311022940F0AD8043
:1012F000B0F85010DBF868310A1831785FEA4947D6
:1013000002EBC1050BF5B47200F1BA80B5F80674B2
:1013100000256FF39F27DB1B38BF2B46136001D8D6
:1013200001F084FE5FEA496240F60F7500F1A48087
:1013300001F056FFA0E00188D20625D4294001F52E
:1013400000410180B0F850100844217C00EBC1003E
:10135000616AB0F802046FF39F20E0620844002144
:1013600060622046FFF791FE207B002894D0A06A9F
:10137000002891D12068217B41F08001C9B2A0F8FA
:101380004C100020207387E70A0539D409B2B1F167
:10139000FF3F3FF781AF018829408031018001F094
:1013A0001BFEB1F806346FF39F23C4F86C3193B180
:1013B000D4F8641179B1B4F8562103F0B8FDD4F82B
:1013C0006401D4F86C1108440021C4F8640120467B
:1013D000FFF764FE206801880A053FF55DAF01F460
:1013E0004051B1F5405F3FF457AF018843F60F72AB
:1013F00011404CF28002A2F58052514001804BE72F
:1014000001F0EAFDB4F85621B1F8063400996FF303
:101410009F23C4F86C3103F08AFD206801882940BD
:1014200080310180204600F07EFB35E7B0F8501097
:101430003278014401EBC201B1F806746FF39F27C3
:10144000002F3ED0BBF8562135E0327848F2A00399
:10145000203330F822102940194320F8221000EBE5
:10146000C20130F822205204B0F8502011441BD49D
:10147000B1F806746FF39F271FB3BBF85A211AE027
:10148000B5F8027400256FF39F27DB1B38BF2B468E
:10149000136001D801F0CAFD5FEA496240F60F759A
:1014A00006D501F09DFE03E0B1F802746FF39F27AB
:1014B0003FB1BBF85821DBF864113B4603F037FD20
:1014C00000E000270BF5B27207CA3A443844CBF863
:1014D0006C21CBF8640119B1DBF86001B84204D982
:1014E00031782046FFF7DAFD03E02068314603F04B
:1014F000A9FB5FEA09607FF5CFAE206830F81A10CB
:10150000294001F5004120F81A1008EB880104EB8E
:10151000C105EF7C05F11008012F00F0AD805FEAF6
:10152000C95140F1C6802A4698F800105FEA496325
:1015300052F828BFB0F8506000EBC10A30D40AF26C
:10154000064E3EF806C000266FF39F2CBBEB0C0343
:1015500038BF3346136000F2DB806A7C012A50D02A
:10156000002A40F60F7558D1B0F850205244B2F816
:1015700002346FF39F23A2F80234B2F8023443F42A
:101580000043A2F80234B0F850203EF802306FF366
:101590009F232EF802303EF8023043F400433AE035
:1015A0000AF2024C3CF806E000266FF39F2EBBEBDC
:1015B0000E0338BF3346136000F2D5806A7C012ADF
:1015C00037D0002A40F60F753FD1B0F850203CF8D4
:1015D00002306FF39F232CF802303CF8023043F4C2
:1015E00000432CF80230B0F850205244B2F80634D0
:1015F0006FF39F23A2F80634B2F8063443F4004395
:1016000021E0B0F85020002340F60F755244A2F8B4
:101610000234B0F850202EF80230022F01D101F030
:101620008EFD2046FFF731FD5FEA49403FF534AEBD
:1016300016E0B0F85020002340F60F752CF8023069
:10164000B0F850205244A2F80634022F01D101F024
:1016500076FD2046FFF719FD5FEA49407FF51CAE95
:1016600098F8000021684CF2800331F820202A40CD
:101670001A4321F820200FE60021A962297F0029C2
:1016800000F0A8805FEA496130D4697C012900F04C
:101690009880002940F09E8001F0DBFDB0F8061430
:1016A0006FF39F21A0F80614B0F8061441F400412E
:1016B00089E0AB6AB0F850100026421898F8001084
:1016C00002EBC102B2F802246FF39F229B1A38BFCB
:1016D0003346AB6240F28080696AEB6A114469620A
:1016E0009918E962414603F0ADFAD3E5697C012916
:1016F0006CD000296ED101F0ACFDB0F802146FF38C
:101700009F21A0F80214B0F8021441F400415FE0F8
:101710005FEA494209D430F8212040F60F731A409D
:101720004CF280031A4320F821202A4612F8341F75
:10173000012940F0CB802F4657F8309F57E904A18C
:1017400057F8043C6144634447F80C1C47F8043CD8
:10175000D14545D20023B9F1000F13701ABF3B6089
:10176000CA46E2463FE05FEA494209D530F8212007
:1017700040F60F731A404CF280031A4320F82120E0
:101780002B4613F8341F012940F0A0802A466646F4
:1017900052F830BF52E904C152F8049C714409EB7D
:1017A0000E0742F80C1C42F8047CE34537D24FF098
:1017B0000009BBF1000F374683F8009033D1F346A0
:1017C00033E001F03DFDA0F8061403E001F038FD20
:1017D000A0F8021498F800102046FFF756FC59E5CF
:1017E000A9EB0A023A606A7C012A37D0002A55D157
:1017F000B0F85020BAF1000F3EF802306FF39F238B
:101800002EF8023034D0BAF13E0F36D80AF0010675
:1018100032F80E3006EB5A0643EA86233CE0ABEB87
:101820000C09E3463746C2F800906A7C012A1AD0B8
:10183000002A46D1B0F85030BBF1000FFA5A6FF3CE
:101840009F22FA5217D0BBF13E0F2BD80BF00106A6
:10185000DA5B06EB5B0642EA862231E0B0F8502004
:101860002EF802A01AE0B0F8502027F802B028E0C5
:1018700032F80E300EE0DA5B20E05FEACA634FF028
:10188000FF364FEA5A1308BF06EB5A1332F80E60C0
:1018900046EA832343F4004322F80E306A8B1FFA92
:1018A0008AF311E05FEACB624FF0FF364FEA5B123A
:1018B00008BF06EB5B12DE5B46EA822242F400427E
:1018C000DA532A8B1FFA8BF303F04BFB98F80000D6
:1018D000216840F63F7331F820201A4048F2A003F7
:1018E00010335A4021F82020D4E401F091FC21F477
:1018F0008061A0F84410204600F0E0F82046002166
:10190000BDE8F84F00F002B901F082FC21F48041FB
:1019100023E001F07DFC21F400511EE02068B0F8C6
:10192000401021F00401A0F84010B0F8401021F060
:101930000801A0F8401094F8C802012806D1002040
:10194000002184F8C8022046FFF785FB204600F0FE
:10195000C7F801F05DFC21F48051A0F84410BDE807
:10196000F88F206801F054FBB0F8441021F40061B6
:10197000A0F8441001F03EFB08E001F049FC21F022
:101980008001A0F8441094F8C81279B12046BDE84F
:10199000F84F00F0DFB801F03BFC21F40071A0F833
:1019A00044102046BDE8F84F00F0ACB801F022FB2F
:1019B00001F02EFB012184F8C8123C21B0F854003C
:1019C00001EA90000121C4F8CC022046BDE8F84F9E
:1019D000FFF741BB70B5002840D0044690F8910253
:1019E00028B9002084F89002204600F039F803203E
:1019F00084F89102206803F0D2F8207900210122B6
:101A000000230025A84209D0E61828333574C6E91A
:101A10000811B162F17472740135F3E704F5A8712D
:101A200000220023984208D00B70C1E904228A6189
:101A3000CA704A7028310133F4E794E8070003F0D4
:101A4000A2F800200121207384F89112A17A0129C3
:101A500003D12046FFF7EAFA002070BD012070BDD7
:101A600010B592B0044601A840210430FEF789FC6D
:101A70002068104988421AD14FF40050019001A803
:101A800000F0DCF808B1FEF7B9FD0B480022016850
:101A900041F4000101600021006800F400000090A2
:101AA00000981420FFF78AFA1420FFF775FA12B095
:101AB00010BD00BF005C00405810024010B5044645
:101AC0004079022818BFFEF799FDD4F8D802012109
:101AD00002F026FCD4F8D802BDE8104002F0D8BBD2
:101AE00010B50446407A30B12148016821F0060162
:101AF000016001F071FED4F8D802BDE8104002F098
:101B0000F6BB00BFD0F8D80202F0FBBB10B501F065
:101B1000D2FA04BF022010BD217301F00CFA03F0C9
:101B20001AFA01F0D6B9D0F8D82200F5267110467D
:101B300002F002BC10B501F0BEFA04BF022010BDD5
:101B400001F0F9F903F0E2F9206803F014F801F06C
:101B5000C0B9000010B50446D0F8D80202F02EFC3F
:101B6000607A20B10248016841F00601016010BDB1
:101B700010ED00E010B5B0F5007F21D0002844D171
:101B8000AA480168D0F8802001F4C06122F4807274
:101B9000B1F5806FC0F880203DD101F09CFA1F495B
:101BA000096851431E4AB1FBF2F100220131446938
:101BB000013942F10003640521D5002BF7D11EE065
:101BC0009A480168D0F8802001F4C06142F4807224
:101BD000B1F5806FC0F880201DD101F07CFA0F496B
:101BE000096851430E4AB1FBF2F100220131446908
:101BF000013942F10003640501D5002BF7D140699A
:101C0000400544BF032010BD05E08848022201685A
:101C100062F34A210160002010BD00BF5400002083
:101C200040420F00014801F013BA00BF08700040A5
:101C30007E48016841F48071016070472DE9FC41E4
:101C400004468078784E000701D400204BE0F06C09
:101C500010F0805808D1F06C40F08050F064F06CC7
:101C600000F0805001900198704F386840F4807007
:101C70003860FFF721F905463868C00506D4FFF73C
:101C80001BF9401B0228F7D9032025E0D6F8840071
:101C900010F4407017D0216C884211D0D6F884001F
:101CA000D6F8841041F4803120F44070C6F88410D6
:101CB000D6F8841021F48031C6F88410C6F8840068
:101CC000C00740F0A180206CD6F8841021F4407148
:101CD0000843C6F884000020B8F1000F03D1F16C6E
:101CE00021F08051F1642168CA0705D06268F36F62
:101CF00023F003031A43F2678A0705D5A268F36F3E
:101D000023F00C031A43F2674A0705D5E268F36F24
:101D100023F030031A43F2670A0705D52269F36FEF
:101D200023F0C0031A43F2678A0605D56269F36F90
:101D300023F440631A43F2674A0605D5A269F36F9C
:101D400023F440531A43F2670A0605D5E269F36F9C
:101D500023F440431A43F267CA0505D5226AF36F9C
:101D600023F440331A43F2678A0505D5626AF36F9C
:101D700023F440231A43F2674A050AD5A26AF36F97
:101D800023F440131343B2F5801FF36701D101F030
:101D9000B0F80A050AD5E26AF36F23F4400313434F
:101DA000B2F5800FF36701D101F0A3F8CA040AD598
:101DB000226BF36F23F040731343B2F1807FF3671C
:101DC00001D101F096F88A0405D5626B01F0C7F8DD
:101DD00001D101F08EF84A0405D5A26B01F0BFF8DD
:101DE00001D101F086F809040CD5E16BF26F22F005
:101DF00040520A43B1F1805FF26703D1316841F488
:101E000080313160BDE8FC81FFF756F8054641F2AC
:101E10008837D6F8840080073FF555AFFFF74CF8B8
:101E2000401BB842F5D92FE70C100240007000406B
:101E30002DE9F047002855D0744B04460D4618682C
:101E400000F00F00884209D2186820F00F002843E4
:101E50001860186800F00F00A84243D120688D4E2A
:101E60009A46C107B14602D1810779D48BE06168F7
:101E7000022933D0032938D156F8081C890131D5FD
:101E8000716872687368B4467668022701F00301CE
:101E9000C6F341660329C2F3031107EB46067E4FE2
:101EA000C3F3062201F1010104BF41F20027C0F291
:101EB0007A07B7FBF1F15143554AB1FBF6F1914274
:101EC00024D9DCF80010664611F0F00F16D0800718
:101ED00001D5A06890B14FF000081AE056F8080C40
:101EE000800306D40120BDE8F08756F8080C4005B1
:101EF000F8D500F0A1F846498842ECD930680821AD
:101F00004FF0010861F30710306002E04FF0000865
:101F100066466068316821F00301084301F0D8F893
:101F2000064641F2883749466068D9F8001001F04A
:101F30000C01B1EB800F05D0FEF7BEFF801BB8424D
:101F4000F1D93BE02068810708D4B8F1000F4E4674
:101F5000534618D0316821F0F00113E04E46534645
:101F6000410703D5316841F4E0613160010704D5D0
:101F70003168072262F30D213160A168326822F0D6
:101F8000F00211433160196801F00F01A9421AD91A
:101F9000186820F00F0028431860FEF78DFF0646F2
:101FA00041F288375046DAF8000000F00F00A842EE
:101FB00007D0FEF781FF801BB842F3D90320BDE8AC
:101FC000F08720684E46410705D5E168326822F463
:101FD000E06211433160000706D52069316821F4C1
:101FE000605141EAC000306000F026F83168094ACB
:101FF000C1F30311515C01F01F01C8400C49086096
:1020000005480068BDE8F047FEF786BF00200240A3
:1020100000B4C404026000080000002004481D4908
:10202000044A00680968C1F3022101F00CB800BF3E
:1020300054000020126000081649174A086800F092
:102040000C000428104624D0086800F00C03134844
:10205000082B1ED00B6803F00C030C2B1CBF0020B8
:1020600070474B6803F00303032B08BF0246486820
:10207000C0F303100130B2FBF0F04A684968C2F3C4
:102080000622C1F341615043022202EB4101B0FB41
:10209000F1F07047081002400024F40000127A00AA
:1020A0002DE9FC4100287BD004460078D04EC007C3
:1020B00012D0B068F16800F00C000C2803D101F0D8
:1020C0000301032902D0082840F0D0803068800343
:1020D00002D56068002863D02078800746D4207835
:1020E000000760D42078400774D42078800600F17F
:1020F000A580E769002F00F0B681B06800F00C0001
:102100000C2840F0E780012F4AD0216AF06800F0E7
:1021100003028A4244D1616A6FF00F0202EB01119F
:1021200000F0F0028A423BD1A16A00F4FE42B2EB19
:10213000012F35D1E16A00F07842B2EBC16F2FD1A7
:10214000216BD54A02EA015100F4C002A1F5001149
:102150008A4225D1616B4FF07E4200F0C06002EAF6
:10216000016101F17E4188421AD17CE1B068F168D9
:1021700000F00C000C2803D101F00301022902D069
:10218000042840F095803068400501D5E06838B1FA
:1021900000F0A7FEBC480068FEF7BEFE00289ED0F7
:1021A0000120BDE8FC81D6F89400616900296DD05A
:1021B00040F00100C6F89400FEF77EFE0546D6F812
:1021C000940080073FF58EAFFEF776FE401B022895
:1021D000F5D9DFE0B06D10F0805808D1B06D40F057
:1021E0008050B065B06D00F0805001900198A74F0D
:1021F0003868C0050FD4386840F480703860FEF746
:102200005BFE05463868C00505D4FEF755FE401B49
:102210000228F7D9BEE0A068012808D0052840F0C0
:102220008780D6F8900040F00400C6F89000D6F8F9
:10223000900040F00100C6F8900086E0D6F89800C3
:10224000A169002962D040F00100C6F89800FEF7AD
:1022500033FE0546D6F8980080073FF54AAFFEF7F3
:102260002BFE00F078FEF5D9BDE8FC816068B0F582
:10227000803F06D0B0F5A02F76D1306840F48020A2
:102280003060306840F48030306077E020F001004A
:10229000C6F89400FEF710FE0546D6F894008007B5
:1022A0007FF520AFFEF708FE401B0228F5D971E04C
:1022B0003068E168002970D040F4807000F008FFB9
:1022C00005463068400577D4FEF7F6FD00F043FE82
:1022D000F7D9C9E7306820F0807000F0F9FE0546B4
:1022E000022F09D13068800140F18480FEF7E4FDBF
:1022F00000F031FEF6D9B7E73068800140F1AF80D9
:10230000FEF7DAFD00F027FEF6D9ADE720F0010078
:10231000C6F89800FEF7D0FD0546D6F8980080076D
:102320007FF5E7AEFEF7C8FD00F015FEF5D99BE797
:10233000D6F8901021F00101C6F89010D6F8901050
:1023400021F00401C6F89010C8B3FEF7B5FD0546AC
:1023500041F28837D6F89000800740D4FEF7ACFDF4
:10236000401BB842F6D915E03168002821F48031CD
:102370003160316821F48021316077D0FEF79CFD17
:102380000546306880033FF5A7AEFEF795FD401B7C
:102390006428F6D90320BDE8FC8120F4807000F0A9
:1023A00097FE0546306840057FF599AEFEF784FD3F
:1023B00000F0D1FDF6D957E700F093FD8FE6FEF768
:1023C0007BFD054641F28837D6F89000800706D598
:1023D000FEF772FD411B0320B942F5D944E7B8F17D
:1023E000000F7FF482AEB06D20F08050B0657CE6C7
:1023F0000010024004F120036FF00F05254F0FCBB2
:1024000005EB0111F5683D4028430843216B40EA84
:102410000220214A02EA01514FF07E42A1F500114B
:102420000843616B40EAC36002EA016101F17E4149
:102430000843F060306840F080703060F06840F031
:102440008070F060FEF738FD0446306880010AD4E1
:10245000FEF732FD011B03200229F6D904E7F068DC
:102460000B490840F0600020BDE8FC81FEF724FD28
:102470000546306880037FF52FAEFEF71DFD411B3A
:1024800003206429F5D9EFE6000000200070004029
:10249000FCFFEEFE0C809F010000E0FF411E0020CB
:1024A000B0EB116F1CBF01207047044AF02351604C
:1024B00003490B70072190601160704710E000E045
:1024C00023ED00E07047704770470000F0B590F8CA
:1024D0003C20012A01D102213FE091E87800204A06
:1024E00026F47C5625F47055144035432C4302F5F0
:1024F00000652B400D69234302F5C0542C40234353
:102500004C69234302F5605402F5F04223400C6B02
:102510002240144C1A43CB691A438B6904EA0343E3
:102520006D4C13430268A24202D0694CA24210D102
:102530000D4C01F120060D4FC96A234070CE07EA09
:102540000656334324F00854234325F00054234314
:102550000B43002180F83C1053640846F0BD00BFD7
:10256000FF87F0EF0000FFEFFFFF0FDC0000F0DC63
:10257000704770477047000070B590F83C300222F9
:10258000012B2FD080F83D20534C0268556893688A
:10259000A24202D04E4EB24203D14E6825F47005DD
:1025A0003543114E35400E683543B2F1804F5560CA
:1025B0000DD0454DAA420AD0444DAA4207D0444D01
:1025C000AA4204D0434DAA4201D0A24204D1896854
:1025D00023F08003194391600022012180F83C2000
:1025E00080F83D10104670BD8FFFFFFD704758B159
:1025F00010B500F0F0FD03D100F087FD00F006F803
:1026000000F02FFE00F0BABC012070471CB5006836
:102610002E49884211D02C49884218BF1CBD114850
:102620001D24016841F0020101600121006800F0F1
:102630000200019001981D200CE00A481E24016848
:1026400041F0040101600221006800F004000090E4
:1026500000981E200022FEF7B1FC2046BDE81C4079
:10266000FEF79ABC5810024090F83D1001291CBF9B
:1026700001207047022180F83D100168C868B1F15F
:10268000804F40F00100C8600ED00F4881420BD04F
:102690000E48814208D00E48814205D00D48814243
:1026A00002D00D48814209D188680C4A734600F077
:1026B00083FD9E4606D0B2F5803F03D0724600F0FF
:1026C00093FC9646704700BF00040040000800409D
:1026D000002C01400040014000340140070001008F
:1026E000016841F21113CA6822F00102CA600A6A45
:1026F0001A4208D10A6A44F244431A4203D10A68D2
:1027000022F001020A6000F087BD000010B500F061
:102710005CFD3DD084F83D0001202F4B84F83C0047
:10272000206882681A4082600A683AB3102A25D06D
:10273000202A23D0302A21D0402A2AD0502A30D033
:10274000602A36D0254B9A4218D0B2F5805F1CD053
:10275000B2F5005F38D0B2F1101F0FD0204B9A4273
:102760000CD0204B9A4209D01F4B9A4206D0702AB7
:102770002FD100F090FC41F0770105E081681B4B00
:102780001940114341F007018160002000F039FD3C
:1027900010BD00F046FD2068144A816811404731A1
:1027A000F2E700F03EFD2068104A81681140573181
:1027B000EAE74B68CA68194601F035FA20680B4A07
:1027C000816811406731DFE700F065FC41F480412A
:1027D000DAE70120DAE700BF8800CEFF70001000C2
:1027E00020001000300010004000100088FFCFFFD4
:1027F000704770B504460068C5680669B10710D512
:10280000A9070ED56FF002010161012121778069CE
:10281000800702D000F0F2FC01E000F07FFC002015
:102820002077700712D5680710D520686FF0040173
:10283000016102212177806910F4407F02D000F00D
:10284000DDFC01E000F06AFC00202077300711D5A4
:1028500028070FD520686FF0080101610421217756
:10286000C069800702D000F0C9FC01E000F056FC0E
:1028700000202077F00612D5E80610D520686FF00A
:102880001001016108212177C06910F4407F02D056
:1028900000F0B4FC01E000F041FC00202077F007DC
:1028A00008D0E80706D020686FF0010101612046DA
:1028B00000F0A6F916F4025F08D0280606D52068B5
:1028C0006FF4025101612046FFF7FDFDF00508D5C8
:1028D000280606D520686FF4807101612046FFF755
:1028E000F1FD700608D5680606D520686FF0400136
:1028F0000161204600F0A8F9B00608D5A80606D563
:1029000020686FF0200101612046FFF7DDFDF00235
:1029100008D5E80206D520686FF4801101612046D1
:10292000FFF727FEB00208D5A80206D520686FF48D
:10293000001101612046FFF71BFE700208D56802F6
:1029400006D520686FF4800101612046FFF712FE72
:10295000300201D5280200D470BD20686FF4000158
:1029600001612046BDE87040FFF740BEFEB500683B
:10297000B0F1804F17D10D48016841F001010160AD
:10298000006800F001000090012005900020CDE9D2
:1029900003000220029003200190009801A94FF04B
:1029A0009040FEF7BBF906B080BD00BF4C1002405E
:1029B0007047B0B1B0B5044690F83D000D4618B967
:1029C00000F0A3FB00F00FF800F04BFC206801685A
:1029D00021F00801016001682943016000F047FB14
:1029E000B0BD012070477047B0B500F024FC04BFB3
:1029F0000220B0BD0D4601204FEAB201052984F83E
:102A00003C0048D8DFE801F0030B131B2333206898
:102A1000294600F0ABFF206850F8181F1EE0206820
:102A2000294600F0E3FF206850F8181F26E02068D0
:102A3000294601F013F8206850F81C1F0EE02068AA
:102A4000294601F047F8206850F81C1F16E020685E
:102A5000294601F07FF8206850F8501F41F0080126
:102A60000160016821F00401016029690FE020681C
:102A7000294601F099F8206850F8501F41F4006190
:102A80000160016821F4806101602969090202681E
:102A9000114301600020002184F83C10B0BD58B102
:102AA00010B500F098FB03D100F02FFB00F006F802
:102AB00000F0D7FB00F062BA01207047E0B5006873
:102AC000B0F1804F18BF8CBD8A480022016841F0E8
:102AD000010101600421006800F0010001900198EB
:102AE0001C20FEF76BFA1C20BDE88C40FEF754BAA0
:102AF00070470000B0B5044651B1081F00F08FFACE
:102B00000DD8DFE800F0020F121504F13F0211E0CA
:102B100094F83E00012819D100F06CFB23E004F189
:102B2000430207E004F1400204E004F1410201E045
:102B300004F142021278012A08D1032808D8DFE8FC
:102B400000F0020A0D1000F0E5FA0CE00120B0BD23
:102B500000F011FB07E000F01AFB04E000F00FFBAF
:102B600001E000F010FB00F061FB21681D4800F05F
:102B7000C7FA1FD800F024FB1CD000F042FA0ED098
:102B80002F4881420BD01848814208D01748814213
:102B900005D01748814202D01648814207D1886883
:102BA000164A00F009FB04D0B2F5803F01D000F0D6
:102BB0001BFAB0BDB1F1804FF1D021488142EED077
:102BC00009488142EBD009488142E8D00948814256
:102BD000E5D007488142E2D007488142E7D100F0C2
:102BE00055FAE4E700D4FEBF00080040002C014085
:102BF000004001400034014000480140070001004E
:102C0000B0B50F4D0446006805F59431884202D1F5
:102C100002F0D8FD2068A84207D102F0DFFA20B9FF
:102C20000848FFF75DFD00206862216805F58060B7
:102C3000814218BFB0BDBDE8B04002F0A3BF00BFE5
:102C400000040040042400207047FEE770B5013105
:102C50000023372472B1060F01F8023B04EB107514
:102C6000B0F1204F38BF06F1300501F8035C013A9E
:102C70000001EFE770BD000010B50446EFF31080CF
:102C800072B6FDF743FF114800214FF0FF3201609B
:102C900041608160082907D000EB81030131C3F84E
:102CA0007021C3F87022F5E70948BFF34F8FBFF3D7
:102CB0006F8F0460BFF34F8FBFF36F8F206880F377
:102CC0000888606862B6BDE81040004710E000E088
:102CD00008ED00E0E0B5074800F073F90648006829
:102CE000C0B28CBD1CB50446024800F06AF9024827
:102CF00004601CBD581002400025004010B5134C64
:102D00002068000102D50020FFF7ECFF206840F4A6
:102D100000002060FFF7DEFF422805D10020FFF70A
:102D2000E1FF0B48FFF7A8FF4B4801210176494816
:102D3000FF21C171FDF724FDFDF78CFD6420FDF737
:102D4000FBFEBDE81040FDF73BBC00BF9410024005
:102D500000800008F8B50120FDF7EEFEFDF714FC39
:102D60003C4D287870B13C4C00200326287030067A
:102D700008D0204600F0D4FC20B10A20013EFDF727
:102D8000DBFEF4E7A87E012818BFF8BD0027324C0F
:102D9000324EAF76E069A866607E7070EF75FDF721
:102DA000EFFCFDF757FDEF666F7004F10802652731
:102DB00007CAA863A86B10440138E8630620207690
:102DC000E965013F27D06420FDF7B6FEE86D696E26
:102DD0008842F6D122490020E87528766876687026
:102DE000C1F82C05A1F83005687128713070E879B8
:102DF000032812D1608C1B4B3081D4E90420A168D8
:102E00006885B5F92A00081A1144B5F92A20114439
:102E1000C3E9010114E0042015E0208CF080608CEF
:102E2000B080104E94F824006884A168D4E904238B
:102E3000C81A1944114494F82520C6E90101AA844E
:102E400002F0C0FB002020762046BDE8F84000F0EC
:102E500067BC00BFF0010020A4090020080000208A
:102E6000F0030020240A002080B50F480F490022FB
:102E700001F008F908B1FDF7C1FB0B480C4901F05E
:102E8000BAFA08B1FDF7BAFB07480A4900F0DCFFBF
:102E900008B1FDF7B3FB044801F0C7FA18B1BDE86B
:102EA0008040FDF7ABBB80BD601D002014000020FA
:102EB0005800002040010020FEE7FEE70A68D062CB
:102EC000C860106840F0010010607047214601F0B2
:102ED000B0B8002084F8900210BDA0F84010002087
:102EE00070472069716821F0FE4141EA006070601E
:102EF0007047326842F48012326070474FF47A7043
:102F0000FDF716BC4FF47A70FDF712BC002084F870
:102F100024007047204601F05DB8C0F894120021EB
:102F200001F055BA21463F22681CFDF7E5B922465B
:102F30002846FDF7BBBF012084F890022068704747
:102F400030F8113040F60F74234002F580442343DB
:102F500020F811307047411B032002297047F36F9E
:102F600023F040631343B2F1006FF3677047012011
:102F700084F8240094F8250001287047012084F883
:102F8000480084F83E0084F83F0084F8400084F84C
:102F9000410084F8420084F8430084F8440084F837
:102FA000450084F8460084F8470084F83D0000207E
:102FB00010BD204601F035B8C0F89412002101F090
:102FC0005EB9016841F080510160006800F08050F6
:102FD00001900198FEF72CBEB0F8501094F85021E3
:102FE000014401EBC2017047086840F0010008602D
:102FF00000207047B0F8401041F00401A0F84010E4
:103000007047486CB1F1804F40F40040486470470D
:10301000B0F8401041F00801A0F8401070474FEAA6
:10302000B000032870472846FDF778BE30F821200D
:1030300043F60F731A4048F2A00303F5FF535A40BA
:1030400020F821207047515C01F01F01C8407047F3
:10305000016841F4804101607047D4F8B802294604
:103060008268204670470020002500F0ABBB01209D
:1030700084F8480084F83E0084F83F0084F8440057
:1030800084F8450084F83D0000207047486C40F407
:10309000004048647047D1E90123C9681A4342EAF5
:1030A0000121826822F47F42114381608168704768
:1030B0000022FDF783BF044690F890020128704774
:1030C00068692A690023C119286A696190427047BA
:1030D0003060FDF7F1BE0168012262F34A2132221D
:1030E00001607047044608780D4610F06000704794
:1030F000204650F8641F50F8042C91420146704756
:1031000008444FEAB02006287047002084F83C00AD
:1031100020467047022084F83F0070474DF808EDC4
:103120002046FFF745FC20465DF808EBFFF7E0BCC2
:10313000B04202628C68D1F800C04568704730F830
:10314000212040F63F731A4048F2A0035A4020F86D
:1031500021207047B4F850202B78224402EBC302A0
:103160007047204600F01EBF204650F84C1F826872
:10317000914201467047022084F8430070470220C4
:1031800084F841007047022084F842007047022012
:1031900084F840007047B1F1FF3F00EB800104EB81
:1031A000C1017047204669692A8901F0DABE94F8A6
:1031B0009C0201380228704702400020062A70470E
:1031C00005FA00F010F0650F704790F83C200446B7
:1031D0000220012A7047044690F83D0000287047FD
:1031E00030F8212048F2A00320332A401A4320F867
:1031F00021207047022084F83E0070472046FFF7E8
:10320000F7BA002184F83C10012184F83D10704782
:103210002068B0F844107047012180F83D1000206C
:1032200070474B68CA68194600F0ECBC2068012260
:10323000012500F08BBB044690F83C000128704744
:10324000B0F85010084498F8001000EBC1000021BD
:103250007047B0F85010084498F8001000EBC10017
:1032600070470220211D84F83D00206800F00CBB4F
:10327000F8B5002800F02C82044600781138162892
:1032800000F22682DFE810F0170024023C0024023E
:1032900045008F009700AB00B200240224022402F4
:1032A00024022402BF00BB00CC00EB00FD0008019B
:1032B00020004C015601DFF83854FFF733FEA88890
:1032C000BDE8F84000F07EBADFF81454FFF72AFE9C
:1032D000698ADFF81004DFF878444181A98AE18522
:1032E000697E2A7AA174012AE16D40F04E81626EF6
:1032F000914240F04B8100212972E968E16545E186
:10330000DFF8E853FFF70EFEA888BDE8F84000F0AC
:103310005DBADFF8F043152000256070CA48E570FB
:10332000016842688368C668076904F128004EC0D6
:10333000C6488642C64818BF2F468342C548C64B7A
:1033400018BF2F4641405A40844604F118001143EB
:1033500018BF2F466761C1490A684B688E68CF68FD
:103360000969CCC0BE488742BE4818BF294686427C
:1033700082EA0C00BC4A18BF29465A40104318BFC5
:1033800029462161FDF79CFD6060FDF79FFDA0606F
:10339000FDF7A2FDE060EE482570C16C406EC4E907
:1033A0000E10204647E1D64DFFF7BCFDD5E90101DF
:1033B00002F03AFC3EE1D14DFFF7B4FDEA780AB1E4
:1033C000392A03D3382A28BF3822EA70686881076F
:1033D00003D105F1080102F04CFCC8482BE1C64DB1
:1033E000FFF7A0FD4FF4C050288023E1C1482146DB
:1033F0003F220130FCF780FF4220FFF773FCBDE85D
:10340000F840FDF711BEB44DFFF78CFDD048C16CFC
:103410006960018C2981C18B6981007A287309E177
:10342000B94DFFF77FFDA8884FF0FF31192211FA3F
:1034300080F180B291FBF2F3400003FB1211A0EB8C
:103440004100B249084400210238192900F099804E
:1034500005EB4102D28820F811200131F5E7AE4D8D
:1034600095F82A0595F82B15884203D26078012833
:1034700040F0FC800120607095F82A05A07062B6CB
:1034800007E1B44DFFF74EFD287E002800F0D780FD
:10349000BDE8F84000F04EB9934DFFF743FDE87DDD
:1034A00095F82F10AA4C0128217403D10020E8754B
:1034B000E868A06495F8290095F8271095F8282069
:1034C0006272A17201F0CEFE95F82610202295F8C6
:1034D000250000294FF0400108BF4022228608BF86
:1034E00020210128618605D10020E06485F82500AF
:1034F000E860A064A87D95F824100128E1846CD1CF
:10350000288A7849C880688A888095F82200608473
:1035100095F82300A084D5E9010102F053F863E097
:103520006E4DFFF7FFFCA86800F028F9A88800F0AE
:103530004DF97FE0764DFFF7F5FCA9884FF0FF309D
:10354000192310FA81F292FBF3F404FB03F0C6088E
:103550007C2E18D889B204FB13224900A1EB42014A
:103560006C4A114400220239182A0CD88318DB084F
:103570007C2B08D805EB4203DB8821F8123001329E
:10358000F2E7614857E0624855E0E960E97E0129C9
:1035900004D100216166E976E960E1658178AA7D60
:1035A000EB7D287E561EB6FA86F67609013AE67459
:1035B00018BF012222755A1EB2FA82F252096275B0
:1035C000A976591E18BF0121A17502F0B7FA25206E
:1035D000A5F80100606E68602CE002F0DDF8288A32
:1035E0004049C880688A888095F82E0001F0C4FFA1
:1035F000A88D3C490881688D608595F8281095F85C
:1036000027004A1EB2FA82F252090139227318BF0A
:1036100001216173411EB1FA81F149090138A17399
:1036200018BF0120E0732420A5F80100E06CA86118
:10363000208CA8832846BDE8F84000F071B84448C3
:103640000121817644E000BFE8FF000801FFEEDDC4
:10365000CCBBAA990000104388776F5EEC7F00080E
:1036600078695A4B3C2D1E0FF0DEBC9A95F829055F
:1036700095F82B052C212C2295F8290510FB0151DA
:1036800004F11300FCF7EAFF0020607095F82A05AA
:10369000A070E07B012803D1D4F80700FDF70AF9F8
:1036A0001E48104A90F84200B4F80B10C0F10A000E
:1036B0009180E07311812649B4F80D000A8CA4F8BA
:1036C0000B20244AD080C86EC4F80300107E00B1DD
:1036D000F8BD601EAFE700BFA40A0020E409002087
:1036E000640A002008000020240A00206409002049
:1036F000240900203003002070030020B0030020C4
:10370000B0020020F0020020201D0020B412002092
:10371000E01C0020E40A0020F00300206C020020DE
:1037200001460248402200F096BB00BF601D002009
:103730007047000070B50446FFF795FC044EF57520
:10374000B57602F029F8012030700248047670BD89
:10375000F0010020A409002004480549054A00683A
:10376000098812881143084080B27047100400484D
:1037700020020020220200207047000010B50446FD
:10378000FEF74CFC0E494FF6FF720968C1F3802129
:1037900088406421B0FBF1F0B0FBF4F1914238BFF6
:1037A0000A46511EA042314838BF00210123026859
:1037B00091626321D1625361C1600020506210BDEB
:1037C0000810024029490968486370472749096879
:1037D00088637047FDF786BBB0B594B00024002025
:1037E000CDE90A44CDE90844FEF7C4F92A210220B4
:1037F0000325109101211390CDE911000E95CDE91B
:103800000C104FF480300F9107902120069006A8ED
:10381000FEF746FC18B1EFF3108072B6FEE70F20FA
:10382000CDE90444CDE902540421019001A8FEF73A
:10383000FFFA18B1EFF3108072B6FEE714B0B0BD16
:103840000248016841F470010160704788ED00E0B2
:103850000348FEF7CEBF00BF0148FEF7CABF00BF56
:103860006C2300200148FEF7C4BF00BFB82300202E
:103870000148FEF7BEBF00BF042400200148FEF748
:10388000B8BF00BF5024002070B5AF4A0368904213
:1038900025D0B0F1804F08D0264CA04205D0264C50
:1038A000A04202D0254CA04203D14C6823F0700303
:1038B0002343B0F1804F16D01E4CA04213D01F4CB2
:1038C000A04210D01C4CA0420DD01D4CA0420AD0EA
:1038D0001C4CA04207D01C4CA04204D007E04C680E
:1038E00023F070032343CC6823F4407323434E69D1
:1038F00023F080030C688D68334390420360C562F7
:1039000084620BD0914A02444FEAB222052A07D8BA
:10391000012303FA02F212F0390F01D009690163A1
:10392000012141610169C90703D0016921F0010149
:10393000016170BD000400400034014000080040F7
:1039400000400140004801400044014010B501F032
:103950001F010123046A8B4002FA01F124EA0303E8
:103960000362026A1143016210BD0000F0B5026AF1
:10397000036A764E23F0010322F0020203628B6891
:10398000D1F800C04568D0F818E013436E4A904261
:1039900009D087194FEAB727052F0FD80124BC405B
:1039A00014F0390F0AD0CC6823F00C0324F004047F
:1039B0002343904209D082194FEAB227052F0AD833
:1039C0000122BA4012F0390F05D025F44072D1E936
:1039D0000545224315433E4A456002EA0E0242EA8B
:1039E0000C028261496841630362F0BDF0B5036A6D
:1039F000026A554E22F0100223F02003FFF798FBD5
:103A000043EA0413846903D006F50067B84209D17C
:103A1000CF686FF0400223F0C00302EA071213439D
:103A2000B0420AD0494A02444FEAB226052E0BD8CA
:103A30000122B24012F0390F06D025F44062D1E9DC
:103A40000556354342EA8505414A4560224042EA2F
:103A50000C228261496881630362F0BDF0B5036A9C
:103A6000026A394E22F4807223F40073FFF760FB80
:103A700043EA0423C46903D006F50067B8420AD1BB
:103A8000CF6840F2FF4223F440633F0227EA02027C
:103A90001343B0420AD02D4A02444FEAB226052E03
:103AA0000BD80122B24012F0390F06D025F4405253
:103AB000D1E90556354342EA0515054A45602240DD
:103AC00042EA0C02C2614968C1630362F0BD00BFF3
:103AD0008CFFFEFFF0B5036A026A1B4E22F480528F
:103AE00023F40053FFF724FB43EA0433C46903D0F3
:103AF00006F50067B8420AD1CF6844F6FF7223F496
:103B000040433F0327EA02021343B0420AD00F4A60
:103B100002444FEAB226052E0BD80122B24012F021
:103B2000390F06D025F44042D1E90556354342EA23
:103B30008515074A4560224042EA0C22C261496865
:103B400001640362F0BD00BF002C014000CCFEBF49
:103B5000FF8CFFFEF0B5D0F820C0036A23F4803359
:103B60000362264B46680C6803444FEAB3278B6810
:103B7000056D072F09D80122BA4012F0E50F1EBFCC
:103B80004A6926F4803646EA0226064A46602A40FA
:103B900022430265496881642CF4003141EA034103
:103BA0000162F0BD8FFFFEFFF0B5D0F820C0036AC0
:103BB00023F480130362114B46680C6803444FEAF8
:103BC000B3278B68056D072F09D80122BA4012F080
:103BD000E50F1EBF4A6926F4802646EA8226084A77
:103BE00046602A4042EA042202654968C1642CF416
:103BF000001141EA03510162F0BD00BF00D4FEBFD5
:103C0000FF8FFFFE10B5036A046A24F0010404620A
:103C1000846924F0F00444EA0212826123F00A026B
:103C20001143016210BD10B5036A046A24F0100448
:103C30000462846924F4704444EA0232826123F00D
:103C4000A00242EA0111016210BD000010B5774CDC
:103C50000A4602A0FFF73AF9204610BD4375737477
:103C60006F6D2048494420436F6E6669670000000D
:103C7000D0F8BC02002180F850100020704780B5B9
:103C8000D0F8BC1241B1D0F8C0020A784978C368B4
:103C900010469847002080BD032080BDB0B581212B
:103CA000044600F00BFA002520460121A56300F030
:103CB00005FAD4F8BC02C4F8785148B1D4F8C0026F
:103CC00080688047D4F8BC0200F0A0FDC4F8BC5264
:103CD0000020B0BD1220088000487047F40000208A
:103CE000B0B5D0F8BC5265B1E96C0024012909D106
:103CF000D0F8C0022A786978C36810469847EC6407
:103D000000E003242046B0BD0A210180004870472E
:103D10000801002029210180004870479000002000
:103D20002921018000487047BC0000202921018022
:103D3000004870471401002070B50446542000F07C
:103D400067FD48B30546C4F8BC02207C0126002864
:103D50004FF0010008BF0520A4F87A016087812197
:103D600003224023204600F07EFA20460121032250
:103D70004023268700F077FAD4F8C002A4F87861CF
:103D8000002685F8506040688047204601212A4679
:103D9000402300F074FA03E000200226C4F8BC02BD
:103DA000304670BD10B5214C0A4602A0FFF78EF8D0
:103DB000204610BD437573746F6D204849442049F7
:103DC0006E746572666163650000000004200880FF
:103DD000004870475001002010B5144C0A4602A05C
:103DE000FFF774F8204610BD53544D6963726F6538
:103DF0006C656374726F6E696373000010B50B4C71
:103E00000A4602A0FFF762F8204610BD53544D3316
:103E10003220437573746F6D2048756D616E206933
:103E20006E7465726661636500000000881A002088
:103E300080B5D0F8BC222AB10121402300F01FFA3E
:103E4000002080BD032080BD19B1C0F8C012002041
:103E5000704703207047B0B5D0F8BC4284B1134618
:103E60000A4690F89C12032908D194F85050012179
:103E70003DB984F85010812100F0A9FA002100E03A
:103E800003210846B0BD0000B0B51A2008800949DA
:103E900008688A6880180BD0074D4C680822A91C56
:103EA000FEF7D4FE05F1120120460422FEF7CEFEF5
:103EB0000148B0BD9075FF1F54010020BCB5D0F87B
:103EC000BC320022ADF80620002B00F05C800A789E
:103ED00012F060020FD0202A53D14A78023A092A00
:103EE0004FD8DFE802F0051C4E4E4E4E4E1F3337C2
:103EF00003F1440138E04C780B2C42D80022DFE873
:103F000004F0064340404040184040402D3890F8AF
:103F10009C22032A35D10DF10601022225E003F18E
:103F2000400121E00122DA64CA88194600F05DF8F8
:103F30001DE0CA78212A29D0222A2DD1CA88222A16
:103F400028BF2222D0F8C01209680EE0C8780022EB
:103F5000586419E088780022186415E090F89C22D3
:103F6000032A0ED103F14801012200F050F800228B
:103F70000AE090F89C22032A03D1887800229864F2
:103F800002E000F027F803221046BCBDCA880449AD
:103F9000092A28BF0922E8E700220021E5E700BF3F
:103FA000E800002080B5D0F8B8220AB152689047E6
:103FB000002080BD80B513460A46002100F05FF95D
:103FC000002080BD80B513460A46002100F0FFF9AD
:103FD000002080BD10B58021044600F0DDF92046A8
:103FE0000021BDE8104000F0D7B980B513460A465D
:103FF0000321C0E95633FEF7DFFF002080BD80B506
:10400000052100220023FEF7D7FF002080BD80B5E8
:1040100013460A460221C0E90633FEF77EFF002060
:1040200080BD80B5042100220023FEF776FF00202A
:1040300080BDB0B5C8B100230446257815B1013460
:104040000133FAE7DCB2022303EB440414800322B9
:104050000C704A70002204783CB1DDB202330130AA
:104060004C5545F001040A55F5E7B0BD044AC100BE
:10407000032822FA01F188BF0321C8B2704700BFAC
:104080000003010378B10023C0F8CC32C0F8C0327D
:10409000C0F8B83209B1C0F8B4120121027080F83A
:1040A0009C1200F099B80320704780B5D0F8C40284
:1040B000FDF71CF8BDE88040FFF7D8BF80B5D0F809
:1040C000C402FCF7F5FFBDE88040FFF7CFBFB0B5F5
:1040D000044669B194F89C02032848D1D4F8B80288
:1040E0004269002A43D02046904700283FD0B0BD07
:1040F000D4F89402022833D1D4E9070188420DD9BB
:10410000431A114620461A46E361FFF75BFF20463B
:1041100000210022002300F0B2F821E00FD1A169B4
:1041200081420CD3D4F89802814208D22046002163
:1041300000220025FFF746FFC4F89852E7E794F8FD
:104140009C02032805D1D4F8B802C16809B1204601
:1041500088472046802100F01FF92046FFF74FFFD7
:1041600094F8A002012804BF002084F8A0020020D7
:10417000B0BD10B5044659B194F89C02032828D16B
:10418000D4F8B802826922B32046904708B310BD24
:10419000D4F8940203281CD1D4E9570398420BD9D0
:1041A000C01A1146C4F85C01984238BF0346204645
:1041B0001A46FFF7FFFE0CE094F89C02032805D195
:1041C000D4F8B802016909B1204688472046FFF7B4
:1041D00028FF002010BD0000B0B50446164800219D
:1041E00081600221C4F8C402C0F8D842C1714FF402
:1041F0000271818011490160FDF7ECFB08B1FCF709
:10420000FDF9D4F8C4020E4D002100221823A8475E
:10421000D4F8C402802100225823A847D4F8C4024D
:10422000812100229823A847D4F8C402012100224A
:10423000D823A8470020B0BD90200020005C00409B
:104240005910000801F07F02D0F8C40249B202EB15
:104250008202002900EBC20000F5A97248BF00F1FC
:1042600012021078704710B51446D0F8C4021A46EE
:104270002346FCF764FFBDE81040FFF7F7BE80B5AA
:10428000D0F8C402FCF783FFBDE88040FFF7EEBE24
:10429000F8B50446012084F89C020020C4F8A4026A
:1042A0006060C4F89402D4F8B802E8B1D4F8BC1243
:1042B00021B1426812B120460021904720460021DA
:1042C0000022402300254026FFF7CDFF012720468E
:1042D000802100224023C4F86061A4F86471FFF7D4
:1042E000C2FFA784266200E003252846F8BD90F8A7
:1042F0009C12042904BF90F89D1280F89C120020A3
:10430000704780B5D0F8B81241B190F89C22032ACA
:1043100002D1C96901B18847002080BD032080BD5A
:1043200001740020704780B5D0F8C402FDF7EEFBA1
:10433000BDE88040FFF79ABEB0B500F2AA2504465A
:10434000284600F04DF80120C4F89402B4F8B002F9
:10435000C4F8980294F8AA0200F01F01022908D0BC
:1043600001290CD089B920462946BDE8B04000F0AB
:104370005FB820462946BDE8B04000F0A1B920460C
:104380002946BDE8B04000F025BA00F08001204683
:10439000BDE8B040AFF3008080B5D0F8C402FCF7B0
:1043A0000CFFBDE88040FFF761BE80B5D0F8C402C5
:1043B000FDF7C0FBBDE88040FFF758BE90F89C12A7
:1043C00080F89D12042180F89C120020704780B56F
:1043D000D0F8C402FCF71FFFBDE88040FFF746BEDF
:1043E0000A7802704A7842704A8842808A888280BD
:1043F000C988C18070471CB504460020ADF806008E
:1044000051B1C4F8B812C96A21B10DF1060088474C
:10441000C4F8CC0200201CBD03201CBDD0F8B8227B
:104420000AB11268104703207047FFF7BEBF0000B3
:10443000BCB5FEF757FE0AD0402802D0202840F035
:104440003081FEF70AFE02B0BDE8B0401047687840
:10445000092800F22681DFE810F00A001E0024017E
:104460002C00240134005300240169007B00FEF776
:104470009EFE00F21681E888022840F01281D4F8EE
:10448000A40203222146002808BF012241F80C2F74
:104490002046022202E1FEF78AFE00F202816888CD
:1044A0000025012840F00081C4F8A452FEF781FDE8
:1044B000FAE06888012840F0F6800120C4F8A402E0
:1044C000F4E0A888002840F0EC80E888002840F05C
:1044D000E88068887F2800F2E48094F89C12032921
:1044E00000F0DF80C5B284F89E0220462946FFF71F
:1044F0001AFFFEF75EFD002D00F0DB800220D9E000
:1045000000204FF0FF31ADF80600688801EB102164
:10451000062900F2C680DFE801F0044047C4C45415
:104520005E00D4F8B412207C0A68A8E0E88801286C
:1045300040F0B78094F89C02411E022926D2002543
:1045400021462046012241F8085FFFF760FDABE0FD
:1045500068885A4D10F0FE0F287003D0FEF7DAFC81
:104560000325A1E0C1B294F89C0203283FD00228A1
:1045700055D1002900F09A8020466160FFF74EFF78
:10458000002863D00546FEF7C5FC8DE0032840F007
:104590008880211D2046012280E0217CD4F8B802C9
:1045A000002942D0C16A41E0C0B2052800F27980FA
:1045B000DFE800F0035054585C60D4F8B40242685D
:1045C0005BE0207C00286CD1D4F8B802416B0DF17F
:1045D0000600884756E0207C002862D1D4F8B80253
:1045E000016B0DF1060088470146072023E021B347
:1045F000606888425AD0C1B2FEF7B3FD29782046E0
:104600006160FFF70BFF002850D00546FEF782FCE3
:104610002179FEF7A6FD022084F89C0244E0FEF713
:1046200079FC2978FEF79DFD9AE7816A0DF1060075
:10463000884701460220487025E002206160002181
:10464000002584F89C02FEF78CFD2FE7FEF7B1FCF5
:1046500003202FE0D4F8B40282680EE0D4F8B4024C
:10466000C2680AE0D4F8B402026906E0D4F8B402E1
:10467000426902E0D4F8B402826992B1207C0DF163
:10468000060190470146EA8882B1BDF8060040B1B4
:10469000904238BF0246ADF806202046FFF7B7FC2F
:1046A00001E0FEF737FC00252846BCBDFEF781FC83
:1046B000F9E7012084F89C02F5E700BF841A002086
:1046C000B0B5FEF70FFD08D0402801D020285CD1FE
:1046D000FEF7C3FCBDE8B04010476878297968B19F
:1046E000012824D0032850D194F89C02032822D119
:1046F0006888002858D0FEF75CFC48E094F89C02DB
:10470000032824D0022840D148063ED111F0800071
:104710004FF0140108BF4FF4AA710022625004F157
:1047200014010028204608BF04F5AA714EE094F851
:104730009C0203282DD0022827D1480625D02046E8
:10474000FFF72AFE20468021FFF726FE1FE001F03A
:104750000F00802900EB800004EB80002CBF808CD0
:10476000B0F8640188B101F07F00802900EB80007F
:1047700004EB800000F1140538BF00F5AA7541F084
:104780008000802819D100201DE0FEF7C3FB002027
:10479000B0BD68880028FAD1480602D02046FFF74D
:1047A00084FCFEF706FC93E74806A4D0E8880028BE
:1047B000A1D12046FFF7F0FD9DE72046FFF742FD1F
:1047C000002818BF01202860204629460222FFF752
:1047D0001EFCDCE7B0B5FEF785FC18BF40280FD102
:1047E000FEF7E5FC0ED8A88810F0FE0F0AD1FEF700
:1047F00034FC9047E98841B938B9FEF7DAFB03E0A9
:104800002028EDD0FEF786FB0020B0BD70470000E9
:1048100000487047881C00202DE9F0410D78CE78C3
:10482000804647F2706400EB850330F82500032EC4
:1048300020EA040407D80020DFE806F002070D0A8A
:1048400044F4007406E0012005E044F4806401E0D3
:1048500044F4C0640020984F40F60F7248F2800C78
:104860003C431C801C8822402A433A431A800A7B1E
:10487000002A47D048F28002022E40F60F6708BF98
:1048800002F580721C883C4022431A8008EBC50266
:10489000B8F850400F89144427F00107A4F80074B9
:1048A000B8F8504022444C8924F00104A2F8044492
:1048B0001A8802F480444A78002A46D03CB119880C
:1048C00040F60F7211400CF580421143198019888F
:1048D000490607D5198840F60F7211400CF14002C5
:1048E00011431980198840F63F7211400CF12002E3
:1048F0004A40012E08BF41EA0C021A80198843F68B
:104900000F72A5E0B8F850E0CA88EC0022F0010769
:104910004A78002A43D008EB04017144A1F80074DE
:104920001988490607D5198840F60F7211400CF115
:10493000400211431980198840F63F721140012E40
:1049400000F087800CF12002B1E03CB11A8840F6FB
:104950000F7422400CF5804422431A801A88ED001F
:10496000520607D51A8840F60F7422400CF1400415
:1049700022431A804544B8F8507005F20246F25BB3
:104980006FF39F22F253096921B33E2924D801F025
:104990000104BA5B04EB510442EA842429E008EBE9
:1049A000040202EB0E0402F20646A4F80474B8F8FE
:1049B0005070F25B6FF39F22F253096900294BD0CC
:1049C0003E294BD801F00104BA5B04EB510142EAE5
:1049D000812150E0BA5B0AE0CC064FF0FF324FEA8B
:1049E000511408BF02EB5114BA5B42EA8422334CE3
:1049F0001443BC5305F20645B8F85020AC5A6FF387
:104A00009F24AC5249B13E2909D801F00106545BFC
:104A100006EB510144EA81210EE0515B0AE0CE062B
:104A20004FF0FF344FEA511608BF04EB5116515BAB
:104A300041EA8621214C2143515343F60F721988D4
:104A400011400CF54052514040F63F7219801988D0
:104A5000114041EA0C012BE0B95B0AE0CC064FF0B3
:104A6000FF324FEA511408BF02EB5114B95B41EA1F
:104A70008421124A1143B9531988490407D519886A
:104A800040F60F7211400CF5804211431980002D41
:104A90001FBF198843F60F7211400CF5005201BF79
:104AA000B8F8001043F60F7211400CF54052514017
:104AB0001980BDE8F08100BF8080FFFF0080FFFF0C
:104AC000F0B50A780D7B4C78510030F8223048F26E
:104AD000800225B303F480434CB30BB1FEF730FAE8
:104AE00030F8113002F5804540F63F745B0643F61E
:104AF0000F7309D530F8116040F60F773E4002F190
:104B000040073E4320F8116030F8116040F60F77FF
:104B10003E40354320F8115048F280051DE0A4B115
:104B20005B0640F63F731ED502F1400513E00BB162
:104B3000FEF706FA30F8113002F1400543F60F7423
:104B40005B0640F63F73D5D4DEE75B0443F60F7394
:104B500009D502F5804540F60F7430F811603440F5
:104B60002C4320F8114030F8114023401A4320F81C
:104B700011200020F0BDB0F8581041F40041A0F819
:104B80005810002070470121A0F840100021A0F823
:104B90004010A0F84410A0F8501000207047B0F862
:104BA000401044F27F021140FEF797B9B0B50A7881
:104BB0004C7830F8223052009CB15B0648F2A003DA
:104BC00009D530F8124040F60F752C4003F120054E
:104BD0002C4320F81240C978012918D040F63F71C3
:104BE0000FE059044BF2800309D530F8121040F65B
:104BF0000F74214003F58054214320F8121043F62E
:104C00000F7130F812402140594020F81210002056
:104C1000B0BD000010B50A784978094B002940F66C
:104C20003F7108BF03F57F6308BF43F60F7130F88B
:104C300022402140594020F82210002010BD00BF22
:104C40009080FFFF2DE9F041044648780D46012889
:104C500058D1AF692A69974228BF1746287B002898
:104C600067D0E978286A022940F08C80297840F6DC
:104C70000F6634F821301E404B00904240F29F8076
:104C8000A14AC01BC90048F280082144324342F4C3
:104C9000807224F81320286234F813004006B4F818
:104CA0005000084400F1AA80A0F80274BBB2FEF7DD
:104CB00079FAFEF705FA88BFC31B2B6288BF384616
:104CC0006A78012A00F0D780002A40F0F880B4F812
:104CD00050202B780028224402F2064232F833603A
:104CE0006FF39F2622F8336000F0CF803E2800F259
:104CF000D68000F0010732F8336007EB500746EA30
:104D00008726DAE0287B18B3E87801284CD00228FF
:104D100052D1E869002849D0297848F2800034F857
:104D2000213003F040025B0400F19480002A3ED160
:104D300092E0EA886969BBB2204600F012F9B4F843
:104D400050002978204400EBC100A0F8027450E024
:104D5000A96948F2800019B9EA78002A00F0888031
:104D600048F280022B7840F60F6734F823603E400B
:104D7000324324F823202A6991428CBF891A0021EA
:104D8000A96114E0C01B2862287834F82010490675
:104D90004FEAC001B4F850002144084421D4A0F8DF
:104DA000027469692A8920E00020A861564800F54C
:104DB000405043F60F719DE00120BDE8F081524F55
:104DC00004EBC10146EA070224F8132083B2B4F8C9
:104DD00050201144A1F80204FEF7E4F907F1300075
:104DE00086E0A0F8067469696A89BBB2204600F0C3
:104DF000B8F8454840F63F7130307BE0A0F80674C3
:104E0000BBB2204669696A8900F0ABF8FEF758F931
:104E100088BFC31B2B6288BF38466A78012A2FD00F
:104E2000002A5ED1B4F850202B78224402F20242CC
:104E300032F833706FF39F2722F8337040B33E2867
:104E40003FD800F0010732F833C007EB50074CEAB7
:104E5000872721E0002AAAD0490040F60F7334F8D2
:104E600011201A4000F140031A4324F811209EE754
:104E700000F5807276E7FEF76DF9A2F806041EE0F1
:104E8000FEF768F9A2F802042BE032F8336012E072
:104E900032F8337047F4004722F8337021E0C70638
:104EA0004FF0FF364FEA501708BF06EB501732F8A5
:104EB000336046EA872646F4004622F833606A8962
:104EC00010E0C7064FF0FF3C4FEA501708BF0CEB4D
:104ED000501732F8336046EA872646F4004622F837
:104EE00033602A8983B2204600F03BF808F1300095
:104EF00040F63F712A7834F822301940484024F8AF
:104F000022000020BDE8F0818080FFFF0021A0F892
:104F100044104BF68071FDF7E0BF00000148FCF73C
:104F200091B900BF90200020B0F84400704710B540
:104F3000104400F58062481C590831B132F8024B28
:104F4000013920F8014C0230F7E7D9071CBF11885E
:104F500000F8011C10BD11B98021A0F84C100020F0
:104F6000704710445A1C00F5806052082AB131F88D
:104F7000023B013A20F8023BF8E77047FEE70000E9
:104F800010B5AB4C206DA16C226D891A022291FBE9
:104F9000F2F108446065A06CE16C884209DA4FF0D8
:104FA000FF3000F0B3FAFEF7DFF8D4BF0439043065
:104FB0000BE0A06CE16C88420BDD012000F0A6FA4A
:104FC000FEF7D2F8B4BF0431043800680968401A0B
:104FD00000E00020B4F92A1020EAE0708842074976
:104FE000A4BFB4F92A00013831F810009349B1F98F
:104FF000081008440128D8BF012010BDE40A002091
:10500000F8B5604CE079032877D0FEF7A5FB618EF8
:10501000014018BF0121228E104018BF012041EA33
:105020004001E07EE27E41EA800557A09142405770
:1050300003D0E176E16C0144E16449F26961E94041
:10504000C9075AD1C0B240B200F0A6F842F6140027
:10505000E840C0072AD0207E40B3E06CA16B013944
:10506000884223D1607808BB607E01306076607E24
:1050700003281BD3714E6F4F002501202576E07564
:10508000257135707078854208D2FBF797FB21793E
:1050900007EB8101294401350874F3E704F15C0052
:1050A000FBF7E8FB002868D00020E066E07D20B335
:1050B000E06CA16B884203DBE06CE16B884230DD81
:1050C000FDF7D1FF6571A079012813D1E06CE16B88
:1050D00088420FDD607868B90020FEF773FB04F1A9
:1050E0005C00FBF7C7FB002847D0E06E0130E066AC
:1050F00001206070A079FF2800D0F8BDE06CA16BA2
:105100008842FADA60780128F7D1FDF7ACFF04F1A4
:105110005C00FBF7AFFB80B3E06E0130E0666570CA
:10512000F8BD464D434E444928782071207906EB5E
:105130008000007CC988002808BF014688B2FEF7BD
:1051400041FB6878022807D301206071208C6978C0
:10515000B0FBF1F000F074F82079002780F0010036
:10516000287068788742AED2FBF728FB297806EBD7
:105170008101394401370874F3E70120BDE8F840A4
:10518000FEF7D8BAF001002000FF0100010000FF87
:10519000FF0000010001FF000E490A68EC490B6F97
:1051A0000A67D21A0C4BA2FB03239A094EF660231E
:1051B0009A4205D34FF6FF7000220884012006E0D2
:1051C0000A8401220128B8BF4FF0FF3200208A7103
:1051D00048777047041000E0F13B5D60B0B5DC4CEF
:1051E000E06CA16B884203DBE06CE16B884204DD7C
:1051F000FDF739FF01206571B0BD20790D4901EB44
:105200008000617908440C49007CC988002808BFE7
:10521000014688B2FEF7D6FA60790130607107481E
:10522000617942780020914228BF0120B0BD00BFC3
:10523000F00100206C020020A409002008000020DA
:105240000749C862086920F001000861C86840F099
:105250000100C860086840F001000860704700BFA6
:10526000000400402DE9F0479EB0DFF8908204462C
:1052700098F80000A04200F0F9807E48D04D002C44
:10528000016841F400610160016821F4006101607E
:1052900057D0C1680026012741F00201C160C168F2
:1052A00001F0020101910199016A41F4006101627A
:1052B000006A00F4006001900198CDE91B661A971E
:1052C0001D964FF40040199019A9FDF7ACFE284631
:1052D0004FF400410122FBF7E9FD6748032C3CD164
:1052E00081460220CDE91A761C904FF4C0401990F7
:1052F00019A9FDF798FE28464FF400510022FBF74C
:10530000D5FD28464FF480410022FBF7CFFD5B4DD1
:1053100042F21070A721C5E90091C5E90260284654
:105320000821C5E90466AE61FDF743FB19200121A0
:10533000FDF7BEFE1920FBF72FFE2846FDF794F976
:1053400092E000244FF460400190CDE90444CDE99F
:10535000024401A9FDF767FE86E0022782464FF06E
:1053600006094FF400501990CDF874901C97CDE9C0
:105370001A7619A9FDF757FE4FF48040022C1990B8
:1053800003D1CDF874901A9704E000201C971B906D
:1053900001201A9019A9FDF746FE0027374D42F269
:1053A00098601021D146012C08BF41F24C3008BF53
:1053B0002121C5E902702846C5E900A1C5E90477A5
:1053C000AF61FDF714F94FF480501897CDE91677C7
:1053D000159015A92846FDF799F92846FDF75FFBBA
:1053E000602018210E900EAE301DFAF7CAFF284635
:1053F00031460022FDF7F8FA284631460422FDF72F
:10540000F3FA01AE30213046FAF7BBFF4FF40050FB
:1054100031460D9706902846FDF758F819200221CD
:10542000FDF746FE1920FBF7B7FD2846FDF71CF9EE
:1054300028460021FDF75EFBDAF84400022C40F418
:105440000040CAF84400DAF8200040F00400CAF82E
:10545000200009D109480421FDF74CFBD9F82000B0
:1054600040F04000C9F8200088F800401EB0BDE8B8
:10547000F08700BF40100240002C01406C23002048
:1054800070B541F288341D4E1D4DA042B8BF044690
:1054900019488442D8BF0446307801281BD1002C1B
:1054A000204600D56042174A41F288311278002A1E
:1054B00018BF081A28604FF4804113480022B4F145
:1054C000FF3FC8BF0122007800283D4808BFE20F17
:1054D000FBF7ECFC307802280DD10A480078002850
:1054E00041F288301DBF011B29602044211804BFF0
:1054F0002960001B686070BD78ECFFFFF701002099
:10550000342C0140FA010020F9010020B0B5AC4D67
:105510000446E87A01280CD10020E872A87B00F04C
:105520003DF8E86C2044E86460B2BDE8B04000F0AB
:105530006DB80120E8720D20012C08BF0C20285CFA
:1055400000F008F8E87BBDE8B04000F027B800BFE5
:10555000F0010020B0B51A4D044600284FF48041F8
:1055600018BF0124FDF7E3FC28464FF48061224672
:10557000BDE8B040FBF79ABCB0B5114D0446002819
:105580004FF4004118BF0124FDF7D1FC28464FF429
:1055900080512246BDE8B040FBF788BCB0B5084D4D
:1055A000044600284FF4005118BF0124FDF7BFFC4A
:1055B000284604212246BDE8B040FBF777BC00BF77
:1055C00000040048F0B57E4AD37803B1F0BD002353
:1055D00001245374D4709370D46CD56CD66CD76C92
:1055E0008E423E46CCBF0E460F46BE1B471B844232
:1055F000C8BF2F1AB742B8BF01464FF000009164F0
:10560000A8BF012010725363F0BD00BF2DE9F04127
:105610000446FFF7C1FD012C2FDB694D287E60B3E6
:10562000E86CA96B0139884227D1687828BB687E6D
:1056300001306876687E03281FD3DFF8BC85544F9D
:10564000002601202E76E8752E7188F8006098F803
:105650000100864208D2FBF7B1F8297907EB8101F6
:10566000314401360874F2E705F15C00FBF702F9FA
:10567000002800F088800020E866DFF8788598F838
:105680001700D8B1D8F84C00D8F83810884205DB9C
:10569000D8F84C00D8F83C10884231DDFDF7E3FC27
:1056A00088F80550012C0BDBD8F84C00D8F83C10DA
:1056B000884203DD98F80100002852D0BDE8F0814F
:1056C000B4F1FF3FFADCD8F84C00D8F83810884223
:1056D000F4DA98F801000128F0D100200024FEF748
:1056E00071F808F15C00FBF7C5F800284BD0D8F83A
:1056F0006C000130C8F86C0088F80140BDE8F0810A
:10570000D14ED04F2349307888F8040098F804002F
:1057100007EB8000007CC988002808BF014688B2DA
:10572000FEF750F87078022809D3012088F80500A8
:10573000B8F828007178B0FBF1F0FFF781FD98F818
:105740000400002580F00100307070788542A9D2F5
:10575000FBF734F8317807EB8101294401350874EF
:10576000F3E70020FEF72EF808F15C00FBF782F863
:1057700048B1D8F86C000130C8F86C00012088F8F6
:105780000100BDE8F0810120BDE8F041FDF7D2BF86
:105790006C020020A4090020E348817801B1704721
:1057A0000121817000214174C279032AF7D0C170B0
:1057B000C18341630172A249C9688164704700BF17
:1057C000F001002070B5D84CE079032811D1E06CCD
:1057D000216D884203D0E06CA16C884201D1E06C5D
:1057E0002065207C01281FD1E06CB4F92A10084400
:1057F00021E0E078012849D1208C28B1218C4FF696
:10580000FF70814240F0A780002020648C488168AE
:10581000E26C8A425FDA4068E16C814262DC207AA5
:1058200000285FD000205AE0207C022804D1E06CE0
:10583000B4F92A10401AA064A07860B1E06CA16CA1
:10584000884208D10020E070607C20B97C48C068A4
:10585000A06401206074E07850B17949D1E9010178
:10586000E26C8242D8BFA164E26C8A42A8BFA06405
:10587000A06CE16C884206BFDF480089FFF780FB1F
:105880002085208DBDE8704000F0E2B86C49487D6D
:1058900001285ED1207C012803D0207C022840F022
:1058A0009680207C6FF00101012808BF0221E06C86
:1058B0000844A064208C002865D0218C4FF6FF702E
:1058C000814260D0218CB0FBF1F147F6FF7081423C
:1058D00038BF084658E0207A012803D00120207202
:1058E00000206063C448217A8288002918BF524290
:1058F0006267616F226C891A6164616C628C5143CA
:10590000A167616C626B1144616342F21071626B5A
:105910008A4203DC626B4D498A4200DA6163616B43
:10592000A28C5143642291FBF2F1464A1160A16FAF
:105930001368194451605168C288524213B29942A7
:10594000A8BF0A46B0F906008142C8BF0246E283FA
:1059500037E0002037E0218C3229FFF457AF218C4B
:105960004EF6602291423FF651AF218CB0FBF1F030
:10597000A17901293FF449AFA1790022FF2908BF8D
:105980004242104641E700209B4B20641426A06C45
:10599000E16C226C9D88AA42C8BF6FF01306884252
:1059A000D8BF7642B4F91E00D988494230440AB2C1
:1059B0009042A8BF0146B3F906209042C8BF1146E5
:1059C000E183B4F91E00BDE87040FFF759BDA06C3B
:1059D000E26C904206D100201A49E083E26CC1E9F2
:1059E0000220EEE7831A1748E56C8668E26C826055
:1059F000E28C5A43B54213D1097D002BD8BF4942EE
:105A0000C36819447C4BDD886D422EB2B142A8BFF9
:105A10000D46B3F906309942C8BF1D4629B200E0D1
:105A20000021C16088187449CA88524213B2984252
:105A3000A8BF0246B1F906108842C8BF0A4686E7E9
:105A4000240A00206C02002008000020F0D8FFFF8C
:105A50000149FDF733BA00BF6C2300200249884298
:105A600008BFFAF7CFBD70473020002010B5614C59
:105A7000A06DE16DA26D891A022291FBF2F108443A
:105A80002066E06D616E884209DA4FF0FF3000F069
:105A90002DF8FDF72DFBD4BF08390C380BE0E06D75
:105AA000616E88420BDD012000F020F8FDF720FB3D
:105AB000B4BF0C39083800680968401A00E00020BB
:105AC000B4F92E1020EAE07088420749A4BFB4F967
:105AD0002E00013831F810004749B1F90A10084486
