:020000040800F2
:10800000A8100020C9810008A79A00082D9A00082E
:10801000A59A00089783000851B1000800000000ED
:108020000000000000000000000000005B9D000850
:10803000BD83000800000000599D00085D9D0008F8
:10804000E3810008E3810008E3810008E381000880
:10805000E3810008E3810008E3810008E381000870
:10806000E3810008E3810008E3810008E381000860
:10807000E3810008E3810008E3810008E381000850
:10808000E3810008E3810008E3810008E381000840
:10809000E9B00008E3810008E3810008E3810008FB
:1080A000E3810008E3810008E3810008E381000820
:1080B000E3810008E3810008E3810008E381000810
:1080C000E3810008E3810008E3810008E381000800
:1080D000E3810008E3810008E3810008E3810008F0
:1080E000E3810008E3810008E381000800F002F862
:1080F00000F05AF80AA090E8000C82448344AAF1E8
:108100000107DA4501D100F04FF8AFF2090EBAE8E5
:108110000F0013F0010F18BFFB1A43F001031847BB
:1081200094310000B43100000A444FF0000C10F804
:10813000013B13F0070408BF10F8014B1D1108BFE5
:1081400010F8015B641E05D010F8016B641E01F885
:10815000016BF9D113F0080F1EBF10F8014BAD1CD5
:108160000C1B09D16D1E58BF01F801CBFAD505E0F3
:1081700014F8016B01F8016B6D1EF9D59142D6D34D
:10818000704700000023002400250026103A28BF75
:1081900078C1FBD8520728BF30C148BF0B60704779
:1081A0001FB51FBD10B510BD00F0BBF81146FFF79D
:1081B000F7FF03F031F800F0D9F803B4FFF7F2FF4E
:1081C00003BC00F0E1F80000094880470948004777
:1081D000FEE7FEE7FEE7FEE7FEE7FEE7FEE7FEE777
:1081E000FEE7FEE704480549054A064B70470000D4
:1081F000DB9D0008ED800008A80A0020A8100020E0
:10820000A80C0020A80C0020B2F120030AD5C2F16E
:10821000200320FA02F001FA03F340EA030021FAF6
:1082200002F1704721FA03F04FF000017047032A72
:1082300040F2308010F0030C00F0158011F8013B83
:10824000BCF1020F624498BF11F801CB00F8013B6A
:1082500038BF11F8013BA2F1040298BF00F801CB2E
:1082600038BF00F8013B11F0030300F02880083A02
:10827000C0F0088051F8043B083A51F804CBA0E85C
:108280000810F5E7121D5CBF51F8043B40F8043BB1
:10829000AFF30080D20724BF11F8013B11F801CBE6
:1082A00048BF11F8012B24BF00F8013B00F801CBB7
:1082B00048BF00F8012B704770477047704710B5F2
:1082C000203AC0F00B80B1E81850A0E81850B1E88F
:1082D0001850A0E81850203ABFF4F5AF5FEA027CCE
:1082E00024BFB1E81850A0E8185044BF18C918C0FE
:1082F000BDE810405FEA827C24BF51F8043B40F89F
:10830000043B08BF7047D20728BF31F8023B48BF83
:1083100011F8012B28BF20F8023B48BF00F8012BC1
:108320007047754600F02CF8AE4605006946534686
:1083300020F00700854618B020B5FFF753FFBDE8D1
:1083400020404FF000064FF000074FF000084FF0BC
:10835000000BAC46ACE8C009ACE8C009ACE8C00909
:10836000ACE8C00921F007018D46704710B50446FE
:10837000AFF300802046BDE81040FFF71EBF0000AD
:10838000004870476801002001491820ABBEFEE795
:10839000260002007047FEE700207047002070476B
:1083A00080B50548D0F8B80218B101F033FC0020C0
:1083B00080BD022080BD00BFE40400207047EFF3C1
:1083C000108072B6FEE7000084480021C161844835
:1083D000016841F004010160016841F04001016061
:1083E000704700BF7D490022CA617D490A6842F09A
:1083F00002020A604860086840F040000860704768
:1084000025480168C90601D4002105E07349CA69FD
:1084100042F00202CA6110210268520706D56F4A73
:1084200041F00401D36943F00103D3610269D2072B
:1084300008D06A4AD36943F00403D361026922F089
:108440000102026101607047F8B5134E044600F066
:10845000BBF90546671C3068C00709D0002FFAD069
:1084600024B100F0B1F9401BA042F4D90320F8BDBB
:108470003068800644BF202030603068C00607D4D2
:108480003069C00704D1306840075CBF0020F8BDE8
:10849000FFF7B6FF0120F8BD0C200240B0B504463E
:1084A00000F092F90546EF48611C007818BF0444BB
:1084B00000F08AF9401BA042FAD3B0BD2DE9F0418B
:1084C000DFF81881054698F81800012801D102202C
:1084D00018E001202E680C4688F8180001F0FDFA1B
:1084E000022E0AD150B9FFF76FFF01F0F6FA3C49AE
:1084F0000A6822F004020A6001E030B10120002184
:1085000088F81810C0B2BDE8F0814FF0FF30344F4A
:1085100020600120A9680E46EA6801EB82218E42A4
:10852000EDD23046FFF75EFF01F0D7FA396821F04F
:108530000201396020B9A96806F580660020EBE7E2
:108540002660DCE72648016841F0800101600020D8
:10855000704700BF2DE9F84FDFF88080074698F894
:108560001800012804BF0220BDE8F88F01209A46B8
:1085700093460E4688F818004CF25030FFF764FF1F
:1085800038BB3846022F18BF0420012F08BF3846D9
:10859000134FC4B200255FFA85F900204C4518D965
:1085A000C8F81C004FEA09125146386840F0010033
:1085B00038605846FFF728FE26F819004CF2503074
:1085C000FFF742FF39680135002821F001013960C9
:1085D000E1D0002188F81810BDE8F88F800A00204B
:1085E000102002400648C16809065CBF00207047A1
:1085F0000449016004490160C068C0B2C009704705
:108600000420024023016745AB89EFCD2DE9FC4FE3
:108610005E4A04234FF0000A4FF001084FF00009B2
:10862000904208BF0323009300250C6834FA05F23A
:1086300008BFBDE8FC8F08FA05FE14EA0E0F00F033
:10864000A1804F68032F16D9112F26D0122F28D0C2
:10865000514A974213D0514A974210D0504A9742FC
:108660000DD0504A97420AD04F4A974207D04F4AFE
:10867000974204D022E0DFE807F002181B1F8C6845
:1086800044B1012C14BFC0F814E0C0F810E04FF062
:10869000080913E04FF0040910E0CC6804F1040964
:1086A0000CE0CC6804F10C0908E0D1F80C9005E06E
:1086B000CC6804F1080901E04FF000095446074670
:1086C000082D4FF00F0228BF203C28BF04373B681D
:1086D00002FA04F609FA04F4B34323433B60CB796E
:1086E000DB064FD56F4A2A4C1368A4F57E7C43F015
:1086F0000103136013682E4A03F0010390420193B3
:10870000019B25F003035CF803B008D0294A90428E
:1087100007D0294A009E904208BF022602E00026A8
:1087200000E001260AF00C030F22AF0802FA03F45E
:1087300006FA03F3164E174A2BEA040423434CF8B7
:1087400027304F68FB02B36854BF23EA0E0443EAA4
:108750000E04B460BB02136854BF23EA0E0443EA5C
:108760000E041460BB03736854BF23EA0E0443EA8B
:108770000E047460FB03336854BF23EA0E0243EA1D
:108780000E0232600AF1040A01354EE7001401407E
:10879000000401400C040140000011100000121000
:1087A00000002110000022100000311000003210E3
:1087B00000080140000C014000100140002A08BFE1
:1087C00009040161704700000E480068704700BF4F
:1087D00001480068704700BFE8F7FF1F01480068C4
:1087E000704700BFECF7FF1F01480068704700BFEB
:1087F000F0F7FF1F1B48034900780A68104408601F
:10880000704700BFA00A002080B50748016841F00A
:1088100010010160032000F07FF80F2000F006F83F
:1088200000F024F8002080BD0020024070B50D4EFD
:1088300004464FF47A713078B1FBF0F00A490968C8
:10884000B1FBF0F001F0DEF801250F2C08D838B9A3
:108850004FF0FF3021460022002500F037F8746009
:10886000284670BD000000204800002082B00D485E
:108870000222016841F001010160016801F001017B
:1088800001910199416841F080514160406800F0D8
:108890008050009000980448016862F31A610160FA
:1088A00002B070471810024004000140002809D4AB
:1088B000734601F034F99E46034A42EAD00020F0A4
:1088C00003000160704700BF00E100E0F0B5184B05
:1088D0004FF0FF361C68C4F30224E51E84F0070441
:1088E00038BF002506FA05F7BA43042C28BF042434
:1088F00006FA04F4A14300F00F04A940043C11431C
:10890000044A234409010244002848BF03F10C0231
:108910001170F0BD00E400E005494FF6FF030A685E
:108920001A4060F30A22034810430860704700BFF2
:108930000CED00E00000FA0502F00CFCB0B501F00F
:10894000070501EB810405EB850500EBC40400EB92
:10895000C5001030090658BF04F5A87012B10121F6
:10896000836001E0C380002101730020B0BD704727
:1089700001EB810200EBC202D0F8D402526A01F08E
:1089800052BC01EB810200EBC202D0F8D402D2F853
:10899000642101F0A7BC10B5044601F088F8C3BFFC
:1089A000002281F8512101F5A8710122DCBF4A742F
:1089B0001031087094F89002012804BF022010BD05
:1089C00001F095F802F0D0F801F0C1B8B0B5044656
:1089D000007901F00F02824201D901251AE001F06D
:1089E00066F8C3BF002281F8512101F5A871012268
:1089F000DCBF4A7410310870002594F890028D7025
:108A0000012801D1022505E001F071F802F020F9FA
:108A100084F890522846B0BDB0B5044601F047F83E
:108A2000C3BF002581F8515101F5A8710125DCBFB4
:108A30004D7410310A61CB700870022B04BF002006
:108A4000087194F89002012804BF0220B0BD01F023
:108A50004EF801F07DFF002084F89002B0BDB0B563
:108A600001F00701002501EB810400EBC40400685C
:108A700004F5B27784F8501104F5A87184F85151C7
:108A80002CC702F033F90020B0BDB0B50446007920
:108A900001F00705854284BF0120B0BD48B2B0F1A6
:108AA000FF3F09DD01EB8100002104EBC00080F8ED
:108AB000511100F5A87107E005EB8500012104EBD9
:108AC000C000417400F1100194F8902201200D7053
:108AD0008870012A04BF0220B0BD84F8900220688B
:108AE00002F0ECF825B9206804F5267102F0AEF822
:108AF000002084F89002B0BDB0B501F00704002555
:108B000004EB840100EBC101006801F8104F01245F
:108B100001F1140781F824400B624C702CC702F05D
:108B2000E5F80020B0BD00002DE9F04F85B0044607
:108B3000006802F0DFFA010419D4410500F16183F5
:108B4000410400F16E83810400F17083C10400F1DF
:108B50007283010500F18883810500F1CA83C00595
:108B600040F17F8301F04BF821F4807177E304F545
:108B70002670009040F60F752068B0F94410B1F1EE
:108B8000FF3F00F36E83B0F8442012F00F0843D08B
:108B900030F928104FEA480A1FFA81F9B1F1FF3F76
:108BA00000F32E8130F81A102940803120F81A1075
:108BB00008EB880104EBC10B9BF85C110BF5A87660
:108BC000002900F0B9809BF85311022940F0C480BD
:108BD0003178B0F85020DBF868315FEA494702EBA2
:108BE000C10200EB42050BF5B47200F1D080B5F87C
:108BF0000C7400256FF39F27DB1B38BF2B461360D7
:108C000001D800F0B6FF5FEA496240F60F7500F147
:108C1000BA8000F0CBFFB6E00188D20626D4294006
:108C200001F500410180217CB0F8502002EBC10128
:108C300000EB4100616AB0F804046FF39F20E0622A
:108C40000844002160622046FFF792FE607B002806
:108C500092D0A06A00288FD12068617B41F080010A
:108C6000C9B2A0F84C100020607385E70A054BD408
:108C700009B2B1F1FF3F3FF77FAF01882940803152
:108C8000018000F0C0FF00EB4101B1F80C346FF33C
:108C90009F23C4F86C3193B1D4F8641179B1B4F85E
:108CA000562102F02AFAD4F86401D4F86C11084471
:108CB0000021C4F864012046FFF763FE20680188A4
:108CC0000A053FF559AF01F44051B1F5405F3FF45B
:108CD00053AFB0F8501000F20C42535A6FF39F2379
:108CE0005352D4F860313F2BC0F0F980DD064FF0CD
:108CF000FF364FEA531508BF06EB53158B5A43EA6C
:108D0000852340F60F75F6E000F07DFFB4F856219C
:108D100000EB4101B1F80C3400996FF39F23C4F8C4
:108D20006C3102F0EAF92068018829408031018025
:108D3000204600F084FB1FE73178B0F8502002EBAA
:108D4000C10100EB4101B1F80C746FF39F27002FB4
:108D50003ED0BBF8562135E0317848F2C00330F8F8
:108D600021202A401A4320F8212030F82120B0F891
:108D7000503003EBC101520400EB41011BD4B1F8A8
:108D80000C746FF39F271FB3BBF85A211AE0B5F894
:108D9000047400256FF39F27DB1B38BF2B4613603D
:108DA00001D800F0E6FE5FEA496240F60F7506D58D
:108DB00000F0FCFE03E0B1F804746FF39F273FB1AD
:108DC000BBF85821DBF864113B4602F096F900E04D
:108DD00000270BF5B27207CA3A443844CBF86C212D
:108DE000CBF8640119B1DBF86001B84204D93178DD
:108DF0002046FFF7C6FD03E02068314601F076FF0C
:108E00005FEA09607FF5B8AE206830F81A10294093
:108E100001F5004120F81A1008EB880104EBC107A6
:108E2000F97C07F1100A012919D10021B962397FB3
:108E300000294ED05FEA496131D4797C01293FD0C5
:108E4000002946D100F0D3FEB0F80C146FF39F2137
:108E5000A0F80C14B0F80C1441F4004132E05FEAC1
:108E6000C95156D4BB6A9AF80010B0F850200026B9
:108E700002EBC10200EB4202B2F804246FF39F221E
:108E80009B1A38BF3346BB6225D9796AFB6A114405
:108E900079629918F962514601F028FF6CE6797CF5
:108EA000012912D0A9B900F0A2FEB0F804146FF3A2
:108EB0009F21A0F80414B0F8041441F4004106E026
:108EC00000F085FEA0F80C1403E000F080FEA0F88E
:108ED00004149AF800102046FFF74AFD4CE64BB107
:108EE00003F001068D5A06EB530345EA832340F64F
:108EF0000F7502E08B5AE24E33438B5243F60F72EA
:108F0000018811404AF2800202F5805251400180EE
:108F100032E69AF80010B0F8502040F60F7B5FEA76
:108F2000496502EBC1033A4652F8286F3BD400F280
:108F30000C4838F813506FF39F25731B4FF0000651
:108F400038BF3346136068D95FEA49420AD430F823
:108F500021204AF2800303F5005302EA0B021A4370
:108F600020F821203A4612F8343F012B40F03A8194
:108F70003B4653F8309F53E904E653F804BC06EB34
:108F8000050C0BEB050643F80CCC43F8046CF145DB
:108F900080F0AE80B9F1000F00F0D7800025CE46FA
:108FA00015701D60D4E000F2044838F813306FF3F8
:108FB0009F23F51A4FF0000638BF354615604AD991
:108FC0005FEA49420AD530F821204AF2800505F5CA
:108FD000005502EA0B022A4320F821203A4612F8F3
:108FE000345F012D40F0FE803D4655F830EF55E9E5
:108FF00004BC55F8049C9C4409EB030645F80CCCD2
:1090000045F8046CDE4577D24FF00009BEF1000F41
:1090100082F8009073D19E4673E07A7C012A38D0A2
:10902000002A3FD1B0F8503000EB01121A44B2F8D8
:1090300004346FF39F23A2F80434B2F8043443F4E9
:10904000004300F076FD135A6FF39F231352135A17
:1090500043F4004325E07A7C012A2AD092BBB0F881
:10906000503008EB0112D55A6FF39F25D552D55ACF
:1090700045F4004500F064FDB0F80C246FF39F2226
:10908000A0F80C24B0F80C2442F40042A0F80C2400
:1090900018E0B0F8503000EB01121A44002300F041
:1090A00048FD13522046FFF763FC5FEA494010D5A4
:1090B00098E0B0F8503008EB0112002500F040FDB8
:1090C000A0F80C542046FFF753FC5FEA494040F1FA
:1090D00089809AF8000021684AF2800303F5005362
:1090E00031F8202002EA0B021A4321F8202079E00F
:1090F000A9EB0E021A602BE0AEEB0B09DE46C5F8B9
:1091000000907A7C012A19D0002A5FD1B0F8503043
:1091100008EB0111BEF13F0FCA5A6FF39F22CA52EA
:109120003AD35FEACE624FF0FF354FEA5E1208BFD6
:1091300005EB5E125D5A45EA822244E0B0F8502009
:1091400008EB011121F802E040E00023AE46137065
:109150007A7C012A19D0002A3ED1B0F8503008EBB1
:109160000111BEF13F0FCA5A6FF39F22CA521ED39C
:109170005FEACE624FF0FF354FEA5E1208BF05EBA3
:109180005E125D5A45EA822223E0B0F8502008EBD7
:10919000011121F802E01FE0BEF1000F12D00EF025
:1091A00001055A5A05EB5E0542EA85220DE0BEF143
:1091B000000F0DD00EF001055A5A05EB5E0542EA8C
:1091C000852208E05A5A42F400425A523A8B04E08F
:1091D0005A5A42F400425A527A8B1FFA8EF3614671
:1091E00001F0A8FF9AF80000216840F63F7331F8BB
:1091F00020201A4048F2C003103B5A4021F820209A
:10920000B8E400F0FCFC21F48061A0F84410204692
:1092100000F0EEF82046002105B0BDE8F04F00F068
:1092200001B900F0ECFC21F4804118E000F0E7FC0B
:1092300021F4005113E02068B0F8401021F004013F
:10924000A0F84010B0F8401021F00801A0F840103C
:10925000204600F0DFF800F0D2FC21F48051A0F8A5
:10926000441005B0BDE8F08F2068002201A9082A4B
:1092700008D030F8223021F812300132F7E700BF71
:109280000080FFFFB0F8402042F00102A0F840202B
:10929000B0F8402022F00102A0F84020B0F84420AD
:1092A0005205FBD5B0F8442022F48062A0F8442097
:1092B0000022082A05D031F8123020F8223001327D
:1092C000F7E7B0F8401041F00801A0F84010B0F8FE
:1092D000441021F40061A0F84410B0F8401041F0AF
:1092E0000401A0F84010204605B0BDE8F04F00F0A2
:1092F000C1B800F084FC21F40071A0F844102046AD
:1093000005B0BDE8F04F00F089B870B5002845D031
:10931000044690F8910228B9002084F89002204673
:1093200000F048F800206071032084F89102206862
:1093300001F085FC94E80700237B01F013FC50BB8F
:1093400020680021002501F0EDFE20BB20790121DD
:1093500000220023984209D0A61828323374C6E9A7
:109360000855B562F57471740133F3E704F5A8711B
:1093700000220023984208D00B70C1E904228A61C0
:10938000CA704A7028310133F4E7237B94E8070060
:1093900001F049FC28B1022084F8910201252846F9
:1093A00070BD00250120657384F89102206801F0EA
:1093B00038FCF4E7E0B500680B49884218BF8CBD63
:1093C0000A480022016841F40001016000210068A0
:1093D00000F40000019001981420FFF777FA1420A0
:1093E000BDE88C40FFF762BA005C00401C100240F0
:1093F00010B504468079022818BFFEF7E0FFD4F8C4
:10940000D402012101F048F8D4F8D402BDE810409C
:1094100001F004B8D0F8D40201F028B8D0F8D40292
:1094200001F02EB810B500F0B4FB04BF022010BD4F
:10943000617300F05CFB01F077FE00F088BBD0F8B0
:10944000D42200F52671104601F032B810B500F0B4
:10945000A0FB04BF022010BD00F049FB01F03CFE60
:1094600020460121FFF783FA206801F0D8FB00F0C5
:109470006EBB000010B50446D0F8D40201F055F8D8
:10948000A07A20B10248016841F00601016010BDD8
:1094900010ED00E02DE9FC4104460078924EC00733
:1094A00043D0B06910F0805808D1B06940F08050C6
:1094B000B061B06900F08050019001982C4F38687D
:1094C000C00511D4386840F480703860FFF77CF92B
:1094D00005463868C00507D4FFF776F9401B6428B5
:1094E000F7D90320BDE8FC81F06910F440700FD07B
:1094F000616801F4407188420AD01E49F069012276
:109500000A6000220A6020F44071C007F16120D196
:109510006068F16921F440710843B8F1000FF0610F
:1095200003D1B06920F08050B0612068810705D573
:10953000A168326822F4404211433160C00605D56B
:10954000E068316821F48001084330600020BDE804
:10955000FC81FFF739F9054641F28837F069800749
:10956000D6D4FFF731F9411B0320B942F6D9EEE713
:1095700000700040400442422DE9F84300286CD0BE
:10958000884649490446086800F0070040450AD269
:10959000086820F0070040EA08000860086800F04A
:1095A0000700404559D120684F4B8946810711D5A6
:1095B000410703D5196841F4E0611960010703D53B
:1095C000196841F460511960A1681A6822F0F0022C
:1095D00011431960C00737D1D9F8000000F0070027
:1095E00040450DD9D9F8000020F0070040EA0800F6
:1095F000C9F80000D9F8000000F0070040452CD160
:109600002068410705D5E1681A6822F4E062114339
:109610001960000706D52069196821F4605141EAF4
:10962000C00018601C4600F045F821681F4AC1F3CD
:109630000311515CC840F14908601D480068FFF7FC
:10964000F5F80020BDE8F8836068022808D00128FA
:1096500025D153F8041C890306D40120BDE8F88302
:1096600053F8041C8901F8D519681D4621F003013F
:1096700008431860FFF7A8F8064641F2883760688B
:1096800029682B4601F00C01B1EB800FA4D0FFF745
:109690009BF8801BB842F2D90320BDE8F88353F849
:1096A000041C8907D9D5DFE700200240A4B20008D6
:1096B0000400002010B50C490C480A6802F00C03A5
:1096C000082B07D1C2F3834309A4D203E35C02D47D
:1096D0000C48584310BD096809A25843C1F34041E2
:1096E000515CB0FBF1F010BD0410024000127A0092
:1096F00002030405060708090A0B0C0D0E0F1010D3
:109700000102000000093D002DE9FC41002800F0A5
:109710009C8004460078B74EC0071FD0706800F0E8
:109720000C00042814D000F01CFA02D17068C003A9
:109730000ED46068002800F01481B0F5A02F00F06E
:109740002181B0F5803F00F0218100F0BEF920E1D9
:109750003068800302D56068002876D020788007C2
:1097600016D5706810F00C0F05D000F0FAF924D16E
:109770007068C00321D43068800702D520690128B1
:1097800063D16069316821F0F80141EAC0003060BE
:109790002078000741D5A06910B397480121C0F88F
:1097A0008014FFF711F80546706A800728D4FFF788
:1097B0000BF8401B0228F7D9F8E021698E480029F0
:1097C00000F08E8001210160FEF7FEFF0546306843
:1097D0008007D6D4FEF7F8FF401B0228F7D9E5E052
:1097E00085480021C0F88014FEF7EEFF0546706A38
:1097F000800712D5FEF7E8FF401B0228F7D9D5E015
:109800007E484FF4FA510068B0FBF1F0019000BFC0
:109810000198411E00280191F9D12078400717D402
:10982000E7697FB100F09DF93CD1012F0DD0216A8D
:10983000706800F480328A4207D1616A00F47010C7
:10984000884202D10020BDE8FC810120BDE8FC81F6
:10985000F06910F0805808D1F06940F08050F06154
:10986000F06900F0805000900098654F3868C0059E
:109870000FD4386840F480703860FEF7A5FF0546C5
:109880003868C00505D4FEF79FFF401B6428F7D950
:109890008CE0E068A0B3052844D0012846D000F051
:1098A00036F946E05449002088460866FEF78CFFEA
:1098B0000546022F0AD147463068800179D5FEF768
:1098C00083FF411B03200229F6D9BCE730688001E1
:1098D000B8D5FEF779FF411B03200229F6D9B2E77C
:1098E00000210160FEF770FF0546306880077FF5B4
:1098F0004FAFFEF769FF411B03200229F5D9A2E70C
:1099000000F005F93062FEF75FFF054641F2883747
:10991000306A80071CD5FEF757FF411B0320B94270
:10992000F6D990E7306A40F004003062306A40F0C7
:1099300001003062FEF748FF054641F28837306A81
:10994000800705D4FEF740FF401BB842F7D92DE051
:10995000B8F1000F7FF464AFF06920F08050F0613F
:109960005EE700F0B2F83060FEF72EFF0546306883
:1099700080037FF5F3AEFEF727FF411B0320642928
:10998000F5D960E7306840F480203060306840F4FA
:1099900080303060FEF718FF0546306880033FF5E1
:1099A000DDAEFEF711FF401B6428F6D90320BDE8A9
:1099B000FC81206AB0F5803F05D1A168726822F46D
:1099C000003211437160616A726822F474121143AB
:1099D0000843706001203866FEF7F6FE04463068E2
:1099E00080013FF52FAFFEF7EFFE011B0320022998
:1099F000F5D928E70010024000004242480000204C
:109A000000700040411E0020B0EB116F1CBF012010
:109A10007047044AF023516003490B70072190609E
:109A20001160704710E000E023ED00E0FEE770B544
:109A300001310023372472B1060F01F8023B04EB19
:109A40001075B0F1204F38BF06F1300501F8035C06
:109A5000013A0001EFE770BD80B5BE480E49002213
:109A600000F0BAFB08B1FEF7AAFCBA480B4900F0B7
:109A700079FD08B1FEF7A3FCB648094900F031FAB8
:109A800008B1FEF79CFCB34800F080FD18B1BDE8BA
:109A90008040FEF794BC80BD2C0000204C000020CC
:109AA00020010020FEE7FEE7214600F069BB01F03F
:109AB000070049B2B1F1FF3F00EB800104EBC101A7
:109AC0007047A0F8401000207047306820F48030C4
:109AD0003060306820F4802070474CF25030FEF740
:109AE000B3BCD4F8B402294682682046104701204E
:109AF00084F890022068704730F8113040F60F74F7
:109B0000234002F58044234320F811307047306A27
:109B100020F001003062306A20F00400704700F04D
:109B20001F010122C0B202FA01F17047204600F085
:109B300074BAA2F8043408EB0112B0F85000704770
:109B4000D55200EB0112B0F85000104470470020CD
:109B500084F8900210BDC7064FF0FF364FEA501749
:109B60007047706800F00C0008287047204600F02D
:109B700084BA30F8212043F60F731A404AF280036A
:109B80005A4020F82120704794F89C02013802289E
:109B90007047044690F890020128704768692A6966
:109BA0000023C119286A69619042704730F821206A
:109BB00048F2C0032A401A4320F82120704700F0E1
:109BC00001079E5A07EB500746EA87267047B0F810
:109BD000501008449AF8001000EB01100021704763
:109BE000B4F850202B78224402EB03127047B0F8EF
:109BF000501008449AF8001000EB011070472068DC
:109C0000B0F84410704794F85011B0F8502002EBAF
:109C1000C1017047F8B501460078152810D0162804
:109C200054D017285DD0202818BFF8BD45484FF400
:109C300080610122FEF7C2FDBDE8F840FEF77CBE60
:109C4000364C01200025E070152060703448016812
:109C500042688368C668076904F128004EC031482D
:109C60008642314818BF2F4683423048304B18BFD8
:109C70002F4641405A40844604F11800114318BF52
:109C80002F4667612B490A684B688E68CF6809695F
:109C9000CCC029488742294818BF2946864282EA13
:109CA0000C00274A18BF29465A40104318BF2946BE
:109CB0002161FEF78DFD6060FEF790FDA060FEF76C
:109CC00093FDE060C4E90E55257008E0124C3F2278
:109CD000601CFEF7ACFAD4E9010101F04DFA204610
:109CE00014E00C4C3F22601CFEF7A1FAE2780AB1A6
:109CF000392A03D3382A28BF3822E27060688107E6
:109D000003D104F1080101F063FA0248BDE8F8400C
:109D100000F01AB848020020C80100200802002004
:109D2000E8FF0008B1AC40F92B42D85800003010D1
:109D30005783E57AEC7F0008FA364F0CF21640881C
:109D400066974F240008014001460248402200F077
:109D5000CFB800BFE404002070477047FEF74ABD4B
:109D6000B0B594B04FF4E0100024022513904FF4E6
:109D70008030CDE90F44CDE90D441195CDE9024481
:109D80001290CDE90B0401200A900E900AA8FFF76B
:109D9000BBFC18B1EFF3108072B6FEE74FF48060A1
:109DA00009940221CDE907400F20CDE9050505A85A
:109DB000FFF7E2FB18B1EFF3108072B6FEE7002068
:109DC00004901020019001A8FFF764FB18B1EFF395
:109DD000108072B6FEE714B0B0BD7047D0F8B8027C
:109DE000002180F8501000207047B0B5D0E9AE5285
:109DF000044628786978D2689047204601212A468F
:109E0000402300F002FB0020B0BDB0B58121044624
:109E100000F000FA002520460121E56200F0FAF981
:109E2000D4F8B802C4F86C5148B1D4F8BC028068C8
:109E30008047D4F8B80200F085FDC4F8B85200207D
:109E4000B0BD10B5D0F8B842E16C012908D1D0F806
:109E5000BC0222786178C368104698470020E0640D
:109E6000002010BD0A21018000487047E800002052
:109E700029210180004870478400002029210180A9
:109E800000487047B0000020292101800048704739
:109E9000F400002070B5812103224023054600F024
:109EA000A8FA01242846012103224023EC6200F095
:109EB000A0FA5420C5F86C4100F046FDC5F8B80280
:109EC00068B10024064680F85040D5F8BC024068CE
:109ED0008047284601213246402300F096FA20466A
:109EE00070BD19B1C0F8BC12002070470220704745
:109EF000B0B513460A4690F89C1203290AD1D0F84F
:109F0000B842012194F850502DB984F850108121A5
:109F100000F014FB00210846B0BD00001CB5002273
:109F2000D0F8B832ADF806200A7812F060020FD0EF
:109F3000202A38D14A78023A092A34D8DFE802F0D8
:109F4000053E333333333337454803F1440137E0BB
:109F50004A780B2A0CD0062A11D00A2A1CD012BB30
:109F600090F89C22032A1ED10DF10601022228E05E
:109F700090F89C22032A16D18878986423E0CA7846
:109F8000212A28D0222A2CD1CA88222A28BF22227C
:109F9000D0F8BC12096814E090F89C22032A02D180
:109FA00003F148010CE000F038F802201CBD01224A
:109FB000DA64CA88194600F03BF804E003F1400176
:109FC000012200F04DF800201CBDC8785864FAE763
:109FD00088781864F7E7CA880349092A28BF092244
:109FE000EFE700220021ECE7DC00002080B5D0F88C
:109FF000B42252689047002080BD80B513460A46BF
:10A00000002100F002FA002080BD80B513460A4608
:10A01000002100F093FA002080BD10B58021044695
:10A0200000F071FA20460021BDE8104000F06BBA44
:10A0300080B513460A460321C0F894120021C0E9F6
:10A04000573300F0E2F9002080BD80B505210022E1
:10A050000023C0F89412002100F0D7F9002080BD41
:10A0600080B513460A460221C0F894120021C0E9C7
:10A07000073300F063FA002080BD80B50421002280
:10A080000023C0F89412002100F058FA002080BD8F
:10A0900010B52D4C0A4602A0FFF706FD204610BD64
:10A0A000437573746F6D2048494420436F6E666931
:10A0B000670000001220088000487047300100202F
:10A0C00010B5214C0A4602A0FFF7EEFC204610BD59
:10A0D000437573746F6D2048494420496E746572EE
:10A0E0006661636500000000042008800048704736
:10A0F0004401002010B5144C0A4602A0FFF7D4FC1E
:10A10000204610BD53544D6963726F656C6563746E
:10A11000726F6E696373000010B50B4C0A4602A0A3
:10A12000FFF7C2FC204610BD53544D333220437517
:10A1300073746F6D2048756D616E20696E74657201
:10A1400066616365000000008C020020B0B51A2033
:10A150000880094908688A6880180BD0074D4C6848
:10A160000822A91CFFF763FC05F112012046042216
:10A17000FFF75DFC0148B0BDE8F7FF1F4801002074
:10A18000B0B5D8B100230446257815B101340133A8
:10A19000FAE7DCB2022303EB440414800C700322C0
:10A1A00001240A5502784AB1DCB29D1C01300A55DF
:10A1B00043F001022B46D4B20022F2E7B0BD00000A
:10A1C000C1000223034A042838BF22FA01F3D8B29F
:10A1D000704700BF0002010288B180B5D0F8B432E8
:10A1E00013B10023C0F8B43209B1C0F8B012012194
:10A1F000027080F89C1200F0B5F8002080BD0220AB
:10A20000704780B5D0F8C002FEF7E0FBBDE88040A3
:10A21000FFF7D6BF80B5D0F8C002FEF7BCFBBDE8A3
:10A220008040FFF7CDBFB0B5044669B1D4F8B402A1
:10A2300042693AB194F89C02032803D12046904722
:10A24000002027E00220B0BDD4F89402B0B1042869
:10A2500014D0022816D1D4E9081081421BD9081A5B
:10A26000114683B2206220461A46FFF7CEFE2046F2
:10A2700000210022002300F0C8F803E020468021DE
:10A2800000F041F994F8A0120020012904BF84F8DD
:10A29000A002B0BDB0BDE169B1FBF0F202FB10124B
:10A2A00072B981420CD3D4F89802814208D2204678
:10A2B000002100220025FFF7A8FEC4F89852D6E737
:10A2C000D4F8B402C16829B194F89C02032801D1E2
:10A2D000204688472046802100F015F92046FFF7E8
:10A2E000B4FECFE7B0B5044661B1D4F8B4028269D8
:10A2F00032B194F89C02032802D1204690472DE009
:10A3000002252CE0D4F894020025052812D0032859
:10A3100025D1D4E95810814213D9091AC4F8601123
:10A32000814238BF084683B2114620461A46FFF7DD
:10A3300064FE13E020460021C4F8945200F0E3F8D4
:10A340000DE0D4F8B402016929B194F89C02032805
:10A3500001D1204688472046FFF78FFE002528467A
:10A36000B0BD0000B0B5044616480021017341811C
:10A370000221C4F8C002C0F8D442817108210171E1
:10A3800011490160FEF7C1FF08B1FEF718F8D4F8D3
:10A39000C0020E4D002100221823A847D4F8C002A5
:10A3A000802100225823A847D4F8C002812100222E
:10A3B0009823A847D4F8C00201210022D823A84737
:10A3C0000020B0BDA8070020005C00403D890008C7
:10A3D00001F07F02D0F8C00249B202EB82020029EC
:10A3E00000EBC20000F5A97248BF00F1120210781C
:10A3F000704710B51446D0F8C0021A462346FEF73F
:10A400000BFBBDE81040FFF7DBBE80B5D0F8C00203
:10A41000FEF725FBBDE88040FFF7D2BEF8B500216E
:10A4200000224023044600254026FFF7E2FF0127D3
:10A430002046802100224023C4F86461C4F858718A
:10A44000FFF7D7FFD4F8B80284F89C726662A76160
:10A45000C4F89452C4F8A452656028B1D4F8B40288
:10A4600000214268204690470020F8BD90F89C12D9
:10A47000042904BF90F89D1280F89C1200207047B8
:10A4800080B590F89C12032904D1D0F8B412C969A0
:10A4900001B18847002080BD01740020704780B55D
:10A4A000D0F8C002FEF7BEFFBDE88040FFF788BECF
:10A4B000B0B500F52A750446284600F048F8B4F80F
:10A4C000AE120120C4E9A50194F8A80200F01F0112
:10A4D000022907D001290AD071B92046294600F087
:10A4E0005BF80EE02046294600F082F909E020469C
:10A4F000294600F009FA04E000F08001204600F04F
:10A5000002F80020B0BD80B5D0F8C002FEF7BDFA59
:10A51000BDE88040FFF754BE80B5D0F8C002FEF71A
:10A5200095FFBDE88040FFF74BBE90F89C1280F885
:10A530009D12042180F89C120020704780B5D0F84D
:10A54000C002FEF7D9FABDE88040FFF739BE0A78AD
:10A5500002704A7842704A8842808A888280C9881C
:10A56000C180704719B1C0F8B412002070470220B2
:10A57000704780B5D0F8B42232B1126890470028F5
:10A5800018BF0120400080BD022080BD80B5FFF7CC
:10A59000C3FF002080BD0000BCB5044608780D460E
:10A5A00010F0600007D0402802D0202840F0198128
:10A5B000FFF797FA17E16878092800F21281DFE8BF
:10A5C00010F00A001E001001280010015300740052
:10A5D000100130003E00FFF7D7FA00F20281E88850
:10A5E000022840F0FE80D4F8A4020322214600286D
:10A5F00008BF012241F80C2F2046022271E0FFF72C
:10A60000C3FA00F2EE806888012840F0EC80002058
:10A6100004E06888012840F0E6800120C4F8A40224
:10A62000DCE0E888012840F0DC8094F89C02411EC0
:10A63000022950D20020214641F8080F4FE06888D7
:10A640006A4DC1B22870022980F0CB8094F89C0238
:10A65000032849D0022840F06580002900F0BE8020
:10A66000032084F89C024AE0A888002840F0B980C2
:10A67000E888002840F0B58068887F2800F2B18023
:10A6800094F89C12032900F0AC80C5B284F89E02B5
:10A6900020462946FFF703FFFFF768FA002D0CBF9D
:10A6A0000120022084F89C029DE000204FF0FF3141
:10A6B000ADF80600688801EB1021062900F29180B0
:10A6C000DFE801F00437248F8F3D4700D4F8B01243
:10A6D000207C0A686FE0032840F08380211D20461B
:10A6E0000122FFF7BDFC7EE000293ED06068012812
:10A6F00000F07480C1B22046FFF778FC297820462C
:10A700006160FFF736FF022868D16AE0C0B2052811
:10A7100067D8DFE800F0033B3F43474BD4F8B00273
:10A72000426846E0FFF702FA29782046FFF75EFC10
:10A7300059E0217CD4F8B40201B3C16A1FE0207C47
:10A7400000284ED1D4F8B402416B0DF106008847C1
:10A7500034E0207C002844D1D4F8B402016B0DF120
:10A7600006008847014607200EE0002060600220B6
:10A7700084F89C022046FFF739FC2FE0816A0DF136
:10A780000600884701460220487018E0D4F8B0025D
:10A7900082680EE0D4F8B002C2680AE0D4F8B002D1
:10A7A000026906E0D4F8B002426902E0D4F8B002CF
:10A7B0008269B2B1207C0DF1060190470146BDF8D7
:10A7C000060048B1EA883AB1904238BF02462046B6
:10A7D000ADF80620FFF744FCE88820B9FFF7C6F97A
:10A7E00001E0FFF7A3F90020BCBD00BF88020020F4
:10A7F000B0B5044608780A4610F060000AD0402838
:10A8000001D0202864D1D4F8B402114683682046D0
:10A8100098475FE05078117998B101282AD0032831
:10A8200056D194F89C02032828D1508800285BD187
:10A83000480659D0D088002856D12046FFF763FE3D
:10A8400052E094F89C02032824D0022840D1480604
:10A850003ED111F080004FF0140108BF4FF4AA71EF
:10A860000022625004F114010028204608BF04F5BC
:10A87000AA7145E094F89C0203282DD0022827D124
:10A88000480625D02046FFF73EFE20468021FFF7F0
:10A890003AFE1FE001F00F00802900EB800004EB7E
:10A8A00080002CBF8069D0F8580188B101F07F008A
:10A8B000802900EB800004EB800000F1140538BF14
:10A8C00000F5AA7541F08000802810D1002014E026
:10A8D000FFF72CF90020B0BD50880028FAD14806B7
:10A8E00002D02046FFF78DFCFFF740F9F2E7204643
:10A8F000FFF76EFD002818BF01202860204629467A
:10A900000222FFF7ADFBE5E7B0B5044608780D4637
:10A9100010F0600018BF40280ED1FFF735F90DD8B0
:10A92000A88810F0FE0F09D1FFF7DBF8E98839B9E4
:10A9300030B9FFF71BF903E02028EED0FFF7F6F857
:10A940000020B0BD70470000004870478C04002014
:10A950002DE9F0410E7891F80380024647F27064C9
:10A9600000EB860330F82600B8F1030F20EA040458
:10A9700007D80020DFE808F002070D0A44F400744D
:10A9800006E0012005E044F4806401E044F4C06482
:10A990000020724F40F60F7548F2800C3C431C803B
:10A9A0001C882C4034433C431C800C7B002C49D039
:10A9B00048F28004B8F1020F40F60F6708BF04F5B3
:10A9C00080741D883D402C431C8002EB0614B2F8B5
:10A9D00050500E89254426F00106A5F80064B2F80F
:10A9E000502022444C8924F00104A2F808441A881B
:10A9F000497802F48042002945D03AB1198840F6DE
:10AA00000F7211400CF580421143198019884906D4
:10AA100007D5198840F60F7211400CF1400211431E
:10AA20001980198840F63F7211400CF120024A400B
:10AA3000B8F1010F08BF41EA0C021A80198843F6E9
:10AA40000F723FE0B2F85070CD88340125F0010E4E
:10AA50004D78DDB311193944A1F800E4198849068D
:10AA600007D5198840F60F7211400CF140021143CE
:10AA70001980198840F63F721140B8F1010F22D0B9
:10AA80000CF1200265E03AB1198840F60F721140CE
:10AA90000CF58042114319801988490607D5198899
:10AAA00040F60F7211400CF14002114319801988D1
:10AAB00043F60F7211400CF54052514040F63F7280
:10AAC00019801988114041EA0C0143E01444E5194A
:10AAD000A5F808E404F20C45B2F85070EC5B6FF393
:10AAE0009F24EC5309693F290BD3CC064FF0FF3E5E
:10AAF0004FEA511408BF0EEB5114795B41EA8421EF
:10AB00000AE041B101F0010437F805E004EB51011E
:10AB10004EEA812102E0795B114C21437953198877
:10AB2000490407D5198840F60F7421400CF580447C
:10AB300021431980002E1FBF198843F60F72114060
:10AB40000CF5005201BF118843F60F7211400CF54D
:10AB5000405251401980BDE8F08100BF8080FFFF66
:10AB60000080FFFF00207047F0B50A780D7B4C781D
:10AB7000510030F8223048F2800225B303F48043BC
:10AB80004CB30BB1FEF7B8FF30F8113002F5804539
:10AB900040F63F745B0643F60F7309D530F8116039
:10ABA00040F60F773E4002F140073E4320F8116027
:10ABB00030F8116040F60F773E40354320F81150D1
:10ABC00048F280051DE0A4B15B0640F63F731ED538
:10ABD00002F1400513E00BB1FEF78EFF30F81130A3
:10ABE00002F1400543F60F745B0640F63F73D5D47F
:10ABF000DEE75B0443F60F7309D502F5804540F6A6
:10AC00000F7430F8116034402C4320F8114030F8B4
:10AC1000114023401A4320F811200020F0BD0020ED
:10AC20007047002070470121A0F840100021A0F8D3
:10AC30004010A0F84410A0F8501000207047B0F861
:10AC4000401044F2FF021140FEF73BBF0020704766
:10AC5000B0B50A7B7ABB0A784C7830F822305200C3
:10AC60009CB15B0648F2A00309D530F8124040F6CB
:10AC70000F752C4003F120052C4320F81240C978B1
:10AC8000012918D040F63F710FE059044BF28003C0
:10AC900009D530F8121040F60F74214003F58054A6
:10ACA000214320F8121043F60F7130F81240214072
:10ACB000594020F812100020B0BD000010B50A78ED
:10ACC0004978094B002940F63F7108BF03F57F63BF
:10ACD00008BF43F60F7130F822402140594020F858
:10ACE0002210002010BD00BF9080FFFF2DE9F04131
:10ACF0000D4649780446012956D1AF69296948F2C1
:10AD000080088F4228BF0F46287B002872D0EA783F
:10AD1000286A022A40F0A0802A7840F60F6634F8AC
:10AD200022301E405300884240F2D98008F58071DD
:10AD3000C01B314324F813102862110134F81300AA
:10AD400021444006B4F85000084400F1DC80A0F82B
:10AD50000474BBB2204669692A8900F0EBF9FEF75A
:10AD60001DFF88BFC31B2B6288BF38466A78012A43
:10AD700000F00D81002A40F09281B4F850202B7829
:10AD800022441B0102F20C423F28D65A6FF39F2641
:10AD9000D652C0F07881FEF7DEFE08BF06EB5017F2
:10ADA0009E5A46EA872677E1287B90B3E878012807
:10ADB00064D0022840F08680002940F03D81B4F83C
:10ADC0005000204400F2044228780001115A6FF329
:10ADD0009F21115229693F29C0F0C780CE064FF04C
:10ADE000FF334FEA511608BF03EB5116835A43EA6B
:10ADF0008623D7E0EA886969BBB2204600F09AF959
:10AE0000B4F850002978204400EB0110A0F8047435
:10AE10004AE1B4F8500029782044090100F20C40BE
:10AE2000425A6FF39F2242522B69AA69D61A38BF41
:10AE30000026AE6138BF134648F280023F2B44D350
:10AE4000DF064FF0FF364FEA531708BF06EB5317E4
:10AE50000B5A43EA872382E0C01B2862287834F823
:10AE6000201049064FEA0011B4F85000214408446C
:10AE700043D4A0F8047469692A8942E02869AA6960
:10AE8000131A38BF0023AB6138BF1046002940F0C9
:10AE9000E080B4F85010214401F2044229780901FD
:10AEA000535A3F286FF39F23535267D3C6064FF080
:10AEB000FF334FEA501608BF03EB50168B5A43EA94
:10AEC000862393E00120BDE8F081002B46D003F0FB
:10AED00001070E5A07EB530346EA832341E046EA93
:10AEE000080124F8131004EB0211B4F850201144A7
:10AEF000A1F8040469692A89D2E0A0F80C74696990
:10AF00006A89BBB2CDE0A0F80C74BBB22046696977
:10AF10006A8900F00FF9FEF741FE88BFC31B2B6260
:10AF200088BF38466A78012A36D0002AE3D1B4F8BF
:10AF300050202B7822441B0102F204423F28D65AAB
:10AF40006FF39F26D652C0F0A280FEF704FE08BF22
:10AF500006EB50179E5A46EA8726B4E00B5A43F494
:10AF600000430B5202F5405083E0D1B101F00106DD
:10AF7000835A06EB510643EA862315E0A8B300F096
:10AF800001068B5A06EB500643EA862630E0FEF7B0
:10AF900027FEA2F80C0482E0FEF722FEA2F80404C9
:10AFA000A9E7835A4B4E334383523F29B4F85020CC
:10AFB000224402F20C42135A6FF39F2313520BD315
:10AFC000CE064FF0FF334FEA511608BF03EB511680
:10AFD000815A41EA86212CE051B301F00106835ADF
:10AFE00006EB510143EA812125E08B5A394E1E437D
:10AFF0008E5248F280033F28B4F85020224402F2D7
:10B000000C42565A6FF39F26565208D3FEF7A3FD03
:10B0100008BF06EB5017885A40EA87202DE058B346
:10B0200000F001078E5A07EB500046EA802026E028
:10B03000815A284B19438152E86950B1297848F266
:10B04000800034F8213003F040025B0403D41AB1CD
:10B050000DE01F480BE052B1490040F60F7334F881
:10B0600011201A4000F140031A4324F8112000F582
:10B07000405043F60F711BE0885A40F4004088525C
:10B0800003F54050F5E730B1FEF799FD06E0C8B191
:10B09000FEF795FD19E09E5A46F400469E526A89D5
:10B0A00083B2204600F046F808F1300040F63F71C8
:10B0B0002A7834F822301940484024F82200002031
:10B0C000BDE8F0819E5A46F400469E5213E700BF49
:10B0D0008080FFFF0080FFFF0021A0F844104FF4A4
:10B0E0003F41FEF7EEBC00000148FDF71DBD00BF6B
:10B0F000A8070020B0F84400704710B500EB4200EC
:10B1000000F58062481C590831B132F8044B01390E
:10B1100020F8014C0230F7E7D9071CBF118800F86E
:10B12000011C10BD0020704711B98021A0F84C10FF
:10B130000020704700EB42005A1C00F58060520866
:10B140002AB131F8023B013A20F8043BF8E7704796
:10B15000FEE700000648BFF34F8F064A016801F47E
:10B16000E06111430160BFF34F8F00BFFDE700BFF7
:10B170000CED00E00400FA05B0B586B0B0F1006F48
:10B1800001D201241EE00D460446FDF72BFA0020F3
:10B190000E490590CDE900006019084404F178419A
:10B1A000800AA0EB9120039040F2FF3021EA0000DA
:10B1B00000F100600290684605A9FDF77FF904469A
:10B1C000FDF7C0F9204606B0B0BD00BFFF0300F890
:10B1D000F8B50646800703D04FF0FF342046F8BD8F
:10B1E0001446002AF8D00D460029F5D0FDF7FAF9EB
:10B1F0000027A7420BD2EA59F11902200023FDF7DC
:10B20000A9F904370028F4D06FF0010400E000240D
:10B21000FDF798F9E2E7000084B0FDF7F5FAFEF7D4
:10B220009FFD1E481E4C00224FF4807500260168C9
:10B2300041F010010160016801F0100100910099D6
:10B24000016841F020010160016801F020010091D6
:10B250000099016841F0040101604FF480710068B9
:10B2600000F00400009000982046FDF7A7FA0220A5
:10B270006946CDE902600120CDE900502046FDF786
:10B28000C5F9FEF7E9FB4FF4FA60FDF707F9204630
:10B290004FF480710122FDF791FAFEE71810024089
:10B2A000000801400000000000000000010203044B
:10B2B00006070809D8B20008000000206801000055
:10B2C0002881000898B3000868010020400F0000A2
:10B2D00084810008000000003201321012061009BB
:10B2E000FF0901A1010901151326FF9F954075086B
:10B2F00091820D248182C013B5A01B08E9041AF5C0
:10B30000041319A11B084D041A910C1AC10411133E
:10B31000127A13959E1B080B041B1D9F10311A43B4
:10B320000C13DD9D1B08EB04C11A7D181A71041A59
:10B3300089041A65041409022913010125C0320980
:10B3400004330203150921110114012222160705F5
:10B350008103402D0107050107291A091E2C4A0502
:10B360002CAA051A31130A0632020A2340449970A6
:10B3700019B914209D831B0899041AA1044B1201CA
:10B38000481562043C571D02010203252E040309DF
:08B39000041A47011B00000034
:020000040800F2
:04FFE80000003010D5
:020000040800F2
:04FFEC005783E57AD8
:020000040800F2
:04FFF0002B42D85870
:020000040800F2
:04FFF400B1AC40F973
:020000040800F2
:04FFF800760000008F
:04000005080080ED82
:00000001FF
