:020000040800F2
:10000000A82A0020C9010008F13700085D31000866
:100010009134000871030008F96500080000000031
:10002000000000000000000000000000E54700089C
:10003000A503000800000000D53E00086548000840
:10004000E3010008E3010008E3010008E301000800
:10005000E3010008E3010008E3010008E3010008F0
:10006000E3010008E3010008E30100089903000828
:10007000E3010008E3010008E3010008E3010008D0
:10008000E3010008E3010008E3010008E3010008C0
:10009000A9640008E3010008E3010008A9030008BF
:1000A000E30100086D480008E3010008E3010008CF
:1000B000794800088548000891480008E3010008D5
:1000C000E3010008E3010008E3010008E301000880
:1000D000E3010008E3010008E3010008E301000870
:1000E000E3010008E3010008E301000800F002F862
:1000F00000F05AF80AA090E8000C82448344AAF168
:100100000107DA4501D100F04FF8AFF2090EBAE865
:100110000F0013F0010F18BFFB1A43F0010318473B
:1001200000700000207000000A444FF0000C10F82E
:10013000013B13F0070408BF10F8014B1D1108BF65
:1001400010F8015B641E05D010F8016B641E01F805
:10015000016BF9D113F0080F1EBF10F8014BAD1C55
:100160000C1B09D16D1E58BF01F801CBFAD505E073
:1001700014F8016B01F8016B6D1EF9D59142D6D3CD
:10018000704700000023002400250026103A28BFF5
:1001900078C1FBD8520728BF30C148BF0B607047F9
:1001A0001FB51FBD10B510BD00F0A8F81146FFF730
:1001B000F7FF06F07BFD00F0C6F803B4FFF7F2FF8F
:1001C00003BC00F0CDF8000009488047094800470B
:1001D000FEE7FEE7FEE7FEE7FEE7FEE7FEE7FEE7F7
:1001E000FEE7FEE704480549054A064B7047000054
:1001F00069480008ED000008A8240020A82A002073
:10020000A8260020A8260020032A40F2308010F003
:10021000030C00F0158011F8013BBCF1020F6244A1
:1002200098BF11F801CB00F8013B38BF11F8013B32
:10023000A2F1040298BF00F801CB38BF00F8013BDF
:1002400011F0030300F02880083AC0F0088051F84C
:10025000043B083A51F804CBA0E80810F5E7121D5A
:100260005CBF51F8043B40F8043BAFF30080D20779
:1002700024BF11F8013B11F801CB48BF11F8012B45
:1002800024BF00F8013B00F801CB48BF00F8012B68
:10029000704770477047704710B5203AC0F00B8028
:1002A000B1E81850A0E81850B1E81850A0E818506C
:1002B000203ABFF4F5AF5FEA027C24BFB1E81850E2
:1002C000A0E8185044BF18C918C0BDE810405FEA44
:1002D000827C24BF51F8043B40F8043B08BF7047C0
:1002E000D20728BF31F8023B48BF11F8012B28BFC5
:1002F00020F8023B48BF00F8012B7047754600F01C
:100300002BF8AE4605006946534620F007008546A7
:1003100018B020B5FFF766FFBDE820404FF000069B
:100320004FF000074FF000084FF0000BAC46ACE870
:10033000C009ACE8C009ACE8C009ACE8C00921F0CC
:1003400007018D46704710B50446AFF30080204684
:10035000BDE81040FFF731BF004870477001002032
:1003600001491820ABBEFEE72600020070470000DE
:10037000FEE70000002070470020704780B541F67E
:100380008050C2F20000D0F8B80218B103F032FA7F
:10039000002080BD022080BD42F24400C2F2000075
:1003A00000F072B97047000080B5402000F010FCEA
:1003B0004FF48070BDE8804000F00ABCEFF310807D
:1003C00072B600BFFEE70000EFF3108072B640F295
:1003D0001040C2F2000090F82A1590F82B259142A7
:1003E0000FD290F8291590F82B250131B1FBF2F3CB
:1003F00003FB121180F8291590F82A15013180F8B5
:100400002A1540F6C410C2F2000062B6007E08B1A0
:10041000704700BF40F2D010C2F20000817E002978
:10042000F6D1417E002918BF704701218176002155
:10043000C176704713460A46014642F24400C2F2B2
:10044000000000F061BA000070B542F20C060446EC
:10045000C4F2020600F0DCFC3168C90718D130682C
:10046000800644BF202030603068C00607D4306961
:10047000C00704D1306840075CBF002070BD306801
:10048000C00623D40020316849072BD434E000BFD4
:10049000002C47D00546601C0ED13068C007DED066
:1004A0003068C0071CBF30685FEAC070D7D03068C2
:1004B000C007F2D1D3E700BF00F0AAFC401BA04266
:1004C00030D83068C007F7D1C9E700BF42F280409A
:1004D000C2F20000C16941F00201C161102031681F
:1004E000490709D542F28041C2F20001CA6940F0D1
:1004F000040042F00102CA613169C90702D13060CB
:10050000012070BD42F28041C2F20001CA6942F08E
:100510000402CA61316921F00101316130600120BA
:1005200070BD00BF032070BDEFF3108072B640F2C3
:100530001040C2F2000000211E2280F8281580F829
:10054000291580F82A1580F82B250022C0F82C15D3
:10055000A0F83015A0F83215831881542C32B2F56A
:10056000A56F59709970D970197159719971D971B4
:10057000197259729972D972197359739973D9731F
:10058000197459749974D974197559759975D975FF
:10059000197659769976D976197759779977D977DF
:1005A00083F8201083F8211083F8221083F8231099
:1005B00083F8241083F8251083F8261083F8271079
:1005C00083F8281083F8291083F82A1083F82B1059
:1005D000C2D162B670470000EFF3108172B640F2EC
:1005E0004C21C2F2000191F84220DAB191F8412089
:1005F00001EB82029269026091F841004CF6CD4213
:1006000001304243D20C02EB8202A0EB420081F89F
:10061000410091F84200013881F84200012062B6A1
:10062000704700BF002062B67047000081B00090A4
:10063000EFF3108072B640F24C20C2F2000090F846
:1006400042100A2904D362B6002001B0704700BFEF
:10065000009990F8402000EB8202916190F84010E0
:100660004CF6CD4201314A43D20C02EB8202A1EB9F
:10067000420180F8401090F84210013180F8421099
:1006800062B6012001B0704710B5D0E90FCE016805
:10069000DCF800300A6823FA0EF35C072AD512F062
:1006A000040427D00A68920603D40A6822F00402E0
:1006B0000A602F22C4F20202914240F20402C4F204
:1006C00002025BDD3023C4F20203994272D044235C
:1006D000C4F20203994273D05823C4F20203994230
:1006E00040F07A804FF480231360C16A002940F003
:1006F00098806FE09C0727D512F0020424D00A6886
:10070000920606D40A6822F00A020A60012280F8E2
:1007100021202F22C4F20202914240F20402C4F2CC
:1007200002023BDD3023C4F20203994260D044232D
:10073000C4F2020399425FD05823C4F202039942E3
:1007400060D14FF4003365E01B0743D512F0080277
:1007500008BF10BD0A6822F00E020A60012101FAEA
:100760000EF2CCF80420816380F82110016B002286
:10077000002980F8202054D12CE000BF0823C4F2C7
:100780000203994222D01C23C4F20203994223D1CE
:1007900040231360C16A002943D11BE00823C4F23F
:1007A000020399422CD01C23C4F20203994229D19E
:1007B00020232FE04FF480631360C16A89BB09E0F6
:1007C0004FF480431360C16A59BB03E004231360F4
:1007D000C16A31BB10BD00BF02F168044FF08063F5
:1007E000A14208BF4FF480031360C16AC9B9F1E7A1
:1007F0004FF400730EE000BF4FF400530AE000BF57
:10080000022307E002F168044FF00073A14208BF21
:100810004FF400131360816A0022002980F8202021
:10082000D8D0BDE810400847014600284FF001002D
:1008300008BF70472DE9F043D1F800C04FF6F873B8
:10084000CBF6FD734CF6CD426344CCF6CC42A3FB11
:1008500002236FF0030707EA93030027C4F202079D
:1008600001F10C09C1E90F730223D1E9012E99E8C6
:100870007002D1F81C8081F82130DCF8003043F69A
:10088000F077BB431A4342EA0E0222432A43324323
:1008900042EA090242EA0802CCF8002000228A63F8
:1008A00081F8210081F820200020BDE8F043704746
:1008B00090F82030012B04BF0220704790F82130BF
:1008C000012B09D1032907D8DFE801F0020C10142D
:1008D00000F1280110E000BF0121002280F8202053
:1008E0000846704700F12C0106E000BF00F130011E
:1008F00002E000BF00F134010A600021002280F80C
:100900002020084670470000F0B590F820C0BCF1E8
:10091000010F32D04FF0010E80F820E090F821C096
:10092000BCF1010F26D14FF0020C80F821C04FF02E
:10093000000CC0F838C0D0E900C4C56AC66BDCF84A
:100940000070102C27F00107CCF80070006C0EFA34
:1009500000F070600846CCF8043004BF10460A4628
:10096000CCF80800CCF80C20DCF8000045B140F0D1
:100970000E000DE0002180F820100220F0BD00BF25
:1009800020F00400CCF80000DCF8000040F00A0081
:10099000CCF80000DCF8000040F00100CCF80000CA
:1009A0000020F0BD80B541F20C00C4F202004FF00F
:1009B000FF310022416042600160026000F086FA6F
:1009C000002080BDB0B5044600F022FA054640F292
:1009D0000000C2F200000078611C18BF044400BF90
:1009E00000F016FA401BA042FAD3B0BD2DE9F04347
:1009F00081B042F28046C2F20006327E012A03D163
:100A0000022001B0BDE8F083054601202C68307655
:100A10004CF250308846FFF717FD022C1CD10028FD
:100A20004ED1002042F21004F061C4F202042068AA
:100A300040F004002060206840F0400020604CF24C
:100A40005030FFF701FD216821F0040121600021F1
:100A5000317601B0BDE8F08390BB4FF0FF30C8F8AD
:100A60000000D5E9027007EB8020874228D242F2CD
:100A70001004C4F202044FF0000900BFC6F81C9035
:100A8000206840F0020020606760206840F040006D
:100A900020604CF25030FFF7D7FC216821F00201B2
:100AA000216098B9D5E9020107F5806700EB812044
:100AB0008742E3D300200021317601B0BDE8F08306
:100AC00001200021317601B0BDE8F083C8F8007044
:100AD0000021317601B0BDE8F083000042F2100140
:100AE000C4F20201086840F0800200200A607047EA
:100AF0002DE9F04F81B042F28049C2F200099246DE
:100B000099F81820012A03D1022001B0BDE8F08F26
:100B10008046012089F818004CF250309B460E4662
:100B2000FFF792FCA0BB404642F21007B8F1020F5B
:100B300018BF0420C4F20207B8F1010F08BF4046F5
:100B400045424FF000080024C4F12001C9F81C8080
:100B50002AFA04F00BFA01F13A680843B4F12001D3
:100B600058BF2BFA01F042F00101396026F8020B60
:100B70004CF25030FFF768FC3968013521F0010272
:100B800048F100013A6018B9002904F11004DBD0E3
:100B9000002189F8181001B0BDE8F08F42F204007E
:100BA000C4F20200C16809065CBF0020704740F231
:100BB0002311C4F26751016048F6AB11CCF6EF5136
:100BC0000160C068C0B2C0097047000003F084B97A
:100BD00040F21441C4F201010A68024214BF0860E5
:100BE0007047FFF7F3BF00002DE9F04F82B00E68A9
:100BF000002E00F0038141F20042C4F201020423FE
:100C000040F2004E904208BF03234FF6FF7CC4F22F
:100C1000010E009300240123C1F2100C4FF0000AD2
:100C20004FF0000949E000BF012704F00C030F2238
:100C30009A402BEA020207FA03F34FEA9A051A4395
:100C400046F82520D1F804B040F20C455FEACB22EB
:100C5000DEF8082054BF22EA080242EA0802C4F281
:100C60000105CEF808202A685FEA8B2354BF22EAE8
:100C7000080242EA08022A605FEA8B33DEF80420A9
:100C800054BF22EA080242EA08025FEACB33CEF8F8
:100C90000420DEF800204FF0010354BF22EA0802CE
:100CA00042EA0802CEF800200E680AF1010A36FA7C
:100CB0000AF204F1040400F0A18003FA0AF816EA2B
:100CC000080FF1D04E68664512DC122E56D8DFE8C8
:100CD00006F0350B454955555555555555555555FE
:100CE0005555554D510000BFD1F80C9046E000BF5E
:100CF0004FF6FF72C1F2210296420FDC0022C1F2D0
:100D0000110296421AD00022C1F21202964215D068
:100D10000022C1F22102964210D02FE00022C1F23F
:100D2000220296420AD00022C1F23102964205D038
:100D30000022C1F23202964220D100BF8A684AB135
:100D4000012A14BFC0F81480C0F810804FF00809C1
:100D500014E000BF4FF0040910E000BFCA6802F1C0
:100D600008090BE04FF0000908E000BFCA6802F173
:100D7000040903E0CA6802F10C0900BF22460646D6
:100D8000BAF1080F24BF203A043637680F25954082
:100D900027EA050509FA02F22A433260CA79D20627
:100DA0007FF582AF41F21803C4F202031A68AEF570
:100DB0007E7642F001021A601A6802F00102019286
:100DC000019A2AF0030256F802B040F60002C4F27B
:100DD0000102904210D040F60042C4F2010290425B
:100DE0003FF422AF41F20002C4F20102009F9042A0
:100DF00008BF022719E700BF002716E702B0BDE8C9
:100E0000F08F0000002A08BF09040161704700004C
:100E100042F2A040C2F20000006870474FF2E87052
:100E2000C1F6FF70006870474FF2EC70C1F6FF70BA
:100E3000006870474FF2F070C1F6FF7000687047AD
:100E400040F2000042F2A041C2F20000C2F20001F2
:100E500000780A68104408607047000080B542F2CC
:100E60000000C4F20200016841F01001016003209B
:100E700000F090F80F2000F005F800F029F80020AD
:100E800080BD000070B540F20006C2F2000640F2DC
:100E900050013278C2F200014FF47A730968B3FB53
:100EA000F2F20446B1FBF2F1084601F075FB0F2C9B
:100EB0004FF0010508D838B94FF0FF302146002225
:100EC000002500F03BF87460284670BD70470000B4
:100ED00082B041F21800C4F202000168022241F01F
:100EE00001010160016801F001010191019941686E
:100EF00041F080514160406800F0805000900098BF
:100F00000420C4F20100016862F31A61016002B0BA
:100F100070470000002848BF7047C1B200F01F00B2
:100F2000012202FA00F04EF20012CEF2000242EA72
:100F3000D10121F0030108607047000010B54EF6A2
:100F40000C5CCEF2000CDCF80030C3F3022E8EF005
:100F50000704042C28BF0424BEF103034FF0FF3E16
:100F60000EFA04F438BF0023A14399400EFA03F3AC
:100F70009A43114300F00F0200F160430901043A63
:100F800003F564436244002848BF02F10C03197062
:100F900010BD00004EF60C51CEF200010A684FF66B
:100FA000FF031A4060F30A2242F0806040F0FD70B7
:100FB0000860704705F064FE80B501F0070C0CEB8B
:100FC0008C0C00EBCC0C01EB810E0CF1100C00EB47
:100FD000CE00090658BF00F5A87C0020002A19BFE2
:100FE000CCF808300121ACF8063000218CF80C1048
:100FF00080BD00007047000001EB8102D0F8D432C0
:1010000000EBC200426A184603F0B6BF01EB810252
:10101000D0F8D43200EBC200D0F86421184604F0B6
:1010200011B8000010B5044648B2B0F1FF3F01F01E
:10103000070000EB800104EBC10205DD02F5A87199
:10104000002382F8513103E0012302F110015374AF
:1010500094F890220870012A04BF022010BD206875
:10106000012284F8902204F00DFD002084F8900203
:1010700010BD0000B0B50446007901F00F028242B5
:1010800084BF0120B0BD48B2B0F1FF3F01F00700BE
:1010900000EB800104EBC10206DD02F5A87100231C
:1010A00082F8513104E000BF012302F110015374B2
:1010B00094F890220025012A8D70087004BF022048
:1010C000B0BD2068012284F8902204F06BFD284610
:1010D00084F89052B0BD000070B5064648B2B0F139
:1010E000FF3F01F0070000EB800107DD06EBC104C4
:1010F00004F5A871002584F8515106E006EBC10CF7
:1011000001240CF110018CF8114008700A61022BC7
:10111000CB7004BF0020087196F89002012804BF2C
:10112000022070BD3068012286F8902204F082FB14
:10113000002086F8900270BD10B501F0070C0CEB92
:101140008C0100EBC10E00680EF5A8710024CEF8EA
:101150006421CEF86831CEF86C418EF851418EF89A
:1011600050C104F077FD002010BD0000B0B504466A
:10117000007901F00705854284BF0120B0BD48B267
:10118000B0F1FF3F0ADD01EB810004EBC00000F588
:10119000A871002280F8512108E000BF05EB85000E
:1011A00004EBC000012200F11001427494F8900297
:1011B000012201288A700D7004BF0220B0BD206892
:1011C00084F8902204F02CFD25B1002084F89002D0
:1011D000B0BD00BF206804F5267104F0E1FC0020DA
:1011E00084F89002B0BD000080B501F0070C0CEB54
:1011F0008C0100EBC10101F810CF00684FF0010C29
:1012000001F1140781F824C04FF0000E87E80C406C
:101210000B6281F801C004F01DFD002080BD0000BC
:101220002DE9F04F81B00446006805F043F9010450
:101230001ED4410500F10484410400F113848104AB
:1012400000F12884C10400F12F84010500F14684D7
:10125000810500F19584C00540F100842068B0F854
:10126000441021F48071A0F8441000F0F7BB00BFD7
:101270002068B0F94410B1F1FF3F00F3EF8304F5AB
:10128000267140F60F75009123E000BFB0F85010B2
:1012900094F8502101EBC20100EB4101B1F80C348C
:1012A000B4F8562100996FF39F23C4F86C3105F010
:1012B00005F920680188294080310180204600F02E
:1012C000E1FD00BF2068B0F94410B1F1FF3F00F329
:1012D000C583B0F8442012F00F090DD030F9291061
:1012E0004FEA490AB1F1FF3F1FFA81F82EDD5FEAAC
:1012F0000860E7D55EE100BF0188D20668D42940C6
:1013000001F500410180B0F85010227C01EBC201D0
:1013100000EB4100B0F80404616A6FF39F20E062C3
:101320000844606220460021FFF766FE607B0028CB
:10133000C8D0A06A0028C5D1607B216840F0800039
:10134000C0B2A1F84C0000206073BBE730F81A105F
:101350002940803120F81A1009EB890104EBC10BF8
:101360009BF85C110BF5A876002900F083809BF8B0
:101370005311022940F09080B0F850203178DBF80A
:10138000683102EBC1070BF5B4725FEA484500EB28
:10139000470700F19B80B7F80C7400256FF39F2777
:1013A000DB1B38BF2B46136040F2A8805FEA48621F
:1013B00040F60F7500F1B48030F8212048F2C003E8
:1013C0002A401A4320F82120002F40F0AA80CFE0C5
:1013D0000A053FF55BAF09B2B1F1FF3F3FF772AFCE
:1013E0000188294080310180B0F8501094F85021D4
:1013F00001EBC20100EB4101B1F80C346FF39F2304
:10140000C4F86C3193B1D4F8641179B1B4F85621B1
:1014100005F054F8D4F86401D4F86C110844C4F809
:10142000640120460021FFF7F1FD206801880A05CC
:101430003FF548AF01F44051B1F5405F3FF442AF92
:10144000B0F8501000F20C42535A6FF39F235352DE
:10145000D4F860313F2BC0F0118231F802C05F092F
:10146000DE064FF0FF3608BF06EB53174CEA872322
:101470008BE200BFB0F85010327801EBC20100EBF4
:101480004101B1F80C746FF39F27002F70D0DBF887
:101490006411BBF8562167E0317848F2C00330F898
:1014A00021202A401A4320F8212030F82120B0F8CA
:1014B0005030520403EBC10100EB410118D4B1F8E4
:1014C0000C746FF39F2767BB52E000BFB7F804743A
:1014D00000256FF39F27DB1B38BF2B46136025D9F0
:1014E0005FEA486240F60F7531D4CFBB40E000BFE1
:1014F000B1F804746FF39F2797BB39E030F82120CF
:1015000043F60F731A404CF28003A3F500535A4080
:1015100020F821205FEA486240F60F757FF54CAF56
:1015200037B3DBF86411BBF85A211DE030F82120F5
:1015300043F60F731A404CF28003A3F500535A4050
:1015400020F821205FEA486240F60F75CDD530F8CB
:10155000212048F2C0032A401A4320F821203FB13D
:10156000DBF86411BBF858213B4604F0A7FF00E00C
:101570000027DBF86C11DBE9590239443844CBF819
:101580006C11CBF864011AB1DBF86001B84209D9DB
:1015900031782046FFF73AFD5FEA08607FF592AEAA
:1015A00008E000BF2068314604F054FB5FEA0860A1
:1015B0007FF588AE206809EB890130F81A2004EB2A
:1015C000C10302EA050101F5004120F81A10D97C97
:1015D00003F1100B012923D1197F00294FF00001DD
:1015E000996200F045815FEA486100F18F80597C83
:1015F000012900F02781002940F03A81B0F850100D
:101600009BF80020084400EB0210B0F80C146FF3B4
:101610009F21A0F80C14B0F80C1441F4004119E11A
:101620005FEAC8511ED4B0F850209BF800109F6AA2
:1016300002EBC10200EB4202B2F8042400266FF371
:101640009F22BF1A38BF37469F6240F21381596A02
:10165000DF6A11445962B918D962594604F0FAFA9E
:1016600030E600BFB0F850709BF800101A4652F8F0
:10167000285F40F60F7A5FEA486607EBC1075FD440
:1016800000F20C4939F817706FF39F27EE1B4FF0EB
:10169000000538BF2E46166040F28E805FEA484251
:1016A00008D430F821204CF2800602EA0A023243C4
:1016B00020F821201D4615F8342F012A40F0AE8174
:1016C0001A4652F8308F52E904E652F804AC06EBA1
:1016D000070C0AEB0706F04542F80CCC42F8046C04
:1016E00080F00E81B8F1000F00F068810027C64637
:1016F00017602F705A7C012A40F00981B0F8502001
:1017000009EB011121F802E07CE100BF597C0129BD
:1017100000F0A480002940F0AB80B0F850109BF896
:101720000020084400EB0210B0F804146FF39F216E
:10173000A0F80414B0F8041441F4004196E000BF8E
:1017400000F2044939F817706FF39F27EE1B4FF032
:10175000000538BF2E46166050D95FEA484208D5CA
:1017600030F821204CF2800602EA0A02324320F8C7
:1017700021201A4612F8346F012E40F04F811D4689
:1017800055F830EF55E904A655F8048C06EB070C24
:1017900008EB0706D64545F80CCC45F8046C80F0FC
:1017A000D1804FF00008BEF1000F82F8008040F0B9
:1017B000CC80BE46CBE000BF5A7C012A6AD0002A0A
:1017C00075D1B0F8502000EB01131A44B2F804347C
:1017D0006FF39F23A2F80434B2F8043443F40043B7
:1017E000A2F80434B0F8500009EB0112135A6FF359
:1017F0009F231352135A43F4004357E05A7C012AA3
:101800005CD0002A67D1B0F8502009EB01139F5A31
:101810006FF39F279F529F5A47F400479F52B0F89B
:10182000502000EB01101044B0F80C246FF39F22FD
:10183000A0F80C24B0F80C2442F40042A0F80C24C8
:1018400049E000BFB0F850109BF80020084400EBBE
:1018500002100021A0F80C140AE000BFB0F85010EC
:101860009BF80020084400EB02100021A0F80414AB
:101870009BF800102046FFF7BFFB23E5002B00F08C
:10188000838003F001078E5A07EB530346EA832354
:1018900080E000BFB0F8502000EB01131A44002391
:1018A000A2F80434B0F8500009EB0112135220469C
:1018B000FFF7A2FB5FEA484014D5AFE0B0F8502034
:1018C00009EB011300279F52B0F8502000EB0110E4
:1018D0001044A0F80C742046FFF78EFB5FEA4840E6
:1018E00040F19C8020689BF800104CF2800330F897
:1018F000212002EA0A021A4320F821208EE000BFCC
:10190000A8EB0E0515605A7C012A3FF4F7AE002AB9
:1019100078D1B0F8507009EB0111CA5BBEF13F0FEE
:101920006FF39F22CA5351D35FEACE654FEA5E122E
:101930007D5A4FF0FF3608BF06EB5E1245EA822261
:101940005DE000BFAEEB0A08D646C5F800805A7CC1
:10195000012A2BD0002A5BD1B0F8507009EB01119D
:10196000CA5BBEF13F0F6FF39F22CA533AD35FEABF
:10197000CE654FEA5E127D5A4FF0FF3608BF06EB88
:101980005E1245EA822240E08B5A48F20007CFF609
:10199000FF773B438B52018843F60F7211404CF2A4
:1019A0008002A2F58052514001808BE4B0F85020B3
:1019B00009EB011121F802E02AE000BF00222A70A1
:1019C000BE465A7C012AA2D198E600BFBEF1000FA4
:1019D00014D00EF001027D5A02EB5E0245EA82222B
:1019E0000FE000BFBEF1000F0ED00EF001027D5AD5
:1019F00002EB5E0245EA822209E000BF7A5A42F415
:101A000000427A525A8B04E07A5A42F400427A52E7
:101A10001A8B1FFA8EF3614604F0AAFD20689BF82A
:101A2000001040F63F7330F8212040F60F751A4041
:101A300048F2C003103B5A4020F82120FFF742BC77
:101A40002068B0F8441021F48061A0F844102046CA
:101A500000F0EAF994F8900201280DD101B0BDE838
:101A6000F08F00BF2068B0F8441021F48041A0F846
:101A7000441001B0BDE8F08F0120002584F89002E9
:101A800065732068002104F06BFD84F8905201B06A
:101A9000BDE8F08F2068B0F8441021F40051A0F8A0
:101AA000441001B0BDE8F08F2068B0F8401021F07C
:101AB0000401A0F84010B0F8401021F00801A0F88F
:101AC0004010204600F0C2F92068B0F8441021F41C
:101AD0008051A0F8441001B0BDE8F08F2168B1F842
:101AE00000C0B1F804E0B1F808808F890E8A8D8AB1
:101AF000088B8A8BB1F8403043F00103A1F84030E5
:101B0000B1F8403023F00103A1F84030B1F844307F
:101B10005B050CD4B1F844305B055CBFB1F84430D0
:101B20005FEA435303D4B1F844305B05EED5B1F816
:101B3000443023F48063A1F84430A1F800C0A1F838
:101B400004E0A1F808808F810E828D8208838A8349
:101B5000B1F8400040F00800A1F84000B1F844009E
:101B600020F40060A1F84400B1F8400040F0040205
:101B70002046A1F8402001B0BDE8F04F00F0A4B924
:101B80002168B1F8440020F400722046A1F84420F6
:101B900001B0BDE8F04F00F05DB90000F0B581B0D4
:101BA000002800F00C81044690F8910228B900202A
:101BB00084F89002204600F013F9032084F8910283
:101BC00020680021617103F0E1FF94E80700237BA6
:101BD00003F056FF002840F0EF802068002104F059
:101BE000BDFC002840F0E8802179002900F0DE806B
:101BF000A1F1010E01F0030CBEF1030F4FF0000242
:101C000035D301F0FC0504F1A0000126002300BF3C
:101C10005F1C00F8687C9F1C00F8903C00F8407C3A
:101C2000DF1C043300F88F6C00F88D2C40E9202273
:101C300040F8782C00F8676C00F8652C40E9162213
:101C400040F8502C00F83F6C00F83D2C40E90C2285
:101C500040F8282C00F8176C00F8187C00F8152CB8
:101C600040E9022240F8A02BAB42D1D11A46BCF188
:101C7000000F29D002EB820004EBC00501230020F5
:101C8000BCF1010F6B742A74E874C5E90800A862FE
:101C90001AD0551C05EB850604EBC606BCF1020FF5
:101CA00073743574F074C6E90800B0620CD0901CEF
:101CB00000EB800204EBC202012310740020537475
:101CC000D074C2E90800906200296FD0BEF1030F02
:101CD0004FF0000233D301F0FC0104F5F070002353
:101CE0005F1C00F8687C9F1C00F8903C00F8407C6A
:101CF000DF1C043300F88F2C00F88D2C40E92022E3
:101D000040F8782C00F8672C00F8652C40E9162282
:101D100040F8502C00F83F2C00F83D2C40E90C22F4
:101D200040F8282C00F8172C00F8187C00F8152C27
:101D300040E9022240F8A02B8B42D1D11A46BCF1D7
:101D4000000F33D002EB820004EBC0010020BCF195
:101D5000010F81F8510181F8502181F85301C1E947
:101D60005800C1F8680121D0511C01EB810304EB3C
:101D7000C303BCF1020F83F8510183F8501183F8BB
:101D80005301C3E95800C3F868010FD0901C00EB61
:101D9000800104EBC101002281F8512181F850013A
:101DA00081F85321C1E95822C1F8682194E807005D
:101DB000237B03F0DDFE38B1022084F89102012577
:101DC000284601B0F0BD00BF00250120657384F8EE
:101DD0009102206803F0CAFE284601B0F0BD000061
:101DE00080B582B0006845F60041C4F20001884227
:101DF0001CBF02B080BD41F21C00C4F202000168A9
:101E0000002241F4000101600068002100F400009C
:101E1000019001981420FFF791F8142002B0BDE85A
:101E20008040FFF777B8000010B50446807902289B
:101E300018BFFEF7C3FAD4F8D402012103F0FCF96D
:101E4000D4F8D402BDE8104003F0B4B9D0F8D402FD
:101E500003F0DAB9D0F8D40203F0E0B910B50446C3
:101E600090F89002012804BF022010BD012084F8E0
:101E700090026173206804F073FB002084F89002E4
:101E800010BD0000D0F8D42200F52671104603F0F2
:101E9000E9B9000010B5044690F89002012804BF8B
:101EA000022010BD2068012184F8901204F0F2FA9B
:101EB00020460121FFF79EF8206803F055FE002020
:101EC00084F8900210BD000010B50446D0F8D4028A
:101ED00003F01EFAA07A002808BF10BD4EF610507D
:101EE000CEF20000016841F00601016010BD000063
:101EF0002DE9F04182B00446007841F21C06C0078B
:101F0000C4F202064AD0306810F0805808D1306818
:101F100040F080503060306800F0805001900198AF
:101F200047F20007C4F200073868C00512D43868C9
:101F300040F480703860FEF76BFF05463868C005D6
:101F400008D4FEF765FF401B6428F7D9032002B0D0
:101F5000BDE8F081706810F4407012D0616801F43F
:101F6000407188420DD0706840F24042C4F2422273
:101F7000012320F4407113600023C00713607160D7
:101F80002AD17068616820F440700843B8F1000FEE
:101F9000706003D1306820F0805030602068810785
:101FA00007D556F8181CA26821F44041114346F8A1
:101FB000181CC00604D4002002B0BDE8F08100BFA8
:101FC00056F8180CE16820F48000084346F8180C15
:101FD000002002B0BDE8F081FEF71AFF054641F28D
:101FE000883700BF70688007CBD4FEF711FF401B15
:101FF000B8424FF00300F5D9EBE700002DE9F043BC
:1020000081B0002800F0858042F20008C4F2020886
:102010000446D8F800000D4600F0070088420CD2B4
:10202000D8F8000020F007002843C8F80000D8F8CE
:10203000000000F00700A8426BD1206841F20409BB
:102040008107C4F2020917D5410705D5D9F8001058
:1020500041F4E061C9F80010010705D5D9F8001076
:1020600041F46051C9F80010D9F80010A26821F0BD
:10207000F0011143C9F80010C00741D1D8F80000A1
:1020800000F00700A8420CD9D8F8000020F00700A3
:102090002843C8F80000D8F8000000F00700A84264
:1020A00037D12068410707D5D9F80010E26821F43C
:1020B000E0611143C9F80010000708D5D9F8000005
:1020C000216920F4605040EAC100C9F80000D9F845
:1020D000002002F00C00082841F20020C0F27A0033
:1020E00050D147F20E13C2F38341C0F60003595C8E
:1020F000D2033BD440F60010C0F23D00484341E01B
:10210000606802280AD001282AD159F8041C8903E2
:1021100008D4012001B0BDE8F08300BF59F8041CC9
:102120008901F6D5D9F8001021F003010843C9F858
:102130000000FEF76DFE064641F28837D9F8000030
:10214000616800F00C00B0EB810F97D0FEF760FEE5
:10215000801BB842F2D9032001B0BDE8F08300BF74
:1021600059F8041C8907D4D5DCE700BFD9F8002052
:1021700047F20C13C2F34042C0F600039A5C484396
:10218000B0FBF2F0D9F8001047F2F402C1F30311EA
:10219000C0F60002515C40F2500220FA01F140F218
:1021A0000400C2F200000068C2F200021160FEF7F3
:1021B00069FE002001B0BDE8F083000040F250004D
:1021C00041F20401C2F20000C4F202010068096891
:1021D00047F20412C1F30221C0F60002515CC8406C
:1021E000704700002DE9F04182B0002868D0044615
:1021F000007841F20006C007C4F2020625D07068DC
:1022000000F00C0004281BD0706800F00C000828B7
:1022100002D17068C00313D46068002800F06881A0
:10222000B0F5A02F00F07C81B0F5803F00F07C81FC
:10223000306820F480303060306820F4802076E10F
:102240003068800301D56068D0B32078800718D546
:10225000706810F00C0F07D0706800F00C000828B0
:102260006ED17068C0036BD43068800702D52069D6
:10227000012825D13068616920F0F80040EAC100EA
:102280003060207800071FD42078400732D4E569F9
:1022900095B1706800F00C00082840F08F80012D87
:1022A0000ED07068216A00F480328A4208D1616AD7
:1022B00000F47010884203D1002002B0BDE8F08124
:1022C000012002B0BDE8F081A069002862D00020A2
:1022D000C4F242200121C0F88014FEF799FD0546A2
:1022E000706A800700F18C80FEF792FD401B022887
:1022F000F6D92AE1F06910F0805808D1F06940F071
:102300008050F061F06900F080500090009847F232
:102310000007C4F200073868C00529D4386840F4C3
:1023200080703860FEF774FD054600BF3868C00550
:102330001ED4FEF76DFD401B6428F7D905E100BFF0
:102340002069002840F20000C4F2422000F08280A0
:1023500001210160FEF75CFD054600BF3068800783
:102360003FF588AFFEF754FD401B0228F6D9ECE09C
:10237000E068002800F08080052800F097800128A0
:1023800000F09880306A20F001003062306A20F05E
:10239000040092E00020C4F242200021C0F8801422
:1023A000FEF736FD054600BF706A80077FF56CAF0B
:1023B000FEF72EFD401B0228F6D9C6E00027C4F226
:1023C000422700203866FEF723FD022D05460BD17B
:1023D0003068800140F1BE80FEF71AFD401B0228E4
:1023E0004FF00300F4D968E7306880017FF564AFEF
:1023F000FEF70EFD401B02284FF00300F4D95CE706
:1024000040F25000C2F20000006844F6D351C1F21D
:102410006201A0FB0101480A019000BF00BF0198C2
:10242000411E002801913FF42FAF00BF0198411ECB
:10243000002801913FF428AF00BF0198411E0028F9
:1024400001913FF421AF00BF0198411E0028019186
:10245000E4D119E700210160FEF7DAFC054600BF70
:10246000306880077FF50DAFFEF7D2FC401B0228D5
:102470004FF00300F4D920E7306A20F00100306209
:10248000306A20F004003062FEF7C2FC054641F2DB
:10249000883700BF306A800720D5FEF7B9FC401BA3
:1024A000B8424FF00300F5D907E700BF306A40F0AB
:1024B00004003062306A40F001003062FEF7A8FC90
:1024C000054641F2883700BF306A800706D4FEF720
:1024D0009FFC401BB842F7D937E000BFB8F1000FAE
:1024E0007FF4D5AEF06920F08050F061CFE600BFF8
:1024F000306820F480303060306820F48020306014
:10250000FEF786FC054600BF306880037FF59DAE70
:10251000FEF77EFC401B64284FF00300F4D9CCE6A4
:10252000306840F480203060306840F480303060A3
:10253000FEF76EFC054600BF306880033FF585AEB0
:10254000FEF766FC401B6428F6D9032002B0BDE804
:10255000F08100BF206AB0F5803F05D17168A268A4
:1025600021F40031114371607168626A21F47411C1
:1025700011430843706001203866FEF749FC0446A9
:10258000306880013FF598AEFEF742FC001B022840
:102590004FF00300F4D990E6411E0020B0EB116F1C
:1025A0001CBF012070474EF21002CEF200025160B3
:1025B0004EF62351CEF20001F0230B7007219060FC
:1025C000116070477047000070470000B0B590F888
:1025D0003C20012A04BF0220B0BD01F108053CCD1A
:1025E000D1E900CE23F47C5322F470521A432EF426
:1025F000F0431A432CF4E0431A4324F4C0431A4333
:102600002A43C96922F480420368114359640021B6
:1026100080F83C100846B0BD10B590F83C20012A67
:102620004FF0020233D080F83D200268D2F804E077
:10263000D2F808C00C682EF07003234340F2FF74F8
:10264000C4F20004A24253600ADCB2F1804F13D0FE
:1026500040F20043C4F200039A420DD011E000BFE3
:1026600042F60043C4F201039A4205D040F600034B
:10267000C4F200039A4204D149682CF08003194344
:1026800091600121002280F83D1080F83C20104626
:1026900010BD0000002804BF0120704710B504469B
:1026A00090F83D0028B9002084F83C00204600F056
:1026B0006FF8022084F83D00206840F2FF73026842
:1026C000C4F2000342F6004C9842C4F2010C15DC3F
:1026D000B0F1804F1AD040F20041C4F200018842AC
:1026E00014D0984218DCB0F1804F1DD040F2004168
:1026F000C4F20001884217D01AE000BF604505D03F
:1027000040F60001C4F200018842EAD1A16822F03B
:1027100070020A439842E6DD604505D040F60001AC
:10272000C4F20001884203D1216922F440720A43B5
:10273000A36922F08001D4F804E0E26819436045FF
:102740000160C262C0F828E002D16169CCF83010A3
:10275000012141610269D20703D0026922F001021E
:102760000261002084F8461084F83E1084F83F107F
:1027700084F8401084F8411084F8421084F8431023
:1027800084F8441084F8451084F83D1010BD000012
:1027900010B584B0006840F60001C4F20001884220
:1027A0001CD040F20041C4F20001884228D0B0F1B0
:1027B000804F1CBF04B010BD41F21C00C4F20200E7
:1027C0000168002241F0010101600068042100F06D
:1027D0000100039003981C201C2422E041F21C00FD
:1027E000C4F202000168002241F0040101600068A7
:1027F000022100F00400019001981E201E2410E028
:1028000041F21C00C4F202000168002241F0020102
:1028100001600068012100F00200029002981D2072
:102820001D24FEF78BFB204604B0BDE81040FEF7E8
:1028300071BB000090F83D1001291CBF01207047BA
:10284000022180F83D10006840F2FF72C168C4F2B6
:102850000002904241F00101C16009DCB0F1804FFB
:1028600012D040F20041C4F2000188420CD012E0C4
:1028700042F60041C4F20101884205D040F6000151
:10288000C4F20001884206D1816801F007010629DF
:1028900004BF00207047016841F001010160002081
:1028A000704700000146006841F21113C26822F02F
:1028B0000102C260026A1A4204D00122002081F89B
:1028C0003D207047026A40F244431A42F5D1026843
:1028D00022F0010202600122002081F83D207047B1
:1028E00080B590F83C20012A4FF0020200F0C2802F
:1028F00080F83D20D0F800C04FF67772DCF8083041
:1029000023EA0202CCF808200B684F2B28DC1F2B8F
:1029100044DD202B45D0302B43D0402B40F0AC8001
:10292000D1F804E0C968DCF82030DCF8202022F07F
:102930000102CCF82020DCF8182022F0F00242EA54
:10294000011123F00A0242EA0E02CCF81810CCF86A
:102950002020DCF8081041F0470121F0300180E030
:102960006F2B27DDB3F5005F48D0B3F5805F7AD0D9
:10297000702B40F08180D1E901E3C968DCF80820C0
:1029800043EA0E0322F47F4243EA01211143CCF8CB
:102990000810DCF8081041F0770162E00BB1102B51
:1029A0006AD1DCF8081021F07001194341F00701E9
:1029B00057E000BF502B35D0602B5DD1D1F804E03B
:1029C000C968DCF82030DCF8202022F01002CCF8B6
:1029D0002020DCF8182022F4704242EA013123F072
:1029E000A00242EA0E12CCF81810CCF82020DCF835
:1029F000081041F0670121F0100132E0D1E901E354
:102A0000C968DCF8082043EA0E0322F47F4243EA57
:102A100001211143CCF80810DCF8081041F4804182
:102A20001FE000BFD1F804E0C968DCF82030DCF812
:102A3000202022F00102CCF82020DCF8182022F01F
:102A4000F00242EA011123F00A0242EA0E02CCF837
:102A50001810CCF82020DCF8081041F0570121F0C4
:102A60002001CCF808100022012180F83D1000213F
:102A700080F83C10104680BD0122F5E77047000049
:102A800070B504460068C5680669B10716D515F02B
:102A9000020113D06FF002010161012121778069E9
:102AA000800703D02046FFF7E9FF05E0204600F04D
:102AB000B5F8204600F0B6FA00202077700719D547
:102AC00015F0040016D020686FF0040101610221A6
:102AD0002177806910F4407F04D02046FFF7CEFFB5
:102AE00006E000BF204600F099F8204600F09AFA70
:102AF00000202077300717D515F0080014D0206883
:102B00006FF00801016104212177C069800703D0BB
:102B10002046FFF7B3FF05E0204600F07FF820468F
:102B200000F080FA00202077F00619D515F010008B
:102B300016D020686FF01001016108212177C0696B
:102B400010F4407F04D02046FFF798FF06E000BF56
:102B5000204600F063F8204600F064FA0020207759
:102B6000F00718BF15F0010002D1300609D412E0B9
:102B700020686FF001010161204600F0C5FA3006BF
:102B800009D515F0800006D020686FF08001016142
:102B90002046FFF717FD700609D515F0400006D056
:102BA00020686FF040010161204600F0D5FAB006C0
:102BB00058BF70BD15F0200008D021686FF02002CA
:102BC00020460A61BDE87040FFF7FEBC70BD000002
:102BD00080B586B000680021B0F1804F049101D02B
:102BE00006B080BD41F21800C4F20200016841F055
:102BF00004010160006802A900F00400019001983E
:102C00000320029002200390059040F60000C4F2D9
:102C10000100FDF7E9FF06B080BD0000704700002D
:102C2000002804BF0120704770B5044690F83D00AD
:102C30000E4628B9002084F83C00204600F06AF8CF
:102C4000022084F83D00206840F2FF730268C4F25D
:102C5000000342F6004C9842C4F2010C14DCB0F1BF
:102C6000804F19D040F20041C4F20001884213D0D5
:102C7000984217DCB0F1804F1CD040F20041C4F202
:102C80000001884216D019E0604505D040F60001E9
:102C9000C4F200018842EBD1A16822F070020A431D
:102CA0009842E7DD604505D040F60001C4F200011E
:102CB000884203D1216922F440720A43A36922F0B9
:102CC00080016268E568194360450160C5628262FF
:102CD00002D16169CCF83010012141610269D2074B
:102CE00003D0026922F001020261026822F00802A8
:102CF0000260026832430260002084F8461084F8C3
:102D00003E1084F83F1084F8421084F8431084F891
:102D10003D1070BD704700002DE9F04390F83C3045
:102D2000012B04BF0220BDE8F0834FEAB202032A60
:102D30003CD8DFE802F0034381BD00BF036842F6E0
:102D400000461D6A1A6AC4F2010622F001021A62E4
:102D50001A465C6852F818CFB3428E68D1F800E08A
:102D600025F0020545EA06050CD1CE68D1E90578C3
:102D700024F4407425F00C0526F004063C4335434A
:102D800044EA08042CF0730747EA0E075C609F6171
:102D90004F6809695F631D629F6947F008079F617B
:102DA0009F6927F004079F61B2E000BF0121002264
:102DB00080F83C200846BDE8F08300BF036842F677
:102DC00000461D6A1A6AC4F2010622F010021A6255
:102DD0001A46D3F804C052F8184FB3428E68D1F89F
:102DE00000E025F0200545EA061510D1CE68D1E9AE
:102DF000058725F0C0096FF0400505EA06152CF49B
:102E0000406647EA080745EA090546EA870C24F4C4
:102E1000E64444EA0E27C3F804C09F614F6809697D
:102E20009F631D629F6947F400679F619F6927F454
:102E300080679F616BE000BF036842F600461D6A31
:102E40001A6AC4F2010622F480721A621A46D3F892
:102E500004C052F81CEFB3428E680C6825F400756C
:102E600045EA062511D1CE68D1E9058725F44069E8
:102E7000360240F2FF4526EA05052CF4405647EAA3
:102E8000080745EA090546EA071C2EF073072743A1
:102E9000C3F804C0DF614F680969DF631D62DF6941
:102EA00047F00807DF61DF6927F00407DF612FE0E3
:102EB000036842F60047D3F820C01A6AC4F201073B
:102EC00022F480521A621A465C6852F81C5FD1F8EC
:102ED00000E08E68BB4204D14F6924F4804444EA88
:102EE00087142CF4005747EA063725F4E64646EAED
:102EF0000E265C60DE614E6809691E641F62DF6930
:102F000047F40067DF61DF6927F48067DF6109024A
:102F10001368194311600021002280F83C20084604
:102F2000BDE8F083002804BF0120704710B50446B7
:102F300090F83D0028B9002084F83C00204600F0BD
:102F40006FF8022084F83D00206840F2FF730268A9
:102F5000C4F2000342F6004C9842C4F2010C15DCA6
:102F6000B0F1804F1AD040F20041C4F20001884213
:102F700014D0984218DCB0F1804F1DD040F20041CF
:102F8000C4F20001884217D01AE000BF604505D0A6
:102F900040F60001C4F200018842EAD1A16822F0A3
:102FA00070020A439842E6DD604505D040F6000114
:102FB000C4F20001884203D1216922F440720A431D
:102FC000A36922F08001D4F804E0E2681943604567
:102FD0000160C262C0F828E002D16169CCF830100B
:102FE000012141610269D20703D0026922F0010286
:102FF0000261002084F8461084F83E1084F83F10E7
:1030000084F8401084F8411084F8421084F843108A
:1030100084F8441084F8451084F83D1010BD000079
:10302000704700007047000041B1082910D0042902
:1030300014BF00F1410200F13F020BE090F83E2086
:10304000012A1CBF01207047022280F83E2013E0B5
:1030500000F140021278012A1CBF012070470222B1
:10306000082907D0042914BF80F8412080F83F20A8
:1030700002E000BF80F84020006801F01F0101223B
:10308000036A8A4023EA02010162036A42F644416C
:10309000C4F201011A43A1F14403984202620FD025
:1030A00040F2FF71C4F20001884213DCB0F1804F9E
:1030B0001CD040F20041C4F20001884216D01CE04E
:1030C0000A6842F400420A6040F2FF71C4F2000153
:1030D0008842EBDD42F60041C4F20101884205D08E
:1030E00040F60001C4F20001884206D1816801F077
:1030F0000701062904BF00207047016841F0010163
:103100000160002070470000B0B540F20045044661
:10311000C4F20005006805F59431884202D0A84247
:1031200010D104E003F048FB2068A8420AD101F066
:10313000F9FA38B942F2F030C2F20000FFF7B2FB00
:1031400000206862206805F58061884218BFB0BD24
:10315000BDE8B04003F04ABD70470000FEE7000044
:1031600040F20041C4F20001C862086920F0010089
:103170000861C86840F00100C860086840F00100BC
:1031800008607047B0B54BF6E870C0F60000016803
:10319000103106D1C469806980F30888FDF702FC0C
:1031A000A04740F2D014C2F20004FF20E07140F6C4
:1031B000C410C2F2000001210176FDF7B5F9EFF36A
:1031C000108072B640F24C20C2F20000002580F858
:1031D000405080F8415080F842508561C5610562D9
:1031E00045628562C562056345638563C563642086
:1031F00062B6FDF7E7FB4EF6FC50CEF20000016828
:1032000041F08071016041F20000CEF200004560A3
:10321000016841F0010101604068A067B0BD000095
:10322000F0B581B00120FDF7CDFB40F2D015C2F220
:103230000005E87FC8B941F20400CEF20000006842
:10324000A96F401A48F63961C3F6E301A0FB0101FA
:10325000C1F3CF004EF66121884206D30120E87702
:103260004FF6FF7068840020A8712878F8B100201C
:10327000287040F6C410C2F2000000F023FEB0B186
:103280000A20FDF79FFB40F6C410C2F2000000F0D8
:1032900019FE60B10A20FDF795FB40F6C410C2F29A
:1032A000000000F00FFE10B10A20FDF78BFB287F15
:1032B00001281CBF01B0F0BD40F6C4140027C2F2C3
:1032C00000042F77E06940F208062867607EC2F2AA
:1032D000000670706F76FDF727F9EFF3108072B675
:1032E00040F24C20C2F2000080F8407080F841703B
:1032F00080F842708761C761076247628762C76270
:10330000076347638763C763062062B620766F67EB
:103310006F7004F1080207CA64272864286C1044FF
:1033200001386864696600BF6420FDF74BFB686E76
:10333000E96E884204D0013FF6D1042167E000BF66
:1033400040F210410020C2F200016876A876E876CB
:103350006870C1F82C05A1F83005687128713070CB
:10336000E879032818D1608CA885D4E90431A068D5
:10337000E985B5F92E10421AB5F92E10184440F619
:103380004423C2F200030844C3E90120E97800297C
:103390004FF000013BD11DE0208C40F64427F08027
:1033A000608CC2F20007B08094F82400A88494F8DE
:1033B0002500E88494F826002885A068D4E9043123
:1033C000421A08441844C7E90120E97800294FF05F
:1033D00000011CD10123E974EB70A9706B6D6F6D56
:1033E0009342A2EB0706C8BFBE1A6B6D6F6D834296
:1033F0003B46CCBF03460746FB1A9E42BCBF012199
:10340000104681F00101286529720021E9632046F8
:10341000217601B0BDE8F04000F054BD80B541F622
:10342000805040F23401C2F20000C2F200010022DA
:1034300001F066FD002818BFFCF7C0FF41F6805080
:1034400040F25401C2F20000C2F2000101F088FF14
:10345000002818BFFCF7B2FF41F6805040F2281157
:10346000C2F20000C2F2000101F0A6FA002818BF63
:10347000FCF7A4FF41F68050C2F2000001F086FF85
:10348000002808BF80BDBDE88040FCF797BF000062
:10349000FEE700002DE9F04798B040F2D719C2F2DC
:1034A000000999F80010814200F04781044641F27A
:1034B0001800C4F2020050F80C1C40F6004A41F417
:1034C000006140F80C1C50F80C1CC4F2010A21F4F5
:1034D0000061002C40F80C1C7AD00168012741F0F3
:1034E000080101600168002601F0080100910099BF
:1034F0000168022541F400610160016801F4006186
:1035000000910099016841F001010160006814A96F
:1035100000F00100009000984FF4004014905046D5
:10352000159716961795FDF75FFB50464FF400412F
:103530000122FDF767FC032C66D14FF4C040CDE9B2
:1035400014070320179014A950461696FDF74CFB5C
:1035500050464FF400510022FDF754FC50464FF402
:1035600080410022FDF74EFC42F260350AF5005022
:10357000C2F20005482142F2107285E84300284655
:103580000396CDE90166CDE90866C5E90326C5E9DC
:103590000566FFF77FF84FF4805000906946284693
:1035A000FFF79EF928460821FFF73AFB08A92846AD
:1035B000FFF732F8192001210022FDF7BFFC192086
:1035C000FDF7A8FC286846622846FFF733F9B2E009
:1035D00050F80C1C002441F4006140F80C1C50F819
:1035E0000C1C21F4006140F80C1C4FF46040CDE944
:1035F00000046946504603940294FDF7F5FA89F8F1
:10360000004018B0BDE8F0874FF4005014A961C124
:103610000320179014A95046FDF7E6FA4FF48040B6
:10362000022C149006D10220159014A95046FDF7E3
:10363000DBFA0BE00120159014A95046FDF7D4FAEF
:1036400050464FF480410022FDF7DCFB42F260352A
:103650000AF50050C2F20005072142F20F7242F64D
:103660002048012C08BF0F2108BF41F287320027F4
:1036700085E883002846C4F20108C5E90327C5E9A7
:103680000577FFF707F84FF48050109010A92846EF
:103690001397CDE91177FFF723F92846FFF742FC8E
:1036A000602008AECDE90807284631460022CDE962
:1036B0000A77CDE90C770E97FFF72EFB28463146A7
:1036C0000422FFF729FB4FF4005006970590694646
:1036D00028460497CDE90277CDE900770797FEF7F2
:1036E00075FF192002210022FDF728FC1920FDF7A3
:1036F00011FC2846FFF79EF828460021FFF794FCAE
:10370000D8F82400022C40F40040C8F82400D8F86F
:10371000000040F00400C8F800000CD142F2603014
:10372000C2F200000421FFF77FFCD8F8000040F04F
:103730004000C8F8000089F8004018B0BDE8F087E4
:10374000F0B581B040F2D71741F288354EF6784196
:10375000C2F20007A842B8BF0546CFF6FF7138781D
:1037600042F634448D4240F2DC16C4F20104D8BF64
:103770000D460128C2F2000604D0022825D001B06F
:10378000F0BD00BF3078002D294648BF69420028AF
:1037900040F2DB1041F2883218BF511A2160C2F2A8
:1037A000000000780022B5F1FF3FC8BF01220028C9
:1037B00040F60040C4F201004FF4804108BFEA0F18
:1037C000FDF720FB38780228D9D1307840B141F29A
:1037D0008830411B28442160606001B0F0BD00BF0B
:1037E00041F2883029182160401B606001B0F0BDB3
:1037F000FEE700002DE9F04186B0002800F0F481DA
:10380000044600781138162800F2EE81DFE810F047
:103810001800EC014400EC015400C400F800200141
:103820003201EC01EC01EC01EC01EC014E016A010A
:103830007801A401F0011E0228007202840200BF78
:1038400040F64415C2F20005681C21463F22FCF7F1
:10385000DBFCA88806B0BDE8F04100F0F3BF00BF74
:1038600040F68425C2F20005681C21463F22FCF781
:10387000CBFC688A40F2D014C2F200046086A88AA9
:10388000A086287A697E0128217540F08182E86847
:103890006066002028727DE240F68415C2F20005C1
:1038A000681C21463F22FCF7AFFCA88806B0BDE8A3
:1038B000F04100F0CFBF00BF40F2D024C2F20004BC
:1038C0001520607000254FF6EC70E570C0F6000022
:1038D0000168426848F2573604F1280CC7F6E5261D
:1038E0008368C76800698CE88E0072404AF6B1466A
:1038F000CFF6401640F2000CB74244F22B27C1F23B
:10390000300C18BF2846C5F6D80781EA0C01BB4227
:1039100018BF2846114318BF284660614BF6E8706F
:10392000C0F600004168826849F2667604F1180E1C
:10393000C2F24F46C368076940698EE88E00724044
:1039400043F2FA66C0F64F46B74241F2F26718BF3B
:103950002846C8F6400781EA0C01BB4218BF28463A
:10396000114318BF28462061FDF758FA6060FDF743
:103970005BFAA060FDF75EFAE06040F2D0102570BF
:10398000C2F20000416DC26EA1632046E26306B040
:10399000BDE8F04100F096BA40F29025C2F2000571
:1039A000681C21463F22FCF72FFC6C68B4F1006FC5
:1039B0001FD3AD68FDF7F2F840F2FF336219CFF67E
:1039C00000031A44002004F17841920A40F2FF33C8
:1039D000059021EA0303CDE90000A2EB912003F159
:1039E00000630390684605A90293FCF7FFFFFDF70B
:1039F00075F840F29020C2F2000000F063FAF3E0A4
:103A000040F2D035C2F20005681C21463F22FCF787
:103A1000FBFBEC78FDF7C2F87CB1E01C20F003045E
:103A2000002600BF6868A9198A683118022000239F
:103A3000FDF75EF80436B442F4D1FDF74FF840F2DA
:103A4000D030C2F2000006B0BDE8F04100F03ABA52
:103A500040F29035C2F20005681C21463F22FCF777
:103A6000D3FB4FF4C0512846298006B0BDE8F04191
:103A700000F028BA40F21030C2F2000001302146B6
:103A80003F22FCF7C1FBFDF789F84BF6E871C0F661
:103A9000000102206FF00F020023FDF729F8FDF767
:103AA0001DF806B0BDE8F041FDF784BA40F6C42524
:103AB000C2F20005681C21463F22FCF7A5FB40F23C
:103AC000D010C2F20000416D6960418C2981018CE7
:103AD0006981017A2846297306B0BDE8F04100F0FB
:103AE000F1B900BF40F25030C2F20000013021466F
:103AF0003F22FCF789FB06B0BDE8F041FDF75ABA5A
:103B000041F64055C2F20005681C21463F22FCF7F1
:103B10007BFBA88848F21F5280B2411EC5F2EB120F
:103B200081FB0223DA1002EBD372192302FB13117B
:103B30004000A0EB410041F2D421C2F20001084450
:103B40000238A91D3222FCF75FFB284606B0BDE80B
:103B5000F04100F0B7B900BF40F21045EFF310801C
:103B600072B6C2F2000595F82A0595F82B15884221
:103B700003D26078012840F089810120607095F8B7
:103B80002A05A07062B6EFF3108072B6E07B0128C0
:103B900003D1D4F80700FCF749FD40F24C20C2F2F3
:103BA000000090F8420040F6C411C0F10A00E07332
:103BB00062B6B4F80D00C2F20001C880B4F80B0080
:103BC00040F20802C2F20002908040F2D012C2F22B
:103BD00000029085508CA4F80B00506FC4F80300CD
:103BE000087E002800F0428106B0BDE8F08100BFE9
:103BF00040F6C415C2F20005681C21463F22FCF7BE
:103C000003FB2C7E002C00F037810020002700F001
:103C100019FE40F2D016C2F200064FF00108777686
:103C2000377786F80280F079032808D00020F770F3
:103C30003784F76337727772B772FFF781FD2C769E
:103C400086F8008006B0BDE8F08100BF40F644254C
:103C5000C2F20005681C21463F22FCF7D5FAE87D38
:103C600095F82F1040F2D014C2F200040128A1747C
:103C700003D1E86820650020E87595F8271095F8CD
:103C8000282095F82900E2722173FFF703FC95F8CC
:103C9000261095F825004FF4807200294FF040015E
:103CA00008BF402208BF4FF480710128E2862187B7
:103CB00005D1002060652065E86085F82500A87DB5
:103CC000012840F09580288A40F20801C2F20001E4
:103CD000C880688A888095F82200A08495F823001F
:103CE000E08495F824002085D5E9010102F036FD35
:103CF0008DE000BF40F60425C2F20005681C214695
:103D00003F22FCF781FAA86800F06EFDA88806B093
:103D1000BDE8F04100F09EBD41F60055C2F200053D
:103D2000681C21463F22FCF76FFAA88848F21F5210
:103D300081B2481EC5F2EB1280FB0223DA1002EBBF
:103D4000D372192302FB03F7FF087C2F16D802FB5E
:103D50001302480040F60433511AA0EB4200C2F2AD
:103D6000000301F57A711844182928BF182102228E
:103D7000023802EB4102A91DFCF746FA41F6005059
:103D8000C2F2000006B0BDE8F04100F09BB800BFF1
:103D9000606EE860E87E012804D10020E06660667D
:103DA000E860E87640F20800C2F200008078A97D61
:103DB000EA7D4B1EA1F10101B1FA81F14FEA5111E7
:103DC000A876287E18BF01236175511EA2F1010259
:103DD000B2FA82F24FEA5212A37518BF0121E275BE
:103DE000217602F0DBFEE06E2521686036E000BF40
:103DF0000120A070E07940F2080103281CBF0020D8
:103E0000E070288AC2F20001C880688A888095F82C
:103E10002E0002F07FFCA88DA085688DE08595F8C6
:103E2000280095F82710421EA0F10100B0FA80F09A
:103E30004FEA501018BF0122A073481EA1F10101E2
:103E4000B1FA81F14FEA5111E27318BF01202174D8
:103E50006074606D2421A861608CA8832846A5F851
:103E6000011006B0BDE8F04100F02CB8601E06B0AD
:103E7000BDE8F04100F026B840F2D010C2F20000D8
:103E80000121017706B0BDE8F08100BF95F8290552
:103E900095F82B0562B695F829052C2100FB0151F8
:103EA00004F113002C22FCF7C5FA0020607095F88D
:103EB0002A05A070EFF3108072B6E07B01283FF472
:103EC00068AE6AE6014641F68050C2F20000402228
:103ED00000F07ABD704700002DE9F04100F06EFC63
:103EE00040F2D014C2F20004218FE28E014018BFCC
:103EF0000121104018BF0120627F41EA4001914238
:103F000000F00F81607F0FF2BC3241EA8000125650
:103F1000636D1A44626549F26962C240D2076177F3
:103F200040F0B58041F20401CEF200010A68A16FB1
:103F300048F63963511AC3F6E303A1FB0331C1F319
:103F4000CF034EF66026B342A26707D34EF65F2139
:103F500001F5AD516184012100220BE0C9086184A3
:103F60004DF2EB71C140C9074FF0FF324FF0000135
:103F700008BF0122A27142F6140222FA00F0C00723
:103F8000E17700F08480A07E002800F08080606DE2
:103F9000216C013988427AD16078002877D1E07E9F
:103FA0000130E076E07E032871D340F208014FF043
:103FB000000E0120C2F2000184F81AE0607684F855
:103FC00004E081F800E04878002857D040F2104221
:103FD00040F24C28C2F20002C2F200084FF02C0C52
:103FE000002520E092F82805B2F8303500FB0C20BF
:103FF000C05CA2F83205B2F830050130A2F83005F5
:10400000B2F83205D2F82C35F04000F0010001334F
:10401000C2F82C35237908EB83032B4418744878B5
:10402000013585422AD292F82A0528B392F828054C
:10403000D2F82C6516F00706E2D1B2F830752C2FB5
:10404000D2D392F82A0578B192F8280592F82B7508
:104050000130B0FBF7F303FB170082F8280592F854
:104060002A05013882F82A05A2F830E592F82A05D7
:104070000028B7D10120CDE70020CBE704F1640090
:10408000FCF7AAFA002800F0178100206067607E24
:10409000002846D0606D216C884204DB606D616C45
:1040A000884240F379800020002500F0CBFB657149
:1040B000A079012832D1606D616C88422EDD607874
:1040C00060BB002000F0BEFBEFF3108072B640F240
:1040D0004C20C2F2000090F84210002900F0E68067
:1040E00090F841104CF6CD4200EB81018969616680
:1040F00090F8411001314A43D20C02EB8202A1EB4D
:10410000420180F8411090F84210013980F84210C5
:1041100062B6606F0130606701206070A079FF288F
:1041200002D0BDE8F08100BF606D216C8842F8DAF2
:104130006078012818BFBDE8F0810020002500F05C
:1041400081FBEFF3108072B640F24C20C2F2000007
:1041500090F84210002900F0A38090F841104CF62E
:10416000CD4200EB81018969616690F8411001310F
:104170004A43D20C02EB8202A1EB420180F84110CB
:1041800090F84210013980F8421062B6606F013039
:1041900060676570BDE8F08140F20805C2F2000575
:1041A000287840F24C2820712079C2F2000808EBF0
:1041B000800040F6C411007CC2F20001C9880028CA
:1041C00008BF014688B200F03DFB6878022807D39B
:1041D00001206071608C6978B0FBF1F0FEF7C0FFE0
:1041E000207980F001002870687800283FF460AFE3
:1041F00040F210414FF0000CC2F200014FF02C0EC3
:10420000002322E091F82825B1F8306502FB0E1258
:10421000925DA1F83225B1F830250132A1F83025A0
:10422000B1F8322522FA00F0D1F82C2500F0010077
:104230000132C1F82C252A7808EB82021A44107446
:10424000687801338342BFF433AF91F82A0528B36D
:1042500091F82825D1F82C0510F00700E0D1B1F82D
:1042600030752C2FD0D391F82A257AB191F82825D2
:1042700091F82B750132B2FBF7F606FB172281F895
:10428000282591F82A25013A81F82A25A1F830C578
:1042900091F82A25002AB5D10120CCE70020CAE7F1
:1042A000012062B6BDE8F04100F064BA012062B6B8
:1042B000BDE8F04100F05EBA0120BDE8F04100F039
:1042C00059BA00BF00FF0100010000FFFF0000011C
:1042D0000001FF002DE9F04741F2040140F2D01542
:1042E000CEF20001C2F200050A68A96F48F63963F0
:1042F000511AC3F6E303A1FB03318246C1F3CF0099
:104300004EF660239842AA670CD34EF65F2000F564
:10431000AD50688401200021BAF1010FA971E8773E
:104320000FDAB6E0C808688401210020BAF1010F55
:10433000B8BF4FF0FF31BAF1010FA971E877C0F2B1
:10434000A880A87E002800F0A480686D296C01393F
:10435000884240F09E806878002840F09A80E87E8D
:104360000130E876E87E0328C0F0938040F2080927
:104370004FF0000E0120C2F2000985F81AE06876BD
:1043800085F804E089F800E099F80100002859D088
:1043900040F2104240F24C28C2F20002C2F2000881
:1043A0004FF02C0C002621E092F82805B2F83015C9
:1043B00000FB0C20405CA2F83205B2F83005013059
:1043C000A2F83005B2F83205D2F82C15F84000F00A
:1043D00001000131C2F82C15297908EB8101314423
:1043E000087499F80100013686422BD292F82A050A
:1043F00030B392F82805D2F82C7517F00707E1D1F1
:10440000B2F830352C2BD1D392F82A0578B192F836
:10441000280592F82B350130B0FBF3F101FB1300B6
:1044200082F8280592F82A05013882F82A05A2F8B0
:1044300030E592F82A050028B6D10120CCE700BF6C
:104440000020C9E7EFF3108072B640F24C20C2F2B0
:10445000000090F84210002900F05E8190F84110B1
:104460004CF6CD4200EB81018969696690F84110F4
:1044700001314A43D20C02EB8202A1EB420180F8E7
:10448000411090F84210013980F84210002062B6C5
:104490006867687E002800F08580686D296C884216
:1044A00004DB686D696C884240F37E800020002444
:1044B00000F0C8F96C71BAF1010F37DB686D696CF7
:1044C00088426FDD687800286CD10020002400F05D
:1044D000B9F9EFF3108072B640F24C20C2F200003E
:1044E00090F84210002900F0E38090F841104CF65B
:1044F000CD4200EB81018969696690F84110013174
:104500004A43D20C02EB8202A1EB420180F8411037
:1045100090F84210013980F8421062B6686F01309D
:10452000686701206870BDE8F08700BFBAF1FF3FFF
:1045300038DC686D296C884234DA6878012818BF45
:10454000BDE8F0870020002400F07CF9EFF3108034
:1045500072B640F24C20C2F2000090F842100029DE
:1045600000F0BC8090F841104CF6CD4200EB810188
:104570008969696690F8411001314A43D20C02EB17
:104580008202A1EB420180F8411090F842100139FB
:1045900080F8421062B6686F013068676C70BDE8E1
:1045A000F08700BFBDE8F08740F20806C2F20006BF
:1045B000307840F24C2828712879C2F2000808EBC4
:1045C000800040F6C411007CC2F20001C9880028B6
:1045D00008BF014688B200F035F97078022807D389
:1045E00001206871688D7178B0FBF1F0FEF7B8FDBD
:1045F000287980F001003070707800283FF45BAFBC
:1046000040F210414FF0000CC2F200014FF02C0EAE
:10461000002322E091F82825B1F8304502FB0E1264
:10462000125DA1F83225B1F830250132A1F830250C
:10463000B1F8322522FA00F0D1F82C2500F0010063
:104640000132C1F82C25327808EB82021A4410742A
:10465000707801338342BFF42EAF91F82A0528B356
:1046600091F82825D1F82C0510F00700E0D1B1F819
:1046700030452C2CD0D391F82A257AB191F82825F1
:1046800091F82B450132B2FBF4F707FB142281F8B5
:10469000282591F82A25013A81F82A25A1F830C564
:1046A00091F82A25002AB5D10120CCE70020CAE7DD
:1046B000002062B600F0C6F86C762C770124AC704E
:1046C000E87903281FD00020E8702884E863287266
:1046D0006872A8720020FFF733F814E0002062B679
:1046E00000F0B0F86C762C770124AC70E8790328E0
:1046F00009D00020E8702884E86328726872A872E4
:104700000020FFF71DF840F6C410C2F20000047646
:104710002C70BDE8F08700BF012062B6BDE8F0470D
:1047200000F028B810B540F2D014C2F2000420798D
:1047300040F24C226179C2F2000202EB8000084490
:1047400040F6C411007CC2F20001C988002808BFED
:10475000014688B200F076F860790130607140F26D
:104760000800C2F20000617942780020914228BF1F
:10477000012010BDF0B581B004460020002700F0F4
:1047800061F840F2D015C2F2000501266F762F774E
:10479000AE70E879032808D00020EF702F84EF6313
:1047A0002F726F72AF72FEF7CBFF40F6C410C2F2E9
:1047B000000004762E7001B0F0BD000040F6084005
:1047C00040F2062140F20822C4F20100C2F20001C8
:1047D000C2F200020068098812881143084080B2C2
:1047E000704700007047000010B50446FDF7E6FC76
:1047F00041F20401C4F2020109684FF6FF72C1F3ED
:104800008021884048F21F51C5F2EB11A0FB010145
:104810004809B0FBF4F0904238BF0246B4EB511F98
:1048200042F2A831C2F20001A2F101000A6888BF79
:10483000002090626320D062C86001205061002097
:10484000506210BD42F2A831C2F20001096848630B
:104850007047000042F2A831C2F200010968886383
:1048600070470000FCF7ECBA7047000042F260307D
:10487000C2F20000FEF704B942F2A830C2F2000012
:10488000FEF7FEB842F2F030C2F20000FEF7F8B8D0
:1048900042F23840C2F20000FEF7F2B8D0F8B81287
:1048A0000022002081F8502070470000B0B5044677
:1048B000D0F8BC02D4F8B852C2682878697890471A
:1048C000204601212A46402300F062FC0020B0BDB2
:1048D000B0B58121044600F03DFB002520460121B2
:1048E000E56200F037FBD4F8B802C4F86C5148B167
:1048F000D4F8BC0280688047D4F8B80200F092FF78
:10490000C4F8B8520020B0BD10B5D0F8B842E16C80
:10491000012907D1D0F8BC026178C268207890479D
:104920000020E064002010BD014640F2F0000A22A1
:10493000C2F200000A807047014640F28C00292232
:10494000C2F200000A807047014640F2B8002922F6
:10495000C2F200000A807047014640F2FC002922A2
:10496000C2F200000A80704770B581210322402303
:10497000044600F0F9FB01252046012103224023D3
:10498000E56200F0F1FB5420C4F86C5100F04CFFDC
:10499000C4F8B80268B10646D4F8BC0200254068E5
:1049A00086F850508047204601213246402300F0CF
:1049B000EFFB284670BD000000290EBF0220C0F8A2
:1049C000BC1200207047000080B590F89C32032B89
:1049D0001CBF002080BDD0F8B83294460A4693F838
:1049E000501000294FF0010102D0084680BD00BFE1
:1049F00083F850108121634600F094FC00210846A2
:104A000080BD000080B582B00A78D0F8B8C200231B
:104A100012F06002ADF8063010D0202A4AD14A7850
:104A2000023A092A46D8DFE802F0054B45454545DC
:104A300045535D630CF1440144E000BF4A780B2A02
:104A400038D8DFE802F007373737373713373737CB
:104A5000252D00BF90F89C22032A2BD10DF10601D1
:104A6000022200F09FF8002002B080BDCA78212AFF
:104A700044D0222A50D1CA88D0F8BC12222A096810
:104A800028BF222200F08EF8002002B080BD00BFB7
:104A900090F89C22032A0DD10CF1480112E000BFCE
:104AA00090F89C22032A05D18878CCF84800002091
:104AB00002B080BD00F050F8022002B080BD00BFFF
:104AC0000CF14001012200F06DF8002002B080BD21
:104AD000CA8801236146CCF84C3000F049F8002028
:104AE00002B080BDC878CCF84400002002B080BD80
:104AF0008878CCF84000002002B080BDCA8840F21F
:104B0000E401C2F20001092A28BF092200F04AF894
:104B1000002002B080BD00BF0022002100F042F85A
:104B2000002002B080BD000080B5D0F8B4225268E9
:104B30009047002080BD000080B513460A46002142
:104B400000F026FB002080BD80B513460A460021F8
:104B500000F0E8FB002080BD10B58021044600F085
:104B6000B3FB20460021BDE8104000F0ADBB0000C3
:104B700080B513460A460321C0F894120021C0E90B
:104B8000573300F005FB002080BD000080B50521F3
:104B9000C0F8941200210022002300F0F9FA00204E
:104BA00080BD000080B513460A460221C0F8941269
:104BB0000021C0E9073300F0B5FB002080BD0000F4
:104BC00080B50421C0F8941200210022002300F0D7
:104BD000A9FB002080BD000010B541F6A824C2F258
:104BE00000040A4602A0214600F01CF9204610BD30
:104BF000437573746F6D2048494420436F6E666936
:104C00006700000040F238101222C2F200000A8051
:104C10007047000010B541F6A824C2F200040A460D
:104C200002A0214600F0FEF8204610BD43757374C3
:104C30006F6D2048494420496E74657266616365F2
:104C40000000000040F24C100422C2F200000A8072
:104C50007047000010B541F6A824C2F200040A46CD
:104C600002A0214600F0DEF8204610BD53544D69E5
:104C700063726F656C656374726F6E696373000055
:104C800010B541F6A824C2F200040A4602A021464B
:104C900000F0C8F8204610BD53544D333220437500
:104CA00073746F6D2048756D616E20696E746572E6
:104CB0006661636500000000B0B54FF2E870C1F6B0
:104CC000FF70026883684FF01A0C9B18A1F800C0AF
:104CD00000F0A3804FF0370C1A0F0CEB13714068F3
:104CE000B3F1204F38BF02F1300140F25012C2F24E
:104CF0000002917019014FF0000E0CEB117582F853
:104D000003E0C3F30364B1F1204F38BF04F1300571
:104D1000190215710CEB117582F805E0C3F3035409
:104D2000B1F1204F38BF04F13005190395710CEB38
:104D3000117582F807E0C3F30344B1F1204F38BF87
:104D400004F13005190415720CEB117582F809E0B5
:104D5000C3F30334B1F1204F38BF04F13005190516
:104D600095720CEB117582F80BE0C3F30324B1F1DB
:104D7000204F38BF04F1300519061573C3F303142F
:104D80000CEB1175B1F1204F4FEA037103F00F03E3
:104D900082F80DE038BF04F1300503F13704957354
:104DA00082F80FE0B1F1204F38BF03F13004010F5A
:104DB0000CEB1073147482F811E0B0F1204F38BF7F
:104DC00001F1300301010CEB1174937482F813E0CC
:104DD000C0F30363B1F1204F38BF03F13004010287
:104DE0001475C0F303530CEB1174B1F1204F4FEA6B
:104DF000003182F815E038BF03F130040CEB117379
:104E0000947582F817E0C0F30340B1F1204F38BF2A
:104E100000F13003137682F819E040F25010C2F22C
:104E20000000B0BD10B5002868D00378B3B100F120
:104E3000020E4FF0000C00BF1EF8013C93B19EF82B
:104E400000309BB19EF80130A3B19EF802300CF106
:104E5000040C002B0EF1040EEED10DE04FF0000C0F
:104E60000AE000BF4CF0010C06E000BF4CF0020C61
:104E700002E000BF4CF0030C5FFA8CFC022303EB52
:104E80004C03138003220B704A7090F800E0BEF1CF
:104E9000000F33D0023002224FF0000C1AE000BFA6
:104EA000141DE4B244F0010E0B5501F80EC0437816
:104EB000002B08BF10BD941DE4B244F0010E0B5549
:104EC00001F80EC090F802E00832BEF1000F00F1C8
:104ED000040013D0D3B243F0010401F803E001F859
:104EE00004C010F8013C4BB1941CE4B244F0010E34
:104EF0000B5501F80EC00378002BD1D110BD000076
:104F0000002804BF0220704780B5D0F8B432002BCF
:104F10001CBF0023C0F8B432002918BFC0F8B0127B
:104F2000012180F89C12027000F0D2F8002080BDB0
:104F300080B5D0F8C002FCF79DF840F200220223B1
:104F4000C100C0F20122042838BF22FA01F3D8B20E
:104F500080BD000080B5D0F8C002FCF763F840F2D5
:104F600000220223C100C0F20122042838BF22FA25
:104F700001F3D8B280BD0000B0B5044671B1D4F8D9
:104F8000B402426942B194F89C02032804D120463D
:104F90009047002054E000BF0220B0BDD4F8940236
:104FA000002818BF042805D12046802100F08CF984
:104FB0003DE000BF02283AD1D4E90810814209D966
:104FC000081A83B22062204611461A46FFF7BCFD3C
:104FD00014E000BFE169814218D3B1FBF0F202FB9B
:104FE000101098B9D4F8980281420FD220460021BF
:104FF00000220025FFF7A8FDC4F8985220460021A2
:105000000022002300F0C4F811E000BFD4F8B4027D
:10501000C16829B194F89C02032801D12046884731
:105020002046802100F050F92046FFF7AFFD94F8AC
:10503000A00201284FF0000004BF84F8A002B0BD18
:10504000B0BD0000B0B5044671B1D4F8B4028269B5
:1050500042B194F89C02032804D1204690470025D1
:105060001CE000BF0220B0BDD4F894020025052842
:1050700016D0032812D1D4E95810814218D9091A40
:10508000C4F86011814238BF084683B220461146F9
:105090001A46FFF751FD0020B0BD00BF2846B0BD45
:1050A00020460021C4F8945200F00EF92846B0BD05
:1050B000D4F8B402016929B194F89C02032801D103
:1050C000204688472046FFF77BFD0020B0BD00004A
:1050D00010B5044642F2880045F60041C2F20000D5
:1050E000C4F20001016008210171022181710021D7
:1050F000C0F8D442C4F8C00241810173FCF74EFDF0
:10510000002818BFFBF75AF9D4F8C002002100228A
:105110001823FBF751FFD4F8C00280210022582346
:10512000FBF74AFFD4F8C002812100229823FBF745
:1051300043FFD4F8C00201210022D823FBF73CFF33
:10514000002010BD4AB2D0F8C00201F07F0101EB8F
:10515000810100EBC10000F5A971002A48BF00F1F0
:10516000120108787047000080B59446D0F8C0025C
:105170001A466346FBF7B0FF40F200220223C1004B
:10518000C0F20122042838BF22FA01F3D8B280BD50
:1051900080B5D0F8C002FBF7CFFF40F20022022317
:1051A000C100C0F20122042838BF22FA01F3D8B2AC
:1051B00080BD0000F0B581B00021002240230446EC
:1051C00000254026FFF7D0FF01272046802100223E
:1051D0004023C4F85871C4F86461FFF7C5FFD4F8E0
:1051E000B802A761666284F89C72C4F89452656044
:1051F000C4F8A45228B1D4F8B40200214268204671
:105200009047002001B0F0BD90F89C12042904BF23
:1052100090F89D1280F89C120020704780B590F89D
:105220009C12032905D1D0F8B412C969002918BF0E
:105230008847002080BD000002460020117470479E
:1052400080B5D0F8C002FCF709FE40F2002202232C
:10525000C100C0F20122042838BF22FA01F3D8B2FB
:1052600080BD0000B0B500F52A750446284600F060
:105270006BF894F8A8020121B4F8AE22C4F8941295
:1052800000F01F010229C4F8982209D001290DD08D
:1052900091B92046294600F07FF80020B0BD00BF3C
:1052A0002046294600F0DEF90020B0BD2046294600
:1052B00000F07CFA0020B0BD00F08001204600F034
:1052C00003F80020B0BD000080B5D0F8C002FBF7A5
:1052D0004DFF40F200220223C100C0F20122042847
:1052E00038BF22FA01F3D8B280BD000080B5D0F8F3
:1052F000C002FCF7CFFD40F200220223C100C0F241
:105300000122042838BF22FA01F3D8B280BD000080
:10531000014690F89C02042281F89D02002081F849
:105320009C22704780B5D0F8C002FBF75DFF40F2C9
:1053300000220223C100C0F20122042838BF22FA51
:1053400001F3D8B280BD00000A7802704A7842703A
:105350004A8842808A888280C988C180704700005C
:1053600000290EBF0220C0F8B412002070470000D0
:1053700080B5D0F8B4223AB112689047002818BF1F
:105380000120400080BD00BF022080BD80B5FFF736
:10539000ADFF002080BD0000B0B582B00D46097899
:1053A000044611F060010DD0402902D0202940F0C0
:1053B0004D81D4F8B40229468268204690470020E7
:1053C00002B0B0BD6878092800F24081DFE810F033
:1053D0000A0024003E0130003E0166008A003E01C2
:1053E0003800460094F89C020138022800F22E8111
:1053F000E888022840F02A81D4F8A4020322002879
:1054000008BF0122214641F80C2F20460222FFF757
:10541000C9FB002002B0B0BD94F89C0201380228FC
:1054200000F2148168880128C9D1002004E000BF7F
:1054300068880128C3D10120C4F8A40200E100BF9C
:10544000E888012840F0028194F89C02411E02295C
:105450005ED20020214641F8080F5DE0688841F6E1
:10546000A425C1B2C2F200050229287080F0EE80A6
:1054700094F89C02032857D0022840F07780002936
:1054800000F0DE80032084F89C0220466160FFF774
:105490006FFF022840F0D480D8E000BFA888002821
:1054A00040F0D480E888002840F0D08068887F28C9
:1054B00000F2CC8094F89C12032900F0C780C5B29A
:1054C00084F89E0220462946FFF7BAFE2046FFF7E1
:1054D00077FB002D0CBF0120022084F89C020020E5
:1054E00002B0B0BD68884FF0FF3101EB10210022FF
:1054F0000629ADF8062000F2A980DFE801F0054793
:1055000029A7A7555F0000BFD4F8B002026881E068
:10551000032840F09B80211D20460122FFF742FB1B
:10552000002002B0B0BD00BF002955D0606801283E
:1055300000F08680C1B22046FFF7F6FA29782046AF
:105540006160FFF715FF022840F07A807EE000BF1F
:10555000C0B2052800F27A80DFE800F004484C5021
:10556000545800BFD4F8B002426852E0204680216F
:10557000FFF7AAFE20460021FFF7A6FE2978204665
:10558000FFF7D2FA002002B0B0BD00BF217CD4F8F2
:10559000B40200290CBF816AC16A0DF10600884778
:1055A0000146022015E000BF207C00284ED1D4F82F
:1055B000B402416B0DF1060088472FE0207C0028E3
:1055C00044D1D4F8B402016B0DF1060088470146BE
:1055D0000720487023E000BF022084F89C020020CE
:1055E00060602046FFF7A0FA2AE000BFD4F8B002BE
:1055F00082680EE0D4F8B002C2680AE0D4F8B002C3
:10560000026906E0D4F8B002426902E0D4F8B002C0
:105610008269DAB1207C0DF1060190470146BDF8A0
:10562000060048B1EA883AB1904238BF02462046A7
:10563000ADF80620FFF7B6FAE88800287FF4BFAE81
:105640002046FFF7BDFA002002B0B0BD2046802101
:10565000FFF73AFE20460021FFF736FE002002B099
:10566000B0BD0000B0B50A460978044611F06001EB
:105670000CD0402901D0202920D1D4F8B402114601
:105680008368204698470020B0BD00BF507811794C
:10569000F0B1012834D0032866D194F89C02032885
:1056A00032D15088002871D111F07F006ED0D0889F
:1056B00000286BD12046FFF707FE67E020468021D7
:1056C000FFF702FE20460021FFF7FEFD0020B0BDDF
:1056D00094F89C02032825D0022808BF5FEA4160A5
:1056E00042D111F0800004F114014FF0140004BF06
:1056F0004FF4AA7004F5AA710022225020464FE010
:1057000094F89C02032839D002282DD148062BD0CA
:105710002046FFF7D9FD20468021FFF7D5FD002068
:10572000B0BD00BF01F00F0000EB8000802904EB4A
:1057300080002CBF8069D0F85801A8B101F07F002B
:1057400000EB800004EB800000F11405802938BFD5
:1057500000F5AA7548061FD02046FFF7F3FC002885
:1057600018BF012019E000BF20468021FFF7ACFDE3
:1057700020460021FFF7A8FD0020B0BD508800287A
:10578000A4D1480602D02046FFF7D2FB2046FFF7FF
:1057900017FA0020B0BD00BF00202860204629462F
:1057A0000222FFF7FFF90020B0BD0000B0B50D46A2
:1057B0000978044611F0600118BF402912D194F80D
:1057C0009C020138022803D8A88810F0FE0F15D0DB
:1057D00020468021FFF778FD20460021FFF774FD69
:1057E0000020B0BD2029EAD020468021FFF76CFDC3
:1057F00020460021FFF768FD0BE000BFD4F8B4029B
:105800002946826820469047E988002908BF002879
:1058100002D00020B0BD00BF2046FFF7D1F9002024
:10582000B0BD00007047000041F6A840C2F2000081
:10583000704700002DE9F0410D78024691F803E031
:1058400000EB850330F8250047F27067BEF1030FC7
:1058500020EA070408D80020DFE80EF002080F0C49
:1058600044F4007408E000BF012006E044F48064C2
:1058700002E000BF44F4C064002048F28007CFF685
:10588000FF7744EA07061E801E8840F60F74264004
:105890002E4337431F800F7B48F2800C002F49D0E6
:1058A0001C8840F60F66344048F28006BEF1020FB5
:1058B00008BF06F5807634431C80B2F850400E894C
:1058C00002EB05152C4426F00106A4F80064B2F89A
:1058D00050204C892A4424F00104A2F80844497855
:1058E0001A88002902F480414AD039B1198840F65B
:1058F0000F7211400CF58042114319801988490636
:1059000007D5198840F60F7211400CF1400211437F
:105910001980198840F63F7211400CF120024A406C
:10592000BEF1010F08BF41EA0C021A80198843F644
:105930000F7244E04E78B2F85080CC882F01002ED0
:1059400024F0010642D0D1194144A1F8006419881D
:10595000490607D5198840F60F7211400CF1400234
:1059600011431980198840F63F72BEF1010F01EA18
:10597000020125D00CF1200251401980BDE8F081D0
:1059800039B1198840F60F7211400CF5804211436D
:1059900019801988490607D5198840F60F721140F9
:1059A0000CF1400211431980198843F60F7211401F
:1059B0000CF5405251401980198840F63F72114051
:1059C00041EA0C011980BDE8F08100BFD41904EB55
:1059D0000807A7F80864B2F850E004F20C4434F861
:1059E0000E606FF39F2624F80E6009693F290DD3DE
:1059F000CF063EF804704FEA51164FF0FF3808BF4B
:105A000008EB511647EA862112E000BF71B101F0A0
:105A100001063EF8047006EB510147EA81212EF899
:105A20000410198849040DD414E000BF3EF8041096
:105A300048F20006CFF6FF7631432EF8041019889D
:105A4000490407D5198840F60F7739400CF580478F
:105A50003943198055B1198843F60F7211400CF57E
:105A6000005251401980BDE8F08100BF118843F613
:105A70000F7211400CF5405251401980BDE8F08181
:105A800000207047B0B50C784B78097B024630F89F
:105A900024004CF2800C4CF2800500294FEA4401AE
:105AA0003AD0002B00F4804040D040B132F81100D1
:105AB00040F60F73184040EA0C0022F8110032F84B
:105AC000110043F60F7E400640F63F7009D532F8CC
:105AD000113040F60F742340ACF57F54234322F875
